:020000040800F2
:10000000F81A00209D0500088102000883020008FC
:100010008F0200089B020008A702000800000000F1
:10002000000000000000000000000000B302000813
:10003000B502000800000000B3050008B702000880
:10004000B7050008B7050008B7050008BB0200089F
:10005000B7050008B7050008B9020008B705000891
:10006000B7050008B7050008B7050008B705000880
:10007000B7050008B7050008B7050008B705000870
:10008000B7050008B7050008B7050008B705000860
:10009000B7050008B7050008B7050008B705000850
:1000A000B7050008B7050008B7050008B705000840
:1000B000B7050008B7050008B7050008B705000830
:1000C000B7050008B7050008B7050008B705000820
:1000D000B7050008E717000875400008B7050008D5
:1000E000B7050008B7050008B7050008B705000800
:1000F000B7050008B7050008B7050008B7050008F0
:10010000B7050008B7050008B7050008B7050008DF
:10011000B7050008B7050008B7050008B7050008CF
:10012000B7050008B7050008B7050008B7050008BF
:1001300000F002F800F094F80AA090E8000C824465
:100140008344AAF10107DA4501D100F089F8AFF242
:10015000090EBAE80F0013F0010F18BFFB1A43F0A5
:10016000010318475C7600007C760000103A24BF3B
:1001700078C878C1FAD8520724BF30C830C144BF0C
:1001800004680C607047000000230024002500264E
:10019000103A28BF78C1FBD8520728BF30C148BFEA
:1001A0000B6070476E2904F03A85702905F0A7802E
:1001B000662907F0E280652907F0DF80672907F0EC
:1001C000DC806129AFF3008003681B0A28BF41F07F
:1001D0008001692904F0E080642904F0DD8075293C
:1001E00004F0DA806F2905F03580782905F07380F6
:1001F000E92904F0CF87E42904F0CC87F52904F03D
:10020000C987EF2905F03280F82905F0728003686C
:10021000DB0928BF41F08001632904F0508773296E
:1002200004F05587E32905F0E581F32905F0EA811B
:10023000002070471FB59DE8030004F01DFC05F089
:1002400023F904000020002106F0C6FA401C60607B
:100250000020002106F0AAFAE0601FBD10B510BD15
:1002600005F074FC1146FFF7E5FF01F039FE05F0DB
:1002700092FC03B4FFF7F2FF03BC05F003FD00009E
:1002800070470EA11C4801F08AFA00BFFEE71BA1CF
:10029000194801F084FA00BFFEE727A1164801F0D3
:1002A0007EFA00BFFEE733A1134801F078FA00BFE1
:1002B000FEE7704770477047704770470D0A2A2A5B
:1002C0002A2A2A2A2A2A2A2A2A2A2A2A2A2A2A2A8E
:1002D0002A486172644661756C745F48616E646C33
:1002E00065722A2A2A2A2A2A2A2A2A2A2A2A2A2AEB
:1002F0002A2A2A2A2A0D0A00003801400D0A2A2A31
:100300002A2A2A2A2A2A2A2A2A2A2A2A2A2A2A2A4D
:100310002A4D656D4D616E6167655F48616E646C05
:1003200065722A2A2A2A2A2A2A2A2A2A2A2A2A2AAA
:100330002A2A2A2A2A0D0A000D0A2A2A2A2A2A2AC1
:100340002A2A2A2A2A2A2A2A2A2A2A2A2A42757361
:100350004661756C745F48616E646C65722A2A2A06
:100360002A2A2A2A2A2A2A2A2A2A2A2A2A2A2A2AED
:100370000D0A00000D0A2A2A2A2A2A2A2A2A2A2AAB
:100380002A2A2A2A2A2A2A2A2A5573616765466157
:10039000756C745F48616E646C65722A2A2A2A2A19
:1003A0002A2A2A2A2A2A2A2A2A2A2A2A2A2A0D0AEA
:1003B000000000000CB50020019000906C4800681F
:1003C00040F480306A49086000BF6948006800F462
:1003D000003000900198401C0190009818B90198D5
:1003E000B0F5A06FF1D16248006800F4003010B1A0
:1003F0000120009001E0002000900098012843D1E6
:100400005C48006840F010005A49086008460068DF
:1004100020F0030008600846006840F00200086011
:10042000534840685249486008464068486008465A
:10043000406840F4806048600846406820F47C10C2
:1004400048600846406840F48810486008460068E4
:1004500040F08070086000BF4548006800F0007000
:100460000028F9D04248406820F003004049486025
:100470000846406840F00200486000BF3C484068C1
:1004800000F00C000828F9D10CBD10B5FFF792FF61
:1004900010BD10B53648006840F0010034490860CE
:1004A00008464068344908403149486008460068B9
:1004B000324908402E4908600846006820F4802030
:1004C00008600846406820F4FE0048604FF41F00B2
:1004D0008860FFF7DAFF4FF000602949086010BD1F
:1004E00010B5002100200022214B5B6803F00C01B5
:1004F00021B1042906D0082928D107E0214B224C3C
:10050000236027E0214B204C236023E0184B5B68DD
:1005100003F47010164B5B6803F48032022303EB84
:10052000904022B91A4B4343174C23600DE0104B07
:100530005B6803F4003323B1164B4343124C236032
:1005400003E0124B4343104C236003E00D4B0E4C71
:10055000236000BF00BF064B5B68C3F303130E4C60
:10056000E15C094B1B68CB40074C236010BD0000C9
:1005700000100240002002400000FFF8FFFFF6FEDE
:1005800008ED00E000127A0000000020001BB70018
:1005900000093D00808D5B00040000200948804771
:1005A00009480047FEE7FEE7FEE7FEE7FEE7FEE755
:1005B000FEE7FEE7FEE7FEE704480549054A064B6D
:1005C000704700009304000831010008F802002081
:1005D000F81A0020F80E0020F80E002031490143DF
:1005E000314A1160704770B5002100230F22C47892
:1005F00004B32D4C246804F4E064C4F5E064210ADB
:10060000C1F10403CA40447804FA03F18478144029
:1006100021430901254C0678A155047804F01F05F3
:100620000124AC4005786D11AD0005F1E025C5F859
:10063000004109E0047804F01F050124AC401C4D82
:100640000678761145F8264070BD1A4A0A400243E2
:10065000154B1B1F1A60704739B1134A121D1268DF
:100660000243114B1B1D1A6006E00F4A121D12684F
:1006700082430D4B1B1D1A607047042808D14FF0B0
:10068000E021096941F004014FF0E022116107E027
:100690004FF0E021096921F004014FF0E0221161DF
:1006A000704700000000FA050CED00E000E400E0F7
:1006B00080E100E080FFFF1F10B50446CC48844273
:1006C00008D10121042000F02DFB0021042000F0BE
:1006D00029FB46E0C748844208D10121082000F0E8
:1006E00021FB0021082000F01DFB3AE0C2488442B3
:1006F00008D10121102000F015FB0021102000F08E
:1007000011FB2EE0BD48844208D10121202000F0D9
:1007100009FB0021202000F005FB22E0B8488442BC
:1007200008D10121402000F0FDFA0021402000F016
:10073000F9FA16E0B348844208D10121802000F084
:10074000F1FA0021802000F0EDFA0AE0AE48844280
:1007500007D10121801500F0E5FA0021A01500F075
:10076000E1FA10BD10B50121084600F0DBFA0021C6
:10077000012000F0D7FA10BD2DE9F0410246002516
:100780000026002000230024002791F803C00CF06D
:100790000F0591F803C00CF0100CBCF1000F03D052
:1007A00091F802C04CEA050591F800C0BCF1000FB9
:1007B00031D0146800202BE04FF0010C0CFA00F34C
:1007C000B1F800C00CEA03069E4220D183004FF02E
:1007D0000F0C0CFA03F7BC4305FA03FC4CEA0404C3
:1007E00091F803C0BCF1280F06D14FF0010C0CFAB0
:1007F00000FCC2F814C00AE091F803C0BCF1480F35
:1008000005D14FF0010C0CFA00FCC2F810C0401CDE
:100810000828D1D31460B1F800C0BCF1FF0F34DD5B
:10082000546800202EE000F1080C4FF0010808FA8F
:100830000CF3B1F800C00CEA03069E4221D18300FC
:100840004FF00F0C0CFA03F7BC4305FA03FC4CEA1B
:10085000040491F803C0BCF1280F05D100F1080C85
:1008600008FA0CF8C2F8148091F803C0BCF1480FE4
:1008700007D100F1080C4FF0010808FA0CF8C2F893
:100880001080401C0828CED35460BDE8F0814FF69C
:10089000FF710180022181700421C17070470246FE
:1008A000002093680B400BB1012000E0002070474E
:1008B0000146886880B2704702460020D3680B402A
:1008C0000BB1012000E0002070470146C86880B2EB
:1008D000704701617047416170470AB1016100E0F2
:1008E00041617047C16070474FF480320A438261B2
:1008F0008161826182698269704702460020434BB0
:1009000018684FF68073184040EA021008433F4BC6
:10091000186070473E49C8617047F0B50A46002329
:1009200000240021002500F00046B6F1004F02D15E
:10093000364EF16901E0354E7168C0F3034583B26C
:1009400000F44016B6F5401F08D121F070612F4E1B
:10095000766826F070662D4F7E6012E000F48016F7
:10096000B6F5801F06D1032606FA05F4A14341F02F
:10097000706106E0460D360103FA06F6B14341F018
:10098000706122B1460D360103FA06F6314300F0DC
:100990000046B6F1004F02D11C4EF16101E01B4E42
:1009A0007160F0BD30B500228B071C0F0F2303FAD6
:1009B00004F2164B08338C1053F824309343134C35
:1009C00008348D1044F8253023468C1053F8243019
:1009D0008C07240F00FA04F423430C4C08348D10C8
:1009E00044F8253030BD0A49DC310860704700000A
:1009F00000080140000C01400010014000140140BB
:100A000000180140001C014000200140000001408E
:100A100000002042DF48006840F00100DD49086026
:100A200008464068DC490840DA49486008460068E2
:100A3000DA490840D74908600846006820F4802059
:100A400008600846406820F4FE0048604FF41F002C
:100A500088607047CF49096821F48031CD4A116020
:100A60001146096821F480211160B0F5803F03D060
:100A7000B0F5802F0ED106E0C649096841F48031F7
:100A8000C44A116007E0C349096841F4A021C14A82
:100A9000116000E000BF00BF704710B501460022A2
:100AA000002300204A11012A02D1BA4C236806E033
:100AB000022A02D1B74C236A01E0B64C636A01F006
:100AC0001F02012494401C400CB1012000E00020D2
:100AD00010BD38B5002000900024002500BF312053
:100AE000FFF7DBFF05460098401C00900098B0F52A
:100AF000A06F01D0002DF2D03120FFF7CEFF08B15A
:100B0000012400E00024204638BD01460020A14A0F
:100B1000106820F0F80040EAC10010607047A0495A
:100B200008607047024600209A4B586820F47C10F9
:100B300042EA01031843974B58607047984908668A
:100B4000704701460020934A506820F00300084394
:100B5000506070478F48406800F00C0070470146B5
:100B600000208C4A506820F0F00008435060704725
:100B700001460020874A506820F4E0600843506036
:100B8000704701460020834A506820F4605040EAD4
:100B9000C1005060704729B17E4A527A02437D4BB2
:100BA0005A7204E07B4A527A82437A4B5A727047F7
:100BB0007B49D8310860704701460020754A50686B
:100BC00020F440400843506070470021714A2032B1
:100BD0001170704A82F82010012802D004280AD12E
:100BE00004E001216B4A2032117005E00521694AB9
:100BF0002032117000E000BF00BF704769490860F3
:100C000070476449096A0143624A11627047654945
:100C100044390860704730B50021002200240023C9
:100C20005C4D6D6805F00C0121B1042905D008293F
:100C300023D105E05C4D056022E05C4D05601FE0BE
:100C4000544D6D6805F47012524D6D6805F4803492
:100C5000022505EB92421CB9554D554305600BE04A
:100C60004C4D6D6805F400351DB1524D554305607E
:100C700002E04E4D5543056002E04B4D056000BF5C
:100C800000BF444D6D6805F0F00109094A4D6B5CE9
:100C90000568DD4045603F4D6D6805F4E061090A77
:100CA000454D6B5C4568DD4085603A4D6D6805F4E7
:100CB0006051C90A404D6B5C4568DD40C560354DEB
:100CC0006D6805F44041890B3C4D6B5CC568B5FB14
:100CD000F3F5056130BD29B12E4A526902432D4B0F
:100CE0005A6104E02B4A526982432A4B5A61704789
:100CF00029B1284A92690243264B9A6104E0254AA9
:100D000092698243234B9A61704729B1214AD26983
:100D10000243204BDA6104E01E4AD26982431D4B34
:100D2000DA61704729B11B4AD2680243194BDA6075
:100D300004E0184AD2688243164BDA60704729B142
:100D4000144A12690243134B1A6104E0114A1269F2
:100D50008243104B1A61704712494039086070474E
:100D60000F49C86470470B49C87170470948406A09
:100D700040F0807007494862704701460020054AEC
:100D800092680A400AB1012000E000207047014942
:100D900088727047001002400000FFF8FFFFF6FE67
:100DA000000042428004424200127A00001BB70059
:100DB00000093D00808D5B0014000020240000200D
:100DC00010B50446FB48844209D101218803FFF78E
:100DD000A9FF00214FF48040FFF7A4FF32E0F6485E
:100DE000844209D101214804FFF7A9FF00214FF4F3
:100DF0000030FFF7A4FF25E0F048844209D101212B
:100E00008804FFF79CFF00214FF48020FFF797FF35
:100E100018E0EB48844209D10121C804FFF78FFF95
:100E200000214FF40020FFF78AFF0BE0E5488442E1
:100E300008D101210805FFF782FF00214FF480103F
:100E4000FFF77DFF10BD2DE9F04786B005460E4641
:100E50000024A24600BFA1460027B08900B100BF10
:100E60002F462C8A4CF6FF700440F08804432C82F5
:100E7000AC894EF6F3100440B0883189084371897B
:100E800008430443AC81AC8A4FF6FF400440B0896C
:100E90000443AC8201A8FFF7BEFEC648874202D1D8
:100EA000DDF810A001E0DDF80CA0A88900F40040F6
:100EB00040B10AEBCA0000EB0A1031684900B0FBF0
:100EC000F1F807E00AEBCA0000EB0A10316889006C
:100ED000B0FBF1F86420B8FBF0F0040120096421B4
:100EE00001FB1089A88900F4004040B1322000EBDA
:100EF000C900B0FBF1F000F00700044308E0322025
:100F000000EB09106421B0FBF1F000F00F00044386
:100F10002C8106B0BDE8F0874FF416510160002126
:100F20008180C18001810C21418100218181704734
:100F300010B502460020108A4FF2FF0318400B88BC
:100F40004C8823438C882343CC8823431843108246
:100F500010BD0021018041808180C180704721B196
:100F6000828942F40052828104E082894DF6FF7347
:100F70001A4082817047F0B5034600240026002500
:100F8000002040F66A17B94200D100BF1846C1F3ED
:100F9000421401F01F06012707FA06F5012C01D1C2
:100FA0000C3004E0022C01D1103000E014301AB1F2
:100FB00007682F43076002E00768AF430760F0BD92
:100FC0001AB1838A0B43838202E0838A8B43838234
:100FD0007047028A4FF6F0731A400282028A0A436F
:100FE0000282704782894FF2FF731A4082818289A0
:100FF0000A438281704721B1828942F002028281D4
:1010000004E082894FF6FD731A4082817047028A9C
:101010004FF6DF731A400282028A0A430282704747
:1010200021B1028A42F48042028204E0028A4BF635
:10103000FF731A4002827047C1F308028280704732
:1010400001468888C0F308007047818941F001019A
:1010500081817047028BD2B20283028B42EA012265
:1010600002837047028B02F47F420283028B0A43A1
:101070000283704721B1828A42F02002828204E01A
:10108000828A4FF6DF731A408282704721B1828ACA
:1010900042F01002828204E0828A4FF6EF731A4017
:1010A0008282704721B1828A42F00802828204E083
:1010B000828A4FF6F7731A408282704721B1828983
:1010C00042F40042828103E08289C2F30E028281EF
:1010D000704721B1828A42F40062828204E0828AEF
:1010E0004FF2FF731A4082827047828A4FF6FB7379
:1010F0001A408282828A0A438282704721B1828AA0
:1011000042F00202828204E0828A4FF6FD731A40A6
:101110008282704702460020B1F5007F00D100BFF7
:1011200013880B400BB1012000E00020704701F450
:101130000072B2F5007F00D100BFCA430280704741
:1011400070B50246002400230025002040F66A16F0
:10115000B14200D100BFC1F3421501F01F030126C7
:1011600006FA03F3012D02D19689334006E0022DE1
:1011700002D1168A334001E0968A33400C120126D0
:1011800006FA04F41688344013B10CB1012000E0D3
:10119000002070BD10B50022002340F66A14A14261
:1011A00000D100BF0A1201249440A3B2DC430480A2
:1011B00010BD0000003801400044004000480040DD
:1011C000004C00400050004010B50446BE48844228
:1011D00008D101218014FFF7A5FD0021A014FFF71D
:1011E000A1FD16E0B948844208D101210014FFF79F
:1011F000A6FD00212014FFF7A2FD0AE0B4488442B6
:1012000007D10121C013FFF79AFD0021E013FFF77A
:1012100096FD10BD10B50022028802F441520B88E1
:101220004C8823438C882343CC8823430C89234355
:101230004C8923438C892343CC8923431A4302805E
:10124000838B4FF2FF74234083830B8A038210BD8C
:101250002DE9F04F85B005460C464FF000090227F6
:101260004FF000084FF0010B0026B246A88B4FF25A
:1012700040010840A88302202884B5F81C90A0688B
:10128000022801D100BF38E0A08810B94FF0010B4F
:1012900001E04FF0020B8D48854200D100E000BF15
:1012A0006846FFF7B8FCDDF800A0E088B0F5007FE5
:1012B0000AD14FEA1A2000EB80004000A168B0FB81
:1012C000F1F0401D86B20BE04FEA4B10BAFBF0F094
:1012D00000EB80004000A168B0FBF1F0401D86B239
:1012E0000A20B6FBF0F606F00108A6EB0800C0F3F2
:1012F0004F074FF6FF7000EA0828022F01DBFF2F8F
:1013000002DD02274FF00008E08840EA0800384379
:101310002884A088A189084361880843218808435C
:1013200040F4006040EA0909A5F81C9005B0BDE84A
:10133000F08F0021018041808180C1800181418145
:101340008181C18107210182704700210180418094
:101350008180C1800221816000218181704721B19B
:10136000028842F04002028004E002884FF6BF7318
:101370001A400280704721B1828B42F480628283DE
:1013800004E0828B4FF6FF331A408283704730B5FA
:10139000002400230C110125A540ABB21AB18588A9
:1013A0001D43858002E085889D43858030BD1AB14C
:1013B00083880B43838002E083888B43838070475C
:1013C000818170470146888970474FF6FF629142DC
:1013D00004D0028842F48072028004E002884FF652
:1013E000FF631A400280704721B1828842F00402F4
:1013F000828004E082884FF6FB731A408280704737
:1014000002884FF2FF731A40028002880A4302806A
:101410007047018841F480510180704721B10288F2
:1014200042F40052028004E002884DF6FF731A4035
:101430000280704702460020012901D0108B00E095
:10144000908A70470146088A7047B1F5804F04D1F1
:10145000028842F48042028004E002884BF6FF7367
:101460001A40028070470246002013890B400BB1DE
:10147000012000E000207047CA4302817047F0B5A8
:101480000246002000240023002501F00F0701265A
:10149000BE40B4B20B1101269E40B3B2968806EA54
:1014A00003051689264016B10DB1012000E0002089
:1014B000F0BD10B5002201F00F040123A3409AB241
:1014C000D343038110BD00000030014000380040CC
:1014D000003C004010B50446224608211148FFF7A1
:1014E000FCF91148047010BD08B501210820FFF770
:1014F000FFFB01210846FFF7FBFB01210B48FFF72B
:101500000CFA10208DF803000820ADF8000003202D
:101510008DF8020069460348FFF72EF90020FFF717
:10152000D9FF08BD000C0140280000200002300057
:101530004FF0E020006920F004004FF0E021086146
:101540000920364908700846007800EB4001C1EBDD
:10155000C0104FF6FF7101EAC000314908807047A2
:10156000002120F07F402D4A127842434FF0E023C3
:101570005A6100229A6101221A6100BF4FF0E022F5
:10158000116901F001021AB101F48032002AF5D08C
:1015900000224FF0E0231A619A617047002100B9E0
:1015A000704720F07F401E4A128842434FF0E023EC
:1015B0005A6100229A6101221A6100BF4FF0E022B5
:1015C000116901F001021AB101F48032002AF5D04C
:1015D00000224FF0E0231A619A6100BFE0E770B586
:1015E0000446002600254FF4FA7094FBF0F0C6B2D2
:1015F0004FF4FA7094FBF0F100FB114085B205E066
:101600004FF4FA70FFF7CAFF701EC6B2002EF7D172
:1016100015B12846FFF7C2FF70BD00002A00002068
:101620002C00002010B586B0044601210420FFF7ED
:101630005FFB01218803FFF75BFB18208DF8170083
:101640004FF40070ADF8140003208DF8160005A9C2
:101650006B48FFF791F804208DF817000002ADF8F1
:10166000140003208DF8160005A96548FFF784F8DB
:1016700001940020ADF810000C20ADF80E00002001
:10168000ADF80C00ADF80A00ADF8080001A95D48FE
:10169000FFF7D9FB01215B48FFF761FC012240F213
:1016A00025515848FFF767FC25208DF800000120E0
:1016B0008DF8030000208DF8010002208DF8020053
:1016C0006846FEF790FF06B010BD10B586B0044620
:1016D00001210420FFF70CFB01214804FFF715FB53
:1016E00018208DF817000420ADF8140003208DF8A1
:1016F000160005A94248FFF73FF804208DF81700AF
:101700000820ADF8140003208DF8160005A93C4808
:10171000FFF732F801940020ADF810000C20ADF86E
:101720000E000020ADF80C00ADF80A00ADF808007E
:1017300001A93548FFF787FB01213348FFF70FFC6C
:10174000012240F225513048FFF715FC26208DF884
:10175000000001208DF8030000208DF801008DF8B5
:1017600002006846FEF73FFF06B010BD2DE9F041CC
:1017700007460C46154600260DE014F8011B3846B6
:10178000FFF75AFC00BF40213846FFF7C3FC002892
:10179000F9D0701C86B2AE42EFDBBDE8F0810FB429
:1017A00030B5CBB0054601AC50A800904FF4947111
:1017B00001A8009B4F9A02F079FD002000900BE0F9
:1017C00014F8011B2846FFF737FC00BF40212846CC
:1017D000FFF7A0FC0028F9D020780028F0D14BB00A
:1017E00030BC5DF814FB10B540F225510548FFF7F9
:1017F000A7FC18B120210348FFF799FC10BD000099
:1018000000080140003801400044004070B5054622
:101810000E46002405E0601CC4B2C82C01DD002087
:1018200070BD02212846FFF71EFE0028F3D0314686
:101830002846FFF7C5FD002405E0601CC4B2C82C93
:1018400001DD0020ECE701212846FFF70CFE00280F
:10185000F3D02846FFF7B6FDC0B2E1E738B504463D
:101860006448844216D1012141F20400FFF740FA96
:10187000E020ADF8000018208DF8030003208DF85B
:10188000020069465C48FEF777FFE0215A48FFF7FF
:1018900020F81BE05948844218D101210820FFF7A5
:1018A00027FA01218803FFF730FAA000ADF8000005
:1018B00018208DF8030003208DF802006946504877
:1018C000FEF75AFFA1004E48FFF703F800204D49EC
:1018D00008804FF482704880002088800220C880F1
:1018E0000120088140024881382088810020C88179
:1018F000072008822046FFF78DFC01212046FFF7D4
:101900002EFDFF212046FFF781FF38BD38B5044684
:101910003848844216D1012141F20400FFF7E8F96A
:10192000A020ADF8000018208DF8030003208DF8EA
:10193000020069463048FEF71FFFA0212E48FEF73F
:10194000C8FF1DE02D4884421AD101210820FFF76D
:10195000CFF901218803FFF7D8F94FF42040ADF803
:10196000000018208DF8030003208DF8020069465E
:101970002348FEF701FF4FF420412148FEF7A9FF5D
:101980004FF440401F4908804FF482704880002087
:1019900088800220C8800120088140024881002000
:1019A0008881C881072008822046FFF733FC012187
:1019B0002046FFF7D4FC38BD70B505460C461148EB
:1019C000848101462846FFF725FC01212846FFF7C0
:1019D000C6FC70BD70B504460D4629462046FFF78B
:1019E000EFFC00BF02212046FFF73DFD0028F9D0A3
:1019F00070BD000000300140000801400038004088
:101A0000000C014034000020F8B504460D4616468F
:101A10001F4601210420FFF76BF91020ADF80000EC
:101A20008DF8030003208DF802006946FE48FEF79A
:101A3000A3FEFE48FFF712FF1021FC48FFF7BCFF92
:101A40000120F8BD2DE9F04107460D461646002459
:101A50001021F548FEF73FFF00BF06E0295DF3487F
:101A6000FFF7D4FE2855601CC4B2B442F6DB102147
:101A7000ED48FEF72EFF2046BDE8F0812DE9F0414C
:101A800007460D46164600241021E748FEF723FFBF
:101A900000BF05E0295DE548FFF7B8FE601CC4B251
:101AA000B442F7DB1021E048FEF713FF2046BDE803
:101AB000F081F0B589B006460F46154600240B208C
:101AC0008DF804008DF8057000BF05E0315D01AAB6
:101AD000A01C1154601CC4B2AC42F7DBA81CC2B2FB
:101AE00001A90120FFF7AEFF002405E001A9A01C19
:101AF000085C3055601CC4B2AC42F7DB09B0F0BDE5
:101B000038B500200090002401230022C849104667
:101B1000FFF77AFF0446012200216846FFF7C9FF5C
:101B2000012202216846FFF7C4FF9DF80000F22859
:101B300000D00024204638BDF8B504460D461646B0
:101B4000002000900A208DF800008DF80150E0B2CE
:101B50008DF8020020128DF80300B01CC2B2694655
:101B60000120FFF78BFFF8BD70B5ADF5007D06468F
:101B70000D4600240D208DF8000000BF04E0315D0B
:101B8000601C0DF8001084B2AC42F8DB681CC2B2D5
:101B900069460120FFF756FF002405E0601C1DF890
:101BA00000003055601C84B2AC42F7DB0DF5007DBF
:101BB00070BD10B501221F215220FFF7BDFF10BDDF
:101BC00038B5044600200090002501222D216846EA
:101BD000FFF76FFF9DF8000020F0030545EA440081
:101BE000C5B201222D212846FFF7A6FF38BD38B522
:101BF000044600200090002501222C216846FFF7B2
:101C000058FF9DF8000020F0C00504F0030045EAED
:101C1000801501222C212846FFF78EFF38BD38B5EC
:101C2000044600200090002501222C216846FFF781
:101C300040FF9DF8000020F0070504F00700054371
:101C400001222C212846FFF777FF38BD7CB50646D8
:101C50000C46154600200090019006220E21684691
:101C6000FFF727FF9DF800009DF8011000EB012011
:101C700000B230809DF802009DF8031000EB0120B7
:101C800000B220809DF804009DF8051000EB0120B3
:101C900000B228807CBD2DE9F04F87B0002006906F
:101CA000059004900120FFF78BFF04AA05A906A860
:101CB000FFF7CCFFBDF9180005F0FCFA804605F0EF
:101CC000CDFA06465B4A5C4B04F0EEFF044604F096
:101CD00099FD5A490860BDF9140005F0EBFA8046F9
:101CE00005F0BCFA0646534A534B04F0DDFF0446A8
:101CF00004F088FD51494860BDF9100005F0DAFA9A
:101D0000804605F0ABFA06464A4A4B4B04F0CCFF3E
:101D1000044604F077FD49498860BDF9100004F0DD
:101D2000ABFF80468946BDF918104943BDF9142020
:101D300002FB021004F0A0FFCDE9000104F010FD49
:101D4000824642464B4604F03FFE064604F0F8FB4E
:101D500004463B4A3B4B04F0A7FFCDE9020104F0E7
:101D600051FD3649C8600020FFF72AFF07B0BDE8E3
:101D7000F08F2DE9F84F00200090002481460222C8
:101D800014216846FFF795FE9DF801009DF80010AC
:101D900001EB002004B2204605F08CFA824605F0E3
:101DA0005DFA0746284A294B04F07EFF054604F0F9
:101DB00029FD81464846BDE8F88F2DE9F0410546EA
:101DC0000E461446002705F0030040EA8400C0B226
:101DD00040F00807012228213846FFF7ADFE022215
:101DE00029213046FFF7A8FEBDE8F081F8B504468A
:101DF0000D461646002000900027C5F30A00022277
:101E00002021FFF799FE012222213046FFF794FEA0
:101E1000012227216846FFF74CFE9DF8000020F0C4
:101E20000207012014E000000008014000300140DA
:101E300000093D00FCA9F1D24D62503F480000204E
:101E40007D96E7C1DDA54C40A4703D0AD7A3B03F05
:101E500040EA44003843C7B2012227213846FFF741
:101E60006BFEF8BDF8B504460D46164600200090FE
:101E70000027C5F30A0002222321FFF75DFE02229C
:101E800025213046FFF758FE012227216846FFF73B
:101E900010FE9DF8000020F00807042040EAC4006E
:101EA0003843C7B2012227213846FFF745FEF8BD67
:101EB00010B54FF4A060FEF791FBFFF739FB4FF42C
:101EC000E130FFF7AFFB4FF4E130FFF7FEFBFFF728
:101ED00017FEFFF709FB28A12C48FFF760FC10BD97
:101EE00000250024FFF7E4FF02F001F84FF4FA7038
:101EF000FFF754FB00F085F925A12448FFF74FFCBC
:101F000003E04FF4FA70FFF749FB28A129A001F084
:101F100090FF0028F5D103E04FF4FA70FFF73EFB85
:101F200000F0DBF90028F7D10120FFF7D3FAFA20FF
:101F3000FFF734FB0020FFF7CDFA1BE0681C80B2EE
:101F40000546B0F5FA7F0ADBFFF7A5FE23A10F488F
:101F5000FFF725FC00F0E6FB002501F04BFF002019
:101F600001F0A4FF044614B1204600F01CFC0A2036
:101F7000FFF714FBE2E700002048617264776172AA
:101F80006520696E6974204F4B0D0A0000380140CE
:101F9000436F6E6E656374204D51545473205365C6
:101FA000727665722E2E2E0D0A000000434F4E4EA3
:101FB0004543540041542B495053544152543D22FF
:101FC000544350222C223138332E3233302E3430C9
:101FD0002E3936222C313838330D0A004F6E654EBB
:101FE00065745F53656E64446174610D0A0000009E
:101FF000F0B58BB0054600260024284602F05FFCB1
:10200000C7B20DB11C2F02DA01200BB0F0BD06E003
:10201000A85D01A988550020A855701CC6B2BE4213
:10202000F6DB002001A988550026002455E001A810
:10203000805D2B2810D008DC202814D023282ED037
:10204000252825D026283FD130E02F2812D03D2842
:1020500033D03F2838D114E02819FEA102F04EFCFD
:10206000E01CC4B236E02819FBA102F047FCE01CDA
:10207000C4B22FE02819F9A102F040FCE01CC4B260
:1020800028E02819F6A102F039FCE01CC4B221E0D6
:102090002819F4A102F032FCE01CC4B21AE028199D
:1020A000F1A102F02BFCE01CC4B213E02819EFA14F
:1020B00002F024FCE01CC4B20CE02819ECA102F0F0
:1020C0001DFCE01CC4B205E001A8805D2855601C21
:1020D000C4B200BF00BF701CC6B2BE42A7DB002066
:1020E000285500BF91E72DE9F04FC9B005460C46D1
:1020F00016461F460DF5A47898E8000F002048907A
:1021000055B14CB1DB48864206D32FB1B9F1000F6F
:1021100002D0BAF1780F03DA012049B0BDE8F08FA0
:10212000402118A802F05DFC384602F0C8FB05907B
:102130003B4648AA4021009018A800F0AFFE482175
:1021400006A802F04EFCBBF1000F09D0CAA033462E
:10215000CBA248218DE8310006A802F0D7F809E0AB
:10216000C5A03346CCA248218DE81101039506A8ED
:1021700002F0CCF8402128A802F033FC06A802F0B7
:102180009EFB059018A802F09AFB049028A80090E6
:1021900006AA18A8DDE9041300F02CFD00204890E1
:1021A000402138A802F01DFC28A802F088FB059009
:1021B00028AB48AA4021009038A800F0CFFD38A8ED
:1021C000FFF716FFBBF1000F0CD038A8AAA12B46D1
:1021D000B9A2CDE90046CDE902105146484602F0C9
:1021E00095F80CE038A8A4A12B46C14ACDE9018698
:1021F0000094CDE903105146484602F087F80020CC
:102200008BE72DE9F041ACB001270B250026002417
:1022100005F1F00001F0F4FF06461EB938462CB077
:10222000BDE8F08103E04FF4FA70FFF7B7F9B1A110
:10223000B2A001F0FEFD0028F5D10120902108AAEE
:102240000023CDE90032CDE902108CA3B54A8BA161
:10225000B5A0FFF748FF89A10B20CDE9000105F1EA
:10226000F00108ABB34A304602F050F8304602F0B5
:1022700026FB1FFA80F84146304601F000FEFA20A6
:1022800001F014FE044624B1ABA1204602F0E1FAAD
:102290000446CCB100200390AA4803A904ABAA4A83
:1022A000CDE90010A949204602F076F904280AD1A8
:1022B000A448039904ABA44ACDE90010A4A1AC48FA
:1022C000FFF76DFA002700BF304601F0C8FFA9A153
:1022D000A9A001F0AEFD3846A1E730B5B3B00020AB
:1022E0002F903090319032900125A02107AA63A34E
:1022F000CDE90032CDE90210924B8A4A5FA18AA053
:10230000FFF7F1FE07A85DA35CA29FA1009098488B
:10231000FFF745FA2FA8002102910391CDE904109F
:10232000084601210B0255A2CDE9001007A953A0D0
:1023300000F015FF002842D1309A91B22F9801F099
:102340009EFDFA2001F0B2FD0446002C33D0204659
:1023500000F0D0FE02282ED1204601F065F80628B4
:1023600023D2DFE800F003090E13181D92A1804864
:10237000FFF715FA00251DE094A17D48FFF70FFA3D
:1023800018E099A17A48FFF70AFA13E09FA178486C
:10239000FFF705FA0EE0A5A17548FFF700FA09E07E
:1023A000ABA17348FFF7FBF904E0B4A17048FFF755
:1023B000F6F900BF00BF2FA800F054FE03E0B6A15D
:1023C0006B48FFF7ECF9284633B030BD70B588B0E4
:1023D00004462021684602F004FBB8A1204602F022
:1023E0004AFA2021684602F0FCFAB949086804F06C
:1023F00035FF05462A460B46B6A1684601F070FF38
:102400006946204602F07AFA2021684602F0E9FA8D
:10241000AF49486804F022FF05462A460B46B2A1A0
:10242000684601F05DFF6946204602F067FA202108
:10243000684602F0D6FAA649886804F00FFF054600
:102440002A460B46ADA1684601F04AFF6946204680
:102450005CE1000025324200253230002532460082
:10246000253346002532350025323300253236002B
:10247000253344009554415D7368613100000000CC
:1024800025640A25730A70726F64756374732F254F
:10249000730A25730000000025640A25730A707210
:1024A0006F64756374732F25732F64657669636534
:1024B000732F25730A25730076657273696F6E3DFD
:1024C0002573267265733D70726F6475637473252E
:1024D00025324625732665743D2564266D6574682E
:1024E0006F643D2573267369676E3D257300000098
:1024F000E8760008434F4E4E4543540041542B4963
:102500005053544152543D22544350222C223138CE
:10251000332E3233302E34302E3333222C38300DDC
:102520000A00000000CF9D74323031382D31302D3B
:1025300033310000307700086465766963655F6950
:102540006400000068000020580000209C7600080D
:10255000637265617465206465766963653A2025F8
:10256000732C2025732C2025642C2025730D0A0044
:10257000003801404F4B000041542B4950434C4F11
:1025800053450D0A000000004F6E654E45545F44F0
:1025900065764C696E6B0D0A4E414D453A202573A8
:1025A0002C0950524F49443A2025732C094B455968
:1025B0003A25730D0A000000546970733A09C1ACE2
:1025C000BDD3B3C9B9A60D0A000000005741524E51
:1025D0003A09C1ACBDD3CAA7B0DCA3BAD0ADD2E929
:1025E000B4EDCEF30D0A00005741524E3A09C1AC8A
:1025F000BDD3CAA7B0DCA3BAB7C7B7A8B5C4636CCC
:1026000069656E7469640D0A000000005741524EFE
:102610003A09C1ACBDD3CAA7B0DCA3BAB7FECEF1AC
:10262000C6F7CAA7B0DC0D0A000000005741524EA1
:102630003A09C1ACBDD3CAA7B0DCA3BAD3C3BBA708
:10264000C3FBBBF2C3DCC2EBB4EDCEF30D0A00005A
:102650005741524E3A09C1ACBDD3CAA7B0DCA3BAA8
:10266000B7C7B7A8C1B4BDD328B1C8C8E7746F6BEA
:10267000656EB7C7B7A8290D0A0000004552523A47
:1026800009C1ACBDD3CAA7B0DCA3BACEB4D6AAB434
:10269000EDCEF30D0A0000005741524E3A094D515C
:1026A00054545F5061636B6574436F6E6E65637401
:1026B000204661696C65640D0A0000007B22696434
:1026C000223A3132332C226470223A7B000000001F
:1026D00048000020225867223A5B7B2276223A2566
:1026E000667D5D2C00000000225967223A5B7B2248
:1026F00076223A25667D5D2C00000000225A672272
:102700003A5B7B2276223A25667D5D0002F0F6F880
:102710004BA1204602F0F2F8204602F0D0F8C0B2F9
:1027200008B070BD30B5C5B00020419042904390D4
:1027300044900024002543A14A48FFF730F84FF4A5
:10274000807101A802F04DF901A8FFF73FFE044691
:10275000002C26D041A80023224641A1009040A091
:1027600000F048FFC8B908E001A8415D429A501C3A
:10277000429041988154681C05B2A542F4DB429A0C
:1027800091B2419801F07BFB37A13648429AFFF79E
:1027900006F841A800F066FC03E037A13148FEF7D7
:1027A000FEFF45B030BD2DE9FE4F80464FF00009D9
:1027B000CA460025002600240027404600F09AFC67
:1027C0000546042D08D1404601F051FA18B932A14E
:1027D0002448FEF7E4FF02E04FF0FF3600BF00BFE1
:1027E00001F008FB701C08B9BDE8FE8F7D2148464A
:1027F00002F013F80446B4B1701CA0B1641C05E0EB
:1028000014F8012B38467F1C0DF800202078302862
:1028100002DB20783928F3DD00200DF80700684638
:1028200001F0EEFF07460F2D01D0032D05D15046D4
:1028300001F015FD484601F012FD00BFD4E700008D
:102840007D7D0000546970733A094F6E654E657462
:102850005F53656E64446174612D4D5154540D0A8B
:10286000000000000038014053656E64202564209C
:1028700042797465730D0A005741524E3A09454436
:10288000505F4E6577427566666572204661696C79
:1028900065640D0A00000000546970733A094D51D7
:1028A0005454205075626C6973682053656E6420BF
:1028B0004F4B0D0A00000000F0B50446142C06DA58
:1028C00001EA020523EA010685EA060019E0282C40
:1028D00004DA81EA020787EA030012E03C2C0ADAF4
:1028E00001EA020501EA030787EA050602EA03078F
:1028F00087EA060005E0502C03DA81EA020787EA3E
:102900000300F0BD0146142901DAFE480AE0282937
:1029100001DAFD4806E03C2901DAFC4802E05029D2
:1029200000DAFB487047F0B5024601209040441E93
:10293000E54301EA050020FA02F601EA0400C2F1CB
:10294000200C00FA0CF746EA07031846F0BDF0B574
:102950000246C2F1200C012000FA0CF0441EE543AF
:1029600001EA040000FA02F601EA0500C2F1200CB7
:1029700020FA0CF746EA07031846F0BD2DE9F04FA0
:10298000DDB007468A4615460AF1080909F1010932
:102990004FEACA005B9048464FEAE97109EB916142
:1029A0008E1148464FEAE97109EB91618911A9EB53
:1029B00081115C915C98002800DD761C5C98C0F168
:1029C00040008144D04604E0002007F8080008F1E8
:1029D0000108B8EB861FF7DB802007F80A00012109
:1029E000C1EB86115B9878545B98C0F307200221F5
:1029F000C1EB861178545B98C0F307400321C1EB0B
:102A0000861178545B98000E0421C1EB861178542E
:102A1000C0485690C0485790BE48C0435890BE48E2
:102A2000C0435990BD485A904FF00008A5E00024DB
:102A300052E0102C32D24FEA881000EB8400385C50
:102A4000000601A941F824004FEA881000EB840039
:102A5000401C385C51F824104FF4803202FB001007
:102A600001A941F824004FEA881000EB8400801C83
:102A7000385C51F82410121202FB001001A941F831
:102A800024004FEA881000EB8400C01C385C51F829
:102A90002410084401A941F824001CE0502C1AD24B
:102AA000E01E01AA52F82000A4F1080201AB53F87D
:102AB00022205040A4F10E0253F822205040A4F1ED
:102AC000100253F8222080EA02010120FFF73FFFA5
:102AD00001A941F82400641C502CAAD356985590A3
:102AE0005798549058985390599852905A9851909A
:102AF00000242AE005205599FFF729FF8346204648
:102B0000529B539A5499FFF7D7FE5844009051991D
:102B10000098084400902046FFF7F4FE009908440E
:102B2000009001A850F82410009808440090529892
:102B30005190539852901E205499FFF708FF5390DC
:102B40005598549000985590641C502CD2D35699A7
:102B50005598084456905799549808445790589956
:102B600053980844589059995298084459905A9942
:102B7000519808445A9008F10108B045FFF657AF44
:102B80005698E8705698000AA8705698000C68701D
:102B90005698000E28705798E8715798000AA87147
:102BA0005798000C68715798000E28715898E87271
:102BB0005898000AA8725898000C68725898000E2D
:102BC00028725998E8735998000AA8735998000C0C
:102BD00068735998000E28735A98E8745A98000A36
:102BE000A8745A98000C68745A98000E28745DB046
:102BF000BDE8F08F2DE9F04FADF58E5D07460E462E
:102C0000924698460DF58050D0F8E49140254FF05B
:102C1000360B5C21C0F8BC11002405E0002041F215
:102C20007C1169440855641C402CF7DBAE421FD070
:102C3000AE4210DD4A4631463846FFF79FFE00247B
:102C400006E019F8040041F27C1169440855641C3F
:102C5000142CF6DB16E0AE4214DA002405E0385DF1
:102C600041F27C1169440855641CB442F7DB09E069
:102C7000002405E0385D41F27C1169440855641C6C
:102C8000AC42F7DB00240AE041F27C106844005DAE
:102C900080EA0B0041F23C1169440855641C402C49
:102CA000F2DB002406E041F23C106844005D1FA9FD
:102CB0000855641C402CF6DB002406E01AF80410CA
:102CC0001FAA04F140001154641C4445F6DB08EBD4
:102CD00005014A461FA8FFF751FE00240DE041F20E
:102CE0007C116944095D0DF58050D0F8BC0141406C
:102CF00041F2FC026A441155641C402CEFDB0024B5
:102D000015E000009979825AA1EBD96EDCBC1B8FCB
:102D1000D6C162CA0123456789ABCDEFF0E1D2C3CA
:102D200041F2FC006844005D0AA90855641C402C6F
:102D3000F6DB002406E019F804100AAA04F14000AA
:102D40001154641C142CF6DB4A4605F114010AA840
:102D5000FFF714FE0DF58E5DBDE8F08F2DE9F04F05
:102D600007468946099C00250026AC46A846AA4687
:102D700000211CB900201060BDE8F08F0320B4FBD7
:102D8000F0F04FF0030BB4FBFBFE0BFB1E4BBBF153
:102D9000000F02D04FF0010B01E04FF0000B00EBF1
:102DA0000B06B6F1804F05D34FF0FF3010606FF087
:102DB0002900E1E7B600701C814500D327B9701CDB
:102DC00010606FF02900D7E70320B4FBF0F000EBB0
:102DD00040060025394629E013F801CB13F8018B92
:102DE00013F801AB87484FEA9C0B10F80B0001F871
:102DF000010B4FEA0C1000EB281000F03F00DFF849
:102E000004B21BF8000001F8010B4FEA880000EB48
:102E1000AA1000F03F001BF8000001F8010B0AF0B7
:102E20003F001BF8000001F8010BED1CB542D3D3A5
:102E3000A5422DD213F801CB681CA04202D213F890
:102E4000010B00E0002080466E48CCF3850B10F8A3
:102E50000B0001F8010B4FEA0C1000EB281000F0FA
:102E60003F00DFF8A0B11BF8000001F8010B681C5F
:102E7000A04207D23F2000EA88001BF8000001F8BA
:102E8000010B02E03D2001F8010B3D2001F8010B90
:102E9000C81B10600020087000BF6DE72DE9F047E7
:102EA000074689469046DDF820C000210022002414
:102EB00000260025002004460246014645E0002683
:102EC00001E0491C761C614502D2585C2028F8D0EC
:102ED000614500D13BE0ACEB0100022807D3585C10
:102EE0000D2804D1481C185C0A2800D12CE0585C3D
:102EF0000A2800D128E01EB16FF02B00BDE8F08752
:102F0000585C3D2806D1601C0446022802D96FF0A7
:102F10002B00F3E7585C7F2806DC585CDFF8E8A05C
:102F20001AF800007F2802D16FF02B00E6E7585C0A
:102F3000DFF8D4A01AF80000402803DA14B16FF0CB
:102F40002B00DBE7521C00BF491C6145B7D300BF13
:102F50001AB90020C8F80000D0E7D00800EB400004
:102F60004FEA400A02F0070000EB40004000C01D9D
:102F70000AEBD002121B0FB1914504D2C8F8002011
:102F80006FF02900BAE703240020064602463D46BA
:102F900031E018780D2805D018780A2802D0187862
:102FA000202800D125E01878DFF85CA01AF800008E
:102FB000402801D1012000E00020241A1878DFF811
:102FC00048A01AF8000066F39F100646501C0246FF
:102FD00004280DD1002214B1300C05F8010B012C8E
:102FE00002D9300A05F8010B022C01D905F8016B52
:102FF00000BF491E5B1C0029CBD1E81BC8F80000AC
:1030000000207BE76E740008AE74000870B50446BB
:103010000E460025206898B901202073304601F043
:10302000EFF820602068E0B100206060A66003E057
:103030000020216848556D1CA068A842F8D810E00F
:103040000220207303E00020216848556D1CA06811
:10305000A842F8D800206060A068B04201D20020E9
:10306000206070BD10B50446207B012802D1206885
:1030700001F0F5F8002020606060A060207310BDB2
:103080000246002301230DE002F07F000870D20900
:103090002AB1087840F080000870491C01E0184609
:1030A00070475B1C042BEFDD4FF0FF30F8E7F0B505
:1030B00004460D462646012300201060002114E03E
:1030C000775C07F07F07106807FB03001060705CF7
:1030D00000F0800008B9481CF0BDDB01B3F5001F0B
:1030E00002D36FF00100F7E7491CA942E8DB4FF07B
:1030F000FF30F1E7F8B50446FF2720780511012DD0
:1031000001DB0E2D01DD3846F8BD032D24D1002052
:1031100000906A460421601CFFF7C9FF2044461C4A
:103120000098022803D3207800F0010008B1FF20A6
:10313000EAE77078317840EA0120801C00998842E3
:1031400001D9FF20E0E7F8A1B01C01F082FB08B133
:103150000F2700E0032700E02F463846D4E72DE98B
:10316000FF4F83B082468B469146159C0025002078
:1031700002900F270190484601F0A1FB0FFA80F85A
:10318000B9F1000F03D1012007B0BDE8F08F08F1BD
:103190000200384487B2109808B145F00205129831
:1031A00078B145F00405129801F089FBC0B2029095
:1031B000139801F084FB01460298001D084438442E
:1031C00087B2119820B1012804D0022808D104E068
:1031D00000BF07E045F00C0504E045F0140501E0F0
:1031E0000220D1E700BF149808B145F02405BAF1D8
:1031F000000F02D0BBF1000F01D10320C4E745F05E
:10320000C005504601F05BFB0646584601F057FBEF
:103210003044001D384487B239462046FFF7F6FE99
:10322000206808B90420AFE73946206801F0B7FBF1
:1032300010216268501C606020688154D4E900232A
:10324000D118781FFFF71CFF00B2019001980028E9
:1032500004DA2046FFF706FF052095E7616801982C
:103260000844606000216268501C606020688154DE
:1032700004216268501C6060206881544D2162689E
:10328000501C60602068815451216268501C60604D
:103290002068815454216268501C60602068815409
:1032A0006268501C60602068815404216268501C70
:1032B0006060206881546168481C606020684554E3
:1032C0000698010A6268501C606020688154069864
:1032D000C1B26268501C606020688154C8F3072145
:1032E0006268501C6060206881546268501C606095
:1032F000206800F80280D4E9001288184246494646
:1033000001F095FA60684044606005F00400B8B3CD
:103310000026139808B986A01390129801F0CFFAEE
:1033200086B2310A6268501C60602068815462680D
:10333000501C606020688654D4E900128818324618
:10334000129901F074FA606830446060139801F0DB
:10335000B6FA86B2310A6268501C606020688154F7
:103360006268501C606020688654D4E90012881896
:103370003246139901F05BFA60683044606000BF28
:1033800005F08000C8B1504601F099FA86B2310AC2
:103390006268501C6060206881546268501C6060E4
:1033A00020688654D4E9001288183246514601F04C
:1033B0003EFA60683044606000BF05F04000C8B16C
:1033C000584601F07CFA86B2310A6268501C60608F
:1033D000206881546268501C606020688654D4E97B
:1033E000001288183246594601F021FA60683044CC
:1033F000606000BF0020C7E610B5044602212046E9
:10340000FFF704FE206808B9012010BDE0216268C2
:10341000501C60602068815400216268501C60600C
:10342000206881540020F0E701464878022801D046
:1034300001207047887810B18878012801D1C878B8
:10344000F7E7FF20F5E72DE9FF4F83B0834690466D
:103450009946139C00260025002002900190002729
:10346000BBF1000F03D1012007B0BDE8F08F0025AC
:103470000AE00498405D232803D00498405D2B287F
:1034800001D10220F0E76D1C0498405D0028F0D1C6
:1034900047F03007119808B147F0010705EB090024
:1034A000861C109820B1012804D002280AD105E01A
:1034B00000BF09E047F00207B61C05E047F004072B
:1034C000B61C01E00320CFE700BF98F800000228F7
:1034D00022D14FF0000A00BF50460AF1010A18F845
:1034E00000007D28F8D1AAF1030A0AF10700029032
:1034F0000298A9EB000AF01CA0EB0A012046FFF796
:1035000085FD206808B90420AEE7F21CA2EB0A0191
:10351000206801F044FA11E0F11C2046FFF776FD27
:10352000206838B904209FE72463726571000000A9
:1035300000000000F11C206801F031FA6168481CAD
:10354000606020684754D4E9000281183046FFF7D4
:1035500097FD01900198002804DA2046FFF782FDCC
:10356000052081E76168019808446060C5F3072180
:103570006268501C6060206881546268501C606002
:1035800020688554D4E9001288182A46049901F06D
:103590004EF9606828446060109860B14FEA1B21C2
:1035A0006268501C6060206881546268501C6060D2
:1035B000206800F802B0B8F1000F19D098F80000A8
:1035C00002280BD1D4E9001288184146029A01F072
:1035D000A1F9616802980844606009E0D4E900122A
:1035E00088184A46414601F095F960684844606091
:1035F000002039E72DE9F04190B004460D4616460B
:103600009846169F2346F7A2302104A8009500F0A3
:103610007DFE01200021CDE9000133460A4604A9C0
:10362000CDE902070A20FFF70EFF18B1012010B004
:10363000BDE8F0810020FAE72DE9F04F85B0804623
:103640000D469146012004900027002600244FF0EB
:10365000000A404601F033F900F10D0B584600F026
:10366000CFFD07461FB9049805B0BDE8F08F42466C
:10367000E2A1384600F034FE384601F020F9C6B227
:10368000F01D00EB050AAAEB050000F0B9FD0446A9
:1036900024B9384600F0E3FD0498E5E702202070E5
:1036A00000206070A67032463946E01C01F032F905
:1036B000290EF01C2154C5F30741301D2154C5F3D8
:1036C0000721701D2154B01D255401200021CDE992
:1036D000000153462246CDA1CDE902090A20FFF799
:1036E000B2FE08B900200490384600F0B8FD20462C
:1036F00000F0B5FD0498B7E72DE9F84380460C4685
:1037000015461E462F2108F1060001F086F80746EF
:103710000020009017B90120BDE8F8837F1C6A469D
:10372000042108F10100FFF7C2FC252000F068FD2C
:103730002060206808B90220EEE72521206801F00A
:103740002EF924223946206801F0E4F82437009845
:103750002C3830803188481C00F052FD28602868E1
:1037600020B9206800F07BFD0320D5E73288511C8A
:10377000286801F014F932883946286801F0CAF83F
:103780000020C9E72DE9FF5F07460D469046384601
:1037900001F095F886B2284601F091F81FFA80FAF8
:1037A0004FF00009B01D00F02BFD04461CB90120AC
:1037B00004B0BDE8F09FB11D204601F0F0F894A0E0
:1037C000016821608088A08032463946204601F099
:1037D0002EF8284601F073F883460120002100915D
:1037E0005B462A46CDE90208019121460A20FFF7EF
:1037F0002AFE10B94FF0000901E04FF00109204600
:1038000000F02DFD4846D3E72DE9FF5F80461746BF
:1038100099460E9C0026B246B3460025B8F1000F2B
:1038200003D1012004B0BDE8F09F0BE057F825005C
:1038300008B90220F6E757F8250001F040F80644E1
:10384000681CC5B24D45F1DB09EB4900801C00EB5B
:10385000060A0AF105012046FFF7D8FB206808B9DF
:103860000320DFE782216268501C60602068815479
:10387000D4E9000281185046FFF702FC0FFA80FBE2
:10388000BBF1000F04DA2046FFF7ECFB0420C9E788
:103890006068584460604FEA18216268501C60609C
:1038A000206881546268501C6060206800F80280C3
:1038B000002524E057F8250001F001F80646C6F37C
:1038C00007216268501C6060206881546268501C47
:1038D000606020688654D4E90023D01857F825107A
:1038E000324600F0A4FF6068304460600198C1B2C5
:1038F0006268501C606020688154681CC5B24D45E8
:10390000D8DB00208EE70146FF208A78A2B9CA786A
:10391000142A11D10A7932B1012A05D0022A04D021
:10392000802A06D103E000BF00BF002003E0012091
:1039300001E0022000BF00BF70472DE9F05F804624
:103940000F4691461C460026B246B3460025B8F104
:10395000000F02D10120BDE8F09F0BE057F82500D1
:1039600008B90220F7E757F8250000F0A8FF064441
:10397000681CC5B24D45F1DB022000EB490000EBAD
:10398000060A0AF105012046FFF740FB206808B946
:103990000320E0E7A2216268501C60602068815427
:1039A000D4E9000281185046FFF76AFB0FFA80FB4A
:1039B000BBF1000F04DA2046FFF754FB0420CAE7EE
:1039C0006068584460604FEA18216268501C60606B
:1039D000206881546268501C6060206800F8028092
:1039E000002537E0247379732F25732F25732F64F7
:1039F000702F706F73742F6A736F6E007B22647305
:103A00005F6964223A222573227D000024647000DD
:103A100024637273702F000057F8250000F04FFFE9
:103A20000646C6F307216268501C60602068815416
:103A30006268501C606020688654D4E90023D01866
:103A400057F82510324600F0F2FE6068304460609E
:103A5000681CC5B24D45DFDB00207CE70146012034
:103A60008A781AB9CA781E2A00D1002070472DE939
:103A7000FC5F81460D4614461E46DDE90C8B99F825
:103A8000000000F00F0A002001900AF008000090EA
:103A9000CAF341008BF8000001AA042109F10100DA
:103AA000FFF705FB4844471C0198022802D30AF09F
:103AB000010010B1FF20BDE8FC9F7878397840EA1A
:103AC000012020802088801C0199884201D9FF2094
:103AD000F1E7AFF2AC51B81C00F0BBFE08B10F200B
:103AE000E9E79BF8000020B101283DD0022877D1FA
:103AF0003BE0009808B1FF20DDE72188481C00F07A
:103B00007FFB2860286808B9FF20D4E72288511C71
:103B1000286800F044FF2288B91C286800F0FAFEEB
:103B20000198801E2188401AA8F80000B8F80010FB
:103B3000481C00F065FB3060306820B9286800F050
:103B40008EFBFF20B7E7B8F80020511C306800F06A
:103B500026FFB8F80020B4F800C0BB1C0CEB030132
:103B6000306800F0D7FE4FE000BF2088801C01992C
:103B7000884201D9FF209EE72088C01C395C20883C
:103B8000801C385C41EA00210E9801800E9808B92B
:103B9000FF2090E72188481C00F032FB286028684D
:103BA00008B9FF2087E72288511C286800F0F7FE3B
:103BB0002288B91C286800F0ADFE0198001F2188FA
:103BC000401AA8F80000B8F80010481C00F018FBD4
:103BD0003060306828B9286800F041FBFF206AE7B0
:103BE00010E0B8F80020511C306800F0D8FEB8F89A
:103BF0000020B4F800C03B1D0CEB0301306800F05E
:103C000089FE01E0FF2056E700BF2B21284600F087
:103C100004FE20B92321284600F0FFFD08B1FF2053
:103C200049E7002047E770B505460C4604212046C9
:103C3000FFF7ECF9206808B9012070BD40216268E7
:103C4000501C60602068815402216268501C6060D2
:103C50002068815429126268501C60602068815479
:103C60006268501C6060206885540020E5E70146CA
:103C70004878022801D001207047887820B9C87898
:103C80000A2801D10020F7E70120F5E770B50546C5
:103C90000C4604212046FFF7B9F9206808B9012035
:103CA00070BD50216268501C606020688154022100
:103CB0006268501C60602068815429126268501C40
:103CC0006060206881546268501C60602068855480
:103CD0000020E5E701464878022801D0012070471E
:103CE000887820B9C8780A2801D10020F7E7012098
:103CF000F5E770B505460C4604212046FFF786F926
:103D0000206808B9012070BD62216268501C6060A3
:103D10002068815402216268501C606020688154D0
:103D200029126268501C6060206881546268501CCF
:103D30006060206885540020E5E70246507802283C
:103D400001D0012070479078B0EB112F05D1D078C9
:103D5000CBB2984201D10020F4E70120F2E770B520
:103D600005460C4604212046FFF750F9206808B9A3
:103D7000012070BD70216268501C60602068815411
:103D800002216268501C60602068815429126268B8
:103D9000501C6060206881546268501C606020681C
:103DA00085540020E5E701464878022801D001202B
:103DB0007047887820B9C8780A2801D10020F7E731
:103DC0000120F5E710B5044602212046FFF71EF951
:103DD000206808B9012010BDC0216268501C6060D5
:103DE0002068815400216268501C60602068815402
:103DF0000020F0E710B54FF40071AE4800F0CFFDA1
:103E00000020AD49088010BDAB48008808B90120EA
:103E10007047A9480088A9490988884203D1002031
:103E2000A5490880F4E7A4480088A4490880012037
:103E3000EEE72DE9F04104460D46C826204600F085
:103E40003EFD87B23A4621469D48FDF78FFC0FE0C4
:103E5000FFF7DAFF48B92946964800F0FAFC20B18E
:103E6000FFF7C8FF0020BDE8F0810A20FDF796FBB0
:103E7000301EA6F10101CEB2EAD10120F3E730B540
:103E800089B004460D46FFF7B5FF2A468DA101A86B
:103E900000F026FA8FA101A8FFF7CBFF20B92A4630
:103EA00021468748FDF762FC09B030BD70B5054674
:103EB00000BFFFF7A9FF80B987A17E4800F0C9FCC9
:103EC000044654B10A21204600F0A7FC044614B170
:103ED000641C204670BD0020FCE70A20FDF75EFB55
:103EE000281EA5F101018DB2E3D100BFF2E708B5AC
:103EF00001211420FCF7FCFE10208DF80300C00205
:103F0000ADF8000003208DF8020069467448FCF704
:103F100033FC1020ADF8000069467148FCF72CFC1A
:103F200028208DF803002020ADF8000069466C4879
:103F3000FCF722FC012210216948FCF7CEFC02E0CC
:103F40000A20FDF72BFB20216548FCF7A8FC002880
:103F5000F6D00122D1036248FCF7BFFCFA20FDF73E
:103F60001DFB00224FF400415D48FCF7B6FC4FF406
:103F7000FA70FDF713FBFFF73DFF5AA15B48FDF711
:103F80000EFC03E04FF4FA70FDF708FB58A159A0AE
:103F9000FFF74FFF0028F5D158A15448FDF7FFFB6C
:103FA00003E04FF4FA70FDF7F9FA58A15BA0FFF7B0
:103FB00040FF0028F5D15CA14C48FDF7F0FB03E081
:103FC0004FF4FA70FDF7EAFA5BA15CA0FFF731FF4E
:103FD0000028F5D15CA14548FDF7E1FB03E04FF473
:103FE000FA70FDF7DBFA42A15BA0FFF722FF002881
:103FF000F5D15CA13D48FDF7D2FB03E04FF4FA7028
:10400000FDF7CCFA3AA15CA0FFF713FF0028F5D129
:104010005DA13648FDF7C3FB03E04FF4FA70FDF7EE
:10402000BDFA33A15CA0FFF704FF0028F5D15EA123
:104030002E48FDF7B4FB03E04FF4FA70FDF7AEFA3B
:104040002BA15DA0FFF7F5FE0028F5D15EA1274862
:10405000FDF7A5FB03E04FF4FA70FDF79FFA24A1EA
:104060005EA0FFF7E6FE0028F5D160A11F48FDF72E
:1040700096FB08BD10B540F225511148FDF760F8D8
:10408000B8B10D480088B0F5007F02D300200A497E
:1040900008800B48001D0088C1B2074802880088CC
:1040A000401C054B18800348815420210448FDF72B
:1040B0003EF810BD980000202E00002030000020A7
:1040C0000044004041542B495053454E443D256423
:1040D0000D0A00003E0000004950444154413A009E
:1040E00000100140312E2041540D0A0000380140DB
:1040F0004F4B000041540D0A00000000322E2041B9
:10410000542B4350494E3F0D0A0000002B435049A9
:104110004E3A2052454144590000000041542B437F
:1041200050494E3F0D0A0000332E2041542B43527C
:1041300045473F0D0A000000312C310041542B430C
:104140005245473F0D0A0000342E2041542B43476F
:104150005245473F0D0A000041542B434752454703
:104160003F0D0A00352E2041542B43474143543D17
:10417000312C310D0A00000041542B434741435478
:104180003D312C310D0A0000362E2041542B43477F
:104190004154543D310D0A0041542B43474154547E
:1041A0003D310D0A00000000372E2041542B434DB5
:1041B0004D55583D300D0A0041542B434D4D555837
:1041C0003D300D0A00000000382E2041542B434D95
:1041D000484541443D310D0A0000000041542B4345
:1041E0004D484541443D310D0A000000392E204D17
:1041F0003633313220496E6974204F4B0D0A00006E
:1042000070B5064600F018FC056806F10B0020F0BA
:104210000704B4429CBF002070BD2B466A68BAB147
:104220001068A04210D304F1080188423CBF5068D6
:10423000586007D35168101941601168091B01606B
:1042400058601460101D70BD13465268002AE7D1F3
:104250002146284600F0FCFB0028DED170BD70B579
:104260000446051F00F0E8FB0068002C14BF4468FA
:1042700070BD002C18BFAC423CBF20466468F8D328
:1042800001680A18AA4218BF456003D12A6805468A
:104290001144016028684119A1421CBF6C6070BDC7
:1042A0006168696021680844286070BD7CB51D465E
:1042B00016460C00009001D02044401E074B7B4462
:1042C0002A4669460190304600F0CFFE05461CB1F3
:1042D0000020694600F0DCFE28467CBDD90D0000B8
:1042E0000FB41CB5084B06AA7B446946009005989C
:1042F00000F0BBFE04460020694600F0C9FE2046DF
:104300001CBC5DF814FB0000A50D00000FB47CB5CB
:104310000C0009AA009001D02044401E084B7B44A9
:1043200069460190089800F0A0FE05461CB10020E7
:10433000694600F0ADFE28467CBC5DF814FB000029
:10434000790D000070B50C460546012A05D0287885
:10435000800600D5EA69002302E0012305E05B1C2A
:10436000934202D2E05C0028F9D1A869E618C01A8D
:10437000A861286A18442862284600F0BEFB04E0C1
:10438000D5E9012114F8010B9047B442F8D328462F
:1043900000F0C9FB70BD00002DE9F0410646002485
:1043A00010687529314616A510D000F0CDFB002805
:1043B00002DA404213A507E031688A0701D512A549
:1043C00002E0490704D511A5012401E000F0C5FB76
:1043D00000210A2206F1240709E0B0FBF2FCB0FB41
:1043E000F2F302FB1C00303078541846491C0028B8
:1043F000F3D123462A463046BDE8F04100F0B6BB73
:10440000000000002D0000002B0000002000000034
:104410002DE9F05F894604464FF0000ADFF874B1D9
:10442000FB44C0F820A02046E1688847002874D0EB
:10443000252806D0D4E901219047206A401C20623B
:10444000F1E700265F462046E168884720280546B8
:1044500007DB312D05D2781910F8200C08B106437E
:10446000F1E7B00701D526F00406C4F81CA0002728
:10447000C4F818A02A2D09D0284602F059F838B3FC
:1044800004EB8708303DC8F8185019E059F8041BB0
:10449000204604EB87029161E1688847012F0546B9
:1044A00018D1E069002820DA26F020061DE0D8F8AF
:1044B000180000EB800005EB40003038C8F8180009
:1044C0002046E1688847054602F032F80028EED120
:1044D000012F0AD02E2D08D12046E16888477F1C85
:1044E0000546022F46F02006C4DBA069002803DA47
:1044F000404246F00106A061F00701D026F0100608
:104500006C2D0BD0682D09D04C2D39D06A2D35D0AB
:10451000742D35D07A2D33D016E038E0E1682F467F
:1045200020468847B842054609D16C2F26D04FF463
:104530008060E168064320468847054604E06C2F0A
:104540001AD04FF4807006430DB3A5F1410019282D
:1045500002D8203546F400664A46294620462660A1
:104560004E46FBF71FFE80B101280BD0F61D26F04A
:10457000070000F1080956E74020E4E78020D8E76B
:104580000020D6E706F104094DE7284652E7206AE5
:10459000BDE8F09F0A3100000FB400B58DB010A93E
:1045A000099000910B904FF0FF300A9000200C9082
:1045B000064878440690064878446A4607900F9962
:1045C00009A800F0BBFE0DB05DF814FBA70D0000BC
:1045D000BF0D00002DE9FF5F1D464FF0FF3B9146E8
:1045E0004FF000085F46D5E90146A96901987F1C94
:1045F0008847296A824688470028F6D1BAF1FF3FEA
:104600000CD0002E24F4C06419DD600614D5BAF174
:104610002B0F09D0BAF12D0F0ED103E0584604B08C
:10462000BDE8F09F44F48064A96901987F1C884725
:10463000761E8246002E02DDBAF1300F03D0B9F1AA
:10464000000F26D032E0A969761E01987F1C44F441
:1046500000748847002E824605DDBAF1780F06D037
:10466000BAF1580F03D0B9F1000F10D01EE0B9F124
:10467000000F02D0B9F1100F18D1A969761E019868
:104680007F1C24F4007488478246102002E0082032
:1046900000E00A20814609E0A96908FB0908761EA6
:1046A00001987F1C44F4007488478246002E05DD83
:1046B0004946504600F02EFE0028EDDAE9690198DF
:1046C0008847A00502D46FF00100A8E7E00725D1D4
:1046D000600613D5600502D5C8F1000000E0404631
:1046E00029680A1D2A600968220501D5087015E0AD
:1046F000220701D5088011E008600FE02868011D3D
:1047000029600068210502D580F8008006E02107B5
:1047100002D5A0F8008001E0C0F8008038467EE7AE
:104720002DE9FF5F4FF0000899461446464691690F
:10473000D2E901A7DDF838B001988847054659EA63
:104740000B0005D009E0A1690198761C8847054651
:10475000216A284688470028F5D1681C03D05FEA03
:10476000CA7005D015E04FF0FF3004B0BDE8F09FEF
:104770002068011D2160D0F800800AE05FEACA705D
:1047800001D108F8015BA169761C01987F1E88475A
:104790000546002F1ADD681C18D0B9F1000F0DD0A6
:1047A000E81705EBD060421120F01F0059F82210E5
:1047B0002A1A012090400142E0D107E0BBF1000F2E
:1047C000DCD12846216A88470028D7D0E1690198C2
:1047D0008847BBF1000F07D1002E05DD5FEACA70E4
:1047E00002D1002188F80010A068B84203DDBBF1B7
:1047F000000F03D017B16FF00100B6E73046B4E701
:1048000070B5064600F01CF90468054630460A22D9
:10481000002100F0C3FD2C6070BD401ECAB210F82C
:10482000011F8A4202D00029F9D10020704710B53B
:10483000431E13F8014F002CFBD105E011F8014B8A
:10484000002C03F8014B03D0521EF7D2002119703F
:1048500010BD30B505460B462A4613F8014B12F839
:10486000010B08B1A042F8D01CB1002802D06D1C89
:10487000F1E7284630BD40EA0103024630B59B0708
:1048800010D14FF0013400E008C208C91D1B9D4340
:1048900015EAC41FF8D013F0FF0102F8011B0DD078
:1048A0001B0AF8E711F8013B002B02F8013B05D089
:1048B00011F8013B002B02F8013BF3D130BD10B5DC
:1048C000431C02E010F8011B71B18107FAD14FF0CF
:1048D000013202C88C1A8C4314EAC211F9D0C01AF2
:1048E0000A0603D0C01E10BDC01A10BD0A0401D0B4
:1048F000801E10BD0902FCD0401E10BD421E12F8E1
:10490000013F002BFBD111F8013B002B02F8013BCA
:10491000F9D17047032A40F2308010F0030C00F008
:10492000158011F8013BBCF1020F624498BF11F8E9
:1049300001CB00F8013B38BF11F8013BA2F10402A2
:1049400098BF00F801CB38BF00F8013B11F003031A
:1049500000F05C85083AC0F0088051F8043B083A42
:1049600051F804CBA0E80810F5E7121D5CBF51F820
:10497000043B40F8043BAFF30080D20724BF11F89A
:10498000013B11F801CB48BF11F8012B24BF00F8FF
:10499000013B00F801CB48BF00F8012B70474FF0F6
:1049A00000020429C0F0128010F0030C00F01B80FC
:1049B000CCF1040CBCF1020F18BF00F8012BA8BF0A
:1049C00020F8022BA1EB0C0100F00DB85FEAC17CCE
:1049D00024BF00F8012B00F8012B48BF00F8012B81
:1049E00070474FF0000200B51346944696462039B2
:1049F00022BFA0E80C50A0E80C50B1F12001BFF498
:104A0000F7AF090728BFA0E80C5048BF0CC05DF8FD
:104A100004EB890028BF40F8042B08BF704748BF4B
:104A200020F8022B11F0804F18BF00F8012B7047BF
:104A3000704770477047000000487047A002002090
:104A400000487047980200207047704770477047D1
:104A500038B504460A4600206946AFF300800028B6
:104A600008BF38BD02460099204600F011FD012024
:104A700038BD012001F062B8F8B5AFF300800546FB
:104A800000200C46102000BF0646A819A0420DD9F0
:104A9000324669460020AFF30080070008BF01F0EE
:104AA0004DF80098A04218BF0546C419FFF7C4FF8F
:104AB00005600746F01D20F007004619284600F063
:104AC0000AF8B44208BFF8BDA21B31463868BDE8F9
:104AD000F84000F0DDBC00210160C0E90110704722
:104AE0001020704710B5FFF7ABFF006810BD10B580
:104AF0000446FFF7A5FF046010BD70B50446856944
:104B00000068C10601D5302600E02026C00707D086
:104B100070BDD4E9012130469047206A401C2062D4
:104B20006D1EF6D570BD70B5044685690078C00766
:104B300007D170BDD4E9012120209047206A401C94
:104B400020626D1EF6D570BD09684A0501D540B2D8
:104B50007047C905FCD500B2704709684A0501D500
:104B6000C0B27047C905FCD580B270472DE9F04747
:104B70000D4699469246044600F1240801688806CD
:104B800004D5E06921F01001216000E00120A84275
:104B900001DD471B00E00027A1697A1902EB09003B
:104BA000081AA0612078C00602D42046FFF7A5FFAE
:104BB000002608E0D4E901211AF806009047206A8F
:104BC000401C761C20624E45F4DB2078C0060AD5D6
:104BD0002046FFF792FF06E0D4E9012130209047FC
:104BE000206A401C2062381EA7F10107F4DC07E0B0
:104BF000D4E9012118F805009047206A401C206282
:104C0000281EA5F10105F3DC2046FFF78CFF207874
:104C1000000602D50220BDE8F0870120FBE71168FD
:104C20000268006A530501D508700AE0D30501D572
:104C3000088006E0130603D5C217C1E9000200E0B0
:104C400008600120704770472DE9FF4F0C461E4653
:104C50004FF0FF378BB0D2E90001DDF860800A9099
:104C60008A46C1F30A5505B93D46002108464FF072
:104C70000000BAF1000F00F4400005DA00EB8000FC
:104C80004FF4400101EA50004FEA9059B9F1010F89
:104C900000DDB9460A9850EA4A000ED044F610509A
:104CA000A5F2FF3545432F14B8F1000F1ED0754211
:104CB000291E1EDDC9F100021CE0B8F1010F4FF002
:104CC000000001D0302103E0F24305E02154401CF4
:104CD000B042FBDB30460022002121540B99C1F881
:104CE0000880C1E900200FB0BDE8F08FBD1B6D1C2E
:104CF000DEE74A4600DA694206A800F091FE06ABFC
:104D000093E8070003AB83E8070050460A9900F0D8
:104D1000DFFF8DE80700A0F500501F3800900398D2
:104D2000002D09DD42F21F014A46084403A9039001
:104D3000684601F03EFA08E0A0F500504A461F38E8
:104D400003A90390684601F048FA8DE807000004C3
:104D5000000C03D04FF0FF30410800E01046B8F1DE
:104D6000000F03D00022009215461EE0751E05D4E8
:104D700000F0A8FB303262556D1EF9D5B346012212
:104D8000084302D000227F1C04E02078302801D1A3
:104D900000227F1E002A099786D01DE0112D07DA18
:104DA00000F090FB303262556D1C50EA0102F5D1E3
:104DB000084302D00098C8B10EE00021681E05E04B
:104DC000235C625C63542254401E491C8142F7DB21
:104DD000AB46A81B401E0990002004F80B000B985E
:104DE000099AC0F80880C0E9002B7CE711264FF033
:104DF000000859E72DE9F04F88460446D21D22F0FD
:104E0000070191B0D1E90001CDE90A0101F01BFBD6
:104E100002460B98C00F01D02D2007E020688107C3
:104E200001D52B2002E0202101EAC000032A0990CD
:104E300001D0072A05DB03464146204600F090FBDF
:104E40000BE12078800601D5E06900E00620B8F18A
:104E5000650F814606D0B8F1660F18D0B8F1670F1C
:104E600070D131E00020B9F1110F009001DB112366
:104E700001E009F101030AAA01A90CA8FFF7E4FE69
:104E8000DDE90C70002609F10105834647E00120A9
:104E90004B4600904FF000470AAA01A90CA8FFF763
:104EA000D3FEDDE90DB00C995D46002610B909F17D
:104EB00001000D18B9EB050003D4C0F1FF3609F16C
:104EC0000105A5EB09002BE0B9F1010F01DA4FF064
:104ED00001090020B9F1110F0090484601DD1123AE
:104EE00000E003460AAA01A90CA8FFF7ADFEDDE920
:104EF0000C704D4600268346207800070AD4AB4547
:104F000000DA5D4601A8012D04DD411911F8011CEC
:104F1000302907D04F4502DA17F1040F04DA0120D7
:104F200082460FE06D1EEEE7002F02DCED1B3E44D3
:104F300003E0781CA84200DD7D1CB81B00F1010ACB
:104F40004FF000472078000703D4AA4501DB4FF05B
:104F5000FF3A0021B7F1004F0DF143088DF84310DF
:104F600024D002202B23002F01DA7F422D230A2197
:104F7000021EA0F1010000DC5FB197FBF1FC97FB82
:104F8000F1F201FB1C7C17460CF1300C08F801CD46
:104F9000EEE7A8F1010003702188090501D545213C
:104FA00000E06521A0F1010800F8011C09980FA993
:104FB000A1EB0807FF1D00B10120411901EBEA70C8
:104FC000A1693844081A401EA0612078C00602D4A6
:104FD0002046FFF792FD099828B1D4E901219047B6
:104FE000206A401C20622078C00622D52046FFF7A8
:104FF00084FD1EE0002E04DBB34502DD01A8805DC8
:1050000000E03020D4E901219047206A401C206252
:10501000761CAAF101005FEA000A0AD100F034FA16
:10502000C0680168405CD4E901219047206A401CB7
:105030002062281EA5F10105DCDC07E0D4E901218E
:1050400018F8010B9047206A401C2062381EA7F117
:105050000107F3DC2046FFF766FD032011B043E6AD
:1050600001694A1C02610878704700B58FB0CDE92C
:1050700001310021059105497944CDE9031011461C
:105080006846FFF7C5F90FB000BD0000E5FFFFFF60
:105090000A6802F8010B0A607047D1E900239A42BE
:1050A00002D2531C0B601070704710B5436913B1E6
:1050B000AFF3008001E0FFF745F9012010BD127841
:1050C00000F124010A7000224A700122EDE7116804
:1050D0004FF0FF32E9E700002DE9FF5F15468A46F1
:1050E0000446DFF8AC80F8440027D8E900103E46BB
:1050F000CDE9001010E03AF816106A4602A800F058
:10510000FDFC411C07D02178890603D5E2693918D6
:1051100091420DD80744761C2078800602D5E069BC
:10512000B84205DDAE42E6DB3AF816000028E2D1CF
:10513000A069C01BA0612046FFF7DFFCD8E9001082
:10514000CDE90010002017E03AF818106A4602A8CE
:1051500000F0D4FCB0F1FF3F81460BD000250DF1EB
:10516000080B05E0D4E901211BF8050090476D1CF0
:105170004D45F7D308F10100B0428046E4DB206AD8
:10518000384420622046FFF7CEFCBDE8FF9F0000B8
:10519000EE2400002DE9F0418046D21D22F00702E6
:1051A0000025D2E90002F52915A614D0011E72F1DE
:1051B000000106DA0023D0EB030063EB020211A624
:1051C00008E0D8F800108B0701D50FA602E04907C8
:1051D00001D50EA601251146002408F1240704E09C
:1051E00000F070F930323A55641C50EA0102F7D1F0
:1051F0002B46324621464046BDE8F041FFF7B6BC9B
:10520000000000002D0000002B0000002000000026
:1052100030B4002100F1240408E002F00705D208B0
:10522000303542EA4372DB086554491C52EA0305F3
:10523000F3D10468002310A2250708D504F0200448
:105240000C4304D0C46901230CA2641EC46130BCA9
:10525000FFF78CBC10B5044621461068FFF77DFCB3
:1052600002462046BDE810400023D1E7D21D22F0BF
:105270000701D1E90023CBE7000000003000000067
:10528000F0B40D460188090502D5214C7C4402E0AA
:105290001F4C7C440E34002100F1240608E002F08B
:1052A0000F071209E75D42EA03721B097754491C94
:1052B00052EA0307F3D102780023120704D5702DB8
:1052C00006D009B1022311342246F0BCFFF74EBCD0
:1052D00001231034F8E770B504460D4621461068E6
:1052E000FFF73BFC024629462046BDE870400023FC
:1052F000C6E7D21D22F00703D3E90023C0E7036805
:10530000126843F0200303600823C3610023B7E75A
:10531000502300003A2800D2303820F02002412AE1
:1053200001D3A2F13700884201D34FF0FF3070471C
:10533000026811441378016018467047D16005492E
:105340007944516104497944116200211161114687
:1053500000F05CB9EDFFFFFF05020000426842B1BA
:10536000016811F8013B23B1521EC0E90012184632
:1053700070470121C160881E704742685AB1C368F6
:10538000016843B983688B4205D0491E521CC0E9AD
:105390000012002070474FF0FF3070472DE9F047B2
:1053A00091460F4680460446002614F8015B2DB155
:1053B00000F062F80068405DC007F6D12B2D02D0E6
:1053C0002D2D18D0641E4A463946204600F0D8FAE2
:1053D00027B13968A14201D1C7F800804FF002041B
:1053E00071050BD54042002803DDFFF729FB04605F
:1053F000A007BDE8F08746F48066E4E70028F8DA05
:10540000FFF71EFB04606FF00040F2E710B5203A92
:10541000C0F00B80B1E81850203AA0E81850B1E86D
:105420001850A0E81850BFF4F5AF5FEA027C24BF23
:10543000B1E81850A0E8185044BF18C918C0BDE81A
:1054400010405FEA827C24BF51F8043B40F8043BE3
:1054500008BF7047D20728BF31F8023B48BF11F898
:10546000012B28BF20F8023B48BF00F8012B7047F2
:10547000004870479802002010B500F005F8001DA4
:1054800010BD00BF5513000000487047B80200204F
:10549000034640688C46002818BF88423CBF03463C
:1054A0004068F8D318681844884207D00CF103000C
:1054B00020F00700001D411A521A0146081D0A601B
:1054C000FEF7CDBE30B5B0F10A024FEA900E71F191
:1054D00000034EEA817EB0EB0E0061EB91014FEAD2
:1054E000101E4EEA017E10EB0E0041EB11114FEA47
:1054F000102E4EEA016E10EB0E0041EB11214FEA27
:10550000104E4EEA014E10EB0E0041EB11414018D7
:1055100041F100014FEAD00040EA41704FEAD10169
:1055200010EB80054FEA810444EA907444EB0104D7
:105530006D1944EB0404521BA3414FF0000348BF14
:105540000A3200D530BD401C41F1000130BD10B51C
:105550000446FFF791FF0068005D00F0010010BDF8
:105560002DE9F0411F46044603260168072A01F48D
:10557000006004DB08B116A505E016A503E008B13C
:1055800015A500E015A521F010002060A069C01E3F
:10559000A0610FB1401EA0612046FFF7AEFA4FB1E7
:1055A000D4E9012138469047206A401C2062C01C83
:1055B000206206E0206AFAE7D4E9012115F8010B20
:1055C0009047761EF8D22046FFF7ADFABDE8F0818D
:1055D0004E414E006E616E00494E4600696E660097
:1055E00010B5436913B1AFF3008001E0FFF774FD1C
:1055F000012010BD128800F1240182840022C2849F
:105600000122EDE711684FF0FF32E9E72DE9F34F92
:105610004FF0000A0C4656468DB001200C9001F167
:105620000C000B9062690B9801219047051E2DD04C
:10563000252D2CD0216A8847C0B162690B980121C1
:105640009047216A88470028F7D16269411E0B986C
:10565000904700E0761CA1690D988847216A884729
:105660000028F7D1E1690D988847DBE7A1690D981B
:105670008847A842074601D1761CD3E7E1690D9817
:1056800088477F1C02D1BAF1000F6FD06BE16269CD
:105690000B9800273D46394690472A2804D1626975
:1056A0000B98012190470125DFF8D08262690B98A1
:1056B00001219047A0F130010A290AD24745E5DCD3
:1056C00007EB870100EB4107303FDFD445F01005C1
:1056D000ECE7E90601D46FF000476C280AD04C28AB
:1056E00014D0682815D06A280DD074281CD07A28C8
:1056F0001AD01DE062690B98012190476C2802D0F6
:1057000045F0040514E045F002050DE045F02005E4
:105710000AE062690B9801219047682802D045F0A1
:10572000080505E045F4006562690B980121904782
:10573000C4E9015765283DD019DC58287AD00CDC23
:10574000452837D004DC252826D041289ED131E0D9
:1057500046282FD0472899D12CE05B2877D06128A4
:1057600028D063287CD0642823D15AE0F6E06F2843
:1057700048D008DC66281DD067281BD0692821D0B6
:105780006E2816D127E0702845D0732868D0752878
:1057900047D078280DD14DE0A1690D98884725287C
:1057A00005463FF469AFE1690D9888476D1C3FF4E9
:1057B0006AAFD8E00D9923466A466FF00100AFF357
:1057C0000080C5E045F0400023464FF000026060D5
:1057D000A80736D43EE0E8077FF447AF2068011DF4
:1057E00021600068290501D506701BE7290701D54E
:1057F000068017E7A90703D5F117C0E9006111E793
:1058000006600FE745F0400023464FF00802606055
:10581000A80716D41EE040F60E0125EA01006060DC
:1058200016E045F0400023464FF00A026060A807EA
:1058300007D40FE045F040006060A80708D5234674
:1058400010220D996FF00100AFF3008080E007E0B7
:10585000102223460D996FF00100FEF7BBFE77E0A2
:105860004FF0000963284F46C8464B46CB4602D04E
:105870005B2806D038E0E80601D40120A0600127AB
:1058800032E06269D4F80CB00B98012190475E2891
:1058900007D14FF0010949466269D4F80CB00B9862
:1058A0009047216939B900210A4603AB43F821200A
:1058B000491C0829FADBD8B3216949B308F101086A
:1058C00062690B98012190475D28F4D1B9F1000F6E
:1058D00009D0002003A951F82020D24341F820200C
:1058E000401C0828F7DB03AB2069002820794FEA29
:1058F00040701ED05B462246CDF80080CDE901976E
:105900000D9900286FF0010020DAAFF300801FE04E
:10591000C11703AA00EBD1614B1121F01F0102EB6B
:105920008302411A13680120884003431360C7E7CC
:1059300019E00D99224600286FF00100009702DA65
:10594000AFF3008004E0FEF7EBFE01E0AFF3008070
:1059500000280ADA401C06D10C9820B14FF0FF3025
:105960000FB0BDE8F08F5046FAE7E90701D10AF120
:10597000010A064400200C9054E60000CCCCCC0C6C
:105980002DE9F05F824615468B4600270AF1010497
:10599000B9460078302801D09DB113E014F8010B0E
:1059A0000127782803D0582801D045B10AE00DB16D
:1059B000102D07D1002714F8010B102502E008254F
:1059C00000E00A250026B0460EE005FB080005FBB6
:1059D00006F101271FFA80F801EB1046B6F5803F6B
:1059E00000D3B94614F8010B2946FFF793FC0028B1
:1059F000EBDABBF1000F05D00FB1641E00E0544696
:105A0000CBF80040B9F1000F06D0FFF719F80221DA
:105A10000160C81EBDE8F09F48EA0640FAE70000B2
:105A20002DE9F047814616468AB0334878440DC8C0
:105A30008DE80D0030487844801C03AC0DC884E824
:105A40000D0041F69B300844372190FBF1F290FBAA
:105A5000F1F5A5F1800501FB12041B3C02D564425F
:105A6000012000E00020DFF890A080460027FA44E3
:105A7000AAF1BE0A0DE0E00709D03246684607EBFE
:105A800047010AEB810100F0A8FB8DE807006410D4
:105A90007F1C002CEFD1184F7F44AC3F18E0E80783
:105AA00014D007EB04100DF1180A90E80E008AE8F4
:105AB0000E00C068F04201D198190890324606A93C
:105AC00003A800F08AFB03AB83E807006D10641C99
:105AD000002DE4D132466946B8F1000F03A802D088
