:020000040800F2
:10000000400900209D0500088102000883020008C5
:100010008F0200089B020008A702000800000000F1
:10002000000000000000000000000000B302000813
:10003000B502000800000000B3050008B702000880
:10004000B7050008B7050008B7050008BB0200089F
:10005000B7050008B7050008B9020008B705000891
:10006000B7050008B7050008B7050008B705000880
:10007000B7050008B7050008B7050008B705000870
:10008000B7050008B7050008B7050008B705000860
:10009000B7050008B7050008B7050008B705000850
:1000A000B7050008B7050008B7050008B705000840
:1000B000B7050008B7050008B7050008B705000830
:1000C000B7050008B7050008B7050008B705000820
:1000D000B7050008E717000833270008B705000830
:1000E000B7050008B7050008B7050008B705000800
:1000F000B7050008B7050008B7050008B7050008F0
:10010000B7050008B7050008B7050008B7050008DF
:10011000B7050008B7050008B7050008B7050008CF
:10012000B7050008B7050008B7050008B7050008BF
:1001300000F002F800F094F80AA090E8000C824465
:100140008344AAF10107DA4501D100F089F8AFF242
:10015000090EBAE80F0013F0010F18BFFB1A43F0A5
:10016000010318471055000030550000103A24BF15
:1001700078C878C1FAD8520724BF30C830C144BF0C
:1001800004680C607047000000230024002500264E
:10019000103A28BF78C1FBD8520728BF30C148BFEA
:1001A0000B6070476E2902F0E786702903F03180FA
:1001B000662905F02B81652905F02881672905F05E
:1001C00025816129AFF3008003681B0A28BF41F035
:1001D0008001692902F01C84642902F019847529C0
:1001E00002F016846F2902F0BF87782902F0FD879C
:1001F000E92902F05987E42902F05687F52902F02F
:100200005387EF2902F0BC87F82902F0FC870368C6
:10021000DB0928BF41F08001632903F0E7827329DD
:1002200003F0EC82E32903F0F782F32903F0FC8268
:10023000002070471FB59DE8030002F0A1FD03F008
:1002400093FB04000020002104F058FA401C606079
:100250000020002104F068FAE0601FBD10B510BD59
:1002600003F05DFB1146FFF7E5FF01F039FE03F0F7
:100270003BFC03B4FFF7F2FF03BC03F06BFC000090
:1002800070470EA11C4801F08AFA00BFFEE71BA1CF
:10029000194801F084FA00BFFEE727A1164801F0D3
:1002A0007EFA00BFFEE733A1134801F078FA00BFE1
:1002B000FEE7704770477047704770470D0A2A2A5B
:1002C0002A2A2A2A2A2A2A2A2A2A2A2A2A2A2A2A8E
:1002D0002A486172644661756C745F48616E646C33
:1002E00065722A2A2A2A2A2A2A2A2A2A2A2A2A2AEB
:1002F0002A2A2A2A2A0D0A00003801400D0A2A2A31
:100300002A2A2A2A2A2A2A2A2A2A2A2A2A2A2A2A4D
:100310002A4D656D4D616E6167655F48616E646C05
:1003200065722A2A2A2A2A2A2A2A2A2A2A2A2A2AAA
:100330002A2A2A2A2A0D0A000D0A2A2A2A2A2A2AC1
:100340002A2A2A2A2A2A2A2A2A2A2A2A2A42757361
:100350004661756C745F48616E646C65722A2A2A06
:100360002A2A2A2A2A2A2A2A2A2A2A2A2A2A2A2AED
:100370000D0A00000D0A2A2A2A2A2A2A2A2A2A2AAB
:100380002A2A2A2A2A2A2A2A2A5573616765466157
:10039000756C745F48616E646C65722A2A2A2A2A19
:1003A0002A2A2A2A2A2A2A2A2A2A2A2A2A2A0D0AEA
:1003B000000000000CB50020019000906C4800681F
:1003C00040F480306A49086000BF6948006800F462
:1003D000003000900198401C0190009818B90198D5
:1003E000B0F5A06FF1D16248006800F4003010B1A0
:1003F0000120009001E0002000900098012843D1E6
:100400005C48006840F010005A49086008460068DF
:1004100020F0030008600846006840F00200086011
:10042000534840685249486008464068486008465A
:10043000406840F4806048600846406820F47C10C2
:1004400048600846406840F48810486008460068E4
:1004500040F08070086000BF4548006800F0007000
:100460000028F9D04248406820F003004049486025
:100470000846406840F00200486000BF3C484068C1
:1004800000F00C000828F9D10CBD10B5FFF792FF61
:1004900010BD10B53648006840F0010034490860CE
:1004A00008464068344908403149486008460068B9
:1004B000324908402E4908600846006820F4802030
:1004C00008600846406820F4FE0048604FF41F00B2
:1004D0008860FFF7DAFF4FF000602949086010BD1F
:1004E00010B5002100200022214B5B6803F00C01B5
:1004F00021B1042906D0082928D107E0214B224C3C
:10050000236027E0214B204C236023E0184B5B68DD
:1005100003F47010164B5B6803F48032022303EB84
:10052000904022B91A4B4343174C23600DE0104B07
:100530005B6803F4003323B1164B4343124C236032
:1005400003E0124B4343104C236003E00D4B0E4C71
:10055000236000BF00BF064B5B68C3F303130E4C60
:10056000E15C094B1B68CB40074C236010BD0000C9
:1005700000100240002002400000FFF8FFFFF6FEDE
:1005800008ED00E000127A0000000020001BB70018
:1005900000093D00808D5B00040000200948804771
:1005A00009480047FEE7FEE7FEE7FEE7FEE7FEE755
:1005B000FEE7FEE7FEE7FEE704480549054A064B6D
:1005C000704700009304000831010008400100203A
:1005D000400900204005002040050020314901432A
:1005E000314A1160704770B5002100230F22C47892
:1005F00004B32D4C246804F4E064C4F5E064210ADB
:10060000C1F10403CA40447804FA03F18478144029
:1006100021430901254C0678A155047804F01F05F3
:100620000124AC4005786D11AD0005F1E025C5F859
:10063000004109E0047804F01F050124AC401C4D82
:100640000678761145F8264070BD1A4A0A400243E2
:10065000154B1B1F1A60704739B1134A121D1268DF
:100660000243114B1B1D1A6006E00F4A121D12684F
:1006700082430D4B1B1D1A607047042808D14FF0B0
:10068000E021096941F004014FF0E022116107E027
:100690004FF0E021096921F004014FF0E0221161DF
:1006A000704700000000FA050CED00E000E400E0F7
:1006B00080E100E080FFFF1F10B50446CC48844273
:1006C00008D10121042000F02DFB0021042000F0BE
:1006D00029FB46E0C748844208D10121082000F0E8
:1006E00021FB0021082000F01DFB3AE0C2488442B3
:1006F00008D10121102000F015FB0021102000F08E
:1007000011FB2EE0BD48844208D10121202000F0D9
:1007100009FB0021202000F005FB22E0B8488442BC
:1007200008D10121402000F0FDFA0021402000F016
:10073000F9FA16E0B348844208D10121802000F084
:10074000F1FA0021802000F0EDFA0AE0AE48844280
:1007500007D10121801500F0E5FA0021A01500F075
:10076000E1FA10BD10B50121084600F0DBFA0021C6
:10077000012000F0D7FA10BD2DE9F0410246002516
:100780000026002000230024002791F803C00CF06D
:100790000F0591F803C00CF0100CBCF1000F03D052
:1007A00091F802C04CEA050591F800C0BCF1000FB9
:1007B00031D0146800202BE04FF0010C0CFA00F34C
:1007C000B1F800C00CEA03069E4220D183004FF02E
:1007D0000F0C0CFA03F7BC4305FA03FC4CEA0404C3
:1007E00091F803C0BCF1280F06D14FF0010C0CFAB0
:1007F00000FCC2F814C00AE091F803C0BCF1480F35
:1008000005D14FF0010C0CFA00FCC2F810C0401CDE
:100810000828D1D31460B1F800C0BCF1FF0F34DD5B
:10082000546800202EE000F1080C4FF0010808FA8F
:100830000CF3B1F800C00CEA03069E4221D18300FC
:100840004FF00F0C0CFA03F7BC4305FA03FC4CEA1B
:10085000040491F803C0BCF1280F05D100F1080C85
:1008600008FA0CF8C2F8148091F803C0BCF1480FE4
:1008700007D100F1080C4FF0010808FA0CF8C2F893
:100880001080401C0828CED35460BDE8F0814FF69C
:10089000FF710180022181700421C17070470246FE
:1008A000002093680B400BB1012000E0002070474E
:1008B0000146886880B2704702460020D3680B402A
:1008C0000BB1012000E0002070470146C86880B2EB
:1008D000704701617047416170470AB1016100E0F2
:1008E00041617047C16070474FF480320A438261B2
:1008F0008161826182698269704702460020434BB0
:1009000018684FF68073184040EA021008433F4BC6
:10091000186070473E49C8617047F0B50A46002329
:1009200000240021002500F00046B6F1004F02D15E
:10093000364EF16901E0354E7168C0F3034583B26C
:1009400000F44016B6F5401F08D121F070612F4E1B
:10095000766826F070662D4F7E6012E000F48016F7
:10096000B6F5801F06D1032606FA05F4A14341F02F
:10097000706106E0460D360103FA06F6B14341F018
:10098000706122B1460D360103FA06F6314300F0DC
:100990000046B6F1004F02D11C4EF16101E01B4E42
:1009A0007160F0BD30B500228B071C0F0F2303FAD6
:1009B00004F2164B08338C1053F824309343134C35
:1009C00008348D1044F8253023468C1053F8243019
:1009D0008C07240F00FA04F423430C4C08348D10C8
:1009E00044F8253030BD0A49DC310860704700000A
:1009F00000080140000C01400010014000140140BB
:100A000000180140001C014000200140000001408E
:100A100000002042DF48006840F00100DD49086026
:100A200008464068DC490840DA49486008460068E2
:100A3000DA490840D74908600846006820F4802059
:100A400008600846406820F4FE0048604FF41F002C
:100A500088607047CF49096821F48031CD4A116020
:100A60001146096821F480211160B0F5803F03D060
:100A7000B0F5802F0ED106E0C649096841F48031F7
:100A8000C44A116007E0C349096841F4A021C14A82
:100A9000116000E000BF00BF704710B501460022A2
:100AA000002300204A11012A02D1BA4C236806E033
:100AB000022A02D1B74C236A01E0B64C636A01F006
:100AC0001F02012494401C400CB1012000E00020D2
:100AD00010BD38B5002000900024002500BF312053
:100AE000FFF7DBFF05460098401C00900098B0F52A
:100AF000A06F01D0002DF2D03120FFF7CEFF08B15A
:100B0000012400E00024204638BD01460020A14A0F
:100B1000106820F0F80040EAC10010607047A0495A
:100B200008607047024600209A4B586820F47C10F9
:100B300042EA01031843974B58607047984908668A
:100B4000704701460020934A506820F00300084394
:100B5000506070478F48406800F00C0070470146B5
:100B600000208C4A506820F0F00008435060704725
:100B700001460020874A506820F4E0600843506036
:100B8000704701460020834A506820F4605040EAD4
:100B9000C1005060704729B17E4A527A02437D4BB2
:100BA0005A7204E07B4A527A82437A4B5A727047F7
:100BB0007B49D8310860704701460020754A50686B
:100BC00020F440400843506070470021714A2032B1
:100BD0001170704A82F82010012802D004280AD12E
:100BE00004E001216B4A2032117005E00521694AB9
:100BF0002032117000E000BF00BF704769490860F3
:100C000070476449096A0143624A11627047654945
:100C100044390860704730B50021002200240023C9
:100C20005C4D6D6805F00C0121B1042905D008293F
:100C300023D105E05C4D056022E05C4D05601FE0BE
:100C4000544D6D6805F47012524D6D6805F4803492
:100C5000022505EB92421CB9554D554305600BE04A
:100C60004C4D6D6805F400351DB1524D554305607E
:100C700002E04E4D5543056002E04B4D056000BF5C
:100C800000BF444D6D6805F0F00109094A4D6B5CE9
:100C90000568DD4045603F4D6D6805F4E061090A77
:100CA000454D6B5C4568DD4085603A4D6D6805F4E7
:100CB0006051C90A404D6B5C4568DD40C560354DEB
:100CC0006D6805F44041890B3C4D6B5CC568B5FB14
:100CD000F3F5056130BD29B12E4A526902432D4B0F
:100CE0005A6104E02B4A526982432A4B5A61704789
:100CF00029B1284A92690243264B9A6104E0254AA9
:100D000092698243234B9A61704729B1214AD26983
:100D10000243204BDA6104E01E4AD26982431D4B34
:100D2000DA61704729B11B4AD2680243194BDA6075
:100D300004E0184AD2688243164BDA60704729B142
:100D4000144A12690243134B1A6104E0114A1269F2
:100D50008243104B1A61704712494039086070474E
:100D60000F49C86470470B49C87170470948406A09
:100D700040F0807007494862704701460020054AEC
:100D800092680A400AB1012000E000207047014942
:100D900088727047001002400000FFF8FFFFF6FE67
:100DA000000042428004424200127A00001BB70059
:100DB00000093D00808D5B0014000020240000200D
:100DC00010B50446FB48844209D101218803FFF78E
:100DD000A9FF00214FF48040FFF7A4FF32E0F6485E
:100DE000844209D101214804FFF7A9FF00214FF4F3
:100DF0000030FFF7A4FF25E0F048844209D101212B
:100E00008804FFF79CFF00214FF48020FFF797FF35
:100E100018E0EB48844209D10121C804FFF78FFF95
:100E200000214FF40020FFF78AFF0BE0E5488442E1
:100E300008D101210805FFF782FF00214FF480103F
:100E4000FFF77DFF10BD2DE9F04786B005460E4641
:100E50000024A24600BFA1460027B08900B100BF10
:100E60002F462C8A4CF6FF700440F08804432C82F5
:100E7000AC894EF6F3100440B0883189084371897B
:100E800008430443AC81AC8A4FF6FF400440B0896C
:100E90000443AC8201A8FFF7BEFEC648874202D1D8
:100EA000DDF810A001E0DDF80CA0A88900F40040F6
:100EB00040B10AEBCA0000EB0A1031684900B0FBF0
:100EC000F1F807E00AEBCA0000EB0A10316889006C
:100ED000B0FBF1F86420B8FBF0F0040120096421B4
:100EE00001FB1089A88900F4004040B1322000EBDA
:100EF000C900B0FBF1F000F00700044308E0322025
:100F000000EB09106421B0FBF1F000F00F00044386
:100F10002C8106B0BDE8F0874FF416510160002126
:100F20008180C18001810C21418100218181704734
:100F300010B502460020108A4FF2FF0318400B88BC
:100F40004C8823438C882343CC8823431843108246
:100F500010BD0021018041808180C180704721B196
:100F6000828942F40052828104E082894DF6FF7347
:100F70001A4082817047F0B5034600240026002500
:100F8000002040F66A17B94200D100BF1846C1F3ED
:100F9000421401F01F06012707FA06F5012C01D1C2
:100FA0000C3004E0022C01D1103000E014301AB1F2
:100FB00007682F43076002E00768AF430760F0BD92
:100FC0001AB1838A0B43838202E0838A8B43838234
:100FD0007047028A4FF6F0731A400282028A0A436F
:100FE0000282704782894FF2FF731A4082818289A0
:100FF0000A438281704721B1828942F002028281D4
:1010000004E082894FF6FD731A4082817047028A9C
:101010004FF6DF731A400282028A0A430282704747
:1010200021B1028A42F48042028204E0028A4BF635
:10103000FF731A4002827047C1F308028280704732
:1010400001468888C0F308007047818941F001019A
:1010500081817047028BD2B20283028B42EA012265
:1010600002837047028B02F47F420283028B0A43A1
:101070000283704721B1828A42F02002828204E01A
:10108000828A4FF6DF731A408282704721B1828ACA
:1010900042F01002828204E0828A4FF6EF731A4017
:1010A0008282704721B1828A42F00802828204E083
:1010B000828A4FF6F7731A408282704721B1828983
:1010C00042F40042828103E08289C2F30E028281EF
:1010D000704721B1828A42F40062828204E0828AEF
:1010E0004FF2FF731A4082827047828A4FF6FB7379
:1010F0001A408282828A0A438282704721B1828AA0
:1011000042F00202828204E0828A4FF6FD731A40A6
:101110008282704702460020B1F5007F00D100BFF7
:1011200013880B400BB1012000E00020704701F450
:101130000072B2F5007F00D100BFCA430280704741
:1011400070B50246002400230025002040F66A16F0
:10115000B14200D100BFC1F3421501F01F030126C7
:1011600006FA03F3012D02D19689334006E0022DE1
:1011700002D1168A334001E0968A33400C120126D0
:1011800006FA04F41688344013B10CB1012000E0D3
:10119000002070BD10B50022002340F66A14A14261
:1011A00000D100BF0A1201249440A3B2DC430480A2
:1011B00010BD0000003801400044004000480040DD
:1011C000004C00400050004010B50446BE48844228
:1011D00008D101218014FFF7A5FD0021A014FFF71D
:1011E000A1FD16E0B948844208D101210014FFF79F
:1011F000A6FD00212014FFF7A2FD0AE0B4488442B6
:1012000007D10121C013FFF79AFD0021E013FFF77A
:1012100096FD10BD10B50022028802F441520B88E1
:101220004C8823438C882343CC8823430C89234355
:101230004C8923438C892343CC8923431A4302805E
:10124000838B4FF2FF74234083830B8A038210BD8C
:101250002DE9F04F85B005460C464FF000090227F6
:101260004FF000084FF0010B0026B246A88B4FF25A
:1012700040010840A88302202884B5F81C90A0688B
:10128000022801D100BF38E0A08810B94FF0010B4F
:1012900001E04FF0020B8D48854200D100E000BF15
:1012A0006846FFF7B8FCDDF800A0E088B0F5007FE5
:1012B0000AD14FEA1A2000EB80004000A168B0FB81
:1012C000F1F0401D86B20BE04FEA4B10BAFBF0F094
:1012D00000EB80004000A168B0FBF1F0401D86B239
:1012E0000A20B6FBF0F606F00108A6EB0800C0F3F2
:1012F0004F074FF6FF7000EA0828022F01DBFF2F8F
:1013000002DD02274FF00008E08840EA0800384379
:101310002884A088A189084361880843218808435C
:1013200040F4006040EA0909A5F81C9005B0BDE84A
:10133000F08F0021018041808180C1800181418145
:101340008181C18107210182704700210180418094
:101350008180C1800221816000218181704721B19B
:10136000028842F04002028004E002884FF6BF7318
:101370001A400280704721B1828B42F480628283DE
:1013800004E0828B4FF6FF331A408283704730B5FA
:10139000002400230C110125A540ABB21AB18588A9
:1013A0001D43858002E085889D43858030BD1AB14C
:1013B00083880B43838002E083888B43838070475C
:1013C000818170470146888970474FF6FF629142DC
:1013D00004D0028842F48072028004E002884FF652
:1013E000FF631A400280704721B1828842F00402F4
:1013F000828004E082884FF6FB731A408280704737
:1014000002884FF2FF731A40028002880A4302806A
:101410007047018841F480510180704721B10288F2
:1014200042F40052028004E002884DF6FF731A4035
:101430000280704702460020012901D0108B00E095
:10144000908A70470146088A7047B1F5804F04D1F1
:10145000028842F48042028004E002884BF6FF7367
:101460001A40028070470246002013890B400BB1DE
:10147000012000E000207047CA4302817047F0B5A8
:101480000246002000240023002501F00F0701265A
:10149000BE40B4B20B1101269E40B3B2968806EA54
:1014A00003051689264016B10DB1012000E0002089
:1014B000F0BD10B5002201F00F040123A3409AB241
:1014C000D343038110BD00000030014000380040CC
:1014D000003C004010B50446224608211148FFF7A1
:1014E000FCF91148047010BD08B501210820FFF770
:1014F000FFFB01210846FFF7FBFB01210B48FFF72B
:101500000CFA10208DF803000820ADF8000003202D
:101510008DF8020069460348FFF72EF90020FFF717
:10152000D9FF08BD000C0140280000200002300057
:101530004FF0E020006920F004004FF0E021086146
:101540000920364908700846007800EB4001C1EBDD
:10155000C0104FF6FF7101EAC000314908807047A2
:10156000002120F07F402D4A127842434FF0E023C3
:101570005A6100229A6101221A6100BF4FF0E022F5
:10158000116901F001021AB101F48032002AF5D08C
:1015900000224FF0E0231A619A617047002100B9E0
:1015A000704720F07F401E4A128842434FF0E023EC
:1015B0005A6100229A6101221A6100BF4FF0E022B5
:1015C000116901F001021AB101F48032002AF5D04C
:1015D00000224FF0E0231A619A6100BFE0E770B586
:1015E0000446002600254FF4FA7094FBF0F0C6B2D2
:1015F0004FF4FA7094FBF0F100FB114085B205E066
:101600004FF4FA70FFF7CAFF701EC6B2002EF7D172
:1016100015B12846FFF7C2FF70BD00002A00002068
:101620002C00002010B586B0044601210420FFF7ED
:101630005FFB01218803FFF75BFB18208DF8170083
:101640004FF40070ADF8140003208DF8160005A9C2
:101650006B48FFF791F804208DF817000002ADF8F1
:10166000140003208DF8160005A96548FFF784F8DB
:1016700001940020ADF810000C20ADF80E00002001
:10168000ADF80C00ADF80A00ADF8080001A95D48FE
:10169000FFF7D9FB01215B48FFF761FC012240F213
:1016A00025515848FFF767FC25208DF800000120E0
:1016B0008DF8030000208DF8010002208DF8020053
:1016C0006846FEF790FF06B010BD10B586B0044620
:1016D00001210420FFF70CFB01214804FFF715FB53
:1016E00018208DF817000420ADF8140003208DF8A1
:1016F000160005A94248FFF73FF804208DF81700AF
:101700000820ADF8140003208DF8160005A93C4808
:10171000FFF732F801940020ADF810000C20ADF86E
:101720000E000020ADF80C00ADF80A00ADF808007E
:1017300001A93548FFF787FB01213348FFF70FFC6C
:10174000012240F225513048FFF715FC26208DF884
:10175000000001208DF8030000208DF801008DF8B5
:1017600002006846FEF73FFF06B010BD2DE9F041CC
:1017700007460C46154600260DE014F8011B3846B6
:10178000FFF75AFC00BF40213846FFF7C3FC002892
:10179000F9D0701C86B2AE42EFDBBDE8F0810FB429
:1017A00030B5CBB0054601AC50A800904FF4947111
:1017B00001A8009B4F9A01F0FBF8002000900BE07D
:1017C00014F8011B2846FFF737FC00BF40212846CC
:1017D000FFF7A0FC0028F9D020780028F0D14BB00A
:1017E00030BC5DF814FB10B540F225510548FFF7F9
:1017F000A7FC18B120210348FFF799FC10BD000099
:1018000000080140003801400044004070B5054622
:101810000E46002405E0601CC4B2C82C01DD002087
:1018200070BD02212846FFF71EFE0028F3D0314686
:101830002846FFF7C5FD002405E0601CC4B2C82C93
:1018400001DD0020ECE701212846FFF70CFE00280F
:10185000F3D02846FFF7B6FDC0B2E1E738B504463D
:101860006448844216D1012141F20400FFF740FA96
:10187000E020ADF8000018208DF8030003208DF85B
:10188000020069465C48FEF777FFE0215A48FFF7FF
:1018900020F81BE05948844218D101210820FFF7A5
:1018A00027FA01218803FFF730FAA000ADF8000005
:1018B00018208DF8030003208DF802006946504877
:1018C000FEF75AFFA1004E48FFF703F800204D49EC
:1018D00008804FF482704880002088800220C880F1
:1018E0000120088140024881382088810020C88179
:1018F000072008822046FFF78DFC01212046FFF7D4
:101900002EFDFF212046FFF781FF38BD38B5044684
:101910003848844216D1012141F20400FFF7E8F96A
:10192000A020ADF8000018208DF8030003208DF8EA
:10193000020069463048FEF71FFFA0212E48FEF73F
:10194000C8FF1DE02D4884421AD101210820FFF76D
:10195000CFF901218803FFF7D8F94FF42040ADF803
:10196000000018208DF8030003208DF8020069465E
:101970002348FEF701FF4FF420412148FEF7A9FF5D
:101980004FF440401F4908804FF482704880002087
:1019900088800220C8800120088140024881002000
:1019A0008881C881072008822046FFF733FC012187
:1019B0002046FFF7D4FC38BD70B505460C461148EB
:1019C000848101462846FFF725FC01212846FFF7C0
:1019D000C6FC70BD70B504460D4629462046FFF78B
:1019E000EFFC00BF02212046FFF73DFD0028F9D0A3
:1019F00070BD000000300140000801400038004088
:101A0000000C01403C000020F8B504460D46164687
:101A10001F4601210420FFF76BF91020ADF80000EC
:101A20008DF8030003208DF802006946FE48FEF79A
:101A3000A3FEFE48FFF712FF1021FC48FFF7BCFF92
:101A40000120F8BD2DE9F04107460D461646002459
:101A50001021F548FEF73FFF00BF06E0295DF3487F
:101A6000FFF7D4FE2855601CC4B2B442F6DB102147
:101A7000ED48FEF72EFF2046BDE8F0812DE9F0414C
:101A800007460D46164600241021E748FEF723FFBF
:101A900000BF05E0295DE548FFF7B8FE601CC4B251
:101AA000B442F7DB1021E048FEF713FF2046BDE803
:101AB000F081F0B589B006460F46154600240B208C
:101AC0008DF804008DF8057000BF05E0315D01AAB6
:101AD000A01C1154601CC4B2AC42F7DBA81CC2B2FB
:101AE00001A90120FFF7AEFF002405E001A9A01C19
:101AF000085C3055601CC4B2AC42F7DB09B0F0BDE5
:101B000038B500200090002401230022C849104667
:101B1000FFF77AFF0446012200216846FFF7C9FF5C
:101B2000012202216846FFF7C4FF9DF80000F22859
:101B300000D00024204638BDF8B504460D461646B0
:101B4000002000900A208DF800008DF80150E0B2CE
:101B50008DF8020020128DF80300B01CC2B2694655
:101B60000120FFF78BFFF8BD70B5ADF5007D06468F
:101B70000D4600240D208DF8000000BF04E0315D0B
:101B8000601C0DF8001084B2AC42F8DB681CC2B2D5
:101B900069460120FFF756FF002405E0601C1DF890
:101BA00000003055601C84B2AC42F7DB0DF5007DBF
:101BB00070BD10B501221F215220FFF7BDFF10BDDF
:101BC00038B5044600200090002501222D216846EA
:101BD000FFF76FFF9DF8000020F0030545EA440081
:101BE000C5B201222D212846FFF7A6FF38BD38B522
:101BF000044600200090002501222C216846FFF7B2
:101C000058FF9DF8000020F0C00504F0030045EAED
:101C1000801501222C212846FFF78EFF38BD38B5EC
:101C2000044600200090002501222C216846FFF781
:101C300040FF9DF8000020F0070504F00700054371
:101C400001222C212846FFF777FF38BD7CB50646D8
:101C50000C46154600200090019006220E21684691
:101C6000FFF727FF9DF800009DF8011000EB012011
:101C700000B230809DF802009DF8031000EB0120B7
:101C800000B220809DF804009DF8051000EB0120B3
:101C900000B228807CBD2DE9F04F87B0002006906F
:101CA000059004900120FFF78BFF04AA05A906A860
:101CB000FFF7CCFFBDF9180003F0C4FA804603F02B
:101CC00075FA06465B4A5C4B02F096FF044602F04A
:101CD00041FD5A490860BDF9140003F0B3FA80468B
:101CE00003F064FA0646534A534B02F085FF04465C
:101CF00002F030FD51494860BDF9100003F0A2FA2E
:101D0000804603F053FA06464A4A4B4B02F074FFF2
:101D1000044602F01FFD49498860BDF9100002F039
:101D200053FF80468946BDF918104943BDF9142078
:101D300002FB021002F048FFCDE9000102F0B8FCFE
:101D4000824642464B4602F0E7FD064602F0A0FB03
:101D500004463B4A3B4B02F04FFFCDE9020102F043
:101D6000F9FC3649C8600020FFF72AFF07B0BDE83C
:101D7000F08F2DE9F84F00200090002481460222C8
:101D800014216846FFF795FE9DF801009DF80010AC
:101D900001EB002004B2204603F054FA824603F01F
:101DA00005FA0746284A294B02F026FF054602F0AD
:101DB000D1FC81464846BDE8F88F2DE9F041054643
:101DC0000E461446002705F0030040EA8400C0B226
:101DD00040F00807012228213846FFF7ADFE022215
:101DE00029213046FFF7A8FEBDE8F081F8B504468A
:101DF0000D461646002000900027C5F30A00022277
:101E00002021FFF799FE012222213046FFF794FEA0
:101E1000012227216846FFF74CFE9DF8000020F0C4
:101E20000207012014E000000008014000300140DA
:101E300000093D00FCA9F1D24D62503F5000002046
:101E40007D96E7C1DDA54C40A4703D0AD7A3B03F05
:101E500040EA44003843C7B2012227213846FFF741
:101E60006BFEF8BDF8B504460D46164600200090FE
:101E70000027C5F30A0002222321FFF75DFE02229C
:101E800025213046FFF758FE012227216846FFF73B
:101E900010FE9DF8000020F00807042040EAC4006E
:101EA0003843C7B2012227213846FFF745FEF8BD67
:101EB00010B54FF4A060FEF791FBFFF739FB4FF42C
:101EC000E130FFF7AFFB4FF4E130FFF7FEFBFFF728
:101ED00017FEFFF709FB38A13C48FFF760FC10BD77
:101EE0000025FFF7E5FF00F053FB03E04FF4FA7025
:101EF000FFF754FB00F07AF80028F7D10120FFF734
:101F0000E9FAFA20FFF74AFB0020FFF7E3FA52E074
:101F1000002000F0EEFA054625B12D48017828464C
:101F200000F0ABF82B480078002841DD2948007804
:101F3000401E2849087028480078032836D12749D0
:101F40000978480000F0DEFC04460126FFF7A3FEF6
:101F50005CB32348007803281BD122490868224932
:101F600003F088F9074603F04DF920801D494868C1
:101F70001D4903F07FF9074603F044F960801949D1
:101F80008868194903F076F9074603F03BF9A08009
:101F900001E0002600BF00BF26B1104801782046AE
:101FA00000F04AF8204600F0DCFC00E000BF00BF73
:101FB0000A20FFF7F3FAABE7204861726477617299
:101FC0006520696E6974204F4B0D0A00003801408E
:101FD0003A000020300000202F00002034000020B4
:101FE00032000020500000200000C84200B585B03B
:101FF0000020019002900390049039A038A33AA2E7
:102000003BA100904748FFF7CAFB01AB36A234A1C1
:1020100033A000F023F968B9029A91B2019800F058
:1020200051FA01A800F0EEF801203F4908700020A5
:1020300005B000BD0120FBE730B585B004460D4674
:102040000020019002900390049001A8EBB2224678
:102050000090364801783448007800F04EF948B9CD
:1020600033A13048029AFFF79AFB029A91B2019885
:1020700000F028FA012005B030BD3EB504460D46FB
:1020800000200290314B324A284902A8CDE9004590
:1020900000F083F9F0B92D4800882D490988CDE971
:1020A000001022480378204802782AA11D48FFF733
:1020B00076FB9DF808001C49097888420ED1324809
:1020C0000078401CC0B230490870FA2806DB0020B6
:1020D000087003E02DA11348FFF761FB3EBD00002F
:1020E0003132333435363700313133323337000053
:1020F0004F6E654E65745F4465764C696E6B0D0A74
:1021000050524F49443A2025732C095345524941B6
:102110004C3A2025732C09505357443A2025730D0F
:102120000A000000003801402E0000202F0000208F
:102130004F6E654E65745F53656E644461746120D3
:1021400025642042797465730D0A00003400002074
:1021500032000020B4D3BBFAB5D8D6B73A20255800
:102160002C20C3FCC1EE3A2025582C20BCC4B4E678
:10217000C6F7B5D8D6B73A2025582C20B3A4B6C890
:102180003A2025780D0A0000300000205741524EB9
:102190003A094D4F444255535F556E5061636B652C
:1021A00074436D64204572720D0A000070B50446D8
:1021B0000E460025206898B901202073304600F0B3
:1021C000A1FB20602068E0B100206060A66003E011
:1021D0000020216848556D1CA068A842F8D810E07E
:1021E0000220207303E00020216848556D1CA06880
:1021F000A842F8D800206060A068B04201D2002058
:10220000206070BD10B50446207B012802D12068F3
:1022100000F0A7FB002020606060A060207310BD6C
:1022200070B502460B460021002400254FF6FF70D2
:1022300000BF10E0565C7040002408E000F001058B
:10224000401015B14AF201067040661CB4B2082C69
:10225000F4DB4E1CB1B29942ECDB70BD2DE9F041CC
:1022600006460F4615461C4634212046FFF79EFFC2
:10227000206810B90120BDE8F081D4E90012881867
:1022800004226AA100F02EFD60680B306060D4E982
:1022900000128818042267A100F024FD606809304C
:1022A0006060304600F0DDFC8046D4E900128818FA
:1022B0004246314600F016FD60680C3060603846DA
:1022C00000F0CFFC8046D4E9001288184246394617
:1022D00000F008FD606809306060284600F0C1FC2D
:1022E0008046D4E9001288184246294600F0FAFCDC
:1022F00060680B3060600020BDE72DE9F047804644
:10230000894617461D46089C0026B246052000EB6C
:1023100045012046FFF74AFF206810B90120BDE8BB
:10232000F0876168481C6060206800F8018061687F
:10233000481C6060206800F801906806010E626821
:10234000501C60602068815410E037F816000112BC
:102350006268501C60602068815417F8161062682B
:10236000501C606020688154701CC6B2AE42ECDB29
:10237000A28891B22068FFF753FF82464FEA2A21D4
:102380006268501C6060206881546268501C606004
:10239000206800F802A00020C1E72DE9F0470646BA
:1023A0000F4690469946DDE908454FF0000A032D97
:1023B00002DA0120BDE8F087A81E81B22046FFF7AF
:1023C0002FFF8246681E215CA81E205C41EA002087
:1023D000504511D12078307060783870E078A1785D
:1023E00040EA0120A8F800006079217940EA012044
:1023F000A9F800000020DDE70220DBE710B5044665
:1024000002212046FFF7D2FE206808B9012010BD46
:1024100000216268501C6060206881546268501C12
:102420006060206881540020F1E7000074797065D5
:10243000000000006E616D650000000010B5802195
:10244000CB4800F02DFC0020CA49088010BDC948C7
:10245000008808B901207047C6480088C649098825
:10246000884203D10020C3490880F4E7C1480088AE
:10247000C14908800120EEE72DE9F04104460D46F0
:10248000C826204600F0EDFB87B23A462146BB48FD
:10249000FFF76CF90FE0FFF7DAFF48B92946B448B7
:1024A00000F0CDFB20B1FFF7C9FF0020BDE8F081AF
:1024B0000A20FFF773F8301EA6F10101CEB2EAD16F
:1024C0000120F3E730B589B004460D46FFF7B6FFAB
:1024D0002A46ABA101A800F085FAADA101A8FFF73B
:1024E000CBFF20B92A462146A448FFF73FF909B09F
:1024F00030BDF8B50546002400200090002600BF3E
:10250000FFF7A5FF002839D1A2A1994800F097FB59
:102510000446002C32D03A21204600F086FB0446C7
:1025200004E0207808B90020F8BD641C2078302829
:10253000F7DB20783928F4DC06E014F8012B30466C
:10254000711CCEB20DF800202078302802DB2078F4
:102550003928F2DD684600F05BFB9049087000E026
:10256000641C20780A2802D020780028F8D120782E
:1025700010B1641C2046D7E70020D5E70A20FFF7FA
:102580000DF8281EA5F101018DB2B9D100BFCBE72E
:1025900008B501211420FEF7ABFB10208DF80300D5
:1025A0000220ADF8000003208DF8020069467C4847
:1025B000FEF7E2F81020ADF8000069467948FEF712
:1025C000DBF828208DF803002020ADF800006946D4
:1025D0007448FEF7D1F8012210217248FEF77DF908
:1025E00002E00A20FEF7DAFF20216E48FEF757F9D5
:1025F0000028F6D0012202216948FEF76EF9FA2080
:10260000FEF7CCFF002202216548FEF766F94FF481
:10261000FA70FEF7C3FFFFF711FF63A16448FFF7ED
:10262000BEF803E04FF4FA70FEF7B8FF61A162A0B4
:10263000FFF722FF0028F5D161A15D48FFF7AFF851
:1026400003E04FF4FA70FEF7A9FF61A164A0FFF761
:1026500013FF0028F5D165A15548FFF7A0F803E066
:102660004FF4FA70FEF79AFF64A165A0FFF704FF2C
:102670000028F5D165A14E48FFF791F803E04FF42B
:10268000FA70FEF78BFF4BA164A0FFF7F5FE002860
:10269000F5D165A14648FFF782F803E04FF4FA70E0
:1026A000FEF77CFF43A165A0FFF7E6FE0028F5D109
:1026B00066A13F48FFF773F803E04FF4FA70FEF7A6
:1026C0006DFF3CA165A0FFF7D7FE0028F5D167A1FB
:1026D0003748FFF764F803E04FF4FA70FEF75EFF47
:1026E00034A166A0FFF7C8FE0028F5D167A13048E5
:1026F000FFF755F803E04FF4FA70FEF74FFF2DA1F6
:1027000067A0FFF7B9FE0028F5D169A12848FFF7B7
:1027100046F803E04FF4FA70FEF740FF68A16AA0A4
:10272000FFF7AAFE0028F5D171A12148FFF737F87D
:1027300008BD10B540F225511048FEF701FDB0B1BB
:102740000C480088802802D300200A4908800B48E2
:10275000001D0088C1B2074802880088401C054B54
:1027600018800348815420210448FEF7E0FC10BD86
:1027700060000020360000203800002000440040A7
:1027800041542B495053454E443D25640D0A0000E9
:102790003E0000004950444154413A003A000020B4
:1027A0000008014000100140312E2041540D0A0064
:1027B000003801404F4B000041540D0A000000005A
:1027C000322E2041542B4350494E3F0D0A00000049
:1027D0002B4350494E3A20524541445900000000D5
:1027E00041542B4350494E3F0D0A0000332E2041E7
:1027F000542B435245473F0D0A000000312C350051
:1028000041542B435245473F0D0A0000342E2041CE
:10281000542B43475245473F0D0A000041542B4378
:10282000475245473F0D0A00352E2041542B434760
:102830004143543D312C310D0A00000041542B43DB
:10284000474143543D312C310D0A0000362E2041C2
:10285000542B43474154543D310D0A0041542B43FE
:10286000474154543D310D0A00000000372E2041ED
:10287000542B434D4D55583D300D0A0041542B43C8
:102880004D4D55583D300D0A00000000382E2041B6
:10289000542B434D484541443D310D0A0000000092
:1028A00041542B434D484541443D310D0A00000041
:1028B000392E2041542B495053544152540D0A0093
:1028C000434F4E4E4543540041542B4950535441BD
:1028D00052543D22544350222C223138332E32336D
:1028E000302E34302E3432222C323938370D0A0053
:1028F00031302E204D3633313220496E6974204FED
:102900004B0D0A0070B5064600F01AFA056806F18C
:102910000B0020F00704B4429CBF002070BD2B4682
:102920006A68BAB11068A04210D304F10801884265
:102930003CBF5068586007D3516810194160116856
:10294000091B016058601460101D70BD1346526869
:10295000002AE7D12146284600F0FEF90028DED102
:1029600070BD70B50446051F00F0EAF90068002C40
:1029700014BF446870BD002C18BFAC423CBF204659
:102980006468F8D301680A18AA4218BF456003D1E9
:102990002A6805461144016028684119A1421CBFFC
:1029A0006C6070BD6168696021680844286070BD12
:1029B0007CB51D4616460C00009001D02044401EF8
:1029C000074B7B442A4669460190304600F0EDFAF9
:1029D00005461CB10020694600F0FAFA28467CBD85
:1029E000150600000FB41CB5084B06AA7B446946C7
:1029F0000090059800F0D9FA04460020694600F0DE
:102A0000E7FA20461CBC5DF814FB0000E10500005D
:102A10002DE9F0410646002410687529314616A5B7
:102A200010D000F015FA002802DA404213A507E0A2
:102A300031688A0701D512A502E0490704D511A51E
:102A4000012401E000F00DFA00210A2206F124071A
:102A500009E0B0FBF2FCB0FBF2F302FB1C003030EB
:102A600078541846491C0028F3D123462A4630469C
:102A7000BDE8F04100F027BA000000002D00000082
:102A80002B000000200000002DE9F05F894604467D
:102A90004FF0000ADFF874B1FB44C0F820A02046D4
:102AA000E1688847002874D0252806D0D4E90121A0
:102AB0009047206A401C2062F1E700265F462046CE
:102AC000E16888472028054607DB312D05D27819B3
:102AD00010F8200C08B10643F1E7B00701D526F045
:102AE0000406C4F81CA00027C4F818A02A2D09D099
:102AF000284601F0C5FC38B304EB8708303DC8F820
:102B0000185019E059F8041B204604EB8702916124
:102B1000E1688847012F054618D1E069002820DACE
:102B200026F020061DE0D8F8180000EB800005EB29
:102B300040003038C8F818002046E168884705464C
:102B400001F09EFC0028EED1012F0AD02E2D08D1D5
:102B50002046E16888477F1C0546022F46F0200684
:102B6000C4DBA069002803DA404246F00106A061F8
:102B7000F00701D026F010066C2D0BD0682D09D07F
:102B80004C2D39D06A2D35D0742D35D07A2D33D0D7
:102B900016E038E0E1682F4620468847B8420546EF
:102BA00009D16C2F26D04FF48060E168064320469F
:102BB0008847054604E06C2F1AD04FF48070064316
:102BC0000DB3A5F14100192802D8203546F400665E
:102BD0004A462946204626604E46FDF7E3FA80B174
:102BE00001280BD0F61D26F0070000F1080956E772
:102BF0004020E4E78020D8E70020D6E706F104096A
:102C00004DE7284652E7206ABDE8F09F642A00009D
:102C100070B5064600F098F80468054630460A226A
:102C2000002100F001FB2C6070BD401ECAB210F8FC
:102C3000011F8A4202D00029F9D10020704730B527
:102C400005460B462A4613F8014B12F8010B08B152
:102C5000A042F8D01CB1002802D06D1CF1E7284634
:102C600030BD10B5431C02E010F8011B71B18107A3
:102C7000FAD14FF0013202C88C1A8C4314EAC21107
:102C8000F9D0C01A0A0603D0C01E10BDC01A10BD6C
:102C90000A0401D0801E10BD0902FCD0401E10BDE8
:102CA0004FF000020429C0F0128010F0030C00F075
:102CB000F582CCF1040CBCF1020F18BF00F8012B17
:102CC000A8BF20F8022BA1EB0C0100F0E7BA5FEAE5
:102CD000C17C24BF00F8012B00F8012B48BF00F88D
:102CE000012B704710B5044610F0030F08BF11F018
:102CF000030F40F015804FF0013E121FC0F20E800E
:102D000051F8043BA3EB0E0C2CEA030C1CEACE1C7E
:102D100008BF40F8043BF0D0A1F1040102F1040225
:102D2000521E08DB11F8013B002B00F8013BF7D1E4
:102D30001146FFF7B5FF204610BD7047704770473A
:102D400000487047E800002000487047E00000207D
:102D5000704770477047704738B504460A460020F0
:102D60006946AFF30080002808BF38BD02460099CD
:102D7000204600F0C5FA012038BD012000F0C7BD93
:102D8000F8B5AFF30080054600200C46102000BFC8
:102D90000646A819A0420DD9324669460020AFF375
:102DA0000080070008BF00F0B2FD0098A04218BFE5
:102DB0000546C419FFF7C4FF05600746F01D20F063
:102DC00007004619284600F00AF8B44208BFF8BDCB
:102DD000A21B31463868BDE8F84000F091BA0021E6
:102DE0000160C0E9011070471020704710B5FFF76F
:102DF000ABFF006810BD10B50446FFF7A5FF0460E7
:102E000010BD70B5044685690068C10601D530263D
:102E100000E02026C00707D070BDD4E9012130466C
:102E20009047206A401C20626D1EF6D570BD70B5BB
:102E3000044685690078C00707D170BDD4E9012137
:102E400020209047206A401C20626D1EF6D570BD80
:102E500009684A0501D540B27047C905FCD500B2E2
:102E6000704709684A0501D5C0B27047C905FCD54D
:102E700080B2704770B50C460546012A05D0287807
:102E8000800600D5EA69002302E0012305E05B1C0F
:102E9000934202D2E05C0028F9D1A869E618C01A72
:102EA000A861286A184428622846FFF7AAFF04E0B0
:102EB000D5E9012114F8010B9047B442F8D3284614
:102EC000FFF7B5FF70BD2DE9F0470D4699469246D4
:102ED000044600F124080168880604D5E06921F061
:102EE0001001216000E00120A84201DD471B00E045
:102EF0000027A1697A1902EB0900081AA06120785D
:102F0000C00602D42046FFF77CFF002608E0D4E983
:102F100001211AF806009047206A401C761C2062A6
:102F20004E45F4DB2078C0060AD52046FFF769FF3E
:102F300006E0D4E9012130209047206A401C20623D
:102F4000381EA7F10107F4DC07E0D4E9012118F8E5
:102F500005009047206A401C2062281EA5F101054B
:102F6000F3DC2046FFF763FF2078000602D502203D
:102F7000BDE8F0870120FBE711680268006A53058D
:102F800001D508700AE0D30501D5088006E01306D4
:102F900003D5C217C1E9000200E0086001207047B4
:102FA00001694A1C02610878704700B58FB0CDE90D
:102FB00001310021059105497944CDE903101146FD
:102FC0006846FFF761FD0FB000BD0000E5FFFFFFA1
:102FD0000A6802F8010B0A607047D1E900239A429F
:102FE00002D2531C0B601070704700002DE9FF5F88
:102FF00015468A460446DFF8AC80F8440027D8E935
:1030000000103E46CDE9001010E03AF816106A466E
:1030100002A800F05CFC411C07D02178890603D58A
:10302000E269391891420DD80744761C2078800651
:1030300002D5E069B84205DDAE42E6DB3AF816009B
:103040000028E2D1A069C01BA0612046FFF7D9FE8D
:10305000D8E90010CDE90010002017E03AF8181068
:103060006A4602A800F033FCB0F1FF3F81460BD066
:1030700000250DF1080B05E0D4E901211BF805003E
:1030800090476D1C4D45F7D308F10100B0428046D2
:10309000E4DB206A384420622046FFF7C8FEBDE822
:1030A000FF9F0000B22500002DE9F0418046D21DAF
:1030B00022F007020025D2E90002F52915A614D056
:1030C000011E72F1000106DA0023D0EB030063EB6E
:1030D000020211A608E0D8F800108B0701D50FA650
:1030E00002E0490701D50EA601251146002408F18A
:1030F000240704E000F01EF930323A55641C50EA0F
:103100000102F7D12B46324621464046BDE8F04148
:10311000FFF7D9BE000000002D0000002B000000CA
:103120002000000030B4002100F1240408E002F087
:103130000705D208303542EA4372DB086554491C62
:1031400052EA0305F3D10468002310A2250708D52D
:1031500004F020040C4304D0C46901230CA2641EB3
:10316000C46130BCFFF7AFBE10B5044621461068FD
:10317000FFF777FE02462046BDE810400023D1E766
:10318000D21D22F00701D1E90023CBE700000000A7
:1031900030000000F0B40D460188090502D5214C2D
:1031A0007C4402E01F4C7C440E34002100F12406D4
:1031B00008E002F00F071209E75D42EA03721B09FB
:1031C0007754491C52EA0307F3D10278002312070F
:1031D00004D5702D06D009B1022311342246F0BC6B
:1031E000FFF771BE01231034F8E770B504460D46B1
:1031F00021461068FFF735FE024629462046BDE805
:1032000070400023C6E7D21D22F00703D3E9002354
:10321000C0E70368126843F0200303600823C3611A
:103220000023B7E7142400002DE9F04791460F462C
:1032300080460446002614F8015B2DB100F058F8D2
:103240000068405DC007F6D12B2D02D02D2D18D07F
:10325000641E4A463946204600F0EAFA27B139682A
:10326000A14201D1C7F800804FF0020471050BD5CF
:103270004042002803DDFFF767FD0460A007BDE8BA
:10328000F08746F48066E4E70028F8DAFFF75CFD93
:1032900004606FF00040F2E74FF0000200B5134603
:1032A00094469646203922BFA0E80C50A0E80C5066
:1032B000B1F12001BFF4F7AF090728BFA0E80C5017
:1032C00048BF0CC05DF804EB890028BF40F8042B10
:1032D00008BF704748BF20F8022B11F0804F18BF7D
:1032E00000F8012B7047000000487047E000002004
:1032F00010B500F039FB001D10BD00BF0114000027
:10330000034640688C46002818BF88423CBF0346ED
:103310004068F8D318681844884207D00CF10300BD
:1033200020F00700001D411A521A0146081D0A60CC
:10333000FFF717BB30B5B0F10A024FEA900E71F1FA
:1033400000034EEA817EB0EB0E0061EB91014FEA83
:10335000101E4EEA017E10EB0E0041EB11114FEAF8
:10336000102E4EEA016E10EB0E0041EB11214FEAD8
:10337000104E4EEA014E10EB0E0041EB1141401889
:1033800041F100014FEAD00040EA41704FEAD1011B
:1033900010EB80054FEA810444EA907444EB010489
:1033A0006D1944EB0404521BA3414FF0000348BFC6
:1033B0000A3200D530BD401C41F1000130BD7047DC
:1033C0002DE9FF4F0C461E464FF0FF378BB0D2E978
:1033D0000001DDF860800A908A46C1F30A5505B9FC
:1033E0003D46002108464FF00000BAF1000F00F4FE
:1033F000400005DA00EB80004FF4400101EA500084
:103400004FEA9059B9F1010F00DDB9460A9850EA28
:103410004A000ED044F61050A5F2FF3545432F1454
:10342000B8F1000F1ED07542291E1EDDC9F1000241
:103430001CE0B8F1010F4FF0000001D0302103E093
:10344000F24305E02154401CB042FBDB3046002231
:10345000002121540B99C1F80880C1E900200FB068
:10346000BDE8F08FBD1B6D1CDEE74A4600DA6942FD
:1034700006A800F0CBFA06AB93E8070003AB83E89D
:10348000070050460A9900F0CCFB8DE80700A0F534
:1034900000501F3800900398002D09DD42F21F01F3
:1034A0004A46084403A90390684600F02BFE08E052
:1034B000A0F500504A461F3803A90390684600F063
:1034C00035FE8DE807000004000C03D04FF0FF30FC
:1034D000410800E01046B8F1000F03D0002200922E
:1034E00015461EE0751E05D4FFF724FF30326255E5
:1034F0006D1EF9D5B3460122084302D000227F1C7D
:1035000004E02078302801D100227F1E002A09978C
:1035100086D01DE0112D07DAFFF70CFF303262551F
:103520006D1C50EA0102F5D1084302D00098C8B1E1
:103530000EE00021681E05E0235C625C63542254A7
:10354000401E491C8142F7DBAB46A81B401E099078
:10355000002004F80B000B98099AC0F80880C0E915
:10356000002B7CE711264FF0000859E72DE9F04FBA
:1035700088460446D21D22F0070191B0D1E900012E
:10358000CDE90A0100F008FF02460B98C00F01D0F8
:103590002D2007E02068810701D52B2002E02021A3
:1035A00001EAC000032A099001D0072A05DB03467F
:1035B0004146204600F0DCF90BE12078800601D579
:1035C000E06900E00620B8F1650F814606D0B8F149
:1035D000660F18D0B8F1670F70D131E00020B9F153
:1035E000110F009001DB112301E009F101030AAA88
:1035F00001A90CA8FFF7E4FEDDE90C70002609F133
:103600000105834647E001204B4600904FF00047FC
:103610000AAA01A90CA8FFF7D3FEDDE90DB00C99A9
:103620005D46002610B909F101000D18B9EB05003F
:1036300003D4C0F1FF3609F10105A5EB09002BE029
:10364000B9F1010F01DA4FF001090020B9F1110FB2
:103650000090484601DD112300E003460AAA01A9B3
:103660000CA8FFF7ADFEDDE90C704D460026834641
:10367000207800070AD4AB4500DA5D4601A8012D89
:1036800004DD411911F8011C302907D04F4502DA39
:1036900017F1040F04DA012082460FE06D1EEEE7F9
:1036A000002F02DCED1B3E4403E0781CA84200DD45
:1036B0007D1CB81B00F1010A4FF00047207800077D
:1036C00003D4AA4501DB4FF0FF3A0021B7F1004FC8
:1036D0000DF143088DF8431024D002202B23002F36
:1036E00001DA7F422D230A21021EA0F1010000DC35
:1036F0005FB197FBF1FC97FBF1F201FB1C7C1746D5
:103700000CF1300C08F801CDEEE7A8F101000370D0
:103710002188090501D5452100E06521A0F10108B6
:1037200000F8011C09980FA9A1EB0807FF1D00B1C3
:103730000120411901EBEA70A1693844081A401EC2
:10374000A0612078C00602D42046FFF75AFB0998F2
:1037500028B1D4E901219047206A401C20622078DA
:10376000C00622D52046FFF74CFB1EE0002E04DBEE
:10377000B34502DD01A8805D00E03020D4E90121DD
:103780009047206A401C2062761CAAF101005FEA83
:10379000000A0AD100F0E8F8C0680168405CD4E98A
:1037A00001219047206A401C2062281EA5F10105D6
:1037B000DCDC07E0D4E9012118F8010B9047206A0E
:1037C000401C2062381EA7F10107F3DC2046FFF7FA
:1037D0002EFB032011B043E610B5436913B1AFF3DC
:1037E000008001E0FFF746FB012010BD127800F1D8
:1037F00024010A7000224A700122EDE711684FF09F
:10380000FF32E9E710B5436913B1AFF3008001E07F
:10381000FFF7ECFB012010BD128800F12401828427
:103820000022C2840122EDE711684FF0FF32E9E780
:103830002DE9F05F824615468B4600270AF1010408
:10384000B9460078302801D09DB113E014F8010B7F
:103850000127782803D0582801D045B10AE00DB1DE
:10386000102D07D1002714F8010B102502E00825C0
:1038700000E00A250026B0460EE005FB080005FB27
:1038800006F101271FFA80F801EB1046B6F5803FDC
:1038900000D3B94614F8010B294600F0A9F8002816
:1038A000EBDABBF1000F05D00FB1641E00E0544607
:1038B000CBF80040B9F1000F06D0FFF745FA02211E
:1038C0000160C81EBDE8F09F48EA0640FAE770B5FF
:1038D00016460C460546FFF70BFD036893F80101F9
:1038E000012806D0FF2C0FD8185D68B101202C707C
:1038F00070BDD3F807013246214603F20713034493
:103900002846BDE8704018474FF0FF3070BD10B535
:1039100000F0F8F8BDE8104000F0EFB870477546C9
:10392000FFF7E2FCAE4605006946534620F007006B
:10393000854618B020B5FCF73FFEBDE820404FF0AB
:1039400000064FF000074FF000084FF0000B21F089
:103950000701AC46ACE8C009ACE8C009ACE8C00956
:10396000ACE8C0098D467047004870470001002050
:103970002DE9F0411F46044603260168072A01F499
:10398000006004DB08B116A505E016A503E008B148
:1039900015A500E015A521F010002060A069C01E4B
:1039A000A0610FB1401EA0612046FFF72AFA4FB177
:1039B000D4E9012138469047206A401C2062C01C8F
:1039C000206206E0206AFAE7D4E9012115F8010B2C
:1039D0009047761EF8D22046FFF729FABDE8F0811D
:1039E0004E414E006E616E00494E4600696E6600A3
:1039F0003A2800D2303820F02002412A01D3A2F127
:103A00003700884201D34FF0FF3070472DE9F0476F
:103A1000814616468AB0334878440DC88DE80D00BB
:103A200030487844801C03AC0DC884E80D0041F692
:103A30009B300844372190FBF1F290FBF1F5A5F1A2
:103A4000800501FB12041B3C02D56442012000E00A
:103A50000020DFF890A080460027FA44AAF1BE0AB1
:103A60000DE0E00709D03246684607EB47010AEB54
:103A7000810100F05BFB8DE8070064107F1C002CC7
:103A8000EFD1184F7F44AC3F18E0E80714D007EBA4
:103A900004100DF1180A90E80E008AE80E00C068C4
:103AA000F04201D198190890324606A903A800F007
:103AB0003DFB03AB83E807006D10641C002DE4D1CF
:103AC00032466946B8F1000F03A802D000F01AFB95
:103AD00001E000F02BFBC9E90001C9F808200AB099
:103AE000BDE8F087401C000010B50446AFF300802D
:103AF0002046BDE81040FCF7BCBB002801D000F018
:103B000029B8704710B5012805D0002103A000F0A6
:103B100027F8012010BD09A1F8E7000053494752DA
:103B2000544D454D3A204F7574206F66206865618D
:103B300070206D656D6F7279000000003A20486555
:103B40006170206D656D6F727920636F7272757030
:103B50007465640001491820ABBEFEE72600020030
:103B600070B505460C460A2000E06D1C00F052F8C6
:103B700035B128780028F8D102E0641C00F04AF83A
:103B800014B120780028F8D1BDE870400A2000F078
:103B900041B800004FF0013C50F8042B51F8043BB1
:103BA0009A4221D1A2EB0C03934313EACC1317D111
:103BB00050F8042B51F8043B9A4215D1A2EB0C03A8
:103BC000934313EACC130BD150F8042B51F8043B68
:103BD0009A4209D1A2EB0C03934313EACC13DBD036
:103BE0004FF00000704700BFD01A01BAB1FA81F15E
:103BF00001F0180122FA01F0CB40C1F12001DBB243
:103C0000C0B2C01A2CFA01F3D11A914311EAC311C0
:103C1000E6D1704708B569468DF800000320ABBEB9
:103C200008BD5FEA400C08BF91F0000F4FEA8C23FB
:103C30004FEAC12243EA51514FEA1C5018BF00F528
:103C4000F0404FEA300018BF41F000415FEA6C5C81
:103C500000F02980BCF1FF3F08BF40F08040704772
:103C6000130C06BF12044FF0100C4FF0000C130E93
:103C700004BF12020CF1080C130F04BF12010CF167
:103C8000040C930F04BF92000CF1020CD30F04BF7D
:103C900052000CF1010C11464FF00002A0F11F0080
:103CA000A0EB0C00704711F0004F08BF704731F0D7
:103CB00000413FF4D5AF0B0C06BF09044FF0100CC8
:103CC0004FF0000C0B0E04BF09020CF1080C0B0F97
:103CD00004BF09010CF1040C8B0F04BF89000CF127
:103CE000020CCB0F04BF49000CF1010CCCF12003F6
:103CF000A0EB0C0022FA03F302FA0CF241EA0301F2
:103D000000F10100704720F07F4C80EA030023F0AF
:103D10007F47ACEB070303F57C5300F0004003F151
:103D2000FF032DE980494FEA154B09B44FEA1443CC
:103D300025EA0B4E24EA03480FF2042606EB13276C
:103D400049083E785FEA320203FB0667C7F50007C1
:103D500007FB06F64FEA54374FEAD64606F102064D
:103D600007FB066CCCF1005C4FEA1C472CEA074CC1
:103D700007FB06F40CFB06F504EB15464FEA961616
:103D800034BF00204FF000404FEAD13706FB07FC5C
:103D90004FEA1C4C0CFB0BF7D21B03FB0CF761EB3F
:103DA00007010CFB0EF7B0EB074072EB17420CFB60
:103DB00008F734BFA2EB0742B2EB074261EB1741B1
:103DC0004FEA0C444FEA910706FB07FC4FEA1C4CF4
:103DD0000CFB0BF7B0EBC74072EB573203FB0CF751
:103DE00034BFA2EBC742B2EBC74261EB57310CFBC9
:103DF0000EF7B0EBC70072EB57720CFB08F734BF3D
:103E0000A2EBC702B2EBC70261EB5771039F4FEA07
:103E1000816141EA921104EBCC044FEAD1374FEAB9
:103E2000826206FB07FC42EA90124FEA80604FEA8A
:103E30001C4C0CFB0BF7D21B03FB0CF761EB0701CF
:103E40000CFB0EF7B0EB074072EB17420CFB08F7C8
:103E500034BFA2EB0742B2EB074261EB17414FEAD6
:103E60008C554FEA910704EB9C2406FB07FC4FEAB4
:103E70001C4C0CFB0BF7B0EBC74072EB573203FB4B
:103E80000CF734BFA2EBC742B2EBC74261EB57312C
:103E90000CFB0EF7B0EBC70072EB57720CFB08F788
:103EA00034BFA2EBC702B2EBC70261EB577115EB4F
:103EB0004C254FEA816141EA92114FEA82624FEA52
:103EC000D13742EA901206FB07FC44F100044FEAA6
:103ED00080604FEA1C4C0CFB0BF7D21B03FB0CF76A
:103EE00061EB07010CFB0EF7B0EB074072EB1742DA
:103EF0000CFB08F734BFA2EB0742B2EB074261EBC1
:103F0000174115EB1C154FEA813141EA92414FEA06
:103F1000823242EA90424FEA80304FEA0C7644F116
:103F2000000448EA03434EEA0B484FF0000EB2EBA0
:103F3000080C71EB030724BF624639464EEB0E0EA8
:103F40004FF0000B0018524149414BEB0B0BB2EB09
:103F5000080C71EB03077BF1000B24BF6246394666
:103F60004EEB0E0E4FF0000B0018524149414BEB47
:103F70000B0BB2EB080C71EB03077BF1000B24BFBA
:103F8000624639464EEB0E0E51EA020718BF46F064
:103F9000010616EB0E7655F1000254F1000103D52F
:103FA000BDE88901BDE80088BDE88901BDE8004899
:103FB000B619524141EB0101A3F101037047808022
:103FC0007F7E7D7C7B7A7978777676757473727173
:103FD00071706F6E6E6D6C6C6B6A6A69686867662B
:103FE00066656464636362616160605F5F5E5E5DBD
:103FF0005D5C5C5B5B5A5A59595858575756565531
:1040000055555454535352525251515050504F4F92
:104010004F4E4E4D4D4D4C4C4C4B4B4B4A4A4A49E2
:104020004949484848474747474646464545454425
:104030004444444343434342424242414141002BB2
:1040400026D4770021D01CB54FEA370703B44FF0D0
:1040500010004FF010014FF000000FBCBDE8104001
:104060000BF1010BBBF1010F08BF5FEA170722BF7D
:1040700012F1010211F101014FF0004143F100037F
:1040800000F0004043EA00007047F9D35708DAE730
:1040900046EA064613F1400F4FEA16461FDD13F1BC
:1040A000200FDFBF16430A46002120335B42C8D0F1
:1040B000C3F1200746EA064602FA07F74FEA16461A
:1040C00046EA0706C3F1200722FA03F201FA07F7CE
:1040D00021FA03F14FF0000342EA0702B1E746EA92
:1040E000020646EA06464FEA164646EA0106BCBF05
:1040F00046EA0646360C4FF000034FF000024FF040
:1041000000019EE72DE9C048934630B491E838009D
:1041100007C831EA400C48BF34EA430C03D5FFF727
:10412000F2FDFFF78CFFF0BCBDE800882DE9C04828
:10413000934630B491E8380007C810F0804F08BFAC
:1041400013F0804F03D100F005F8FFF778FFF0BCC3
:10415000BDE8008820F07F4780EA030023F07F4C11
:1041600007EB0C03A3F57C5300F00040A3F1FE0322
:1041700092F0000F00F0B38095F0000F00F0778010
:104180002DE901494FEA11404FEA144621EA00485F
:1041900000FB06FC24EA064708FB06F607FB08F8C6
:1041A00000FB07F718EB06484CEB164C4FEA124B96
:1041B00018EB07484FEA15464CEB174022EA0B4E26
:1041C0000BFB06FC25EA06470EFB06F607FB0EFE78
:1041D0000BFB07F71EEB064E4CEB164C4FF00006A0
:1041E0001EEB074E4CEB174B18EB0B0840F1000091
:1041F00018EB0E0B58EB000840F100008F1A4FF03F
:1042000000013CBFC943661B14BFB5EB040C002181
:104210003CBFC943F61B4FEA17444EEA8E0E27EA0D
:1042200004454FEA1C4704FB07622CEA074C05FBD8
:1042300007F70CFB05F604FB0CFC16EB074642EBFC
:10424000174216EB0C4642EB1C421BEB060658EBE2
:104250000202414146EA9E0601D5BDE80189B61930
:10426000524141EB0101A3F10103BDE801894FEA8D
:1042700014454FEA114724EA054621EA074C05FB9D
:1042800007F406FB07F70CFB06F105FB0CFC11EB32
:10429000074144EB17444FEA124711EB0C4144EB42
:1042A0001C4422EA074C05FB07F206FB07F70CFB50
:1042B00006F605FB0CFC16EB074642EB174216EB25
:1042C0000C4642EB1C456A1854F1000148BF704788
:1042D000B619524141EB0101A3F10103704795F07A
:1042E000000F37D04FEA11424FEA144721EA024645
:1042F00024EA074C02FB07F106FB07F70CFB06F468
:1043000002FB0CFC14EB074441EB17414FEA154745
:1043100014EB0C4441EB1C4125EA074C02FB07F56A
:1043200006FB07F70CFB06F602FB0CFC16EB074638
:1043300045EB174516EB0C4645EB1C42121951F1A3
:10434000000148BF7047B619524141EB0101A3F18A
:10435000010370474FEA14454FEA114724EA054626
:1043600021EA074C05FB07F106FB07F70CFB06F2F9
:104370004FF0000605FB0CFC12EB074241EB174126
:1043800012EB0C4251EB1C4148BF7047921841EBB5
:104390000101A3F101037047490050EAC12018BF91
:1043A00004204A0D18BF40F0010040F2FF72B2EB4A
:1043B000515F08BF40F00200012808BF0520704788
:1043C0002DE9F0414F1E00EBC7010446D1E9000181
:1043D00015461E4637F006020DD02A46334600F039
:1043E0000BFC7F1E04EBC703D3E9002300F0E4F9C4
:1043F00037F00602F1D1022F25D0042F13D0062F5B
:1044000018BFBDE8F0812A46334600F0F5FBD4E939
:104410000A2300F0D1F92A46334600F0EDFBD4E937
:10442000082300F0C9F92A46334600F0E5FBD4E939
:10443000062300F0C1F92A46334600F0DDFBD4E93B
:10444000042300F0B9F92A46334600F0D5FBD4E93D
:10445000022300F0B1F92A46334600F0CDFBD4E93F
:104460000023BDE8F04100F0A7B9012201F002B835
:10447000024A0020110700F0FDBF000001FDFFFF10
:1044800030380A2801D20120704700207047000010
:104490002DE9F84F04460D4621F000400091734984
:1044A000814211DC7249884201DC06D12CB12046E0
:1044B0002946BDE8F84FFFF7D8BF6E48002DCCBFA6
:1044C0006D496E49BDE8F88F6D49814211DD6D4936
:1044D0008142D8BF4FF0FF366DDD20462946FFF7F9
:1044E0005BFF042808BFFFF7C3FF20462946BDE84D
:1044F000F88F6549654F25F00045814233DD6449F9
:10450000814219DD002632464FF08043204629467D
:1045100000F052F980468A4601222046294600F0E2
:10452000A9FF00223B4600F057FD4246534600F0EB
:10453000F3F904460D463EE001260022BA463B460A
:104540002046294600F038F980460F46002253469F
:104550002046294600F040FD42463B4600F0DCF98B
:1045600004460D4627E04B4981421BDDDFF828A1B8
:104570000226002253462046294600F03DFB002239
:104580003B4600F019F980460F460022534620466C
:10459000294600F021FD42463B4600F0BDF90446A5
:1045A0000D4608E0032622462B4600203B4900F03A
:1045B000B3F904460D4622462B461046194600F034
:1045C0001BFB8B46824602460B4600F015FB074656
:1045D0000246334888460B4606217844FFF7F0FE32
:1045E00052465B4600F008FB82462E488B463A4610
:1045F000434605217844FFF7E3FE3A46434600F080
:10460000FBFA02460B46002E504659460CDA00F0E3
:10461000D3F822462B4600F0EFFA01B022462B4693
:10462000BDE8F04F00F0E6BB00F0C6F822462B468E
:1046300000F0E2FA1C4A7A4402EBC603D3E90023F5
:1046400000F0CAFC22462B4600F0C6FC174A7A440A
:1046500002EBC603D3E9002300F0CCFB009A002A4A
:10466000B8BF81F00041BDE8F88F000000001044A1
:104670000000F07F182D4454FB21F93FFB21F9BFC6
:104680000000DC3F0000203E0000F33F0000F03F50
:104690000000E63F008003400000F83F0000F0BF4C
:1046A000A20F0000600F0000FE0E0000C60E00000A
:1046B0002DE9F04106460F4600F0A8FB041E0D460A
:1046C00018BF0120284320F00040C0F17F6000F1B6
:1046D000E040C00F0ED0301C18BF0120384320F03E
:1046E0000040C0F17F6000F1E040C00F04BF012036
:1046F000FEF781FB20462946BDE8F08110B5002970
:104700000AD00878002807D005487844FFF742FA15
:10471000002801D0002010BD0248784410BD0000E0
:104720008A0F0000820F000010B500290AD0087817
:10473000002807D005487844FFF72CFA002801D05C
:10474000002010BD0248784410BD00006E1000002B
:104750006610000021F00042A2F16052B2F5801F05
:1047600001F0004328BFD2F17F6C0BD95FEA001C37
:1047700043EAC20242EB507018BF704728BF20F0D6
:1047800001007047B2F5801FBCBF184670474FEA62
:10479000410C1CF5001F02D2084600F032BE70B575
:1047A00000F0D4FA00000089FFF7F6BF4FF0004098
:1047B000A0F580007047000010B591EA030F48BFD4
:1047C00083F0004300F11084841A71EB030C05D2CE
:1047D000121943EB0C03001B61EB0C01DFF824E121
:1047E0004FEA1154A4EB135C1EEA430F18BF9EEA74
:1047F000445F73D023EA0E03DCF1200E21EA04515A
:1048000043F4801332D322FA0CFE10EB0E0023FA8D
:104810000CFE41EB0E01CCF1200E03FA0EFE10EB64
:104820000E0051F10001B1F5801FCCF1200E32D203
:1048300001EB045112FA0EF2BDE8104058BF704768
:10484000401C38BF5FEA420218BF7047002814BFFF
:1048500020F0010041F100014FEA410313F5001F70
:1048600038BF7047A1F1C04100F0BEBA012A43EB46
:104870000302ACF1200CDCF11F0E32BF4FF0000E32
:1048800023FA0CF310EB030041EB0451B4EB115F7E
:10489000D0D0A1EB045101F5801149085FEA300046
:1048A00001EB04510ED350F1000038BF12FA0EFE96
:1048B00008D1BDE81040C9E7401C38BF5FEA42029A
:1048C000CAD1C3E7BDE810404FEA410313F5001F0A
:1048D00038BF7047A1F1C04100F086BA9EEA445F3C
:1048E00008D011EA5E0FBDE8104004BF01F000419E
:1048F00000207047BDE8104070B500F027FA00BFF7
:1049000064FBBE3E0000E0FF02494FF0000000F0F3
:104910007FBD00BF0000F87F2DE9C04130B4DFF853
:10492000A0C23CEA111418BF3CEA131400F0EC805A
:1049300081EA03051CEA111444EAD57418BF1CEA85
:10494000131500F0C780A4EB05044FF0004545EABD
:10495000C12145EAC32341EA505143EA525304F1CD
:104960007F74994204F500344FEAC0204FEAC22216
:1049700008BF904200F09C804FEA13650FF240168A
:10498000765D4FEA134506FB05F7C7F1807706FB16
:1049900007F74FEAD737A7FB03687642C8F5803898
:1049A000A7FB06CE38BFA8F1010807FB08E64FF0C9
:1049B000000EA6FB028CE6FB03CEDCF1000CCEF170
:1049C000004E38BFAEF1010EA6FB0C584FF00007A9
:1049D0004FF00005E6FB0E87A1FB08C6A0FB07CE43
:1049E00016EB0E0645F10005E1FB076515F1E04EFB
:1049F0007EBFA4F580345FEA46066D4116F180075C
:104A000045F100054FEA17274FEA066647EA0567B2
:104A1000A6F1DE46B6F1805F4FEA15251FD938466C
:104A200024F0010C05EBC471BCF1FE6F01EB0C111D
:104A300002D8F0BCBDE8008124425CBF01F5801EB5
:104A40009EEAC47F02D4F0BCBDE80081244238D481
:104A5000F0BCA1F1C041BDE8004100F0C5B94FEA8A
:104A6000D22242EA43524FEAD323A7FB02864FEAFF
:104A7000D02040EA415007FB03661EEA0E0F4FEAC2
:104A8000D12105FB026658BFA6EB0056B6EB0056D7
:104A90004FEA520E4EEAC37E18EB0E0E56EB530E43
:104AA000BDD518EB02085E417F1C55F10005B6E745
:104AB0004FF480154FF000074FF000064FF000084C
:104AC000ADE7F0BC4FF0000001F1C04101F0004142
:104AD000BDE8008111EA0C1F0CEA131500D00CE0B0
:104AE00013EA0C1F00F025804FF00000F0BC81EAB3
:104AF000030101F00041BDE80081F0BCBDE80041C8
:104B000081EA030100F070B9F0BCBDE8004170B566
:104B100000F01CF9097EFC3E00F007B881EA0301B1
:104B20004FF0000001F00041704781EA030100F0FE
:104B30005BB9F0BCBDE800414FF00000214970476F
:104B4000FFFDFBF9F7F5F4F2F0EEEDEBE9E8E6E452
:104B5000E3E1E0DEDDDBDAD8D7D5D4D3D1D0CFCDD9
:104B6000CCCBCAC8C7C6C5C4C2C1C0BFBEBDBCBB12
:104B7000BAB9B8B7B6B5B4B3B2B1B0AFAEADACAB0D
:104B8000AAA9A8A8A7A6A5A4A3A3A2A1A09F9F9EE7
:104B90009D9C9C9B9A999998979796959594939399
:104BA000929191908F8F8E8E8D8C8C8B8B8A898930
:104BB00088888787868585848483838282818180B3
:104BC0000000FF070000F87F10F0004248BF40429D
:104BD000B0FA80F310FA03F10AD0C3F11D0303F514
:104BE00080634FEA415002EB035202EBD121704740
:104BF0004FF0000070470000DFF848C170B51CEAB4
:104C0000111E1EBF1CEA13159EEA0C0F95EA0C0F2D
:104C100000F06F8081EA030423EA4C134EEAD47E4D
:104C200021EA4C1141F4801143F48013AE44A1FBFE
:104C3000024CA0FB0365AEF17F7E361955EB0C05E7
:104C4000A1FB034C4CF10003A0FB021C16EB0C066D
:104C5000654153F10003094218BF46F0010613F401
:104C6000007F0BD14FEA03314FEA0530340341EAAC
:104C7000155140EA16506FF003020AE04FEAC321D3
:104C80004FEAC520F40241EA555140EA56506FF010
:104C9000020202EB2E4201EB025585EACE710AD0E8
:104CA0005FEA440C18BF24F0004450F1000041F1C9
:104CB000000120EAD47040F2FE7C624500D270BD53
:104CC000A84214BF4FF080444FF04044002E08BF6C
:104CD0000024BEF1806FA8BFA1F1C041BDE87040C3
:104CE00080F282804FF0000001F1C04101F00041EC
:104CF00070479EEA0C0F0CEA131518BF95EA0C0FCB
:104D000006D04FF0000081EA030E0EF0004170BDA6
:104D100000F01CF88900013E00F007B800F009B867
:104D20004FEA430C5FEA5C5C08D081EA030100F0C3
:104D30005BB84FEA410C5FEA5C5CF6D14FF00000D3
:104D4000014970470000FF070000F87F0EF1020ED6
:104D50002EF0030E5EF8046B364205D4012A43EBB5
:104D6000030515F5001F12D8012841EB010C1CF5B5
:104D7000001F0CD80ED14FEAD17C15F5001F0CEBAB
:104D80004C0C0CF1020C08BF4CEBD37C04E04FF050
:104D9000080C01E04FEAD37C0CEB4C0526FA05F633
:104DA00006F00706B6F1040C06D20EEB860CBDE841
:104DB00070404CF0010C6047DFE80CF0090B020278
:104DC0004FF000414FF00000A1F5002170BD1946E1
:104DD0001046012851EB010418BFD4F5001484BF1C
:104DE000002001F0004170BD0808A0F500114FEA55
:104DF0003101704791EA030F10B581F000413FF592
:104E0000E3AC83F0004300F0EFB800002DE9F0417F
:104E100001F5801CBCF5001FC0F2C3804FEA115C95
:104E200021EA0C510CF1FD0C41F480115FEA5C0C9D
:104E30000CF5C07C01D3400049413DA4890241EA00
:104E4000905187028E0E0A0CA45D04FB04F602FB4F
:104E500006F6C6F14046A4FB0662F60D46EA422677
:104E600006FB06F4A4FB01235242C3F1404338BFC2
:104E70005B1EA6FB02420024E6FB0324D20B42EA9F
:104E80004446A6FB0623A1FB02E2A3FB07E4A41809
:104E90004FF0000252F10002E3FB01426442C2F112
:104EA000404E38BFAEF1010EA6FB04234FF00002C6
:104EB000E6FB0E32A2FB03464FF00004B61954F194
:104EC0000004E2FB0264A1FB06E6A4FB07E816EB84
:104ED00008064FF0000858F10008E4FB016876422C
:104EE000C8F1405838BFA8F10108A2FB06E4A3FBB3
:104EF00008E52D194FF0000454F10004E2FB0854BA
:104F0000A1FB05E6A7FB04E818EB06084FF0000636
:104F100056F10006E1FB048618F1200556F1000663
:104F2000A809A8F11B08B10908F03F08B8F10A0F59
:104F300040EA86601CD901EB0C51BDE8F08100BF4E
:104F4000FCF5EEE8E2DDD8D3CFCBC7C3C0BDB9B620
:104F5000B4B1AEACA9A7A5A3A19F9D9B9A98969525
:104F60009392908F8D8C8B898887868584838281AC
:104F7000A0FB006800FB01F208EB4208B8EB8728B1
:104F800007D5341858EB0104D5D5401C51F1000168
:104F9000D1E7341A78EB0104CDD4401E71F1000141
:104FA000C9E75FEA4C0C5FEA9C5C0DD105D34FF07A
:104FB000000001F00041BDE8F081BDE8F04170B5AE
:104FC000FFF7C4FE6DDBFFBEBDE8F0414FF000000F
:104FD000004970470000F87F10B591EA030F48BF01
:104FE00083F000433FF5F0AB841A71EB030C07D25A
:104FF00012198CF0004C43EB0C03001B61EB0C010D
:10500000DFF8A4E14FEA1154A4EB135C1EEA430F4E
:1050100018BF9EEA445F00F0B08023EA6E0352425C
:1050200021EA0451C3EB6E0338BF5B1EDCF1200E96
:1050300025D322FA0CFE10EB0E0043FA0CFE41EBD6
:105040000E01CCF1200E03FA0EFE10EB0E0051F112
:105050000001CCF1200E29D412FA0EF201EB04511A
:10506000BDE8104058BF7047401C1CBFB2F1004F54
:10507000704700280CBF491C20F00100704712EB5C
:10508000020E43EB030218BF4FF0010E4EEA42023C
:10509000ACF1200CDCF11E0E54D943FA0CFE10EBDF
:1050A0000E0051F1FF31CCF11E0ED5D50EF1010EDF
:1050B00012FA0EFE404141EB010101EB445C5FEA54
:1050C0005C5C10D910EBDE7001EB045138BFBEF10F
:1050D000004FBDE8104018BF704700280CBF491CA6
:1050E00020F00100704730D24FEAD42C11F50011A6
:1050F00024F400641BD0B1FA81F20B3AA41AA41E66
:10510000D2F12003914030FA03F31943904001EBB0
:10511000CC71002C01EB0451BDE81040A8BF7047D2
:1051200001F1C0414FF0000001F000417047B0FABA
:1051300080F310FA03F100D110BDE41A173C4805C2
:10514000C90AE4E701EB045110BD491001EB045119
:10515000BDE810404FEA300002E04FF00001704718
:105160004A0008BF0042F8D0B2F5001F28BF7047C0
:1051700001F000414FF0000070479EEA445F07D005
:1051800011EA5E0FBDE8104004BF00210020704707
:10519000BDE8104070B5FFF7D9FD00BF40DFF63E17
:1051A00083F00041104670470000E0FF43004FEAE3
:1051B000D30C4FEA3C0C43401FBF40070CF1605139
:1051C00013F0FE4F70471CF0006F03D100200CF06D
:1051D000004170470CF0004343EA507010B540EABC
:1051E000CC0000F0C8F800BF000000924FEA0001B8
:1051F000FFF7FABD4FF000414FF00000A1F500218C
:1052000070470000C10DD1F19E0206DB4FEA00237A
:1052100043F0004323FA02F07047004207D54FEAFB
:105220004001B1F1FE4F02D24FF00000704710B5BF
:1052300000F0A1F849922480002070476FEA200016
:105240007047000010F0004148BF4042B0FA80F3C0
:1052500010FA03F2C3F19D030BD051EAC35101EBE5
:105260001220530638BF704700F1010008BF20F03C
:10527000010070474FF47F0C1CEAD0121EBF1CEADD
:10528000D11392EA0C0F93EA0C0F00F0478090EADA
:10529000010F48BF42F480724FF0004C4CEA0020EE
:1052A0004CEA012102EB0302A0FB0113A2F500026C
:1052B000002918BF43F001035B0028BF4FEA330306
:1052C00042EB22425FEA132C4CEBC2502EBFBCEBE8
:1052D000436FB2F57C0F70474FEA036CBCF1004F8F
:1052E00008BF20F00100B2F57C0F38BF70470BD526
:1052F00082F0FF0212F5803FC8BF704700F1C04046
:10530000D8BF00F00040704700F5000C5FEA4C0C7D
:1053100048BF7047B0F1C04000F073B890EA010F89
:105320000CEAD11348BF42F48072624538BF63452E
:1053300004D280EA010000F00040704710B500F090
:105340001AF800BF8900013E00F007B800F009B864
:105350005FEA410C5FEA1C6C08D080EA010000F0B3
:1053600050B85FEA400C5FEA1C6CF6D14FF0004089
:10537000A0F5800070470EF1020E2EF0030E5EF8CD
:10538000044B244204D44FEA4102B2F17F4F11D8BA
:105390004FEA4003B3F17F4F0CD80ED14FEAD07CD7
:1053A000B2F17F4F0CEB4C0C0CF1020C08BF4CEB34
:1053B000D17C04E04FF0080C01E04FEAD17C0CEB0B
:1053C0004C0324FA03F404F00704B4F1040C06D2ED
:1053D0000EEB840CBDE810404CF0010C6047DFE898
:1053E0000CF0070802024FF00040A0F5800010BD4D
:1053F0000846420018BFD2F1807288BF00F000401A
:1054000010BDFF2141EAD050C0057047FEF7AEB88D
:105410000CF00F03092B08BF082000F059800A2B5D
:105420000BD0082B18BF704708BF1CF0400F0AD0E4
:105430004FF000004FF0000170471CF0400F18BF04
:105440004FF0004070471CF0100F08D020F0704360
:1054500000F07F4242EAD3014FEA4370704700F008
:10546000604021F07F4242EA000201F07F4040EAC2
:10547000727070474FF0FF0C4CF4E06C1CEA115353
:105480001CBF9CEA030C9445C2BFDA4201EB0251F7
:105490007047002B0DD0BCF1000F0FD0002A01F097
:1054A0000041A4BF41F0E04141F07F614FF00000B6
:1054B000704701F000414FF00000704750EA01339F
:1054C0004FF09B0C18BF4CF0806C7FF41DAA704706
:1054D0001CF4801F11D01CF4E02F03D06FEACC31F4
:1054E000490070474FF04050EFF3008222F07042C5
:1054F00042EA000282F3008870474FF000007047D4
:10550000040000080000000000000002000100008C
:1055100010000000000000004FBB610567ACDD3FDC
:10552000182D4454FB21E93F9BF681D20B73EF3FCA
:10553000182D4454FB21F93FE2652F227F2B7A3C42
:10554000075C143326A6813CBDCBF07A8807703CFB
:10555000075C143326A6913CC4EB98999999C9BF6E
:10556000711623FEC671BCBF6D9A74AFF2B0B3BFA3
:105570009AFDDE522DDEADBF2F6C6A2C44B4A2BF63
:105580000D5555555555D53FFF8300922449C23FCF
:105590006E204CC5CD45B73F513DD0A0660DB13F03
:1055A000EB0D76244B7BA93F11DA22E33AAD903F15
:1055B000000000000000000030313233343536374F
:1055C0003839414243444546403058003031323347
:1055D0003435363738396162636465664030780047
:1055E00002400000000000A0000000000540000094
:1055F000000000C8000000000C4000000000409CBB
:1056000000000000194000000020BCBE00000000A7
:1056100034400000BFC91B8E00000004B5400000EC
:10562000504BCFD06607E2CF010000006C41000074
:105630003E8251AADFEEA73401000000D9420000EB
:10564000DCB5A0E23A301F97FFFFFFFFB445000032
:10565000FD25A0C8E9A3C14FFFFFFFFFFF3F0000EA
:105660000000008000000000FF3F000000000080FC
:1056700000000000C0570008000000203C000000AF
:105680006C010008FC5700083C00002004090000E1
:10569000880100081001000043000000F8FFFFFF30
:1056A0000040404040404040404041414141414035
:1056B00040404040404040404040404040404040EA
:1056C0004005020202020202020202020202020279
:1056D000022020202020202020202002020202027E
:1056E00002029090909090901010101010101010D6
:1056F00010101010101010101010101002020202E2
:105700000202888888888888080808080808080825
:105710000808080808080808080808080202020221
:105720004000000000000000000000000000000039
:105730000000000000000000000000000000000069
:105740000000000000000000000000000000000059
:105750000000000000000000000000000000000049
:105760000000000000000000000000000000000039
:105770000000000000000000000000000000000029
:105780000000000000000000000000000000000019
:105790000000000000000000000000000000000009
:1057A000000000001C00000043000000F8FFFFFFA5
:1057B0000C0000000E0000000F0000002E00000092
:1057C00000A24A04000000000000000001020304DF
:1057D0000607080900000000010203040102030497
:1057E0000607080902040608000000000000000087
:0C57F000000000000000000000000000AD
:0400000508000131BD
:00000001FF
