:020000040800F2
:1000000028090020810200083D2600081D21000863
:10001000F1250008811E00082531000800000000BD
:10002000000000000000000000000000812C00081B
:10003000CD1E000800000000970200086D2D00088A
:100040009B0200089B0200089B020008152A00087A
:100050009B0200089B020008511F00089B02000839
:100060009B0200089B0200089B0200089B020008FC
:100070009B0200089B0200089B0200089B020008EC
:100080009B0200089B0200089B0200089B020008DC
:100090009B0200089B0200089B0200089B020008CC
:1000A0009B0200089B0200089B0200089B020008BC
:1000B0009B0200089B0200089B0200089B020008AC
:1000C0009B0200089B0200089B0200089B0200089C
:1000D0009B020008F92E0008152F00089B0200085B
:1000E0009B0200089B0200089B0200089B0200087C
:1000F0009B0200089B0200089B0200089B0200086C
:100100009B0200089B0200089B0200089B0200085B
:100110009B0200089B0200089B0200089B0200084B
:100120009B0200089B0200089B0200089B0200083B
:1001300000F002F800F094F80AA090E8000C824465
:100140008344AAF10107DA4501D100F089F8AFF242
:10015000090EBAE80F0013F0010F18BFFB1A43F0A5
:10016000010318474845000068450000103A24BFC5
:1001700078C878C1FAD8520724BF30C830C144BF0C
:1001800004680C607047000000230024002500264E
:10019000103A28BF78C1FBD8520728BF30C148BFEA
:1001A0000B6070476E2900F0A683702900F0078568
:1001B000662904F04781652904F04481672904F029
:1001C00041816129AFF3008003681B0A28BF41F019
:1001D0008001692900F04081642900F03D81752982
:1001E00000F03A816F2900F09584782900F0D384DB
:1001F000E92900F02F84E42900F02C84F52900F08F
:100200002984EF2900F09284F82900F0D284036851
:10021000DB0928BF41F08001632900F0B083732916
:1002200000F0B583E32900F07B87F32900F0808795
:10023000002070471FB59DE8030000F089FA00F028
:10024000D1FF04000020002103F08AFA401C606006
:100250000020002103F06EFAE0601FBD10B510BD54
:1002600000F092FF1146FFF7E5FF03F0FBF901F004
:100270006BF803B4FFF7F2FF03BC01F09BF800003A
:100280000948804709480047FEE7FEE7FEE7FEE72A
:10029000FEE7FEE7FEE7FEE7FEE7FEE70448054966
:1002A000054A064B70470000712D00083101000817
:1002B000280100202809002028050020280500200A
:1002C00070B5064600F028FA056806F10B0020F02C
:1002D0000704B4429CBF002070BD2B466A68BAB1C7
:1002E0001068A04210D304F1080188423CBF506856
:1002F000586007D35168101941601168091B0160EB
:1003000058601460101D70BD13465268002AE7D172
:100310002146284600F008FA0028DED170BD70B5ED
:100320000446051F00F0F8F90068002C14BF44686B
:1003300070BD002C18BFAC423CBF20466468F8D3A7
:1003400001680A18AA4218BF456003D12A68054609
:100350001144016028684119A1421CBF6C6070BD46
:100360006168696021680844286070BD7CB51D46DD
:1003700016460C00009001D02044401E074B7B44E1
:100380002A4669460190304600F0CFFA05461CB176
:100390000020694600F0DCFA28467CBDD905000043
:1003A0000FB41CB5084B06AA7B446946009005981B
:1003B00000F0BBFA04460020694600F0C9FA204666
:1003C0001CBC5DF814FB0000A50500000FB47CB553
:1003D0000C0009AA009001D02044401E084B7B4429
:1003E00069460190089800F0A0FA05461CB100206B
:1003F000694600F0ADFA28467CBC5DF814FB0000AD
:100400007905000070B50C460546012A05D028780C
:10041000800600D5EA69002302E0012305E05B1CA9
:10042000934202D2E05C0028F9D1A869E618C01A0C
:10043000A861286A18442862284600F0CAF904E036
:10044000D5E9012114F8010B9047B442F8D32846AE
:1004500000F0D5F970BD00002DE9F04106460024FA
:1004600010687529314616A510D000F0D9F900287A
:1004700002DA404213A507E031688A0701D512A5C8
:1004800002E0490704D511A5012401E000F0D1F9EB
:1004900000210A2206F1240709E0B0FBF2FCB0FBC0
:1004A000F2F302FB1C00303078541846491C002837
:1004B000F3D123462A463046BDE8F04100F0C2B9E8
:1004C000000000002D0000002B00000020000000B4
:1004D0002DE9F05F894604464FF0000ADFF874B159
:1004E000FB44C0F820A02046E1688847002874D06B
:1004F000252806D0D4E901219047206A401C2062BB
:10050000F1E700265F462046E16888472028054637
:1005100007DB312D05D2781910F8200C08B10643FD
:10052000F1E7B00701D526F00406C4F81CA00027A7
:10053000C4F818A02A2D09D0284602F07BFF38B352
:1005400004EB8708303DC8F8185019E059F8041B2F
:10055000204604EB87029161E1688847012F054638
:1005600018D1E069002820DA26F020061DE0D8F82E
:10057000180000EB800005EB40003038C8F8180088
:100580002046E1688847054602F054FF0028EED176
:10059000012F0AD02E2D08D12046E16888477F1C04
:1005A0000546022F46F02006C4DBA069002803DAC6
:1005B000404246F00106A061F00701D026F0100687
:1005C0006C2D0BD0682D09D04C2D39D06A2D35D02B
:1005D000742D35D07A2D33D016E038E0E1682F46FF
:1005E00020468847B842054609D16C2F26D04FF4E3
:1005F0008060E168064320468847054604E06C2F8A
:100600001AD04FF4807006430DB3A5F141001928AC
:1006100002D8203546F400664A4629462046266020
:100620004E46FFF7BFFD80B101280BD0F61D26F026
:10063000070000F1080956E74020E4E78020D8E7EA
:100640000020D6E706F104094DE7284652E7206A64
:10065000BDE8F09F54400000401ECAB210F8011FD0
:100660008A4202D00029F9D10020704730B50546F2
:100670000B462A4613F8014B12F8010B08B1A042B1
:10068000F8D01CB1002802D06D1CF1E7284630BD1F
:1006900010B5431C02E010F8011B71B18107FAD1BB
:1006A0004FF0013202C88C1A8C4314EAC211F9D0FF
:1006B000C01A0A0603D0C01E10BDC01A10BD0A041D
:1006C00001D0801E10BD0902FCD0401E10BD4FF0AD
:1006D00000020429C0F0128010F0030C00F07C82AC
:1006E000CCF1040CBCF1020F18BF00F8012BA8BF1D
:1006F00020F8022BA1EB0C0100F06EBA5FEAC17C7E
:1007000024BF00F8012B00F8012B48BF00F8012B93
:10071000704770477047704700487047CC00002012
:10072000704770477047704738B504460A46002046
:100730006946AFF30080002808BF38BD0246009923
:10074000204600F077FA012038BD012000F014BDEA
:10075000F8B5AFF30080054600200C46102000BF1E
:100760000646A819A0420DD9324669460020AFF3CB
:100770000080070008BF00F0FFFC0098A04218BFEF
:100780000546C419FFF7C8FF05600746F01D20F0B5
:1007900007004619284600F00AF8B44208BFF8BD21
:1007A000A21B31463868BDE8F84000F043BA00218A
:1007B0000160C0E9011070471020704710B500F0CB
:1007C00035FA006810BD10B5044600F02FFA046039
:1007D00010BD70B5044685690068C10601D5302694
:1007E00000E02026C00707D070BDD4E901213046C3
:1007F0009047206A401C20626D1EF6D570BD70B512
:10080000044685690078C00707D170BDD4E901218D
:1008100020209047206A401C20626D1EF6D570BDD6
:1008200009684A0501D540B27047C905FCD500B238
:10083000704709684A0501D5C0B27047C905FCD5A3
:1008400080B270472DE9F0470D469946924604461E
:1008500000F124080168880604D5E06921F0100140
:10086000216000E00120A84201DD471B00E00027D5
:10087000A1697A1902EB0900081AA0612078C00664
:1008800002D42046FFF7A5FF002608E0D4E90121A5
:100890001AF806009047206A401C761C20624E45DC
:1008A000F4DB2078C0060AD52046FFF792FF06E069
:1008B000D4E9012130209047206A401C2062381E74
:1008C000A7F10107F4DC07E0D4E9012118F80500DD
:1008D0009047206A401C2062281EA5F10105F3DC28
:1008E0002046FFF78CFF2078000602D50220BDE8E5
:1008F000F0870120FBE711680268006A530501D503
:1009000008700AE0D30501D5088006E0130603D578
:10091000C217C1E9000200E0086001207047000032
:1009200001694A1C02610878704700B58FB0CDE9B3
:1009300001310021059105497944CDE903101146A3
:100940006846FFF7C5FD0FB000BD0000E5FFFFFFE3
:100950000A6802F8010B0A607047D1E900239A4245
:1009600002D2531C0B601070704710B5436913B16D
:10097000AFF3008001E0FFF745FD012010BD1278C4
:1009800000F124010A7000224A700122EDE711688B
:100990004FF0FF32E9E700002DE9FF5F15468A4678
:1009A0000446DFF8AC80F8440027D8E900103E4642
:1009B000CDE9001010E03AF816106A4602A800F0DF
:1009C000BBFB411C07D02178890603D5E2693918A1
:1009D00091420DD80744761C2078800602D5E06944
:1009E000B84205DDAE42E6DB3AF816000028E2D157
:1009F000A069C01BA0612046FFF7EBFED8E90010FC
:100A0000CDE90010002017E03AF818106A4602A855
:100A100000F092FBB0F1FF3F81460BD000250DF1B5
:100A2000080B05E0D4E901211BF8050090476D1C77
:100A30004D45F7D308F10100B0428046E4DB206A5F
:100A4000384420622046FFF7DAFEBDE8FF9F000031
:100A50003E3C00002DE9F0418046D21D22F0070205
:100A60000025D2E90002F52915A614D0011E72F165
:100A7000000106DA0023D0EB030063EB020211A6AB
:100A800008E0D8F800108B0701D50FA602E049074F
:100A900001D50EA601251146002408F1240704E023
:100AA00000F0E2F830323A55641C50EA0102F7D106
:100AB0002B46324621464046BDE8F041FFF7C2BE14
:100AC000000000002D0000002B00000020000000AE
:100AD00030B4002100F1240408E002F00705D20838
:100AE000303542EA4372DB086554491C52EA03057B
:100AF000F3D10468002310A2250708D504F02004D0
:100B00000C4304D0C46901230CA2641EC46130BC30
:100B1000FFF798BE10B5044621461068FFF789FE1E
:100B200002462046BDE810400023D1E7D21D22F046
:100B30000701D1E90023CBE70000000030000000EE
:100B4000F0B40D460188090502D5214C7C4402E031
:100B50001F4C7C440E34002100F1240608E002F012
:100B60000F071209E75D42EA03721B097754491C1B
:100B700052EA0307F3D102780023120704D5702D3F
:100B800006D009B1022311342246F0BCFFF75ABE49
:100B900001231034F8E770B504460D46214610686D
:100BA000FFF747FE024629462046BDE87040002375
:100BB000C6E7D21D22F00703D3E90023C0E703688C
:100BC000126843F0200303600823C3610023B7E7E2
:100BD000A03A00004FF0000200B513469446964636
:100BE000203922BFA0E80C50A0E80C50B1F1200140
:100BF000BFF4F7AF090728BFA0E80C5048BF0CC0EE
:100C00005DF804EB890028BF40F8042B08BF70474B
:100C100048BF20F8022B11F0804F18BF00F8012BBD
:100C20007047000000487047C4000020004870472B
:100C3000C4000020034640688C46002818BF884244
:100C40003CBF03464068F8D318681844884207D070
:100C50000CF1030020F00700001D411A521A014652
:100C6000081D0A60FFF75BBB30B5B0F10A024FEA1E
:100C7000900E71F100034EEA817EB0EB0E0061EB45
:100C800091014FEA101E4EEA017E10EB0E0041EB7F
:100C900011114FEA102E4EEA016E10EB0E0041EBDF
:100CA00011214FEA104E4EEA014E10EB0E0041EBBF
:100CB0001141401841F100014FEAD00040EA417073
:100CC0004FEAD10110EB80054FEA810444EA9074A9
:100CD00044EB01046D1944EB0404521BA3414FF093
:100CE000000348BF0A3200D530BD401C41F100016D
:100CF00030BD70472DE9FF4F0C461E464FF0FF37C1
:100D00008BB0D2E90001DDF860800A908A46C1F319
:100D10000A5505B93D46002108464FF00000BAF1DA
:100D2000000F00F4400005DA00EB80004FF44001B2
:100D300001EA50004FEA9059B9F1010F00DDB946C0
:100D40000A9850EA4A000ED044F61050A5F2FF353A
:100D500045432F14B8F1000F1ED07542291E1EDD29
:100D6000C9F100021CE0B8F1010F4FF0000001D002
:100D7000302103E0F24305E02154401CB042FBDB8C
:100D800030460022002121540B99C1F80880C1E9A6
:100D900000200FB0BDE8F08FBD1B6D1CDEE74A469A
:100DA00000DA694206A800F061FA06AB93E8070092
:100DB00003AB83E8070050460A9900F062FB8DE818
:100DC0000700A0F500501F3800900398002D09DDA2
:100DD00042F21F014A46084403A90390684600F006
:100DE000C1FD08E0A0F500504A461F3803A9039052
:100DF000684600F0CBFD8DE807000004000C03D02E
:100E00004FF0FF30410800E01046B8F1000F03D06A
:100E10000022009215461EE0751E05D4FFF724FF40
:100E2000303262556D1EF9D5B3460122084302D017
:100E300000227F1C04E02078302801D100227F1E90
:100E4000002A099786D01DE0112D07DAFFF70CFF65
:100E5000303262556D1C50EA0102F5D1084302D0D0
:100E60000098C8B10EE00021681E05E0235C625CBA
:100E700063542254401E491C8142F7DBAB46A81B39
:100E8000401E0990002004F80B000B98099AC0F846
:100E90000880C0E9002B7CE711264FF0000859E7D5
:100EA0002DE9F04F88460446D21D22F0070191B08B
:100EB000D1E90001CDE90A0102F047FA02460B9898
:100EC000C00F01D02D2007E02068810701D52B201D
:100ED00002E0202101EAC000032A099001D0072A7C
:100EE00005DB03464146204600F080F90BE12078FF
:100EF000800601D5E06900E00620B8F1650F814663
:100F000006D0B8F1660F18D0B8F1670F70D131E094
:100F10000020B9F1110F009001DB112301E009F16C
:100F200001030AAA01A90CA8FFF7E4FEDDE90C7091
:100F3000002609F10105834647E001204B46009059
:100F40004FF000470AAA01A90CA8FFF7D3FEDDE97C
:100F50000DB00C995D46002610B909F101000D187D
:100F6000B9EB050003D4C0F1FF3609F10105A5EB8B
:100F700009002BE0B9F1010F01DA4FF0010900205F
:100F8000B9F1110F0090484601DD112300E003463E
:100F90000AAA01A90CA8FFF7ADFEDDE90C704D46C9
:100FA00000268346207800070AD4AB4500DA5D4668
:100FB00001A8012D04DD411911F8011C302907D0C9
:100FC0004F4502DA17F1040F04DA012082460FE0E0
:100FD0006D1EEEE7002F02DCED1B3E4403E0781CA3
:100FE000A84200DD7D1CB81B00F1010A4FF000474C
:100FF0002078000703D4AA4501DB4FF0FF3A002117
:10100000B7F1004F0DF143088DF8431024D00220B2
:101010002B23002F01DA7F422D230A21021EA0F18B
:10102000010000DC5FB197FBF1FC97FBF1F201FBE3
:101030001C7C17460CF1300C08F801CDEEE7A8F146
:10104000010003702188090501D5452100E06521D3
:10105000A0F1010800F8011C09980FA9A1EB0807ED
:10106000FF1D00B10120411901EBEA70A16938446C
:10107000081A401EA0612078C00602D42046FFF75F
:10108000A8FB099828B1D4E901219047206A401CA7
:1010900020622078C00622D52046FFF79AFB1EE08A
:1010A000002E04DBB34502DD01A8805D00E03020A6
:1010B000D4E901219047206A401C2062761CAAF1E5
:1010C00001005FEA000A0AD100F08CF8C0680168EC
:1010D000405CD4E901219047206A401C2062281E10
:1010E000A5F10105DCDC07E0D4E9012118F8010BCA
:1010F0009047206A401C2062381EA7F10107F3DCEC
:101100002046FFF77CFB032011B043E610B543698E
:1011100013B1AFF3008001E0FFF73EFC012010BDEA
:10112000128800F1240182840022C2840122EDE7AA
:1011300011684FF0FF32E9E770B516460C460546D8
:1011400000F048F8036893F80101012806D0FF2C4D
:101150000FD8185D68B101202C7070BDD3F807015D
:101160003246214603F2071303442846BDE8704087
:1011700018474FF0FF3070BD10B500F0F3F8BDE830
:10118000104000F0EAB870477546FFF74BFDAE46D9
:1011900005006946534620F00700854618B020B583
:1011A000FFF77CF8BDE820404FF000064FF0000745
:1011B0004FF000084FF0000B21F00701AC46ACE8FF
:1011C000C009ACE8C009ACE8C009ACE8C0098D466C
:1011D0007047000010B500F005F8001D10BD00BFFD
:1011E0008125000000487047E40000202DE9F0410F
:1011F0001F46044603260168072A01F4006004DB49
:1012000008B116A505E016A503E008B115A500E094
:1012100015A521F010002060A069C01EA0610FB1CB
:10122000401EA0612046FFF7D4FA4FB1D4E9012156
:1012300038469047206A401C2062C01C206206E0AD
:10124000206AFAE7D4E9012115F8010B9047761ED0
:10125000F8D22046FFF7D3FABDE8F0814E414E00A8
:101260006E616E00494E4600696E66002DE9F047DA
:10127000814616468AB0334878440DC88DE80D0083
:1012800030487844801C03AC0DC884E80D0041F65A
:101290009B300844372190FBF1F290FBF1F5A5F16A
:1012A000800501FB12041B3C02D56442012000E0D2
:1012B0000020DFF890A080460027FA44AAF1BE0A79
:1012C0000DE0E00709D03246684607EB47010AEB1C
:1012D000810100F05BFB8DE8070064107F1C002C8F
:1012E000EFD1184F7F44AC3F18E0E80714D007EB6C
:1012F00004100DF1180A90E80E008AE80E00C0688C
:10130000F04201D198190890324606A903A800F0CE
:101310003DFB03AB83E807006D10641C002DE4D196
:1013200032466946B8F1000F03A802D000F01AFB5C
:1013300001E000F02BFBC9E90001C9F808200AB060
:10134000BDE8F0871834000010B50446AFF3008004
:101350002046BDE81040FEF78CBF002801D000F009
:1013600029B8704710B5012805D0002103A000F06E
:1013700027F8012010BD09A1F8E7000053494752A2
:10138000544D454D3A204F7574206F662068656155
:1013900070206D656D6F7279000000003A2048651D
:1013A0006170206D656D6F727920636F72727570F8
:1013B0007465640001491820ABBEFEE726000200F8
:1013C00070B505460C460A2000E06D1C00F052F88E
:1013D00035B128780028F8D102E0641C00F04AF802
:1013E00014B120780028F8D1BDE870400A2000F040
:1013F00041B800004FF0013C50F8042B51F8043B79
:101400009A4221D1A2EB0C03934313EACC1317D1D8
:1014100050F8042B51F8043B9A4215D1A2EB0C036F
:10142000934313EACC130BD150F8042B51F8043B2F
:101430009A4209D1A2EB0C03934313EACC13DBD0FD
:101440004FF00000704700BFD01A01BAB1FA81F125
:1014500001F0180122FA01F0CB40C1F12001DBB20A
:10146000C0B2C01A2CFA01F3D11A914311EAC31188
:10147000E6D1704708B569468DF800000320ABBE81
:1014800008BD5FEA400C08BF91F0000F4FEA8C23C3
:101490004FEAC12243EA51514FEA1C5018BF00F5F0
:1014A000F0404FEA300018BF41F000415FEA6C5C49
:1014B00000F02980BCF1FF3F08BF40F0804070473A
:1014C000130C06BF12044FF0100C4FF0000C130E5B
:1014D00004BF12020CF1080C130F04BF12010CF12F
:1014E000040C930F04BF92000CF1020CD30F04BF45
:1014F00052000CF1010C11464FF00002A0F11F0048
:10150000A0EB0C00704711F0004F08BF704731F09E
:1015100000413FF4D5AF0B0C06BF09044FF0100C8F
:101520004FF0000C0B0E04BF09020CF1080C0B0F5E
:1015300004BF09010CF1040C8B0F04BF89000CF1EE
:10154000020CCB0F04BF49000CF1010CCCF12003BD
:10155000A0EB0C0022FA03F302FA0CF241EA0301B9
:1015600000F10100704720F07F4C80EA030023F077
:101570007F47ACEB070303F57C5300F0004003F119
:10158000FF032DE980494FEA154B09B44FEA144394
:1015900025EA0B4E24EA03480FF2042606EB132734
:1015A00049083E785FEA320203FB0667C7F5000789
:1015B00007FB06F64FEA54374FEAD64606F1020615
:1015C00007FB066CCCF1005C4FEA1C472CEA074C89
:1015D00007FB06F40CFB06F504EB15464FEA9616DE
:1015E00034BF00204FF000404FEAD13706FB07FC24
:1015F0004FEA1C4C0CFB0BF7D21B03FB0CF761EB07
:1016000007010CFB0EF7B0EB074072EB17420CFB27
:1016100008F734BFA2EB0742B2EB074261EB174178
:101620004FEA0C444FEA910706FB07FC4FEA1C4CBB
:101630000CFB0BF7B0EBC74072EB573203FB0CF718
:1016400034BFA2EBC742B2EBC74261EB57310CFB90
:101650000EF7B0EBC70072EB57720CFB08F734BF04
:10166000A2EBC702B2EBC70261EB5771039F4FEACF
:10167000816141EA921104EBCC044FEAD1374FEA81
:10168000826206FB07FC42EA90124FEA80604FEA52
:101690001C4C0CFB0BF7D21B03FB0CF761EB070197
:1016A0000CFB0EF7B0EB074072EB17420CFB08F790
:1016B00034BFA2EB0742B2EB074261EB17414FEA9E
:1016C0008C554FEA910704EB9C2406FB07FC4FEA7C
:1016D0001C4C0CFB0BF7B0EBC74072EB573203FB13
:1016E0000CF734BFA2EBC742B2EBC74261EB5731F4
:1016F0000CFB0EF7B0EBC70072EB57720CFB08F750
:1017000034BFA2EBC702B2EBC70261EB577115EB16
:101710004C254FEA816141EA92114FEA82624FEA19
:10172000D13742EA901206FB07FC44F100044FEA6D
:1017300080604FEA1C4C0CFB0BF7D21B03FB0CF731
:1017400061EB07010CFB0EF7B0EB074072EB1742A1
:101750000CFB08F734BFA2EB0742B2EB074261EB88
:10176000174115EB1C154FEA813141EA92414FEACE
:10177000823242EA90424FEA80304FEA0C7644F1DE
:10178000000448EA03434EEA0B484FF0000EB2EB68
:10179000080C71EB030724BF624639464EEB0E0E70
:1017A0004FF0000B0018524149414BEB0B0BB2EBD1
:1017B000080C71EB03077BF1000B24BF624639462E
:1017C0004EEB0E0E4FF0000B0018524149414BEB0F
:1017D0000B0BB2EB080C71EB03077BF1000B24BF82
:1017E000624639464EEB0E0E51EA020718BF46F02C
:1017F000010616EB0E7655F1000254F1000103D5F7
:10180000BDE88901BDE80088BDE88901BDE8004860
:10181000B619524141EB0101A3F1010370478080E9
:101820007F7E7D7C7B7A797877767675747372713A
:1018300071706F6E6E6D6C6C6B6A6A6968686766F2
:1018400066656464636362616160605F5F5E5E5D84
:101850005D5C5C5B5B5A5A595958585757565655F8
:1018600055555454535352525251515050504F4F5A
:101870004F4E4E4D4D4D4C4C4C4B4B4B4A4A4A49AA
:1018800049494848484747474746464645454544ED
:101890004444444343434342424242414141002B7A
:1018A00026D4770021D01CB54FEA370703B44FF098
:1018B00010004FF010014FF000000FBCBDE81040C9
:1018C0000BF1010BBBF1010F08BF5FEA170722BF45
:1018D00012F1010211F101014FF0004143F1000347
:1018E00000F0004043EA00007047F9D35708DAE7F8
:1018F00046EA064613F1400F4FEA16461FDD13F184
:10190000200FDFBF16430A46002120335B42C8D0B8
:10191000C3F1200746EA064602FA07F74FEA1646E1
:1019200046EA0706C3F1200722FA03F201FA07F795
:1019300021FA03F14FF0000342EA0702B1E746EA59
:10194000020646EA06464FEA164646EA0106BCBFCC
:1019500046EA0646360C4FF000034FF000024FF007
:1019600000019EE72DE9C048934630B491E8380065
:1019700007C831EA400C48BF34EA430C03D5FFF7EF
:10198000F2FDFFF78CFFF0BCBDE800882DE9C048F0
:10199000934630B491E8380007C810F0804F08BF74
:1019A00013F0804F03D100F005F8FFF778FFF0BC8B
:1019B000BDE8008820F07F4780EA030023F07F4CD9
:1019C00007EB0C03A3F57C5300F00040A3F1FE03EA
:1019D00092F0000F00F0B38095F0000F00F07780D8
:1019E0002DE901494FEA11404FEA144621EA004827
:1019F00000FB06FC24EA064708FB06F607FB08F88E
:101A000000FB07F718EB06484CEB164C4FEA124B5D
:101A100018EB07484FEA15464CEB174022EA0B4EED
:101A20000BFB06FC25EA06470EFB06F607FB0EFE3F
:101A30000BFB07F71EEB064E4CEB164C4FF0000667
:101A40001EEB074E4CEB174B18EB0B0840F1000058
:101A500018EB0E0B58EB000840F100008F1A4FF006
:101A600000013CBFC943661B14BFB5EB040C002149
:101A70003CBFC943F61B4FEA17444EEA8E0E27EAD5
:101A800004454FEA1C4704FB07622CEA074C05FBA0
:101A900007F70CFB05F604FB0CFC16EB074642EBC4
:101AA000174216EB0C4642EB1C421BEB060658EBAA
:101AB0000202414146EA9E0601D5BDE80189B619F8
:101AC000524141EB0101A3F10103BDE801894FEA55
:101AD00014454FEA114724EA054621EA074C05FB65
:101AE00007F406FB07F70CFB06F105FB0CFC11EBFA
:101AF000074144EB17444FEA124711EB0C4144EB0A
:101B00001C4422EA074C05FB07F206FB07F70CFB17
:101B100006F605FB0CFC16EB074642EB174216EBEC
:101B20000C4642EB1C456A1854F1000148BF70474F
:101B3000B619524141EB0101A3F10103704795F041
:101B4000000F37D04FEA11424FEA144721EA02460C
:101B500024EA074C02FB07F106FB07F70CFB06F42F
:101B600002FB0CFC14EB074441EB17414FEA15470D
:101B700014EB0C4441EB1C4125EA074C02FB07F532
:101B800006FB07F70CFB06F602FB0CFC16EB074600
:101B900045EB174516EB0C4645EB1C42121951F16B
:101BA000000148BF7047B619524141EB0101A3F152
:101BB000010370474FEA14454FEA114724EA0546EE
:101BC00021EA074C05FB07F106FB07F70CFB06F2C1
:101BD0004FF0000605FB0CFC12EB074241EB1741EE
:101BE00012EB0C4251EB1C4148BF7047921841EB7D
:101BF0000101A3F101037047F0B589B006460F4615
:101C0000154600240B208DF804008DF8057000BFE8
:101C100005E0315D01AAA01C1154601CC4B2AC42A5
:101C2000F7DBA81CC2B201A9012000F04FFF00247D
:101C300005E001A9A01C085C3055601CC4B2AC4290
:101C4000F7DB09B0F0BD00002DE9F04F87B00020B0
:101C5000069005900490012000F0B2F804AA05A9AE
:101C600006A800F069F8BDF9180002F007FB8046ED
:101C700002F0B8FA06462B4A2B4B01F0D9FF044676
:101C800001F084FD29490860BDF9140002F0F6FA5C
:101C9000804602F0A7FA0646224A234B01F0C8FF0D
:101CA000044601F073FD21494860BDF9100002F0BF
:101CB000E5FA804602F096FA06461A4A1A4B01F0F7
:101CC000B7FF044601F062FD18498860BDF91000B5
:101CD00001F096FF80468946BDF918104943BDF9C9
:101CE000142002FB021001F08BFFCDE9000101F08E
:101CF000FBFC824642464B4601F02AFE064601F0B6
:101D0000A1FB04460A4A0B4B01F092FFCDE9020108
:101D100001F03CFD0549C860002000F051F807B013
:101D2000BDE8F08FFCA9F1D24D62503F3400002095
:101D30007D96E7C1DDA54C407CB506460C461546B0
:101D400000200090019006220E216846FFF754FF04
:101D50009DF800009DF8011000EB012000B23080DA
:101D60009DF802009DF8031000EB012000B22080D6
:101D70009DF804009DF8051000EB012000B22880BA
:101D80007CBD000038B50020009000240123002213
:101D90000A49104600F040FE044601220021684630
:101DA000FFF72AFF012202216846FFF725FF9DF871
:101DB0000000F22800D00024204638BD00093D0074
:101DC00038B5044600200090002501222D216846E8
:101DD000FFF712FF9DF8000020F0030545EA4400DC
:101DE000C5B201222D21284600F001F838BDF8B512
:101DF00004460D461646002000900A208DF800008B
:101E00008DF80150E0B28DF8020020128DF8030029
:101E1000B01CC2B26946012000F078FEF8BD000097
:101E200008B50121082000F077FD0121084600F0E7
:101E300073FD0121094800F017F910208DF8030007
:101E40000820ADF8000003208DF802006946044820
:101E500000F07FF8002000F005F808BD0002300017
:101E6000000C014010B5044622460821024800F04B
:101E700050F90248047010BD000C01401800002009
:101E800002A1114801F024FA00BFFEE70D0A2A2A38
:101E90002A2A2A2A2A2A2A2A2A2A2A2A2A2A2A2AA2
:101EA0002A4275734661756C745F48616E646C6537
:101EB000722A2A2A2A2A2A2A2A2A2A2A2A2A2A2A3A
:101EC0002A2A2A2A0D0A0000003801407047000023
:101ED000002100B9704720F07F400E4A128842432B
:101EE0004FF0E0235A6100229A6101221A6100BF7B
:101EF0004FF0E022116901F001021AB101F48032C1
:101F0000002AF5D000224FF0E0231A619A6100BF49
:101F1000E0E70000160000204FF0E020006920F00C
:101F200004004FF0E02108610920074908700846C5
:101F3000007800EB4001C1EBC0104FF6FF7101EAE1
:101F4000C0000249088070471400002016000020DD
:101F500070472DE9F04102460025002600200023AD
:101F60000024002791F803C00CF00F0591F803C07E
:101F70000CF0100CBCF1000F03D091F802C04CEA39
:101F8000050591F800C0BCF1000F31D014680020A5
:101F90002BE04FF0010C0CFA00F3B1F800C00CEA92
:101FA00003069E4220D183004FF00F0C0CFA03F77A
:101FB000BC4305FA03FC4CEA040491F803C0BCF1ED
:101FC000280F06D14FF0010C0CFA00FCC2F814C027
:101FD0000AE091F803C0BCF1480F05D14FF0010CA5
:101FE0000CFA00FCC2F810C0401C0828D1D31460C1
:101FF000B1F800C0BCF1FF0F34DD546800202EE0C2
:1020000000F1080C4FF0010808FA0CF3B1F800C019
:102010000CEA03069E4221D183004FF00F0C0CFA0C
:1020200003F7BC4305FA03FC4CEA040491F803C02F
:10203000BCF1280F05D100F1080C08FA0CF8C2F821
:10204000148091F803C0BCF1480F07D100F1080CCF
:102050004FF0010808FA0CF8C2F81080401C08285C
:10206000CED35460BDE8F081F0B50A4600230024C9
:102070000021002500F00046B6F1004F02D11D4EB0
:10208000F16901E01B4E7168C0F3034583B200F4AF
:102090004016B6F5401F08D121F07061154E7668E4
:1020A00026F07066134F7E6012E000F48016B6F5DD
:1020B000801F06D1032606FA05F4A14341F07061A2
:1020C00006E0460D360103FA06F6B14341F07061B1
:1020D00022B1460D360103FA06F6314300F0004600
:1020E000B6F1004F02D1034EF16101E0014E716083
:1020F000F0BD0000000001400246002093680B4044
:102100000BB1012000E00020704741617047016180
:1021100070470AB1016100E04161704702A11148B6
:1021200001F0D6F800BFFEE70D0A2A2A2A2A2A2A39
:102130002A2A2A2A2A2A2A2A2A2A2A2A2A48617262
:10214000644661756C745F48616E646C65722A2ABE
:102150002A2A2A2A2A2A2A2A2A2A2A2A2A2A2A2ADF
:102160002A0D0A000038014010B54FF4A06000F0BD
:102170009FFAFFF7D1FE4FF4E13000F0FBFF4FF480
:10218000E13001F04FF8FFF7FDFDFFF749FE02A136
:10219000064801F09DF810BD2048617264776172B5
:1021A0006520696E6974204F4B0D0A0000380140AC
:1021B00010B580210348FEF78AFA00200249088002
:1021C00010BD0000440000201A00002070B5054634
:1021D00000BF00F0F3F980B90DA10F48FEF746FAF1
:1021E000044654B10A212046FEF736FA044614B1DB
:1021F000641C204670BD0020FCE70A20FFF768FE43
:10220000281EA5F101018DB2E3D100BFF2E7000065
:102210004950444154413A004400002008B501218E
:10222000142000F079FB10208DF80300C002ADF8F7
:10223000000003208DF8020069466148FFF789FE1F
:102240001020ADF8000069465D48FFF782FE2820A7
:102250008DF803002020ADF8000069465848FFF7CC
:1022600078FE012210215648FFF753FF02E00A20B2
:10227000FFF72EFE20215248FFF73EFF0028F6D040
:102280000122D1034E48FFF744FFFA20FFF720FE5A
:1022900000224FF400414A48FFF73BFF4FF4FA7029
:1022A000FFF716FEFFF784FF46A1484801F010F83B
:1022B00003E04FF4FA70FFF70BFE45A145A000F0D4
:1022C0002FF90028F5D145A1404801F001F803E0BD
:1022D0004FF4FA70FFF7FCFD44A148A000F020F98C
:1022E0000028F5D148A1394800F0F2FF03E04FF48F
:1022F000FA70FFF7EDFD48A148A000F011F90028A1
:10230000F5D149A1314800F0E3FF03E04FF4FA7042
:10231000FFF7DEFD2EA148A000F002F90028F5D15C
:1023200048A12A4800F0D4FF03E04FF4FA70FFF709
:10233000CFFD27A148A000F0F3F80028F5D14AA16D
:10234000224800F0C5FF03E04FF4FA70FFF7C0FD2C
:102350001FA149A000F0E4F80028F5D14AA11B48CC
:1023600000F0B6FF03E04FF4FA70FFF7B1FD18A1DB
:1023700049A000F0D5F80028F5D14BA1134800F092
:10238000A7FF03E04FF4FA70FFF7A2FD10A14BA0E6
:1023900000F0C6F80028F5D14CA10C4800F098FFD9
:1023A00003E04FF4FA70FFF793FD4CA14DA000F04D
:1023B000B7F80028F5D155A1044800F089FF08BD01
:1023C00000100140312E2041540D0A000038014018
:1023D0004F4B000041540D0A00000000322E2041F6
:1023E000542B4350494E3F0D0A0000002B435049E7
:1023F0004E3A2052454144590000000041542B43BD
:1024000050494E3F0D0A0000332E2041542B4352B9
:1024100045473F0D0A000000312C350041542B4345
:102420005245473F0D0A0000342E2041542B4347AC
:102430005245473F0D0A000041542B434752454740
:102440003F0D0A00352E2041542B43474143543D54
:10245000312C310D0A00000041542B4347414354B5
:102460003D312C310D0A0000362E2041542B4347BC
:102470004154543D310D0A0041542B4347415454BB
:102480003D310D0A00000000372E2041542B434DF2
:102490004D55583D300D0A0041542B434D4D555874
:1024A0003D300D0A00000000382E2041542B434DD2
:1024B000484541443D310D0A0000000041542B4382
:1024C0004D484541443D310D0A000000392E204160
:1024D000542B495053544152540D0A00434F4E4E11
:1024E0004543540041542B495053544152543D22CA
:1024F000544350222C223138332E3233302E343094
:102500002E3430222C313831310D0A0031302E205A
:102510004D3633313220496E6974204F4B0D0A001D
:102520002DE9F04104460D46C8262046FEF7B0F8D6
:1025300087B23A4621460D4800F0EEFE0FE000F06B
:102540003DF848B929460A48FEF790F820B1FFF750
:102550002FFE0020BDE8F0810A20FFF7B9FC301EF5
:10256000A6F10101CEB2EAD10120F3E70044004018
:102570004400002030B589B004460D46FFF718FE30
:102580002A4608A101A8FDF70BFF0AA101A8FFF741
:10259000C7FF20B92A462146074800F0BDFE09B012
:1025A00030BD000041542B495053454E443D2564F5
:1025B0000D0A00003E000000004400400A48008868
:1025C00008B90120704708480088084909888842EE
:1025D00003D1002004490880F4E703480088034938
:1025E00008800120EEE700001A0000201C000020F7
:1025F00002A1114800F06CFE00BFFEE70D0A2A2A76
:102600002A2A2A2A2A2A2A2A2A2A2A2A2A2A2A2A2A
:102610002A4D656D4D616E6167655F48616E646CE2
:1026200065722A2A2A2A2A2A2A2A2A2A2A2A2A2A87
:102630002A2A2A2A2A0D0A00003801407047000081
:1026400070B5002100230F22C47804B3154C246810
:1026500004F4E064C4F5E064210AC1F10403CA4053
:10266000447804FA03F184781440214309010E4CA4
:102670000678A155047804F01F050124AC400578C4
:102680006D11AD0005F1E025C5F8004109E00478C1
:1026900004F01F050124AC40044D0678761145F87E
:1026A000264070BD0CED00E000E400E080E100E0B9
:1026B00002490143024A1160704700000000FA0518
:1026C0000CED00E030B585B0002001900290039041
:1026D0000490012518A01AA31BA21DA10090284850
:1026E00000F0F6FD01AB14A215A117A000F0AAFBA3
:1026F000B8B9029A91B20198FFF73CFFFA20FFF7B0
:1027000065FD04464CB1204600F0F2FB102804D1D0
:102710001CA11B4800F0DCFD002501A800F058FBBF
:1027200003E01DA1164800F0D3FD15B1012005B04E
:1027300030BD0020FBE700007463703336320000C8
:102740007465737400000000313837343231000092
:102750004F6E654E45545F4465764C696E6B0D0A4D
:1027600050524F49443A2025732C09415549463A65
:102770002025732C094C55413A25730D0A000000A1
:1027800000380140546970733A09C1ACBDD3B3C974
:10279000B9A60D0A000000005741524E3A095443B1
:1027A000505F5061636B6574436F6E6E6563742038
:1027B0004661696C65640D0A000000002DE9F04176
:1027C00006460F460025F4191E4908681E4901F007
:1027D0006DFD804601F032FD0546280E04F8010B20
:1027E000280C04F8010B280A04F8010B04F8015B1B
:1027F00014494868144901F059FD804601F01EFD56
:102800000546280E04F8010B280C04F8010B280AD1
:1028100004F8010B04F8015B0A4988680A4901F0D1
:1028200045FD804601F00AFD0546280E04F8010B1F
:10283000280C04F8010B280A04F8010B04F8015BCA
:10284000BDE8F081340000200000C84210B5044605
:10285000FFF7AEFC10BD00001FB5002000900190F6
:102860000290039010A1174800F032FD69460C2039
:1028700000F01EFB98B903210098FFF79FFF11207D
:102880000190019A91B20098FFF774FE0EA10D48D5
:10289000019A00F01DFD684600F09AFA03E00EA1CF
:1028A000084800F015FD1FBD546970733A094F6E5A
:1028B000654E65745F53656E64446174612D544365
:1028C000500D0A000038014053656E6420256420D5
:1028D00042797465730D0A005741524E3A094544D6
:1028E000505F4E6577427566666572204661696C19
:1028F00065640D0A0000000029B1064AD26902434E
:10290000044BDA6104E0034AD2698243014BDA6185
:10291000704700000010024029B1064A9269024344
:10292000044B9A6104E0034A92698243014B9A6125
:10293000704700000010024030B500210022002442
:1029400000232D4D6D6805F00C0121B1042905D03F
:10295000082923D105E0294D056022E0284D0560B6
:102960001FE0254D6D6805F47012234D6D6805F468
:102970008034022505EB92421CB9224D5543056077
:102980000BE01D4D6D6805F400351DB11E4D55431E
:10299000056002E01A4D5543056002E0174D0560E1
:1029A00000BF00BF144D6D6805F0F0010909174D17
:1029B0006B5C0568DD4045600F4D6D6805F4E061B6
:1029C000090A124D6B5C4568DD4085600A4D6D68F3
:1029D00005F46051C90A0D4D6B5C4568DD40C5606A
:1029E000054D6D6805F44041890B094D6B5CC56868
:1029F000B5FBF3F5056130BD0010024000127A000E
:102A0000001BB70000093D00808D5B000000002026
:102A10001000002070470000F8B504460D46164629
:102A20001F4601210420FFF777FF1020ADF80000BA
:102A30008DF8030003208DF8020069460548FFF772
:102A400088FA054800F082F81021034800F008F9E0
:102A50000120F8BD000801400030014021B102888A
:102A600042F04002028004E002884FF6BF731A4031
:102A7000028070470246002013890B400BB10120F1
:102A800000E00020704701468889704781817047C7
:102A900010B50022028802F441520B884C8823436F
:102AA0008C882343CC8823430C8923434C892343BC
:102AB0008C892343CC8923431A430280838B4FF2B2
:102AC000FF74234083830B8A038210BD2DE9F041FC
:102AD00007460D461646002410210A48FFF715FB4D
:102AE00000BF06E0295D084800F092F82855601CF8
:102AF000C4B2B442F6DB10210248FFF708FB2046BF
:102B0000BDE8F08100080140003001402DE9F041AE
:102B100007460D461646002410210A48FFF7F5FA2D
:102B200000BF05E0295D084800F072F8601CC4B2DF
:102B3000B442F7DB10210348FFF7E9FA2046BDE86D
:102B4000F0810000000801400030014038B5044623
:102B50002A48844216D1012141F20400FFF7DCFE2D
:102B6000E020ADF8000018208DF8030003208DF858
:102B7000020069462248FFF7ECF9E0212048FFF700
:102B8000C6FA1BE01F48844218D101210820FFF734
:102B9000C3FE01218803FFF7AFFEA000ADF80000DF
:102BA00018208DF8030003208DF8020069461648AE
:102BB000FFF7CFF9A1001448FFF7A9FA0020134945
:102BC00008804FF482704880002088800220C880EE
:102BD0000120088140024881382088810020C88176
:102BE000072008822046FFF753FF01212046FFF708
:102BF00035FFFF21204600F00BF838BD00300140C2
:102C00000008014000380040000C01402000002076
:102C100070B505460E46002405E0601CC4B2C82C01
:102C200001DD002070BD02212846FFF723FF0028A8
:102C3000F3D031462846FFF729FF002405E0601C49
:102C4000C4B2C82C01DD0020ECE701212846FFF7C3
:102C500011FF0028F3D02846FFF715FFC0B2E1E7C7
:102C600070B505460C460548848101462846FFF7A5
:102C70000FFF01212846FFF7F1FE70BD2000002064
:102C8000704710B500F002F810BD00000CB5002030
:102C9000019000903348006840F48030314908606A
:102CA00000BF3048006800F4003000900198401CDC
:102CB0000190009818B90198B0F5A06FF1D129489A
:102CC000006800F4003010B10120009001E0002005
:102CD00000900098012843D12348006840F010007C
:102CE000214908600846006820F003000860084693
:102CF000006840F0020008601A48406819494860BE
:102D00000846406848600846406840F48060486073
:102D10000846406820F47C1048600846406840F44B
:102D2000881048600846006840F08070086000BF66
:102D30000C48006800F000700028F9D0094840688D
:102D400020F00300074948600846406840F0020050
:102D5000486000BF0348406800F00C000828F9D123
:102D60000CBD00000010024000200240704700002F
:102D700010B51348006840F001001149086008468A
:102D80004068104908400E494860084600680E49EE
:102D900008400B4908600846006820F4802008605D
:102DA0000846406820F4FE0048604FF41F00886029
:102DB000FFF767FF4FF000600449086010BD000096
:102DC000001002400000FFF8FFFFF6FE08ED00E0F3
:102DD00010B50446207B012802D12068FDF79FFA38
:102DE000002020606060A060207310BD70B50446B4
:102DF0000E460025206898B9012020733046FDF763
:102E00005FFA20602068E0B100206060A66003E007
:102E10000020216848556D1CA068A842F8D810E031
:102E20000220207303E00020216848556D1CA06833
:102E3000A842F8D800206060A068B04201D200200B
:102E4000206070BD2DE9FC4707460D4616461C461E
:102E50000FB105B116B90120BDE8FC873846FDF772
:102E600017FC81462846FDF713FC81443046FDF7E8
:102E70000FFC484400F1050841462046FFF7B6FF25
:102E8000206808B90120E7E7CDE900563B4605A2D6
:102E9000A1682068FDF79AFA2068FDF7F9FB6060E9
:102EA0000020D9E72A25732325732325732A0000E0
:102EB00070B505460C460DB9012070BD691D204650
:102EC000FFF794FF206808B90220F6E7AA202168DE
:102ED000087055202168487021688D705521E81CC4
:102EE00022681154AA21281D226811540020E4E709
:102EF000014608787047000010B540F2255104489B
:102F000000F050F818B12021014800F029F810BD58
:102F10000038014010B540F225510E4800F042F84B
:102F2000B0B10D480088802802D300200A490880EB
:102F30000848001D0088C1B2074802880088401C6C
:102F4000054B1880054881542021024800F008F8FC
:102F500010BD0000004400401A0000204400002082
:102F600001F40072B2F5007F00D100BFCA430280B5
:102F7000704721B1828942F40052828104E0828943
:102F80004DF6FF731A408281704702460020B1F56A
:102F9000007F00D100BF13880B400BB1012000E07F
:102FA0000020704770B50246002400230025002051
:102FB00040F66A16B14200D100BFC1F3421501F0DC
:102FC0001F03012606FA03F3012D02D1968933402F
:102FD00006E0022D02D1168A334001E0968A334082
:102FE0000C12012606FA04F41688344013B10CB111
:102FF000012000E0002070BDF0B50346002400264B
:103000000025002040F66A17B94200D100BF1846DB
:10301000C1F3421401F01F06012707FA06F5012C3F
:1030200001D10C3004E0022C01D1103000E014304A
:103030001AB107682F43076002E00768AF430760D3
:10304000F0BD00002DE9F04786B005460E4600248D
:10305000A24600BFA1460027B08900B100BF2F469D
:103060002C8A4CF6FF700440F08804432C82AC8913
:103070004EF6F3100440B088318908437189084343
:103080000443AC81AC8A4FF6FF400440B08904434E
:10309000AC8201A8FFF750FC1F48874202D1DDF83F
:1030A00010A001E0DDF80CA0A88900F4004040B1B8
:1030B0000AEBCA0000EB0A1031684900B0FBF1F8D6
:1030C00007E00AEBCA0000EB0A1031688900B0FB88
:1030D000F1F86420B8FBF0F004012009642101FB41
:1030E0001089A88900F4004040B1322000EBC900EB
:1030F000B0FBF1F000F00700044308E0322000EBE1
:1031000009106421B0FBF1F000F00F0004432C81A2
:1031100006B0BDE8F087000000380140C1F30802A6
:103120008280704702A1124800F0D2F800BFFEE78B
:103130000D0A2A2A2A2A2A2A2A2A2A2A2A2A2A2A2C
:103140002A2A2A2A2A55736167654661756C745F5D
:1031500048616E646C65722A2A2A2A2A2A2A2A2A37
:103160002A2A2A2A2A2A2A2A2A2A0D0A00000000A4
:103170000038014010B586B0044601210420FFF755
:10318000CBFB01218803FFF7C7FB18208DF8170040
:103190004FF40070ADF8140003208DF8160005A957
:1031A0001E48FEF7D6FE04208DF817000002ADF889
:1031B000140003208DF8160005A91848FEF7C9FE73
:1031C00001940020ADF810000C20ADF80E00002096
:1031D000ADF80C00ADF80A00ADF8080001A91048E0
:1031E000FFF730FF01210E48FFF7C3FE012240F236
:1031F00025510B48FFF700FF25208DF80000012026
:103200008DF8030000208DF8010002208DF80200E7
:103210006846FFF715FA06B010BD0000000801402F
:103220000038014010B586B0044601210420FFF7A4
:1032300073FB01214804FFF75FFB18208DF817008E
:103240000420ADF8140003208DF8160005A91E48CF
:10325000FEF77FFE04208DF817000820ADF814005B
:1032600003208DF8160005A91748FEF772FE019499
:103270000020ADF810000C20ADF80E000020ADF8D5
:103280000C00ADF80A00ADF8080001A90F48FFF7DF
:10329000D9FE01210D48FFF76CFE012240F22551B5
:1032A0000A48FFF7A9FE26208DF8000001208DF8BE
:1032B000030000208DF801008DF802006846FFF73A
:1032C000BFF906B010BD00000008014000440040F6
:1032D0000FB430B5CBB0054601AC50A800904FF408
:1032E000947101A8009B4F9AFDF740F800200090D0
:1032F0000BE014F8011B2846FFF710FF00BF402128
:103300002846FFF742FE0028F9D020780028F0D1A7
:103310004BB030BC5DF814FB2DE9F04107460C467C
:10332000154600260DE014F8011B3846FFF7F6FE9F
:1033300000BF40213846FFF728FE0028F9D0701C56
:1033400086B2AE42EFDBBDE8F081490050EAC12011
:1033500018BF04204A0D18BF40F0010040F2FF7270
:10336000B2EB515F08BF40F00200012808BF052002
:1033700070472DE9F0414F1E00EBC7010446D1E92B
:10338000000115461E4637F006020DD02A46334688
:1033900000F04EFC7F1E04EBC703D3E9002300F0CE
:1033A00027FA37F00602F1D1022F25D0042F13D0CF
:1033B000062F18BFBDE8F0812A46334600F038FCDE
:1033C000D4E90A2300F014FA2A46334600F030FC10
:1033D000D4E9082300F00CFA2A46334600F028FC12
:1033E000D4E9062300F004FA2A46334600F020FC14
:1033F000D4E9042300F0FCF92A46334600F018FC17
:10340000D4E9022300F0F4F92A46334600F010FC18
:10341000D4E90023BDE8F04100F0EAB9012201F04F
:1034200045B80000024A0020110701F03FB8000033
:1034300001FDFFFF30380A2801D20120704700202B
:10344000704700002DE9F84F04460D4621F000407A
:1034500000917349814211DC7249884201DC06D136
:103460002CB120462946BDE8F84FFFF7D7BF6E487C
:10347000002DCCBF6D496E49BDE8F88F6D49814282
:1034800011DD6D498142D8BF4FF0FF366DDD20461A
:103490002946FFF75AFF042808BFFFF7C3FF20465D
:1034A0002946BDE8F88F6549654F25F00045814202
:1034B00033DD6449814219DD002632464FF08043F6
:1034C0002046294600F094F980468A46012220468B
:1034D000294600F0EBFF00223B4600F099FD4246F2
:1034E000534600F035FA04460D463EE00126002220
:1034F000BA463B462046294600F07AF980460F46F8
:10350000002253462046294600F082FD42463B46B3
:1035100000F01EFA04460D4627E04B4981421BDDB0
:10352000DFF828A10226002253462046294600F053
:103530007FFB00223B4600F05BF980460F460022ED
:1035400053462046294600F063FD42463B4600F0C4
:10355000FFF904460D4608E0032622462B460020CC
:103560003B4900F0F5F904460D4622462B4610462D
:10357000194600F05DFB8B46824602460B4600F082
:1035800057FB07460246334888460B4606217844D7
:10359000FFF7EFFE52465B4600F04AFB82462E489C
:1035A0008B463A46434605217844FFF7E2FE3A4609
:1035B000434600F03DFB02460B46002E504659465E
:1035C0000CDA00F015F922462B4600F031FB01B071
:1035D00022462B46BDE8F04F00F028BC00F008F969
:1035E00022462B4600F024FB1C4A7A4402EBC60319
:1035F000D3E9002300F00CFD22462B4600F008FD25
:10360000174A7A4402EBC603D3E9002300F00EFC0C
:10361000009A002AB8BF81F00041BDE8F88F000091
:10362000000010440000F07F182D4454FB21F93FA6
:10363000FB21F9BF0000DC3F0000203E0000F33F0B
:103640000000F03F0000E63F008003400000F83F2C
:103650000000F0BF26100000E40F0000820F000001
:103660004A0F000000250024FEF77EFDFEF7D6FD80
:1036700003E04FF4FA70FEF72BFCFFF723F8002865
:10368000F7D10120FEF7EEFBFA20FEF721FC002027
:10369000FEF7E8FB1BE0681C80B20546B0F5FA7F38
:1036A0000ADBFEF7D1FA0AA10E48FFF711FEFFF779
:1036B000D3F80025FEF77CFD0020FEF787FD0446C9
:1036C00014B12046FFF7C2F80A20FEF701FCE2E73A
:1036D0004F6E654E65745F53656E64446174610D31
:1036E0000A000000003801402DE9F04106460F466F
:1036F00000F0A8FB041E0D4618BF0120284320F04F
:103700000040C0F17F6000F1E040C00F0ED0301CDF
:1037100018BF0120384320F00040C0F17F6000F165
:10372000E040C00F04BF0120FDF74DF820462946B8
:10373000BDE8F08110B500290AD00878002807D02C
:1037400005487844FDF756FE002801D0002010BD42
:103750000248784410BD00008A0F0000820F00006C
:1037600010B500290AD00878002807D00548784409
:10377000FDF740FE002801D0002010BD024878442B
:1037800010BD00007A0F0000720F000021F000420F
:10379000A2F16052B2F5801F01F0004328BFD2F1C0
:1037A0007F6C0BD95FEA001C43EAC20242EB507007
:1037B00018BF704728BF20F001007047B2F5801F86
:1037C000BCBF184670474FEA410C1CF5001F02D2DF
:1037D000084600F032BE70B500F0D4FA000000894F
:1037E000FFF7F6BF4FF00040A0F5800070470000E3
:1037F00010B591EA030F48BF83F0004300F1108435
:10380000841A71EB030C05D2121943EB0C03001B55
:1038100061EB0C01DFF824E14FEA1154A4EB135CD7
:103820001EEA430F18BF9EEA445F73D023EA0E03DB
:10383000DCF1200E21EA045143F4801332D322FA42
:103840000CFE10EB0E0023FA0CFE41EB0E01CCF146
:10385000200E03FA0EFE10EB0E0051F10001B1F53F
:10386000801FCCF1200E32D201EB045112FA0EF27D
:10387000BDE8104058BF7047401C38BF5FEA4202A5
:1038800018BF7047002814BF20F0010041F100016B
:103890004FEA410313F5001F38BF7047A1F1C04143
:1038A00000F0BEBA012A43EB0302ACF1200CDCF1BC
:1038B0001F0E32BF4FF0000E23FA0CF310EB030083
:1038C00041EB0451B4EB115FD0D0A1EB045101F5F1
:1038D000801149085FEA300001EB04510ED350F12A
:1038E000000038BF12FA0EFE08D1BDE81040C9E74B
:1038F000401C38BF5FEA4202CAD1C3E7BDE81040AE
:103900004FEA410313F5001F38BF7047A1F1C041D2
:1039100000F086BA9EEA445F08D011EA5E0FBDE867
:10392000104004BF01F0004100207047BDE8104086
:1039300070B500F027FA00BF64FBBE3E0000E0FF58
:1039400002494FF0000000F07FBD00BF0000F87F8B
:103950002DE9C04130B4DFF8A0C23CEA111418BF11
:103960003CEA131400F0EC8081EA03051CEA111410
:1039700044EAD57418BF1CEA131500F0C780A4EB05
:1039800005044FF0004545EAC12145EAC32341EA59
:10399000505143EA525304F17F74994204F50034C4
:1039A0004FEAC0204FEAC22208BF904200F09C803C
:1039B0004FEA13650FF24016765D4FEA134506FB9A
:1039C00005F7C7F1807706FB07F74FEAD737A7FB64
:1039D00003687642C8F58038A7FB06CE38BFA8F149
:1039E000010807FB08E64FF0000EA6FB028CE6FB81
:1039F00003CEDCF1000CCEF1004E38BFAEF1010E6B
:103A0000A6FB0C584FF000074FF00005E6FB0E87B1
:103A1000A1FB08C6A0FB07CE16EB0E0645F100057C
:103A2000E1FB076515F1E04E7EBFA4F580345FEA47
:103A300046066D4116F1800745F100054FEA17274C
:103A40004FEA066647EA0567A6F1DE46B6F1805FF3
:103A50004FEA15251FD9384624F0010C05EBC47137
:103A6000BCF1FE6F01EB0C1102D8F0BCBDE8008187
:103A700024425CBF01F5801E9EEAC47F02D4F0BCE4
:103A8000BDE80081244238D4F0BCA1F1C041BDE8BA
:103A9000004100F0C5B94FEAD22242EA43524FEA50
:103AA000D323A7FB02864FEAD02040EA415007FB10
:103AB00003661EEA0E0F4FEAD12105FB026658BFCE
:103AC000A6EB0056B6EB00564FEA520E4EEAC37E06
:103AD00018EB0E0E56EB530EBDD518EB02085E41E7
:103AE0007F1C55F10005B6E74FF480154FF0000735
:103AF0004FF000064FF00008ADE7F0BC4FF00000BB
:103B000001F1C04101F00041BDE8008111EA0C1F44
:103B10000CEA131500D00CE013EA0C1F00F025800E
:103B20004FF00000F0BC81EA030101F00041BDE864
:103B30000081F0BCBDE8004181EA030100F070B9EA
:103B4000F0BCBDE8004170B500F01CF9097EFC3EF8
:103B500000F007B881EA03014FF0000001F00041D6
:103B6000704781EA030100F05BB9F0BCBDE8004199
:103B70004FF0000021497047FFFDFBF9F7F5F4F223
:103B8000F0EEEDEBE9E8E6E4E3E1E0DEDDDBDAD8F8
:103B9000D7D5D4D3D1D0CFCDCCCBCAC8C7C6C5C456
:103BA000C2C1C0BFBEBDBCBBBAB9B8B7B6B5B4B36D
:103BB000B2B1B0AFAEADACABAAA9A8A8A7A6A5A458
:103BC000A3A3A2A1A09F9F9E9D9C9C9B9A9999981C
:103BD0009797969595949393929191908F8F8E8EBF
:103BE0008D8C8C8B8B8A898988888787868585844C
:103BF00084838382828181800000FF070000F87F38
:103C000010F0004248BF4042B0FA80F310FA03F1CE
:103C10000AD0C3F11D0303F580634FEA415002EB64
:103C2000035202EBD12170474FF0000070470000B3
:103C3000DFF848C170B51CEA111E1EBF1CEA13153F
:103C40009EEA0C0F95EA0C0F00F06F8081EA0304E6
:103C500023EA4C134EEAD47E21EA4C1141F4801140
:103C600043F48013AE44A1FB024CA0FB0365AEF10C
:103C70007F7E361955EB0C05A1FB034C4CF100037C
:103C8000A0FB021C16EB0C06654153F10003094230
:103C900018BF46F0010613F4007F0BD14FEA033141
:103CA0004FEA0530340341EA155140EA16506FF0EF
:103CB00003020AE04FEAC3214FEAC520F40241EAB9
:103CC000555140EA56506FF0020202EB2E4201EBD2
:103CD000025585EACE710AD05FEA440C18BF24F081
:103CE000004450F1000041F1000120EAD47040F29C
:103CF000FE7C624500D270BDA84214BF4FF08044E4
:103D00004FF04044002E08BF0024BEF1806FA8BFD2
:103D1000A1F1C041BDE8704080F282804FF0000008
:103D200001F1C04101F0004170479EEA0C0F0CEA1E
:103D3000131518BF95EA0C0F06D04FF0000081EA6A
:103D4000030E0EF0004170BD00F01CF88900013E2A
:103D500000F007B800F009B84FEA430C5FEA5C5C7A
:103D600008D081EA030100F05BB84FEA410C5FEA3A
:103D70005C5CF6D14FF00000014970470000FF077E
:103D80000000F87F0EF1020E2EF0030E5EF8046BB9
:103D9000364205D4012A43EB030515F5001F12D85E
:103DA000012841EB010C1CF5001F0CD80ED14FEA85
:103DB000D17C15F5001F0CEB4C0C0CF1020C08BF6C
:103DC0004CEBD37C04E04FF0080C01E04FEAD37CCD
:103DD0000CEB4C0526FA05F606F00706B6F1040CC6
:103DE00006D20EEB860CBDE870404CF0010C60472B
:103DF000DFE80CF0090B02024FF000414FF0000029
:103E0000A1F5002170BD19461046012851EB0104AF
:103E100018BFD4F5001484BF002001F0004170BD2C
:103E20000808A0F500114FEA3101704791EA030F2D
:103E300010B581F000413FF5E3AC83F0004300F0A2
:103E4000EFB800002DE9F04101F5801CBCF5001F22
:103E5000C0F2C3804FEA115C21EA0C510CF1FD0C59
:103E600041F480115FEA5C0C0CF5C07C01D340008A
:103E700049413DA4890241EA905187028E0E0A0C05
:103E8000A45D04FB04F602FB06F6C6F14046A4FB63
:103E90000662F60D46EA422606FB06F4A4FB012361
:103EA0005242C3F1404338BF5B1EA6FB02420024CE
:103EB000E6FB0324D20B42EA4446A6FB0623A1FB01
:103EC00002E2A3FB07E4A4184FF0000252F1000243
:103ED000E3FB01426442C2F1404E38BFAEF1010E35
:103EE000A6FB04234FF00002E6FB0E32A2FB0346C2
:103EF0004FF00004B61954F10004E2FB0264A1FB88
:103F000006E6A4FB07E816EB08064FF0000858F198
:103F10000008E4FB01687642C8F1405838BFA8F1B8
:103F20000108A2FB06E4A3FB08E52D194FF00004ED
:103F300054F10004E2FB0854A1FB05E6A7FB04E8EA
:103F400018EB06084FF0000656F10006E1FB048668
:103F500018F1200556F10006A809A8F11B08B109BF
:103F600008F03F08B8F10A0F40EA86601CD901EB5F
:103F70000C51BDE8F08100BFFCF5EEE8E2DDD8D3DE
:103F8000CFCBC7C3C0BDB9B6B4B1AEACA9A7A5A3CA
:103F9000A19F9D9B9A9896959392908F8D8C8B89DB
:103FA0008887868584838281A0FB006800FB01F2FC
:103FB00008EB4208B8EB872807D5341858EB010402
:103FC000D5D5401C51F10001D1E7341A78EB01043A
:103FD000CDD4401E71F10001C9E75FEA4C0C5FEAE5
:103FE0009C5C0DD105D34FF0000001F00041BDE80D
:103FF000F081BDE8F04170B5FFF7C4FE6DDBFFBE98
:10400000BDE8F0414FF00000004970470000F87F24
:1040100010B591EA030F48BF83F000433FF5F0ABC2
:10402000841A71EB030C07D212198CF0004C43EB8D
:104030000C03001B61EB0C01DFF8A4E14FEA115403
:10404000A4EB135C1EEA430F18BF9EEA445F00F026
:10405000B08023EA6E03524221EA0451C3EB6E039F
:1040600038BF5B1EDCF1200E25D322FA0CFE10EBCC
:104070000E0043FA0CFE41EB0E01CCF1200E03FAC8
:104080000EFE10EB0E0051F10001CCF1200E29D4F0
:1040900012FA0EF201EB0451BDE8104058BF704710
:1040A000401C1CBFB2F1004F704700280CBF491CD8
:1040B00020F00100704712EB020E43EB030218BF21
:1040C0004FF0010E4EEA4202ACF1200CDCF11E0E64
:1040D00054D943FA0CFE10EB0E0051F1FF31CCF134
:1040E0001E0ED5D50EF1010E12FA0EFE404141EB27
:1040F000010101EB445C5FEA5C5C10D910EBDE70FF
:1041000001EB045138BFBEF1004FBDE8104018BFAD
:10411000704700280CBF491C20F00100704730D2C6
:104120004FEAD42C11F5001124F400641BD0B1FA2D
:1041300081F20B3AA41AA41ED2F12003914030FA66
:1041400003F31943904001EBCC71002C01EB0451B7
:10415000BDE81040A8BF704701F1C0414FF000001A
:1041600001F000417047B0FA80F310FA03F100D17A
:1041700010BDE41A173C4805C90AE4E701EB0451F5
:1041800010BD491001EB0451BDE810404FEA30006A
:1041900002E04FF0000170474A0008BF0042F8D02B
:1041A000B2F5001F28BF704701F000414FF000003A
:1041B00070479EEA445F07D011EA5E0FBDE81040E9
:1041C00004BF002100207047BDE8104070B5FFF724
:1041D000D9FD00BF40DFF63E83F000411046704736
:1041E0000000E0FF43004FEAD30C4FEA3C0C434091
:1041F0001FBF40070CF1605113F0FE4F70471CF0D9
:10420000006F03D100200CF0004170470CF0004318
:1042100043EA507010B540EACC0000F0C8F800BF87
:10422000000000924FEA0001FFF7FABD4FF0004195
:104230004FF00000A1F5002170470000C10DD1F141
:104240009E0206DB4FEA002343F0004323FA02F00C
:104250007047004207D54FEA4001B1F1FE4F02D24C
:104260004FF00000704710B500F0A1F8499224808B
:10427000002070476FEA20007047000010F00041F6
:1042800048BF4042B0FA80F310FA03F2C3F19D0335
:104290000BD051EAC35101EB1220530638BF7047CF
:1042A00000F1010008BF20F0010070474FF47F0CBF
:1042B0001CEAD0121EBF1CEAD11392EA0C0F93EA3B
:1042C0000C0F00F0478090EA010F48BF42F4807263
:1042D0004FF0004C4CEA00204CEA012102EB0302B3
:1042E000A0FB0113A2F50002002918BF43F001034F
:1042F0005B0028BF4FEA330342EB22425FEA132CF4
:104300004CEBC2502EBFBCEB436FB2F57C0F704735
:104310004FEA036CBCF1004F08BF20F00100B2F57A
:104320007C0F38BF70470BD582F0FF0212F5803F3B
:10433000C8BF704700F1C040D8BF00F000407047D0
:1043400000F5000C5FEA4C0C48BF7047B0F1C0406C
:1043500000F073B890EA010F0CEAD11348BF42F4A1
:104360008072624538BF634504D280EA010000F0E4
:104370000040704710B500F01AF800BF8900013EF8
:1043800000F007B800F009B85FEA410C5FEA1C6C66
:1043900008D080EA010000F050B85FEA400C5FEA04
:1043A0001C6CF6D14FF00040A0F5800070470EF174
:1043B000020E2EF0030E5EF8044B244204D44FEAA2
:1043C0004102B2F17F4F11D84FEA4003B3F17F4F62
:1043D0000CD80ED14FEAD07CB2F17F4F0CEB4C0CD5
:1043E0000CF1020C08BF4CEBD17C04E04FF0080C40
:1043F00001E04FEAD17C0CEB4C0324FA03F404F007
:104400000704B4F1040C06D20EEB840CBDE8104096
:104410004CF0010C6047DFE80CF0070802024FF097
:104420000040A0F5800010BD0846420018BFD2F140
:10443000807288BF00F0004010BDFF2141EAD050DB
:10444000C0057047FCF72CBD0CF00F03092B08BF0B
:10445000082000F059800A2B0BD0082B18BF70479A
:1044600008BF1CF0400F0AD04FF000004FF00001D1
:1044700070471CF0400F18BF4FF0004070471CF011
:10448000100F08D020F0704300F07F4242EAD301C1
:104490004FEA4370704700F0604021F07F4242EAEB
:1044A000000201F07F4040EA727070474FF0FF0C4D
:1044B0004CF4E06C1CEA11531CBF9CEA030C9445BD
:1044C000C2BFDA4201EB02517047002B0DD0BCF1A4
:1044D000000F0FD0002A01F00041A4BF41F0E041DD
:1044E00041F07F614FF00000704701F000414FF054
:1044F0000000704750EA01334FF09B0C18BF4CF09E
:10450000806C7FF41DAA70471CF4801F11D01CF42E
:10451000E02F03D06FEACC31490070474FF0405094
:10452000EFF3008222F0704242EA000282F3008838
:1045300070474FF0000070470400000800000000C2
:104540000000000200010000100000000000000058
:104550004FBB610567ACDD3F182D4454FB21E93F9B
:104560009BF681D20B73EF3F182D4454FB21F93F8A
:10457000E2652F227F2B7A3C075C143326A6813C10
:10458000BDCBF07A8807703C075C143326A6913CBB
:10459000C4EB98999999C9BF711623FEC671BCBF27
:1045A0006D9A74AFF2B0B3BF9AFDDE522DDEADBF8F
:1045B0002F6C6A2C44B4A2BF0D5555555555D53FA7
:1045C000FF8300922449C23F6E204CC5CD45B73FC2
:1045D000513DD0A0660DB13FEB0D76244B7BA93F3A
:1045E00011DA22E33AAD903F000000000000000025
:1045F0003031323334353637383941424344454619
:104600004030580030313233343536373839616212
:10461000636465664030780002400000000000A03E
:104620000000000005400000000000C8000000007D
:104630000C4000000000409C0000000019400000F9
:104640000020BCBE0000000034400000BFC91B8E2B
:1046500000000004B5400000504BCFD06607E2CF09
:10466000010000006C4100003E8251AADFEEA73439
:1046700001000000D9420000DCB5A0E23A301F97EB
:10468000FFFFFFFFB4450000FD25A0C8E9A3C14F0F
:10469000FFFFFFFFFF3F0000000000800000000060
:1046A000FF3F00000000008000000000F847000805
:1046B00000000020200000006C01000818480008DD
:1046C0002000002008090000880100081C000000EC
:1046D00043000000F8FFFFFF0C0000000E00000088
:1046E0000F0000002E000000100100004300000039
:1046F000F8FFFFFF00404040404040404040414103
:1047000041414140404040404040404040404040A6
:104710004040404040050202020202020202020240
:10472000020202020220202020202020202020023D
:1047300002020202020290909090909010101010CD
:104740001010101010101010101010101010101069
:1047500002020202020288888888888808080808FD
:1047600008080808080808080808080808080808C9
:1047700002020202400000000000000000000000F1
:104780000000000000000000000000000000000029
:104790000000000000000000000000000000000019
:1047A0000000000000000000000000000000000009
:1047B00000000000000000000000000000000000F9
:1047C00000000000000000000000000000000000E9
:1047D00000000000000000000000000000000000D9
:1047E00000000000000000000000000000000000C9
:1047F00000000000000000000000000001020304AF
:10480000010203040607080902040608000000006C
:084810000000000000000000A0
:0400000508000131BD
:00000001FF
