:020000040800F2
:10000000E01A00209D050008810200088302000814
:100010008F0200089B020008A702000800000000F1
:10002000000000000000000000000000B302000813
:10003000B502000800000000B3050008B702000880
:10004000B7050008B7050008B7050008BB0200089F
:10005000B7050008B7050008B9020008B705000891
:10006000B7050008B7050008B7050008B705000880
:10007000B7050008B7050008B7050008B705000870
:10008000B7050008B7050008B7050008B705000860
:10009000B7050008B7050008B7050008B705000850
:1000A000B7050008B7050008B7050008B705000840
:1000B000B7050008B7050008B7050008B705000830
:1000C000B7050008B7050008B7050008B705000820
:1000D000B705000873170008CB3C0008B7050008F7
:1000E000B7050008B7050008B7050008B705000800
:1000F000B7050008B7050008B7050008B7050008F0
:10010000B7050008B7050008B7050008B7050008DF
:10011000B7050008B7050008B7050008B7050008CF
:10012000B7050008B7050008B7050008B7050008BF
:1001300000F002F800F094F80AA090E8000C824465
:100140008344AAF10107DA4501D100F089F8AFF242
:10015000090EBAE80F0013F0010F18BFFB1A43F0A5
:1001600001031847B8610000D8610000103A24BFAD
:1001700078C878C1FAD8520724BF30C830C144BF0C
:1001800004680C607047000000230024002500264E
:10019000103A28BF78C1FBD8520728BF30C148BFEA
:1001A0000B6070476E2904F02383702904F0838468
:1001B000662905F07987652905F07687672905F0B6
:1001C00073876129AFF3008003681B0A28BF41F0E1
:1001D0008001692903F0D486642903F0D18675294A
:1001E00003F0CE866F2904F01184782904F04F843F
:1001F000E92904F0AB83E42904F0A883F52904F08D
:10020000A583EF2904F00E84F82904F04E840368D6
:10021000DB0928BF41F08001632904F02C83732996
:1002200004F03183E32904F08A87F32904F08F87EF
:10023000002070471FB59DE8030004F011FA05F097
:10024000E1F904000020002105F002FF401C60607D
:100250000020002105F012FFE0601FBD10B510BDA9
:1002600005F0ABF91146FFF7E5FF01F0AFFA05F035
:100270007BFA03B4FFF7F2FF03BC05F0ABFA000012
:1002800070470EA11C4801F050FA00BFFEE71BA109
:10029000194801F04AFA00BFFEE727A1164801F00D
:1002A00044FA00BFFEE733A1134801F03EFA00BF55
:1002B000FEE7704770477047704770470D0A2A2A5B
:1002C0002A2A2A2A2A2A2A2A2A2A2A2A2A2A2A2A8E
:1002D0002A486172644661756C745F48616E646C33
:1002E00065722A2A2A2A2A2A2A2A2A2A2A2A2A2AEB
:1002F0002A2A2A2A2A0D0A00003801400D0A2A2A31
:100300002A2A2A2A2A2A2A2A2A2A2A2A2A2A2A2A4D
:100310002A4D656D4D616E6167655F48616E646C05
:1003200065722A2A2A2A2A2A2A2A2A2A2A2A2A2AAA
:100330002A2A2A2A2A0D0A000D0A2A2A2A2A2A2AC1
:100340002A2A2A2A2A2A2A2A2A2A2A2A2A42757361
:100350004661756C745F48616E646C65722A2A2A06
:100360002A2A2A2A2A2A2A2A2A2A2A2A2A2A2A2AED
:100370000D0A00000D0A2A2A2A2A2A2A2A2A2A2AAB
:100380002A2A2A2A2A2A2A2A2A5573616765466157
:10039000756C745F48616E646C65722A2A2A2A2A19
:1003A0002A2A2A2A2A2A2A2A2A2A2A2A2A2A0D0AEA
:1003B000000000000CB50020019000906C4800681F
:1003C00040F480306A49086000BF6948006800F462
:1003D000003000900198401C0190009818B90198D5
:1003E000B0F5A06FF1D16248006800F4003010B1A0
:1003F0000120009001E0002000900098012843D1E6
:100400005C48006840F010005A49086008460068DF
:1004100020F0030008600846006840F00200086011
:10042000534840685249486008464068486008465A
:10043000406840F4806048600846406820F47C10C2
:1004400048600846406840F48810486008460068E4
:1004500040F08070086000BF4548006800F0007000
:100460000028F9D04248406820F003004049486025
:100470000846406840F00200486000BF3C484068C1
:1004800000F00C000828F9D10CBD10B5FFF792FF61
:1004900010BD10B53648006840F0010034490860CE
:1004A00008464068344908403149486008460068B9
:1004B000324908402E4908600846006820F4802030
:1004C00008600846406820F4FE0048604FF41F00B2
:1004D0008860FFF7DAFF4FF000602949086010BD1F
:1004E00010B5002100200022214B5B6803F00C01B5
:1004F00021B1042906D0082928D107E0214B224C3C
:10050000236027E0214B204C236023E0184B5B68DD
:1005100003F47010164B5B6803F48032022303EB84
:10052000904022B91A4B4343174C23600DE0104B07
:100530005B6803F4003323B1164B4343124C236032
:1005400003E0124B4343104C236003E00D4B0E4C71
:10055000236000BF00BF064B5B68C3F303130E4C60
:10056000E15C094B1B68CB40074C236010BD0000C9
:1005700000100240002002400000FFF8FFFFF6FEDE
:1005800008ED00E000127A0000000020001BB70018
:1005900000093D00808D5B00040000200948804771
:1005A00009480047FEE7FEE7FEE7FEE7FEE7FEE755
:1005B000FEE7FEE7FEE7FEE704480549054A064B6D
:1005C000704700009304000831010008E002002099
:1005D000E01A0020E00E0020E00E00203149014327
:1005E000314A1160704770B5002100230F22C47892
:1005F00004B32D4C246804F4E064C4F5E064210ADB
:10060000C1F10403CA40447804FA03F18478144029
:1006100021430901254C0678A155047804F01F05F3
:100620000124AC4005786D11AD0005F1E025C5F859
:10063000004109E0047804F01F050124AC401C4D82
:100640000678761145F8264070BD1A4A0A400243E2
:10065000154B1B1F1A60704739B1134A121D1268DF
:100660000243114B1B1D1A6006E00F4A121D12684F
:1006700082430D4B1B1D1A607047042808D14FF0B0
:10068000E021096941F004014FF0E022116107E027
:100690004FF0E021096921F004014FF0E0221161DF
:1006A000704700000000FA050CED00E000E400E0F7
:1006B00080E100E080FFFF1F10B50446CC48844273
:1006C00008D10121042000F02DFB0021042000F0BE
:1006D00029FB46E0C748844208D10121082000F0E8
:1006E00021FB0021082000F01DFB3AE0C2488442B3
:1006F00008D10121102000F015FB0021102000F08E
:1007000011FB2EE0BD48844208D10121202000F0D9
:1007100009FB0021202000F005FB22E0B8488442BC
:1007200008D10121402000F0FDFA0021402000F016
:10073000F9FA16E0B348844208D10121802000F084
:10074000F1FA0021802000F0EDFA0AE0AE48844280
:1007500007D10121801500F0E5FA0021A01500F075
:10076000E1FA10BD10B50121084600F0DBFA0021C6
:10077000012000F0D7FA10BD2DE9F0410246002516
:100780000026002000230024002791F803C00CF06D
:100790000F0591F803C00CF0100CBCF1000F03D052
:1007A00091F802C04CEA050591F800C0BCF1000FB9
:1007B00031D0146800202BE04FF0010C0CFA00F34C
:1007C000B1F800C00CEA03069E4220D183004FF02E
:1007D0000F0C0CFA03F7BC4305FA03FC4CEA0404C3
:1007E00091F803C0BCF1280F06D14FF0010C0CFAB0
:1007F00000FCC2F814C00AE091F803C0BCF1480F35
:1008000005D14FF0010C0CFA00FCC2F810C0401CDE
:100810000828D1D31460B1F800C0BCF1FF0F34DD5B
:10082000546800202EE000F1080C4FF0010808FA8F
:100830000CF3B1F800C00CEA03069E4221D18300FC
:100840004FF00F0C0CFA03F7BC4305FA03FC4CEA1B
:10085000040491F803C0BCF1280F05D100F1080C85
:1008600008FA0CF8C2F8148091F803C0BCF1480FE4
:1008700007D100F1080C4FF0010808FA0CF8C2F893
:100880001080401C0828CED35460BDE8F0814FF69C
:10089000FF710180022181700421C17070470246FE
:1008A000002093680B400BB1012000E0002070474E
:1008B0000146886880B2704702460020D3680B402A
:1008C0000BB1012000E0002070470146C86880B2EB
:1008D000704701617047416170470AB1016100E0F2
:1008E00041617047C16070474FF480320A438261B2
:1008F0008161826182698269704702460020434BB0
:1009000018684FF68073184040EA021008433F4BC6
:10091000186070473E49C8617047F0B50A46002329
:1009200000240021002500F00046B6F1004F02D15E
:10093000364EF16901E0354E7168C0F3034583B26C
:1009400000F44016B6F5401F08D121F070612F4E1B
:10095000766826F070662D4F7E6012E000F48016F7
:10096000B6F5801F06D1032606FA05F4A14341F02F
:10097000706106E0460D360103FA06F6B14341F018
:10098000706122B1460D360103FA06F6314300F0DC
:100990000046B6F1004F02D11C4EF16101E01B4E42
:1009A0007160F0BD30B500228B071C0F0F2303FAD6
:1009B00004F2164B08338C1053F824309343134C35
:1009C00008348D1044F8253023468C1053F8243019
:1009D0008C07240F00FA04F423430C4C08348D10C8
:1009E00044F8253030BD0A49DC310860704700000A
:1009F00000080140000C01400010014000140140BB
:100A000000180140001C014000200140000001408E
:100A100000002042DF48006840F00100DD49086026
:100A200008464068DC490840DA49486008460068E2
:100A3000DA490840D74908600846006820F4802059
:100A400008600846406820F4FE0048604FF41F002C
:100A500088607047CF49096821F48031CD4A116020
:100A60001146096821F480211160B0F5803F03D060
:100A7000B0F5802F0ED106E0C649096841F48031F7
:100A8000C44A116007E0C349096841F4A021C14A82
:100A9000116000E000BF00BF704710B501460022A2
:100AA000002300204A11012A02D1BA4C236806E033
:100AB000022A02D1B74C236A01E0B64C636A01F006
:100AC0001F02012494401C400CB1012000E00020D2
:100AD00010BD38B5002000900024002500BF312053
:100AE000FFF7DBFF05460098401C00900098B0F52A
:100AF000A06F01D0002DF2D03120FFF7CEFF08B15A
:100B0000012400E00024204638BD01460020A14A0F
:100B1000106820F0F80040EAC10010607047A0495A
:100B200008607047024600209A4B586820F47C10F9
:100B300042EA01031843974B58607047984908668A
:100B4000704701460020934A506820F00300084394
:100B5000506070478F48406800F00C0070470146B5
:100B600000208C4A506820F0F00008435060704725
:100B700001460020874A506820F4E0600843506036
:100B8000704701460020834A506820F4605040EAD4
:100B9000C1005060704729B17E4A527A02437D4BB2
:100BA0005A7204E07B4A527A82437A4B5A727047F7
:100BB0007B49D8310860704701460020754A50686B
:100BC00020F440400843506070470021714A2032B1
:100BD0001170704A82F82010012802D004280AD12E
:100BE00004E001216B4A2032117005E00521694AB9
:100BF0002032117000E000BF00BF704769490860F3
:100C000070476449096A0143624A11627047654945
:100C100044390860704730B50021002200240023C9
:100C20005C4D6D6805F00C0121B1042905D008293F
:100C300023D105E05C4D056022E05C4D05601FE0BE
:100C4000544D6D6805F47012524D6D6805F4803492
:100C5000022505EB92421CB9554D554305600BE04A
:100C60004C4D6D6805F400351DB1524D554305607E
:100C700002E04E4D5543056002E04B4D056000BF5C
:100C800000BF444D6D6805F0F00109094A4D6B5CE9
:100C90000568DD4045603F4D6D6805F4E061090A77
:100CA000454D6B5C4568DD4085603A4D6D6805F4E7
:100CB0006051C90A404D6B5C4568DD40C560354DEB
:100CC0006D6805F44041890B3C4D6B5CC568B5FB14
:100CD000F3F5056130BD29B12E4A526902432D4B0F
:100CE0005A6104E02B4A526982432A4B5A61704789
:100CF00029B1284A92690243264B9A6104E0254AA9
:100D000092698243234B9A61704729B1214AD26983
:100D10000243204BDA6104E01E4AD26982431D4B34
:100D2000DA61704729B11B4AD2680243194BDA6075
:100D300004E0184AD2688243164BDA60704729B142
:100D4000144A12690243134B1A6104E0114A1269F2
:100D50008243104B1A61704712494039086070474E
:100D60000F49C86470470B49C87170470948406A09
:100D700040F0807007494862704701460020054AEC
:100D800092680A400AB1012000E000207047014942
:100D900088727047001002400000FFF8FFFFF6FE67
:100DA000000042428004424200127A00001BB70059
:100DB00000093D00808D5B0014000020240000200D
:100DC00010B50446FB48844209D101218803FFF78E
:100DD000A9FF00214FF48040FFF7A4FF32E0F6485E
:100DE000844209D101214804FFF7A9FF00214FF4F3
:100DF0000030FFF7A4FF25E0F048844209D101212B
:100E00008804FFF79CFF00214FF48020FFF797FF35
:100E100018E0EB48844209D10121C804FFF78FFF95
:100E200000214FF40020FFF78AFF0BE0E5488442E1
:100E300008D101210805FFF782FF00214FF480103F
:100E4000FFF77DFF10BD2DE9F04786B005460E4641
:100E50000024A24600BFA1460027B08900B100BF10
:100E60002F462C8A4CF6FF700440F08804432C82F5
:100E7000AC894EF6F3100440B0883189084371897B
:100E800008430443AC81AC8A4FF6FF400440B0896C
:100E90000443AC8201A8FFF7BEFEC648874202D1D8
:100EA000DDF810A001E0DDF80CA0A88900F40040F6
:100EB00040B10AEBCA0000EB0A1031684900B0FBF0
:100EC000F1F807E00AEBCA0000EB0A10316889006C
:100ED000B0FBF1F86420B8FBF0F0040120096421B4
:100EE00001FB1089A88900F4004040B1322000EBDA
:100EF000C900B0FBF1F000F00700044308E0322025
:100F000000EB09106421B0FBF1F000F00F00044386
:100F10002C8106B0BDE8F0874FF416510160002126
:100F20008180C18001810C21418100218181704734
:100F300010B502460020108A4FF2FF0318400B88BC
:100F40004C8823438C882343CC8823431843108246
:100F500010BD0021018041808180C180704721B196
:100F6000828942F40052828104E082894DF6FF7347
:100F70001A4082817047F0B5034600240026002500
:100F8000002040F66A17B94200D100BF1846C1F3ED
:100F9000421401F01F06012707FA06F5012C01D1C2
:100FA0000C3004E0022C01D1103000E014301AB1F2
:100FB00007682F43076002E00768AF430760F0BD92
:100FC0001AB1838A0B43838202E0838A8B43838234
:100FD0007047028A4FF6F0731A400282028A0A436F
:100FE0000282704782894FF2FF731A4082818289A0
:100FF0000A438281704721B1828942F002028281D4
:1010000004E082894FF6FD731A4082817047028A9C
:101010004FF6DF731A400282028A0A430282704747
:1010200021B1028A42F48042028204E0028A4BF635
:10103000FF731A4002827047C1F308028280704732
:1010400001468888C0F308007047818941F001019A
:1010500081817047028BD2B20283028B42EA012265
:1010600002837047028B02F47F420283028B0A43A1
:101070000283704721B1828A42F02002828204E01A
:10108000828A4FF6DF731A408282704721B1828ACA
:1010900042F01002828204E0828A4FF6EF731A4017
:1010A0008282704721B1828A42F00802828204E083
:1010B000828A4FF6F7731A408282704721B1828983
:1010C00042F40042828103E08289C2F30E028281EF
:1010D000704721B1828A42F40062828204E0828AEF
:1010E0004FF2FF731A4082827047828A4FF6FB7379
:1010F0001A408282828A0A438282704721B1828AA0
:1011000042F00202828204E0828A4FF6FD731A40A6
:101110008282704702460020B1F5007F00D100BFF7
:1011200013880B400BB1012000E00020704701F450
:101130000072B2F5007F00D100BFCA430280704741
:1011400070B50246002400230025002040F66A16F0
:10115000B14200D100BFC1F3421501F01F030126C7
:1011600006FA03F3012D02D19689334006E0022DE1
:1011700002D1168A334001E0968A33400C120126D0
:1011800006FA04F41688344013B10CB1012000E0D3
:10119000002070BD10B50022002340F66A14A14261
:1011A00000D100BF0A1201249440A3B2DC430480A2
:1011B00010BD0000003801400044004000480040DD
:1011C000004C00400050004010B504462246082163
:1011D0001148FFF782FB1148047010BD08B50121CA
:1011E0000820FFF785FD01210846FFF781FD012159
:1011F0000B48FFF792FB10208DF803000820ADF894
:10120000000003208DF8020069460348FFF7B4FA96
:101210000020FFF7D9FF08BD000C01402800002086
:10122000000230004FF0E020006920F004004FF091
:10123000E02108610920364908700846007800EB73
:101240004001C1EBC0104FF6FF7101EAC000314907
:1012500008807047002120F07F402D4A12784243D9
:101260004FF0E0235A6100229A6101221A6100BF07
:101270004FF0E022116901F001021AB101F480324D
:10128000002AF5D000224FF0E0231A619A617047DE
:10129000002100B9704720F07F401E4A1288424367
:1012A0004FF0E0235A6100229A6101221A6100BFC7
:1012B0004FF0E022116901F001021AB101F480320D
:1012C000002AF5D000224FF0E0231A619A6100BF96
:1012D000E0E770B50446002600254FF4FA7094FB51
:1012E000F0F0C6B24FF4FA7094FBF0F100FB11403D
:1012F00085B205E04FF4FA70FFF7CAFF701EC6B260
:10130000002EF7D115B12846FFF7C2FF70BD0000CF
:101310002A0000202C00002008B501213020FFF712
:10132000E7FC48208DF803004FF46050ADF8000052
:1013300003208DF8020069465B48FFF71DFA042080
:10134000ADF8000069465948FFF716FA08BD70B5B8
:1013500004460D465448844207D1A9B2FFF79FFACC
:1013600008B9012070BD0020FCE75048844207D135
:10137000A9B2FFF794FA08B90120F3E70020F1E7DA
:101380000020EFE710B54FF400514748FFF7DFFFAB
:1013900080B14748007840F001004549087001E0FD
:1013A000FF2010BD4FF400513F48FFF7D0FF002849
:1013B000F6D10CE03E48007800F0010038B13C481E
:1013C000007800F0FE003A4908700020E9E74FF489
:1013D00000613548FFF7BBFF80B13548007840F029
:1013E00002003349087001E0FF20DAE74FF40061A2
:1013F0002D48FFF7ACFF0028F6D10CE02C48007810
:1014000000F0020038B12A48007800F0FD002849B9
:1014100008700320C5E74FF480512348FFF797FF7A
:1014200080B12348007840F004002149087001E0B1
:10143000FF20B6E74FF480511B48FFF788FF0028D4
:10144000F6D10CE01A48007800F0040038B11848D2
:10145000007800F0FB00164908700620A1E704217F
:101460001248FFF774FF78B11148007840F0080087
:101470000F49087001E0FF2093E704210B48FFF7B4
:1014800066FF0028F7D10CE00948007800F008005A
:1014900038B10748007800F0F700054908700920C6
:1014A0007FE7FF207DE700000010014000140140AD
:1014B0002E00002010B50446012C01D0012000E0D0
:1014C000002002464FF480613648FFF706FA0CB15F
:1014D000012000E000203449C87010BD10B504465A
:1014E000012C01D0012000E0002002464FF4805181
:1014F0002E48FFF7F2F90CB1012000E000202A4944
:10150000887010BD10B50446012C01D0012000E008
:10151000002002464FF480712248FFF7DEF90CB13B
:10152000012000E000202049487010BD10B504469D
:10153000012C01D0012000E0002002468021194842
:10154000FFF7CBF90CB1012000E00020164908702C
:1015500010BD08B501211420FFF7CAFB10208DF83B
:1015600003004FF4B060ADF8000003208DF80200D6
:1015700069460C48FFF700F94FF48050ADF80000C1
:1015800069460A48FFF7F8F80020FFF7CFFF002070
:10159000FFF7B8FF0020FFF7A1FF0020FFF78AFF49
:1015A00008BD0000001001402F000020000801408D
:1015B00010B586B0044601210420FFF799FB0121F4
:1015C0008803FFF795FB18208DF817004FF4007083
:1015D000ADF8140003208DF8160005A96B48FFF73D
:1015E000CBF804208DF817000002ADF8140003209A
:1015F0008DF8160005A96548FFF7BEF80194002094
:10160000ADF810000C20ADF80E000020ADF80C0075
:10161000ADF80A00ADF8080001A95D48FFF713FC1A
:1016200001215B48FFF79BFC012240F225515848FD
:10163000FFF7A1FC25208DF8000001208DF80300A4
:1016400000208DF8010002208DF802006846FEF7A8
:10165000CAFF06B010BD10B586B0044601210420B3
:10166000FFF746FB01214804FFF74FFB18208DF8D8
:1016700017000420ADF8140003208DF8160005A90A
:101680004248FFF779F804208DF817000820ADF8DC
:10169000140003208DF8160005A93C48FFF76CF8EC
:1016A00001940020ADF810000C20ADF80E000020D1
:1016B000ADF80C00ADF80A00ADF8080001A93548F6
:1016C000FFF7C1FB01213348FFF749FC012240F23B
:1016D00025513048FFF74FFC26208DF800000120EF
:1016E0008DF8030000208DF801008DF80200684697
:1016F000FEF779FF06B010BD2DE9F04107460C4614
:10170000154600260DE014F8011B3846FFF794FC3F
:1017100000BF40213846FFF7FDFC0028F9D0701CBF
:1017200086B2AE42EFDBBDE8F0810FB430B5CBB08E
:10173000054601AC50A800904FF4947101A8009B9D
:101740004F9A02F0A7FB002000900BE014F8011B59
:101750002846FFF771FC00BF40212846FFF7DAFC5E
:101760000028F9D020780028F0D14BB030BC5DF8CB
:1017700014FB10B540F225510548FFF7E1FC18B104
:1017800020210348FFF7D3FC10BD000000080140F2
:10179000003801400044004010B54FF4A060FEF74F
:1017A0001DFFFFF73FFD4FF4E130FFF701FF4FF45E
:1017B000E130FFF750FFFFF7CCFEFFF70FFDFFF71B
:1017C000ABFD42A14648FFF7B0FF10BD0025002445
:1017D000FFF7E2FF02F012FA00F0C1F941A1404820
:1017E000FFF7A3FF03E04FF4FA70FFF751FD44A1A8
:1017F00045A002F0A4F90028F5D103E04FF4FA70F7
:10180000FFF746FD00F018FA0028F7D10120FFF796
:10181000DBFCFA20FFF73CFD0020FFF7D5FC00F0D1
:10182000E5FC51E0FFF7AEFD30B1032825D00628D6
:101830000DD009282CD115E03E48007818B90120B8
:10184000FFF774FE02E00020FFF770FE21E0394848
:10185000407818B90120FFF755FE02E00020FFF79D
:1018600051FE16E03348807818B90120FFF736FEA4
:1018700002E00020FFF732FE0BE02E48C07818B9D6
:101880000120FFF717FE02E00020FFF713FE00E043
:1018900000BF00BF681C80B20546B0F5FA7F08DBC8
:1018A00025A10F48FFF741FF00F032FC002502F0B0
:1018B00027F9002002F080F9044614B1204600F018
:1018C000C0FC0A20FFF7E4FCACE70000204861728E
:1018D000647761726520696E6974204F4B0D0A0050
:1018E00000380140436F6E6E656374204D5154544F
:1018F00073205365727665722E2E2E0D0A0000003D
:10190000434F4E4E4543540041542B43495053548A
:101910004152543D22544350222C223138332E322E
:1019200033302E34302E3936222C313838330D0AEC
:10193000000000002F0000204F6E654E65745F535D
:10194000656E64446174610D0A000000F0B58BB0EF
:10195000054600260024284602F0A5FDC7B20DB1B9
:101960001C2F02DA01200BB0F0BD06E0A85D01A932
:1019700088550020A855701CC6B2BE42F6DB002078
:1019800001A988550026002455E001A8805D2B2878
:1019900010D008DC202814D023282ED0252825D0CC
:1019A00026283FD130E02F2812D03D2833D03F28C1
:1019B00038D114E02819FBA102F094FDE01CC4B258
:1019C00036E02819F8A102F08DFDE01CC4B22FE02A
:1019D0002819F6A102F086FDE01CC4B228E02819FF
:1019E000F3A102F07FFDE01CC4B221E02819F1A1AF
:1019F00002F078FDE01CC4B21AE02819EEA102F052
:101A000071FDE01CC4B213E02819ECA102F06AFDDC
:101A1000E01CC4B20CE02819E9A102F063FDE01C4F
:101A2000C4B205E001A8805D2855601CC4B200BFA7
:101A300000BF701CC6B2BE42A7DB0020285500BF05
:101A400091E72DE9F04FC9B005460C4616461F46F2
:101A50000DF5A47898E8000F0020489055B14CB1DE
:101A6000D848864206D32FB1B9F1000F02D0BAF19F
:101A7000780F03DA012049B0BDE8F08F402118A8A3
:101A800002F0A3FD384602F00EFD05903B4648AA41
:101A90004021009018A801F087F8482106A802F01C
:101AA00094FDBBF1000F09D0C7A03346C8A248215E
:101AB0008DE8310006A802F01DFA09E0C2A0334605
:101AC000C9A248218DE81101039506A802F012FA77
:101AD000402128A802F079FD06A802F0E4FC059058
:101AE00018A802F0E0FC049028A8009006AA18A804
:101AF000DDE9041300F004FF00204890402138A8DD
:101B000002F063FD28A802F0CEFC059028AB48AA9D
:101B10004021009038A800F0A7FF38A8FFF716FF73
:101B2000BBF1000F0CD038A8A7A12B46B6A2CDE977
:101B30000046CDE902105146484602F0DBF90CE0C0
:101B400038A8A1A12B46BE4ACDE901860094CDE973
:101B500003105146484602F0CDF900208BE72DE9ED
:101B6000F041ACB0012715250026002405F1F00056
:101B700002F03AF906461EB938462CB0BDE8F081AD
:101B800003E04FF4FA70FFF783FBAEA1AFA001F0C2
:101B9000D6FF0028F5D10120902108AA0023CDE925
:101BA0000032CDE90210B3A3BE4ABFA1C0A0FFF727
:101BB00048FFC2A11520CDE9000105F1F00108ABF5
:101BC000C14A304602F096F9304602F06CFC1FFA2A
:101BD00080F84146304601F0D8FFFA2001F0ECFFD2
:101BE000044624B1B9A1204602F027FC0446002C8B
:101BF00019D000200390B84803A904ABB74ACDE937
:101C00000010B7A1204602F0BBFA04280AD1B2485E
:101C1000039904ABB14ACDE90010C0A1C748FFF752
:101C200084FD002700BF304602F00DF9C4A1C5A015
:101C300001F085FF3846A0E730B5B3B000202F9003
:101C40003090319032900125A02107AA9BA3CDE9C5
:101C50000032CDE90210A04B924A93A194A0FFF765
:101C6000F0FE07A890A395A2BAA10090B348FFF791
:101C70005CFD2FA8002102910391CDE904100846D4
:101C800001210B028DA2CDE9001007A986A001F069
:101C9000ECF8002842D1309A91B22F9801F075FFEC
:101CA000FA2001F089FF0446002C33D0204601F0D1
:101CB000A7F802282ED1204601F03CFA062823D2AC
:101CC000DFE800F003090E13181DAEA19B48FFF7D3
:101CD0002CFD00251DE0B0A19848FFF726FD18E077
:101CE000B4A19648FFF721FD13E0BBA19348FFF78D
:101CF0001CFD0EE0C0A19148FFF717FD09E0C7A148
:101D00008E48FFF712FD04E0CFA18C48FFF70DFDD0
:101D100000BF00BF2FA801F02BF803E0D1A1874836
:101D2000FFF703FD284633B030BD10B588B0044638
:101D30002021684602F049FCD3A1204602F08FFB27
:101D40002021684602F041FCD4480278D4A16846BC
:101D500002F0BAF86946204602F0C4FB202168462A
:101D600002F033FCCD484278D3A1684602F0ACF8CB
:101D70006946204602F0B6FB2021684602F025FCA9
:101D8000C6488278D2A1684602F09EF8694620468D
:101D900002F0A8FB2021684602F017FCBF48C27879
:101DA000A4E10000253242002532300025324600F1
:101DB00025334600253235002532330025323600E2
:101DC000253344009554415D736861310000000083
:101DD00025640A25730A70726F64756374732F2506
:101DE000730A25730000000025640A25730A7072C7
:101DF0006F64756374732F25732F646576696365EB
:101E0000732F25730A25730076657273696F6E3DB3
:101E10002573267265733D70726F647563747325E4
:101E200025324625732665743D2564266D657468E4
:101E30006F643D2573267369676E3D25730000004E
:101E400044620008434F4E4E4543540041542B43D7
:101E5000495053544152543D22544350222C223174
:101E600038332E3233302E34302E3333222C383068
:101E70000D0A000050444B493179576D7961786201
:101E80006A30317276796B3869514D6456506170A1
:101E90007A527449517171434866536E7678633D46
:101EA0000000000000CF9D74323832393332000018
:101EB000323031382D31302D333100004D515454F2
:101EC000735F5465737400008C6200086465766902
:101ED00063655F69640000004C0000203C00002046
:101EE0006465766963655F6964223A22255B5E22D8
:101EF0005D222C226E616D65223A22255B5E225D99
:101F0000222C22706964223A25642C226B65792286
:101F10003A22255B5E225D2200000000637265614B
:101F20007465206465766963653A2025732C2025E5
:101F3000732C2025642C2025730D0A0000380140E5
:101F40004F4B000041542B434950434C4F53450DD8
:101F50000A0000004F6E654E45545F4465764C693B
:101F60006E6B0D0A4E414D453A2025732C09505297
:101F70004F49443A2025732C094B45593A25730D96
:101F80000A000000546970733A09C1ACBDD3B3C9EB
:101F9000B9A60D0A000000005741524E3A09C1ACE3
:101FA000BDD3CAA7B0DCA3BAD0ADD2E9B4EDCEF3AD
:101FB0000D0A00005741524E3A09C1ACBDD3CAA721
:101FC000B0DCA3BAB7C7B7A8B5C4636C69656E7453
:101FD00069640D0A000000005741524E3A09C1AC35
:101FE000BDD3CAA7B0DCA3BAB7FECEF1C6F7CAA765
:101FF000B0DC0D0A000000005741524E3A09C1AC56
:10200000BDD3CAA7B0DCA3BAD3C3BBA7C3FBBBF283
:10201000C3DCC2EBB4EDCEF30D0A00005741524EC3
:102020003A09C1ACBDD3CAA7B0DCA3BAB7C7B7A839
:10203000C1B4BDD328B1C8C8E7746F6B656EB7C7AC
:10204000B7A8290D0A0000004552523A09C1ACBD9B
:10205000D3CAA7B0DCA3BACEB4D6AAB4EDCEF30DE2
:102060000A0000005741524E3A094D5154545F50F6
:1020700061636B6574436F6E6E656374204661695E
:102080006C65640D0A0000007B226964223A3132DB
:10209000332C226470223A7B000000002F000020C5
:1020A000225265645F4C6564223A5B7B2276223A59
:1020B00025647D5D2C00000022477265656E5F4CD3
:1020C0006564223A5B7B2276223A25647D5D2C0092
:1020D0002259656C6C6F775F4C6564223A5B7B229A
:1020E00076223A25647D5D2C00000000CAA1684676
:1020F00001F0EAFE6946204602F0F4F9CCA1204640
:1021000002F0F0F9204602F0CEF9C0B208B010BDDE
:1021100030B5C5B0002041904290439044900024D7
:102120000025C4A1CB48FFF700FB4FF4807101A844
:1021300002F04BFA01A8FFF7F8FD0446002C28D066
:1021400041A800232246AFF28C210090AFF2A820D4
:1021500001F0D6F8C8B908E001A8415D429A501CC8
:10216000429041988154681C05B2A542F4DB429A22
:1021700091B2419801F009FDB7A1B648429AFFF724
:10218000D4FA41A800F0F4FD03E0B7A1B148FFF78D
:10219000CCFA45B030BD70B588B005460C4600207D
:1021A000049005900690079023462A46B6A1A948B8
:1021B000FFF7BBFA204602F076F9064604A8012193
:1021C000002200923346CDE90121039022462946A0
:1021D0000A2000F0BEFF38B9059A91B2049801F0C8
:1021E000D4FC04A800F0C4FD08B070BD00B595B0E3
:1021F0000020119012901390149003A80290AFF257
:102200004430AFF25C33A8A23821009003A801F05B
:1022100071FE03AAA9A18F48FFF787FA11A801232D
:1022200002AA00210090142001F074F938B9129A22
:1022300091B2119801F0A9FC11A800F099FD15B018
:1022400000BD2DE9F043A9B08146002028902790D9
:10225000269025902490002780460025002448469B
:1022600000F0CEFD0746032F04D0042F46D0092FDF
:102270005BD14CE0974824A925AA28ABCDE90021E1
:10228000029026AA27A9484601F077FA8046B8F1BD
:10229000000F32D10026BDF894002899CDE9001036
:1022A000BDF898308CA16B48279AFFF73EFA99A1A8
:1022B000279802F0C2F80646F6B12F21304602F008
:1022C000A0F80646761C2422314603A802F016F92F
:1022D00000208DF8300003A8AFF22041AFF2384360
:1022E0008FA2CDE9001050210DA801F003FE93A1AB
:1022F0000DA8FFF750FF00BF00BF00BF484601F028
:102300003CFB18B98FA15348FFF70FFA10E048467D
:1023100001F07FF920B993A14E48FFF706FA03E0D8
:1023200097A14C48FFF701FA02E04FF0FF3800BFD9
:1023300000BF01F0E5FB08F1010010B929B0BDE8CC
:10234000F0833A21289802F05CF80546002D57D01A
:1023500008F10100002853D06D1C05E015F8012B91
:102360002046641C21A90A542878302802DB2878EA
:102370003928F3DD002021A9085521A802F034F8FE
:10238000044686A1289802F058F850B1012C03D1D8
:102390000120FFF7CBF833E014BB0020FFF7C6F8AD
:1023A0002EE080A1289802F048F850B1012C03D10A
:1023B0000120FFF7A7F823E094B90020FFF7A2F867
:1023C0001EE07BA1289802F038F850B1012C03D10F
:1023D0000120FFF783F813E014B90020FFF77EF81F
:1023E0000EE076A1289802F028F848B1012C03D11C
:1023F0000120FFF75FF803E014B90020FFF75AF857
:102400000F2F01D0032F05D1279801F01CFD28982C
:1024100001F019FD00BF91E722426C75655F4C65C4
:1024200064223A5B7B2276223A25647D5D000000BF
:102430007D7D0000546970733A094F6E654E657476
:102440005F53656E64446174612D4D5154540D0A9F
:10245000000000000038014053656E6420256420B0
:1024600042797465730D0A005741524E3A0945444A
:10247000505F4E6577427566666572204661696C8D
:1024800065640D0A000000005075626C6973682075
:10249000546F7069633A2025732C204D73673A207E
:1024A00025730D0A00000000247379732F25732F04
:1024B00025732F636D642F23000000005375627332
:1024C000637269626520546F7069633A2025730DE9
:1024D0000A00000034000020746F7069633A202500
:1024E000732C20746F7069635F6C656E3A2025648D
:1024F0002C207061796C6F61643A2025732C2070F8
:1025000061796C6F61645F6C656E3A2025640D0AB9
:1025100000000000726571756573742F0000000083
:10252000247379732F25732F25732F636D642F7296
:102530006573706F6E73652F257300006F6A626B31
:1025400000000000546970733A094D5154542050F2
:1025500075626C6973682053656E64204F4B0D0A79
:1025600000000000546970733A094D5154542053CF
:102570007562736372696265204F4B0D0A0000003B
:10258000546970733A094D51545420537562736302
:1025900072696265204572720D0A00007265646C92
:1025A00065640000677265656E6C6564000000001C
:1025B00079656C6C6F776C6564000000626C7565A2
:1025C0006C656400F0B50446142C06DA01EA0205D5
:1025D00023EA010685EA060019E0282C04DA81EADC
:1025E000020787EA030012E03C2C0ADA01EA02053E
:1025F00001EA030787EA050602EA030787EA0600FD
:1026000005E0502C03DA81EA020787EA0300F0BDF7
:102610000146142901DAFE480AE0282901DAFD48BA
:1026200006E03C2901DAFC4802E0502900DAFB48C8
:102630007047F0B5024601209040441EE54301EA90
:10264000050020FA02F601EA0400C2F1200C00FAAB
:102650000CF746EA07031846F0BDF0B50246C2F192
:10266000200C012000FA0CF0441EE54301EA0400AE
:1026700000FA02F601EA0500C2F1200C20FA0CF77C
:1026800046EA07031846F0BD2DE9F04FDDB00746D6
:102690008A4615460AF1080909F101094FEACA00FC
:1026A0005B9048464FEAE97109EB91618E1148460B
:1026B0004FEAE97109EB91618911A9EB81115C91F4
:1026C0005C98002800DD761C5C98C0F140008144D5
:1026D000D04604E0002007F8080008F10108B8EB34
:1026E000861FF7DB802007F80A000121C1EB861165
:1026F0005B9878545B98C0F307200221C1EB8611E8
:1027000078545B98C0F307400321C1EB86117854DD
:102710005B98000E0421C1EB86117854C048569096
:10272000C0485790BE48C0435890BE48C0435990D7
:10273000BD485A904FF00008A5E0002452E0102C4C
:1027400032D24FEA881000EB8400385C000601A901
:1027500041F824004FEA881000EB8400401C385CEC
:1027600051F824104FF4803202FB001001A941F807
:1027700024004FEA881000EB8400801C385C51F87C
:102780002410121202FB001001A941F824004FEAA4
:10279000881000EB8400C01C385C51F824100844F9
:1027A00001A941F824001CE0502C1AD2E01E01AA15
:1027B00052F82000A4F1080201AB53F82220504047
:1027C000A4F10E0253F822205040A4F1100253F855
:1027D000222080EA02010120FFF73FFF01A941F812
:1027E0002400641C502CAAD35698559057985490A6
:1027F00058985390599852905A98519000242AE032
:1028000005205599FFF729FF83462046529B539A8E
:102810005499FFF7D7FE5844009051990098084406
:1028200000902046FFF7F4FE00990844009001A8AC
:1028300050F82410009808440090529851905398F2
:1028400052901E205499FFF708FF539055985490CA
:1028500000985590641C502CD2D356995598084432
:10286000569057995498084457905899539808444B
:10287000589059995298084459905A995198084437
:102880005A9008F10108B045FFF657AF5698E87026
:102890005698000AA8705698000C68705698000E5A
:1028A00028705798E8715798000AA8715798000C3B
:1028B00068715798000E28715898E8725898000A65
:1028C000A8725898000C68725898000E287259988F
:1028D000E8735998000AA8735998000C68735998BE
:1028E000000E28735A98E8745A98000AA8745A98E7
:1028F000000C68745A98000E28745DB0BDE8F08F23
:102900002DE9F04FADF58E5D07460E46924698468E
:102910000DF58050D0F8E49140254FF0360B5C2146
:10292000C0F8BC11002405E0002041F27C1169448C
:102930000855641C402CF7DBAE421FD0AE4210DDC0
:102940004A4631463846FFF79FFE002406E019F854
:10295000040041F27C1169440855641C142CF6DB18
:1029600016E0AE4214DA002405E0385D41F27C1135
:1029700069440855641CB442F7DB09E0002405E013
:10298000385D41F27C1169440855641CAC42F7DBA8
:1029900000240AE041F27C106844005D80EA0B00EC
:1029A00041F23C1169440855641C402CF2DB0024C0
:1029B00006E041F23C106844005D1FA90855641C04
:1029C000402CF6DB002406E01AF804101FAA04F1DC
:1029D00040001154641C4445F6DB08EB05014A46EF
:1029E0001FA8FFF751FE00240DE041F27C1169445D
:1029F000095D0DF58050D0F8BC01414041F2FC0268
:102A00006A441155641C402CEFDB002415E00000E3
:102A10009979825AA1EBD96EDCBC1B8FD6C162CAF0
:102A20000123456789ABCDEFF0E1D2C341F2FC0051
:102A30006844005D0AA90855641C402CF6DB00249C
:102A400006E019F804100AAA04F140001154641CAD
:102A5000142CF6DB4A4605F114010AA8FFF714FE10
:102A60000DF58E5DBDE8F08F2DE9F04F07468946E4
:102A7000099C00250026AC46A846AA4600211CB9A0
:102A800000201060BDE8F08F0320B4FBF0F04FF0A1
:102A9000030BB4FBFBFE0BFB1E4BBBF1000F02D084
:102AA0004FF0010B01E04FF0000B00EB0B06B6F10D
:102AB000804F05D34FF0FF3010606FF02900E1E741
:102AC000B600701C814500D327B9701C10606FF0F0
:102AD0002900D7E70320B4FBF0F000EB4006002507
:102AE000394629E013F801CB13F8018B13F801AB39
:102AF00087484FEA9C0B10F80B0001F8010B4FEAD6
:102B00000C1000EB281000F03F00DFF804B21BF8B7
:102B1000000001F8010B4FEA880000EBAA1000F05A
:102B20003F001BF8000001F8010B0AF03F001BF802
:102B3000000001F8010BED1CB542D3D3A5422DD204
:102B400013F801CB681CA04202D213F8010B00E07D
:102B5000002080466E48CCF3850B10F80B0001F87E
:102B6000010B4FEA0C1000EB281000F03F00DFF8DB
:102B7000A0B11BF8000001F8010B681CA04207D2AD
:102B80003F2000EA88001BF8000001F8010B02E07A
:102B90003D2001F8010B3D2001F8010BC81B10601E
:102BA0000020087000BF6DE72DE9F0470746894611
:102BB0009046DDF820C000210022002400260025D8
:102BC000002004460246014645E0002601E0491C7B
:102BD000761C614502D2585C2028F8D0614500D1AE
:102BE0003BE0ACEB0100022807D3585C0D2804D170
:102BF000481C185C0A2800D12CE0585C0A2800D137
:102C000028E01EB16FF02B00BDE8F087585C3D282E
:102C100006D1601C0446022802D96FF02B00F3E7AE
:102C2000585C7F2806DC585CDFF8E8A01AF8000042
:102C30007F2802D16FF02B00E6E7585CDFF8D4A0C4
:102C40001AF80000402803DA14B16FF02B00DBE71C
:102C5000521C00BF491C6145B7D300BF1AB9002000
:102C6000C8F80000D0E7D00800EB40004FEA400A67
:102C700002F0070000EB40004000C01D0AEBD0024C
:102C8000121B0FB1914504D2C8F800206FF0290043
:102C9000BAE703240020064602463D4631E0187894
:102CA0000D2805D018780A2802D01878202800D1DD
:102CB00025E01878DFF85CA01AF80000402801D160
:102CC000012000E00020241A1878DFF848A01AF844
:102CD000000066F39F100646501C024604280DD1E2
:102CE000002214B1300C05F8010B012C02D9300A76
:102CF00005F8010B022C01D905F8016B00BF491E34
:102D00005B1C0029CBD1E81BC8F8000000207BE742
:102D1000AC600008EC60000870B504460E46002563
:102D2000206898B901202073304601F05DF82060DA
:102D30002068E0B100206060A66003E00020216808
:102D400048556D1CA068A842F8D810E002202073F6
:102D500003E00020216848556D1CA068A842F8D8FF
:102D600000206060A068B04201D20020206070BDE9
:102D700010B50446207B012802D1206801F063F8D9
:102D8000002020606060A060207310BD0246002318
:102D900001230DE002F07F000870D2092AB1087803
:102DA00040F080000870491C01E0184670475B1C29
:102DB000042BEFDD4FF0FF30F8E7F0B504460D4689
:102DC0002646012300201060002114E0775C07F004
:102DD0007F07106807FB03001060705C00F0800044
:102DE00008B9481CF0BDDB01B3F5001F02D36FF03A
:102DF0000100F7E7491CA942E8DB4FF0FF30F1E79B
:102E0000F8B50446FF2720780511012D01DB0E2DB2
:102E100001DD3846F8BD032D24D1002000906A461C
:102E20000421601CFFF7C9FF2044461C00980228BB
:102E300003D3207800F0010008B1FF20EAE77078A2
:102E4000317840EA0120801C0099884201D9FF2096
:102E5000E0E7F8A1B01C01F0F0FA08B10F2700E09C
:102E6000032700E02F463846D4E72DE9FF4F83B013
:102E700082468B469146159C0025002002900F2724
:102E80000190484601F00FFB0FFA80F8B9F1000FEE
:102E900003D1012007B0BDE8F08F08F102003844EB
:102EA00087B2109808B145F00205129878B145F044
:102EB0000405129801F0F7FAC0B20290139801F0DD
:102EC000F2FA01460298001D0844384487B211986E
:102ED00020B1012804D0022808D104E000BF07E097
:102EE00045F00C0504E045F0140501E00220D1E7AF
:102EF00000BF149808B145F02405BAF1000F02D0C4
:102F0000BBF1000F01D10320C4E745F0C0055046D6
:102F100001F0C9FA0646584601F0C5FA3044001DD2
:102F2000384487B239462046FFF7F6FE206808B9D4
:102F30000420AFE73946206801F025FB10216268C4
:102F4000501C606020688154D4E90023D118781F98
:102F5000FFF71CFF00B201900198002804DA204618
:102F6000FFF706FF052095E7616801980844606057
:102F700000216268501C60602068815404216268EE
:102F8000501C6060206881544D216268501C606054
:102F90002068815451216268501C6060206881540F
:102FA00054216268501C6060206881546268501C23
:102FB00060602068815404216268501C6060206851
:102FC00081546168481C6060206845540698010A75
:102FD0006268501C6060206881540698C1B26268C3
:102FE000501C606020688154C8F307216268501C3F
:102FF0006060206881546268501C6060206800F83E
:103000000280D4E9001288184246494601F003FACA
:1030100060684044606005F00400B8B3002613986F
:1030200008B986A01390129801F03DFA86B2310AD1
:103030006268501C6060206881546268501C606047
:1030400020688654D4E9001288183246129901F09B
:10305000E2F9606830446060139801F024FA86B2A7
:10306000310A6268501C6060206881546268501C9C
:10307000606020688654D4E900128818324613999B
:1030800001F0C9F960683044606000BF05F080005D
:10309000C8B1504601F007FA86B2310A6268501C86
:1030A0006060206881546268501C606020688654AB
:1030B000D4E9001288183246514601F0ACF9606834
:1030C0003044606000BF05F04000C8B1584601F0D0
:1030D000EAF986B2310A6268501C60602068815447
:1030E0006268501C606020688654D4E90012881819
:1030F0003246594601F08FF960683044606000BF85
:103100000020C7E610B5044602212046FFF704FE62
:10311000206808B9012010BDE0216268501C606081
:103120002068815400216268501C606020688154CE
:103130000020F0E701464878022801D001207047BE
:10314000887810B18878012801D1C878F7E7FF2086
:10315000F5E72DE9FF4F83B0834690469946139CCF
:10316000002600250020029001900027BBF1000FEF
:1031700003D1012007B0BDE8F08F00250AE00498D4
:10318000405D232803D00498405D2B2801D1022004
:10319000F0E76D1C0498405D0028F0D147F030073F
:1031A000119808B147F0010705EB0900861C10983B
:1031B00020B1012804D002280AD105E000BF09E0AF
:1031C00047F00207B61C05E047F00407B61C01E013
:1031D0000320CFE700BF98F80000022822D14FF06B
:1031E000000A00BF50460AF1010A18F800007D28C5
:1031F000F8D1AAF1030A0AF1070002900298A9EB9C
:10320000000AF01CA0EB0A012046FFF785FD2068AC
:1032100008B90420AEE7F21CA2EB0A01206801F015
:10322000B2F911E0F11C2046FFF776FD206838B9AD
:1032300004209FE724637265710000000000000015
:10324000F11C206801F09FF96168481C60602068EB
:103250004754D4E9000281183046FFF797FD0190EA
:103260000198002804DA2046FFF782FD052081E757
:103270006168019808446060C5F307216268501CCA
:103280006060206881546268501C606020688554CA
:10329000D4E9001288182A46049901F0BCF8606845
:1032A00028446060109860B14FEA1B216268501C8E
:1032B0006060206881546268501C6060206800F87B
:1032C00002B0B8F1000F19D098F8000002280BD115
:1032D000D4E9001288184146029A01F00FF961689A
:1032E00002980844606009E0D4E9001288184A4650
:1032F000414601F003F9606848446060002039E706
:103300002DE9F04190B004460D4616469846169FAA
:103310002346F7A2302104A8009500F0EBFD012020
:103320000021CDE9000133460A4604A9CDE9020790
:103330000A20FFF70EFF18B1012010B0BDE8F081A0
:103340000020FAE72DE9F04F85B080460D46914602
:10335000012004900027002600244FF0000A404678
:1033600001F0A1F800F10D0B584600F03DFD0746B5
:103370001FB9049805B0BDE8F08F4246E2A1384677
:1033800000F0A2FD384601F08EF8C6B2F01D00EB49
:10339000050AAAEB050000F027FD044624B93846CB
:1033A00000F051FD0498E5E70220207000206070D5
:1033B000A67032463946E01C01F0A0F8290EF01C38
:1033C0002154C5F30741301D2154C5F30721701D59
:1033D0002154B01D255401200021CDE900015346A0
:1033E0002246CDA1CDE902090A20FFF7B2FE08B9B5
:1033F00000200490384600F026FD204600F023FD12
:103400000498B7E72DE9F84380460C4615461E465A
:103410002F2108F1060000F0F4FF0746002000907D
:1034200017B90120BDE8F8837F1C6A46042108F122
:103430000100FFF7C2FC252000F0D6FC20602068C8
:1034400008B90220EEE72521206801F09CF824222B
:103450003946206801F052F8243700982C38308023
:103460003188481C00F0C0FC2860286820B920681A
:1034700000F0E9FC0320D5E73288511C286801F0F0
:1034800082F832883946286801F038F80020C9E708
:103490002DE9FF5F07460D469046384601F003F8D8
:1034A00086B2284600F0FFFF1FFA80FA4FF00009AD
:1034B000B01D00F099FC04461CB9012004B0BDE821
:1034C000F09FB11D204601F05EF894A001682160D4
:1034D0008088A08032463946204600F09CFF28466E
:1034E00000F0E1FF83460120002100915B462A465F
:1034F000CDE90208019121460A20FFF72AFE10B902
:103500004FF0000901E04FF00109204600F09BFC5C
:103510004846D3E72DE9FF5F8046174699460E9C43
:103520000026B246B3460025B8F1000F03D10120B2
:1035300004B0BDE8F09F0BE057F8250008B9022061
:10354000F6E757F8250000F0AEFF0644681CC5B248
:103550004D45F1DB09EB4900801C00EB060A0AF13E
:1035600005012046FFF7D8FB206808B90320DFE7F4
:1035700082216268501C606020688154D4E9000296
:1035800081185046FFF702FC0FFA80FBBBF1000FD9
:1035900004DA2046FFF7ECFB0420C9E760685844D2
:1035A00060604FEA18216268501C60602068815496
:1035B0006268501C6060206800F80280002524E0EA
:1035C00057F8250000F06FFF0646C6F30721626832
:1035D000501C6060206881546268501C60602068E4
:1035E0008654D4E90023D01857F82510324600F04D
:1035F00012FF6068304460600198C1B26268501C7C
:10360000606020688154681CC5B24D45D8DB00203D
:103610008EE70146FF208A78A2B9CA78142A11D110
:103620000A7932B1012A05D0022A04D0802A06D1B3
:1036300003E000BF00BF002003E0012001E0022002
:1036400000BF00BF70472DE9F05F80460F469146EE
:103650001C460026B246B3460025B8F1000F02D141
:103660000120BDE8F09F0BE057F8250008B90220C3
:10367000F7E757F8250000F016FF0644681CC5B2AE
:103680004D45F1DB022000EB490000EB060A0AF190
:1036900005012046FFF740FB206808B90320E0E75A
:1036A000A2216268501C606020688154D4E9000245
:1036B00081185046FFF76AFB0FFA80FBBBF1000F41
:1036C00004DA2046FFF754FB0420CAE76068584438
:1036D00060604FEA18216268501C60602068815465
:1036E0006268501C6060206800F80280002537E0A6
:1036F000247379732F25732F25732F64702F706FA8
:1037000073742F6A736F6E007B2264735F69642227
:103710003A222573227D00002464700024637273B2
:10372000702F000057F8250000F0BDFE0646C6F3D6
:1037300007216268501C6060206881546268501CD8
:10374000606020688654D4E90023D01857F825100B
:10375000324600F060FE606830446060681CC5B2AC
:103760004D45DFDB00207CE7014601208A781AB94D
:10377000CA781E2A00D1002070472DE9FC5F8146DF
:103780000D4614461E46DDE90C8B99F8000000F04A
:103790000F0A002001900AF008000090CAF34100CF
:1037A0008BF8000001AA042109F10100FFF705FBD5
:1037B0004844471C0198022802D30AF0010010B1C6
:1037C000FF20BDE8FC9F7878397840EA012020800E
:1037D0002088801C0199884201D9FF20F1E7AFF2CF
:1037E000AC51B81C00F029FE08B10F20E9E79BF8A6
:1037F000000020B101283DD0022877D13BE000989D
:1038000008B1FF20DDE72188481C00F0EDFA2860B0
:10381000286808B9FF20D4E72288511C286800F0E6
:10382000B2FE2288B91C286800F068FE0198801E4C
:103830002188401AA8F80000B8F80010481C00F0D1
:10384000D3FA3060306820B9286800F0FCFAFF2015
:10385000B7E7B8F80020511C306800F094FEB8F8C3
:103860000020B4F800C0BB1C0CEB0301306800F072
:1038700045FE4FE000BF2088801C0199884201D995
:10388000FF209EE72088C01C395C2088801C385CA3
:1038900041EA00210E9801800E9808B9FF2090E7B8
:1038A0002188481C00F0A0FA2860286808B9FF2089
:1038B00087E72288511C286800F065FE2288B91C21
:1038C000286800F01BFE0198001F2188401AA8F804
:1038D0000000B8F80010481C00F086FA306030682C
:1038E00028B9286800F0AFFAFF206AE710E0B8F8BE
:1038F0000020511C306800F046FEB8F80020B4F8F3
:1039000000C03B1D0CEB0301306800F0F7FD01E047
:10391000FF2056E700BF2B21284600F072FD20B99A
:103920002321284600F06DFD08B1FF2049E7002063
:1039300047E770B505460C4604212046FFF7ECF931
:10394000206808B9012070BD40216268501C606089
:103950002068815402216268501C60602068815494
:1039600029126268501C6060206881546268501C93
:103970006060206885540020E5E701464878022809
:1039800001D001207047887820B9C8780A2801D171
:103990000020F7E70120F5E770B505460C46042145
:1039A0002046FFF7B9F9206808B9012070BD502101
:1039B0006268501C60602068815402216268501C5B
:1039C00060602068815429126268501C6060206821
:1039D00081546268501C6060206885540020E5E7CF
:1039E00001464878022801D001207047887820B924
:1039F000C8780A2801D10020F7E70120F5E770B563
:103A000005460C4604212046FFF786F9206808B9D0
:103A1000012070BD62216268501C60602068815482
:103A200002216268501C606020688154291262681B
:103A3000501C6060206881546268501C606020687F
:103A400085540020E5E702465078022801D0012085
:103A500070479078B0EB112F05D1D078CBB2984257
:103A600001D10020F4E70120F2E770B505460C46CD
:103A700004212046FFF750F9206808B9012070BDE5
:103A800070216268501C6060206881540221626865
:103A9000501C60602068815429126268501C60606C
:103AA000206881546268501C606020688554002042
:103AB000E5E701464878022801D001207047887860
:103AC00020B9C8780A2801D10020F7E70120F5E7DE
:103AD00010B5044602212046FFF71EF9206808B9F8
:103AE000012010BDC0216268501C606020688154B4
:103AF00000216268501C6060206881540020F0E75B
:103B000010B54FF40071814800F03DFD0020804960
:103B1000088010BD7E48008808B9012070477C48A5
:103B200000887C490988884203D1002078490880B0
:103B3000F4E777480088774908800120EEE72DE90F
:103B4000F04104460D46C826204600F0ACFC87B282
:103B50003A4621467048FDF7CFFD0FE0FFF7DAFF48
:103B600048B92946694800F068FC20B1FFF7C8FF52
:103B70000020BDE8F0810A20FDF78AFB301EA6F187
:103B80000101CEB2EAD10120F3E730B589B0044695
:103B90000D46FFF7B5FF2A4660A101A800F094F991
:103BA00062A101A8FFF7CBFF20B92A4621465A4857
:103BB000FDF7A2FD09B030BD70B50546002400BF79
:103BC000FFF7A8FF80B95AA1504800F036FC044620
:103BD00054B13A21204600F014FC044614B1641C90
:103BE000204670BD0020FCE70520FDF751FB281E94
:103BF000A5F101018DB2E3D100BFF2E708B50121C3
:103C00000420FDF775F810208DF803008002ADF850
:103C1000000003208DF8020069464748FCF7ACFD20
:103C200000224FF480414448FCF757FEFA20FDF78C
:103C30002FFB012291034048FCF74FFE4FF4FA702E
:103C4000FDF726FBFFF75CFF3CA13E48FDF76DFD4D
:103C500003E04FF4FA70FDF71BFB3BA13BA0FFF71D
:103C60006EFF0028F5D13BA13648FDF75EFD03E06D
:103C70004FF4FA70FDF70CFB33A139A0FFF75FFF9B
:103C80000028F5D13AA12F48FDF74FFD03E04FF48E
:103C9000FA70FDF7FDFA2CA139A0FFF750FF0028BC
:103CA000F5D13BA12748FDF740FD03E04FF4FA7042
:103CB000FDF7EEFA39A13BA0FFF741FF0028F5D14F
:103CC00043A12048FDF731FD08BD10B540F2255154
:103CD0001148FDF735FAB8B10D480088B0F5007FFE
:103CE00002D300200A4908800B48001D0088C1B299
:103CF000074802880088401C054B188003488154FF
:103D000020210548FDF713FA10BD00007C000020BB
:103D100036000020380000200044004041542B436E
:103D2000495053454E443D25640D0A003E000000B5
:103D30004950442C0000000000100140312E204169
:103D4000540D0A00003801404F4B000041540D0A49
:103D500000000000322E2043574D4F44450D0A000D
:103D600041542B43574D4F44453D310D0A0000004F
:103D7000332E2041542B4357444843500D0A000032
:103D800041542B4357444843503D312C310D0A00D8
:103D9000342E2043574A41500D0A0000474F54200B
:103DA0004950000041542B43574A41503D224F4E49
:103DB000454E4554222C22494F54404368696E6158
:103DC0006D6F62696C65313233220D0A00000000AC
:103DD000352E204553503832363620496E697420CE
:103DE0004F4B0D0A0000000070B5064600F018FCAD
:103DF000056806F10B0020F00704B4429CBF0020C8
:103E000070BD2B466A68BAB11068A04210D304F1A5
:103E1000080188423CBF5068586007D351681019A8
:103E200041601168091B016058601460101D70BD6D
:103E300013465268002AE7D12146284600F0FCFBD1
:103E40000028DED170BD70B50446051F00F0E8FB08
:103E50000068002C14BF446870BD002C18BFAC4231
:103E60003CBF20466468F8D301680A18AA4218BF0C
:103E7000456003D12A68054611440160286841194C
:103E8000A1421CBF6C6070BD616869602168084414
:103E9000286070BD7CB51D4616460C00009001D010
:103EA0002044401E074B7B442A4669460190304619
:103EB00000F0B7FC05461CB10020694600F0C4FCC8
:103EC00028467CBDA90900000FB41CB5084B06AA02
:103ED0007B4469460090059800F0A3FC044600204E
:103EE000694600F0B1FC20461CBC5DF814FB0000E4
:103EF000750900000FB47CB50C0009AA009001D030
:103F00002044401E084B7B4469460190089800F00D
:103F100088FC05461CB10020694600F095FC284647
:103F20007CBC5DF814FB00004909000070B50C462C
:103F30000546012A05D02878800600D5EA690023C5
:103F400002E0012305E05B1C934202D2E05C002802
:103F5000F9D1A869E618C01AA861286A184428622D
:103F6000284600F0B3FB04E0D5E9012114F8010B69
:103F70009047B442F8D3284600F0BEFB70BD000065
:103F80002DE9F0410646002410687529314616A532
:103F900010D000F0C2FB002802DA404213A507E06F
:103FA00031688A0701D512A502E0490704D511A599
:103FB000012401E000F0BAFB00210A2206F12407E7
:103FC00009E0B0FBF2FCB0FBF2F302FB1C00303066
:103FD00078541846491C0028F3D123462A46304617
:103FE000BDE8F04100F0ABBB000000002D00000078
:103FF0002B000000200000002DE9F05F89460446F8
:104000004FF0000ADFF874B1FB44C0F820A020464E
:10401000E1688847002874D0252806D0D4E901211A
:104020009047206A401C2062F1E700265F46204648
:10403000E16888472028054607DB312D05D278192D
:1040400010F8200C08B10643F1E7B00701D526F0BF
:104050000406C4F81CA00027C4F818A02A2D09D013
:10406000284601F0EDFF38B304EB8708303DC8F86F
:10407000185019E059F8041B204604EB870291619F
:10408000E1688847012F054618D1E069002820DA49
:1040900026F020061DE0D8F8180000EB800005EBA4
:1040A00040003038C8F818002046E16888470546C7
:1040B00001F0C6FF0028EED1012F0AD02E2D08D125
:1040C0002046E16888477F1C0546022F46F02006FF
:1040D000C4DBA069002803DA404246F00106A06173
:1040E000F00701D026F010066C2D0BD0682D09D0FA
:1040F0004C2D39D06A2D35D0742D35D07A2D33D052
:1041000016E038E0E1682F4620468847B842054669
:1041100009D16C2F26D04FF48060E1680643204619
:104120008847054604E06C2F1AD04FF48070064390
:104130000DB3A5F14100192802D8203546F40066D8
:104140004A462946204626604E46FCF72BF880B1A9
:1041500001280BD0F61D26F0070000F1080956E7EC
:104160004020E4E78020D8E70020D6E706F10409E4
:104170004DE7284652E7206ABDE8F09F6021000025
:104180000FB400B58DB010A9099000910B904FF0BD
:10419000FF300A9000200C900648784406900648AC
:1041A00078446A4607900F9909A800F0A3FC0DB067
:1041B0005DF814FB770900008F0900002DE9FF5F0F
:1041C0001D464FF0FF3B91464FF000085F46D5E992
:1041D0000146A96901987F1C8847296A8246884759
:1041E0000028F6D1BAF1FF3F0CD0002E24F4C064B1
:1041F00019DD600614D5BAF12B0F09D0BAF12D0FD5
:104200000ED103E0584604B0BDE8F09F44F480644A
:10421000A96901987F1C8847761E8246002E02DD20
:10422000BAF1300F03D0B9F1000F26D032E0A969FE
:10423000761E01987F1C44F400748847002E824645
:1042400005DDBAF1780F06D0BAF1580F03D0B9F1F5
:10425000000F10D01EE0B9F1000F02D0B9F1100F1D
:1042600018D1A969761E01987F1C24F40074884730
:104270008246102002E0082000E00A20814609E082
:10428000A96908FB0908761E01987F1C44F4007494
:1042900088478246002E05DD4946504600F016FC50
:1042A0000028EDDAE96901988847A00502D46FF08B
:1042B0000100A8E7E00725D1600613D5600502D507
:1042C000C8F1000000E0404629680A1D2A6009681C
:1042D000220501D5087015E0220701D5088011E0FC
:1042E00008600FE02868011D29600068210502D5DB
:1042F00080F8008006E0210702D5A0F8008001E0E8
:10430000C0F8008038467EE72DE9FF5F4FF00008D7
:104310009946144646469169D2E901A7DDF838B0BE
:1043200001988847054659EA0B0005D009E0A169C4
:104330000198761C88470546216A28468847002848
:10434000F5D1681C03D05FEACA7005D015E04FF0C4
:10435000FF3004B0BDE8F09F2068011D2160D0F857
:1043600000800AE05FEACA7001D108F8015BA16928
:10437000761C01987F1E88470546002F1ADD681CB1
:1043800018D0B9F1000F0DD0E81705EBD06042113D
:1043900020F01F0059F822102A1A012090400142F3
:1043A000E0D107E0BBF1000FDCD12846216A884745
:1043B0000028D7D0E16901988847BBF1000F07D1E9
:1043C000002E05DD5FEACA7002D1002188F80010D6
:1043D000A068B84203DDBBF1000F03D017B16FF046
:1043E0000100B6E73046B4E770B5064600F01CF9A8
:1043F0000468054630460A22002100F0ABFB2C6021
:1044000070BD401ECAB210F8011F8A4202D00029B6
:10441000F9D10020704710B5431E13F8014F002C4E
:10442000FBD105E011F8014B002C03F8014B03D040
:10443000521EF7D20021197010BD30B505460B464B
:104440002A4613F8014B12F8010B08B1A042F8D02C
:104450001CB1002802D06D1CF1E7284630BD40EAAF
:104460000103024630B59B0710D14FF0013400E044
:1044700008C208C91D1B9D4315EAC41FF8D013F0DC
:10448000FF0102F8011B0DD01B0AF8E711F8013BF0
:10449000002B02F8013B05D011F8013B002B02F87C
:1044A000013BF3D130BD10B5431C02E010F8011BF5
:1044B00071B18107FAD14FF0013202C88C1A8C43D6
:1044C00014EAC211F9D0C01A0A0603D0C01E10BDEA
:1044D000C01A10BD0A0401D0801E10BD0902FCD014
:1044E000401E10BD421E12F8013F002BFBD111F8F7
:1044F000013B002B02F8013BF9D17047032A40F23F
:10450000308010F0030C00F0158011F8013BBCF175
:10451000020F624498BF11F801CB00F8013B38BF8D
:1045200011F8013BA2F1040298BF00F801CB38BF9B
:1045300000F8013B11F0030300F04483083AC0F097
:10454000088051F8043B083A51F804CBA0E8081061
:10455000F5E7121D5CBF51F8043B40F8043BAFF394
:104560000080D20724BF11F8013B11F801CB48BFEE
:1045700011F8012B24BF00F8013B00F801CB48BF24
:1045800000F8012B70474FF000020429C0F01280A0
:1045900010F0030C00F01B80CCF1040CBCF1020FF6
:1045A00018BF00F8012BA8BF20F8022BA1EB0C01CB
:1045B00000F00DB85FEAC17C24BF00F8012B00F8C1
:1045C000012B48BF00F8012B70474FF0000200B5E7
:1045D000134694469646203922BFA0E80C50A0E826
:1045E0000C50B1F12001BFF4F7AF090728BFA0E8D4
:1045F0000C5048BF0CC05DF804EB890028BF40F8A0
:10460000042B08BF704748BF20F8022B11F0804FE1
:1046100018BF00F8012B70477047704770470000C3
:104620000048704784020020004870477C02002048
:10463000704770477047704738B504460A460020F7
:104640006946AFF30080002808BF38BD02460099D4
:10465000204600F0F5FA012038BD012000F0A5BF8A
:10466000F8B5AFF30080054600200C46102000BFCF
:104670000646A819A0420DD9324669460020AFF37C
:104680000080070008BF00F090FF0098A04218BF0C
:104690000546C419FFF7C4FF05600746F01D20F06A
:1046A00007004619284600F00AF8B44208BFF8BDD2
:1046B000A21B31463868BDE8F84000F0C1BA0021BD
:1046C0000160C0E9011070471020704770B50446C2
:1046D00085690068C10601D5302600E02026C007A4
:1046E00007D070BDD4E9012130469047206A401CB4
:1046F00020626D1EF6D570BD70B5044685690078E0
:10470000C00707D170BDD4E9012120209047206A5D
:10471000401C20626D1EF6D570BD09684A0501D5A2
:1047200040B27047C905FCD500B2704709684A0518
:1047300001D5C0B27047C905FCD580B270472DE9DC
:10474000F0470D4699469246044600F12408016858
:10475000880604D5E06921F01001216000E0012005
:10476000A84201DD471B00E00027A1697A1902EB8E
:104770000900081AA0612078C00602D42046FFF77D
:10478000A5FF002608E0D4E901211AF806009047A9
:10479000206A401C761C20624E45F4DB2078C0065F
:1047A0000AD52046FFF792FF06E0D4E90121302028
:1047B0009047206A401C2062381EA7F10107F4DCF4
:1047C00007E0D4E9012118F805009047206A401C51
:1047D0002062281EA5F10105F3DC2046FFF78CFFBF
:1047E0002078000602D50220BDE8F0870120FBE713
:1047F00011680268006A530501D508700AE0D30504
:1048000001D5088006E0130603D5C217C1E90002EE
:1048100000E008600120704701694A1C02610878C5
:10482000704700B58FB0CDE90131002105910549F0
:104830007944CDE9031011466846FFF7DDFB0FB060
:1048400000BD0000E5FFFFFF0A6802F8010B0A60E7
:104850007047D1E900239A4202D2531C0B601070BA
:10486000704710B5436913B1AFF3008001E0FFF763
:104870005DFB012010BD127800F124010A700022B6
:104880004A700122EDE711684FF0FF32E9E70000BE
:104890002DE9FF5F15468A460446DFF8AC80F844F0
:1048A0000027D8E900103E46CDE9001010E03AF8A4
:1048B00016106A4602A800F058FE411C07D0217865
:1048C000890603D5E269391891420DD80744761C50
:1048D0002078800602D5E069B84205DDAE42E6DB0D
:1048E0003AF816000028E2D1A069C01BA06120465A
:1048F000FFF7ECFED8E90010CDE90010002017E02A
:104900003AF818106A4602A800F02FFEB0F1FF3FF7
:1049100081460BD000250DF1080B05E0D4E90121FB
:104920001BF8050090476D1C4D45F7D308F10100B9
:10493000B0428046E4DB206A384420622046FFF71C
:10494000DBFEBDE8FF9F0000DE1800002DE9F0410E
:104950008046D21D22F007020025D2E90002F52987
:1049600015A614D0011E72F1000106DA0023D0EB67
:10497000030063EB020211A608E0D8F800108B07D1
:1049800001D50FA602E0490701D50EA60125114663
:10499000002408F1240704E000F06CF930323A55A5
:1049A000641C50EA0102F7D12B46324621464046AC
:1049B000BDE8F041FFF7C3BE000000002D0000007D
:1049C0002B0000002000000030B4002100F124047E
:1049D00008E002F00705D208303542EA4372DB08EE
:1049E0006554491C52EA0305F3D10468002310A260
:1049F000250708D504F020040C4304D0C469012322
:104A00000CA2641EC46130BCFFF799BE10B5044609
:104A100021461068FFF78AFE02462046BDE8104096
:104A20000023D1E7D21D22F00701D1E90023CBE713
:104A30000000000030000000F0B40D4601880905B8
:104A400002D5214C7C4402E01F4C7C440E340021F2
:104A500000F1240608E002F00F071209E75D42EAC0
:104A600003721B097754491C52EA0307F3D10278F9
:104A70000023120704D5702D06D009B1022311348A
:104A80002246F0BCFFF75BBE01231034F8E770B597
:104A900004460D4621461068FFF748FE02462946A7
:104AA0002046BDE870400023C6E7D21D22F0070370
:104AB000D3E90023C0E70368126843F020030360D2
:104AC0000823C3610023B7E7401700003A2800D24B
:104AD000303820F02002412A01D3A2F13700884269
:104AE00001D34FF0FF307047026811441378016022
:104AF00018467047D16005497944516104497944A9
:104B0000116200211161114600F026BBEDFFFFFF8D
:104B1000FD010000426842B1016811F8013B23B178
:104B2000521EC0E90012184670470121C160881E5C
:104B3000704742685AB1C368016843B983688B42C1
:104B400005D0491E521CC0E90012002070474FF0EA
:104B5000FF3070472DE9F04791460F4680460446E6
:104B6000002614F8015B2DB100F062F80068405D8A
:104B7000C007F6D12B2D02D02D2D18D0641E4A4629
:104B80003946204600F0A2FC27B13968A14201D184
:104B9000C7F800804FF0020471050BD54042002891
:104BA00003DDFFF741FD0460A007BDE8F08746F490
:104BB0008066E4E70028F8DAFFF736FD04606FF05E
:104BC0000040F2E710B5203AC0F00B80B1E8185071
:104BD000203AA0E81850B1E81850A0E81850BFF4E7
:104BE000F5AF5FEA027C24BFB1E81850A0E8185086
:104BF00044BF18C918C0BDE810405FEA827C24BFDA
:104C000051F8043B40F8043B08BF7047D20728BF67
:104C100031F8023B48BF11F8012B28BF20F8023BB6
:104C200048BF00F8012B7047004870477C02002005
:104C300010B500F0E7FC001D10BD00BF151400000A
:104C4000034640688C46002818BF88423CBF034694
:104C50004068F8D318681844884207D00CF1030064
:104C600020F00700001D411A521A0146081D0A6073
:104C7000FFF7E9B830B5B0F10A024FEA900E71F1D2
:104C800000034EEA817EB0EB0E0061EB91014FEA2A
:104C9000101E4EEA017E10EB0E0041EB11114FEA9F
:104CA000102E4EEA016E10EB0E0041EB11214FEA7F
:104CB000104E4EEA014E10EB0E0041EB1141401830
:104CC00041F100014FEAD00040EA41704FEAD101C2
:104CD00010EB80054FEA810444EA907444EB010430
:104CE0006D1944EB0404521BA3414FF0000348BF6D
:104CF0000A3200D530BD401C41F1000130BD10B575
:104D00000446FFF795FF0068005D00F0010010BD4C
:104D100070472DE9FF4F0C461E464FF0FF378BB012
:104D2000D2E90001DDF860800A908A46C1F30A5595
:104D300005B93D46002108464FF00000BAF1000FCA
:104D400000F4400005DA00EB80004FF4400101EA76
:104D500050004FEA9059B9F1010F00DDB9460A98A9
:104D600050EA4A000ED044F61050A5F2FF354543F4
:104D70002F14B8F1000F1ED07542291E1EDDC9F197
:104D800000021CE0B8F1010F4FF0000001D030210B
:104D900003E0F24305E02154401CB042FBDB304607
:104DA0000022002121540B99C1F80880C1E900209C
:104DB0000FB0BDE8F08FBD1B6D1CDEE74A4600DA80
:104DC000694206A800F062FC06AB93E8070003AB5B
:104DD00083E8070050460A9900F063FD8DE807005C
:104DE000A0F500501F3800900398002D09DD42F215
:104DF0001F014A46084403A90390684600F0C2FF19
:104E000008E0A0F500504A461F3803A90390684601
:104E100000F0CCFF8DE807000004000C03D04FF039
:104E2000FF30410800E01046B8F1000F03D0002227
:104E3000009215461EE0751E05D4FFF71BFF3032A9
:104E400062556D1EF9D5B3460122084302D00022F7
:104E50007F1C04E02078302801D100227F1E002A28
:104E6000099786D01DE0112D07DAFFF703FF3032D6
:104E700062556D1C50EA0102F5D1084302D000983A
:104E8000C8B10EE00021681E05E0235C625C63543B
:104E90002254401E491C8142F7DBAB46A81B401E32
:104EA0000990002004F80B000B98099AC0F80880BC
:104EB000C0E9002B7CE711264FF0000859E72DE9E7
:104EC000F04F88460446D21D22F0070191B0D1E987
:104ED0000001CDE90A0101F09FF802460B98C00FCE
:104EE00001D02D2007E02068810701D52B2002E0AA
:104EF000202101EAC000032A099001D0072A05DB1E
:104F000003464146204600F081FB0BE120788006F5
:104F100001D5E06900E00620B8F1650F814606D0B2
:104F2000B8F1660F18D0B8F1670F70D131E00020EA
:104F3000B9F1110F009001DB112301E009F1010328
:104F40000AAA01A90CA8FFF7E4FEDDE90C7000260F
:104F500009F10105834647E001204B4600904FF0E0
:104F600000470AAA01A90CA8FFF7D3FEDDE90DB09E
:104F70000C995D46002610B909F101000D18B9EB36
:104F8000050003D4C0F1FF3609F10105A5EB0900C6
:104F90002BE0B9F1010F01DA4FF001090020B9F15E
:104FA000110F0090484601DD112300E003460AAAD4
:104FB00001A90CA8FFF7ADFEDDE90C704D460026F7
:104FC0008346207800070AD4AB4500DA5D4601A885
:104FD000012D04DD411911F8011C302907D04F457E
:104FE00002DA17F1040F04DA012082460FE06D1E89
:104FF000EEE7002F02DCED1B3E4403E0781CA842E4
:1050000000DD7D1CB81B00F1010A4FF0004720783D
:10501000000703D4AA4501DB4FF0FF3A0021B7F1A6
:10502000004F0DF143088DF8431024D002202B23AC
:10503000002F01DA7F422D230A21021EA0F1010078
:1050400000DC5FB197FBF1FC97FBF1F201FB1C7CEC
:1050500017460CF1300C08F801CDEEE7A8F101007D
:1050600003702188090501D5452100E06521A0F1E3
:10507000010800F8011C09980FA9A1EB0807FF1D02
:1050800000B10120411901EBEA70A1693844081A06
:10509000401EA0612078C00602D42046FFF716FB10
:1050A000099828B1D4E901219047206A401C206268
:1050B0002078C00622D52046FFF708FB1EE0002E10
:1050C00004DBB34502DD01A8805D00E03020D4E9B7
:1050D00001219047206A401C2062761CAAF1010041
:1050E0005FEA000A0AD100F08DFAC0680168405CEE
:1050F000D4E901219047206A401C2062281EA5F1B6
:105100000105DCDC07E0D4E9012118F8010B904728
:10511000206A401C2062381EA7F10107F3DC2046FC
:10512000FFF7EAFA032011B043E610B5436913B163
:10513000AFF3008001E0FFF7ABFB012010BD128848
:1051400000F1240182840022C2840122EDE711686B
:105150004FF0FF32E9E700002DE9F34F4FF0000A6E
:105160000C4656468DB001200C9001F10C000B90BE
:1051700062690B9801219047051E2DD0252D2CD05A
:10518000216A8847C0B162690B9801219047216A62
:1051900088470028F7D16269411E0B98904700E0CC
:1051A000761CA1690D988847216A88470028F7D1A5
:1051B000E1690D988847DBE7A1690D988847A84207
:1051C000074601D1761CD3E7E1690D9888477F1C1B
:1051D00002D1BAF1000F6FD06BE162690B98002722
:1051E0003D46394690472A2804D162690B9801212F
:1051F00090470125DFF8D08262690B980121904722
:10520000A0F130010A290AD24745E5DC07EB870106
:1052100000EB4107303FDFD445F01005ECE7E9062D
:1052200001D46FF000476C280AD04C2814D06828AD
:1052300015D06A280DD074281CD07A281AD01DE009
:1052400062690B98012190476C2802D045F0040553
:1052500014E045F002050DE045F020050AE0626922
:105260000B9801219047682802D045F0080505E019
:1052700045F4006562690B9801219047C4E9015724
:1052800065283DD019DC58287AD00CDC452837D069
:1052900004DC252826D041289ED131E046282FD095
:1052A000472899D12CE05B2877D0612828D0632843
:1052B0007CD0642823D15AE0F6E06F2848D008DC7F
:1052C00066281DD067281BD0692821D06E2816D1EA
:1052D00027E0702845D0732868D0752847D07828F3
:1052E0000DD14DE0A1690D988847252805463FF46A
:1052F00069AFE1690D9888476D1C3FF46AAFD8E04B
:105300000D9923466A466FF00100AFF30080C5E0B7
:1053100045F0400023464FF000026060A80736D4F5
:105320003EE0E8077FF447AF2068011D2160006878
:10533000290501D506701BE7290701D5068017E767
:10534000A90703D5F117C0E9006111E706600FE76F
:1053500045F0400023464FF008026060A80716D4CD
:105360001EE040F60E0125EA0100606016E045F0FF
:10537000400023464FF00A026060A80707D40FE000
:1053800045F040006060A80708D5234610220D991B
:105390006FF00100AFF3008080E007E010222346A9
:1053A0000D996FF00100FEF709FF77E04FF000095B
:1053B00063284F46C8464B46CB4602D05B2806D0F2
:1053C00038E0E80601D40120A060012732E06269DC
:1053D000D4F80CB00B98012190475E2807D14FF00C
:1053E000010949466269D4F80CB00B9890472169CD
:1053F00039B900210A4603AB43F82120491C08298A
:10540000FADBD8B3216949B308F1010862690B9846
:10541000012190475D28F4D1B9F1000F09D0002097
:1054200003A951F82020D24341F82020401C08282D
:10543000F7DB03AB2069002820794FEA40701ED0CB
:105440005B462246CDF80080CDE901970D990028F2
:105450006FF0010020DAAFF300801FE0C11703AA4C
:1054600000EBD1614B1121F01F0102EB8302411AC5
:1054700013680120884003431360C7E719E00D99C2
:10548000224600286FF00100009702DAAFF3008097
:1054900004E0FEF739FF01E0AFF3008000280ADAEC
:1054A000401C06D10C9820B14FF0FF300FB0BDE882
:1054B000F08F5046FAE7E90701D10AF1010A0644E4
:1054C00000200C9054E60000CCCCCC0C2DE9F05F11
:1054D000824615468B4600270AF10104B94600783A
:1054E000302801D09DB113E014F8010B0127782872
:1054F00003D0582801D045B10AE00DB1102D07D1D5
:10550000002714F8010B102502E0082500E00A2509
:105510000026B0460EE005FB080005FB06F101275A
:105520001FFA80F801EB1046B6F5803F00D3B9466C
:1055300014F8010B2946FFF7C9FA0028EBDABBF192
:10554000000F05D00FB1641E00E05446CBF80040B8
:10555000B9F1000F06D0FFF767F802210160C81EFD
:10556000BDE8F09F48EA0640FAE770B516460C46DB
:105570000546FFF75DFB036893F80101012806D09B
:10558000FF2C0FD8185D68B101202C7070BDD3F8C6
:1055900007013246214603F2071303442846BDE8BB
:1055A000704018474FF0FF3070BD10B500F0EAF8BA
:1055B000BDE8104000F0E1B870477546FFF734FBD6
:1055C000AE4605006946534620F00700854618B0F0
:1055D00020B5FAF7F1FFBDE820404FF000064FF08C
:1055E00000074FF000084FF0000B21F00701AC4618
:1055F000ACE8C009ACE8C009ACE8C009ACE8C00937
:105600008D467047004870479C0200202DE9F0410C
:105610001F46044603260168072A01F4006004DBE4
:1056200008B116A505E016A503E008B115A500E030
:1056300015A521F010002060A069C01EA0610FB167
:10564000401EA0612046FFF741F84FB1D4E9012187
:1056500038469047206A401C2062C01C206206E049
:10566000206AFAE7D4E9012115F8010B9047761E6C
:10567000F8D22046FFF740F8BDE8F0814E414E00D9
:105680006E616E00494E4600696E66002DE9F04776
:10569000814616468AB0334878440DC88DE80D001F
:1056A00030487844801C03AC0DC884E80D0041F6F6
:1056B0009B300844372190FBF1F290FBF1F5A5F106
:1056C000800501FB12041B3C02D56442012000E06E
:1056D0000020DFF890A080460027FA44AAF1BE0A15
:1056E0000DE0E00709D03246684607EB47010AEBB8
:1056F000810100F05BFB8DE8070064107F1C002C2B
:10570000EFD1184F7F44AC3F18E0E80714D007EB07
:1057100004100DF1180A90E80E008AE80E00C06827
:10572000F04201D198190890324606A903A800F06A
:105730003DFB03AB83E807006D10641C002DE4D132
:1057400032466946B8F1000F03A802D000F01AFBF8
:1057500001E000F02BFBC9E90001C9F808200AB0FC
:10576000BDE8F087900B000010B50446AFF3008051
:105770002046BDE81040FAF77CBD002801D000F0BB
:1057800029B8704710B5012805D0002103A000F00A
:1057900027F8012010BD09A1F8E70000534947523E
:1057A000544D454D3A204F7574206F6620686561F1
:1057B00070206D656D6F7279000000003A204865B9
:1057C0006170206D656D6F727920636F7272757094
:1057D0007465640001491820ABBEFEE72600020094
:1057E00070B505460C460A2000E06D1C00F052F82A
:1057F00035B128780028F8D102E0641C00F04AF89E
:1058000014B120780028F8D1BDE870400A2000F0DB
:1058100041B800004FF0013C50F8042B51F8043B14
:105820009A4221D1A2EB0C03934313EACC1317D174
:1058300050F8042B51F8043B9A4215D1A2EB0C030B
:10584000934313EACC130BD150F8042B51F8043BCB
:105850009A4209D1A2EB0C03934313EACC13DBD099
:105860004FF00000704700BFD01A01BAB1FA81F1C1
:1058700001F0180122FA01F0CB40C1F12001DBB2A6
:10588000C0B2C01A2CFA01F3D11A914311EAC31124
:10589000E6D1704708B569468DF800000320ABBE1D
:1058A00008BD5FEA400C08BF91F0000F4FEA8C235F
:1058B0004FEAC12243EA51514FEA1C5018BF00F58C
:1058C000F0404FEA300018BF41F000415FEA6C5CE5
:1058D00000F02980BCF1FF3F08BF40F080407047D6
:1058E000130C06BF12044FF0100C4FF0000C130EF7
:1058F00004BF12020CF1080C130F04BF12010CF1CB
:10590000040C930F04BF92000CF1020CD30F04BFE0
:1059100052000CF1010C11464FF00002A0F11F00E3
:10592000A0EB0C00704711F0004F08BF704731F03A
:1059300000413FF4D5AF0B0C06BF09044FF0100C2B
:105940004FF0000C0B0E04BF09020CF1080C0B0FFA
:1059500004BF09010CF1040C8B0F04BF89000CF18A
:10596000020CCB0F04BF49000CF1010CCCF1200359
:10597000A0EB0C0022FA03F302FA0CF241EA030155
:1059800000F10100704720F07F4C80EA030023F013
:105990007F47ACEB070303F57C5300F0004003F1B5
:1059A000FF032DE980494FEA154B09B44FEA144330
:1059B00025EA0B4E24EA03480FF2042606EB1327D0
:1059C00049083E785FEA320203FB0667C7F5000725
:1059D00007FB06F64FEA54374FEAD64606F10206B1
:1059E00007FB066CCCF1005C4FEA1C472CEA074C25
:1059F00007FB06F40CFB06F504EB15464FEA96167A
:105A000034BF00204FF000404FEAD13706FB07FCBF
:105A10004FEA1C4C0CFB0BF7D21B03FB0CF761EBA2
:105A200007010CFB0EF7B0EB074072EB17420CFBC3
:105A300008F734BFA2EB0742B2EB074261EB174114
:105A40004FEA0C444FEA910706FB07FC4FEA1C4C57
:105A50000CFB0BF7B0EBC74072EB573203FB0CF7B4
:105A600034BFA2EBC742B2EBC74261EB57310CFB2C
:105A70000EF7B0EBC70072EB57720CFB08F734BFA0
:105A8000A2EBC702B2EBC70261EB5771039F4FEA6B
:105A9000816141EA921104EBCC044FEAD1374FEA1D
:105AA000826206FB07FC42EA90124FEA80604FEAEE
:105AB0001C4C0CFB0BF7D21B03FB0CF761EB070133
:105AC0000CFB0EF7B0EB074072EB17420CFB08F72C
:105AD00034BFA2EB0742B2EB074261EB17414FEA3A
