:020000040800F2
:100000000809002081020008892600083122000822
:100010003D260008391C00082531000800000000BA
:10002000000000000000000000000000832C000819
:10003000851C000800000000970200086D2D0008D4
:100040009B0200089B0200089B0200083D2A000852
:100050009B0200089B020008652000089B02000824
:100060009B0200089B0200089B0200089B020008FC
:100070009B0200089B0200089B0200089B020008EC
:100080009B0200089B0200089B0200089B020008DC
:100090009B0200089B0200089B0200089B020008CC
:1000A0009B0200089B0200089B0200089B020008BC
:1000B0009B0200089B0200089B0200089B020008AC
:1000C0009B0200089B0200089B0200089B0200089C
:1000D0009B020008F92E0008152F00089B0200085B
:1000E0009B0200089B0200089B0200089B0200087C
:1000F0009B0200089B0200089B0200089B0200086C
:100100009B0200089B0200089B0200089B0200085B
:100110009B0200089B0200089B0200089B0200084B
:100120009B0200089B0200089B0200089B0200083B
:1001300000F002F800F094F80AA090E8000C824465
:100140008344AAF10107DA4501D100F089F8AFF242
:10015000090EBAE80F0013F0010F18BFFB1A43F0A5
:1001600001031847B03B0000D03B0000103A24BF09
:1001700078C878C1FAD8520724BF30C830C144BF0C
:1001800004680C607047000000230024002500264E
:10019000103A28BF78C1FBD8520728BF30C148BFEA
:1001A0000B6070476E2900F09B83702900F0FB8480
:1001B000662903F04185652903F03E85672903F030
:1001C0003B856129AFF3008003681B0A28BF41F01B
:1001D0008001692900F04081642900F03D81752982
:1001E00000F03A816F2900F08984782900F0C784F3
:1001F000E92900F02384E42900F02084F52900F0A7
:100200001D84EF2900F08684F82900F0C684036875
:10021000DB0928BF41F08001632900F0A483732922
:1002200000F0A983E32900F06B87F32900F07087C1
:10023000002070471FB59DE8030000F089FA00F028
:10024000C1FF04000020002103F0F2F8401C6060B0
:100250000020002103F0D6F8E0601FBD10B510BDEE
:1002600000F082FF1146FFF7E5FF03F089F801F087
:100270005BF803B4FFF7F2FF03BC01F08BF800005A
:100280000948804709480047FEE7FEE7FEE7FEE72A
:10029000FEE7FEE7FEE7FEE7FEE7FEE70448054966
:1002A000054A064B70470000712D00083101000817
:1002B000080100200809002008050020080500208A
:1002C00070B5064600F028FA056806F10B0020F02C
:1002D0000704B4429CBF002070BD2B466A68BAB1C7
:1002E0001068A04210D304F1080188423CBF506856
:1002F000586007D35168101941601168091B0160EB
:1003000058601460101D70BD13465268002AE7D172
:100310002146284600F008FA0028DED170BD70B5ED
:100320000446051F00F0F8F90068002C14BF44686B
:1003300070BD002C18BFAC423CBF20466468F8D3A7
:1003400001680A18AA4218BF456003D12A68054609
:100350001144016028684119A1421CBF6C6070BD46
:100360006168696021680844286070BD7CB51D46DD
:1003700016460C00009001D02044401E074B7B44E1
:100380002A4669460190304600F0C3FA05461CB182
:100390000020694600F0D0FA28467CBDC105000067
:1003A0000FB41CB5084B06AA7B446946009005981B
:1003B00000F0AFFA04460020694600F0BDFA20467E
:1003C0001CBC5DF814FB00008D0500000FB47CB56B
:1003D0000C0009AA009001D02044401E084B7B4429
:1003E00069460190089800F094FA05461CB1002077
:1003F000694600F0A1FA28467CBC5DF814FB0000B9
:100400006105000070B50C460546012A05D0287824
:10041000800600D5EA69002302E0012305E05B1CA9
:10042000934202D2E05C0028F9D1A869E618C01A0C
:10043000A861286A18442862284600F0BFF904E041
:10044000D5E9012114F8010B9047B442F8D32846AE
:1004500000F0CAF970BD00002DE9F0410646002405
:1004600010687529314616A510D000F0CEF9002885
:1004700002DA404213A507E031688A0701D512A5C8
:1004800002E0490704D511A5012401E000F0C6F9F6
:1004900000210A2206F1240709E0B0FBF2FCB0FBC0
:1004A000F2F302FB1C00303078541846491C002837
:1004B000F3D123462A463046BDE8F04100F0B7B9F3
:1004C000000000002D0000002B00000020000000B4
:1004D0002DE9F05F894604464FF0000ADFF874B159
:1004E000FB44C0F820A02046E1688847002874D06B
:1004F000252806D0D4E901219047206A401C2062BB
:10050000F1E700265F462046E16888472028054637
:1005100007DB312D05D2781910F8200C08B10643FD
:10052000F1E7B00701D526F00406C4F81CA00027A7
:10053000C4F818A02A2D09D0284602F01AFF38B3B3
:1005400004EB8708303DC8F8185019E059F8041B2F
:10055000204604EB87029161E1688847012F054638
:1005600018D1E069002820DA26F020061DE0D8F82E
:10057000180000EB800005EB40003038C8F8180088
:100580002046E1688847054602F0F3FE0028EED1D8
:10059000012F0AD02E2D08D12046E16888477F1C04
:1005A0000546022F46F02006C4DBA069002803DAC6
:1005B000404246F00106A061F00701D026F0100687
:1005C0006C2D0BD0682D09D04C2D39D06A2D35D02B
:1005D000742D35D07A2D33D016E038E0E1682F46FF
:1005E00020468847B842054609D16C2F26D04FF4E3
:1005F0008060E168064320468847054604E06C2F8A
:100600001AD04FF4807006430DB3A5F141001928AC
:1006100002D8203546F400664A4629462046266020
:100620004E46FFF7BFFD80B101280BD0F61D26F026
:10063000070000F1080956E74020E4E78020D8E7EA
:100640000020D6E706F104094DE7284652E7206A64
:10065000BDE8F09F58370000401ECAB210F8011FD5
:100660008A4202D00029F9D10020704730B50546F2
:100670000B462A4613F8014B12F8010B08B1A042B1
:10068000F8D01CB1002802D06D1CF1E7284630BD1F
:1006900010B5431C02E010F8011B71B18107FAD1BB
:1006A0004FF0013202C88C1A8C4314EAC211F9D0FF
:1006B000C01A0A0603D0C01E10BDC01A10BD0A041D
:1006C00001D0801E10BD0902FCD0401E10BD4FF0AD
:1006D00000020429C0F0128010F0030C00F07082B8
:1006E000CCF1040CBCF1020F18BF00F8012BA8BF1D
:1006F00020F8022BA1EB0C0100F062BA5FEAC17C8A
:1007000024BF00F8012B00F8012B48BF00F8012B93
:10071000704770477047704700487047B00000202E
:10072000704770477047704738B504460A46002046
:100730006946AFF30080002808BF38BD0246009923
:10074000204600F067FA012038BD012000F004BD0A
:10075000F8B5AFF30080054600200C46102000BF1E
:100760000646A819A0420DD9324669460020AFF3CB
:100770000080070008BF00F0EFFC0098A04218BFFF
:100780000546C419FFF7C8FF05600746F01D20F0B5
:1007900007004619284600F00AF8B44208BFF8BD21
:1007A000A21B31463868BDE8F84000F033BA00219A
:1007B0000160C0E9011070471020704770B5044611
:1007C00085690068C10601D5302600E02026C007F3
:1007D00007D070BDD4E9012130469047206A401C03
:1007E00020626D1EF6D570BD70B50446856900782F
:1007F000C00707D170BDD4E9012120209047206AAD
:10080000401C20626D1EF6D570BD09684A0501D5F1
:1008100040B27047C905FCD500B2704709684A0567
:1008200001D5C0B27047C905FCD580B270472DE92B
:10083000F0470D4699469246044600F124080168A7
:10084000880604D5E06921F01001216000E0012054
:10085000A84201DD471B00E00027A1697A1902EBDD
:100860000900081AA0612078C00602D42046FFF7CC
:10087000A5FF002608E0D4E901211AF806009047F8
:10088000206A401C761C20624E45F4DB2078C006AE
:100890000AD52046FFF792FF06E0D4E90121302077
:1008A0009047206A401C2062381EA7F10107F4DC43
:1008B00007E0D4E9012118F805009047206A401CA0
:1008C0002062281EA5F10105F3DC2046FFF78CFF0E
:1008D0002078000602D50220BDE8F0870120FBE762
:1008E00011680268006A530501D508700AE0D30553
:1008F00001D5088006E0130603D5C217C1E900023E
:1009000000E008600120704701694A1C0261087814
:10091000704700B58FB0CDE901310021059105493F
:100920007944CDE9031011466846FFF7D1FD0FB0B9
:1009300000BD0000E5FFFFFF0A6802F8010B0A6036
:100940007047D1E900239A4202D2531C0B60107009
:10095000704710B5436913B1AFF3008001E0FFF7B2
:1009600051FD012010BD127800F124010A7000220F
:100970004A700122EDE711684FF0FF32E9E700000D
:100980002DE9FF5F15468A460446DFF8AC80F8443F
:100990000027D8E900103E46CDE9001010E03AF8F3
:1009A00016106A4602A800F0B7FB411C07D0217858
:1009B000890603D5E269391891420DD80744761C9F
:1009C0002078800602D5E069B84205DDAE42E6DB5C
:1009D0003AF816000028E2D1A069C01BA0612046A9
:1009E000FFF7ECFED8E90010CDE90010002017E079
:1009F0003AF818106A4602A800F08EFBB0F1FF3FEB
:100A000081460BD000250DF1080B05E0D4E901214A
:100A10001BF8050090476D1C4D45F7D308F1010008
:100A2000B0428046E4DB206A384420622046FFF76B
:100A3000DBFEBDE8FF9F0000BE3200002DE9F04163
:100A40008046D21D22F007020025D2E90002F529D6
:100A500015A614D0011E72F1000106DA0023D0EBB6
:100A6000030063EB020211A608E0D8F800108B0720
:100A700001D50FA602E0490701D50EA601251146B2
:100A8000002408F1240704E000F0DEF830323A5583
:100A9000641C50EA0102F7D12B46324621464046FB
:100AA000BDE8F041FFF7C3BE000000002D000000CC
:100AB0002B0000002000000030B4002100F12404CD
:100AC00008E002F00705D208303542EA4372DB083D
:100AD0006554491C52EA0305F3D10468002310A2AF
:100AE000250708D504F020040C4304D0C469012371
:100AF0000CA2641EC46130BCFFF799BE10B5044659
:100B000021461068FFF78AFE02462046BDE81040E5
:100B10000023D1E7D21D22F00701D1E90023CBE762
:100B20000000000030000000F0B40D460188090507
:100B300002D5214C7C4402E01F4C7C440E34002141
:100B400000F1240608E002F00F071209E75D42EA0F
:100B500003721B097754491C52EA0307F3D1027848
:100B60000023120704D5702D06D009B102231134D9
:100B70002246F0BCFFF75BBE01231034F8E770B5E6
:100B800004460D4621461068FFF748FE02462946F6
:100B90002046BDE870400023C6E7D21D22F00703BF
:100BA000D3E90023C0E70368126843F02003036021
:100BB0000823C3610023B7E7203100004FF0000293
:100BC00000B5134694469646203922BFA0E80C5043
:100BD000A0E80C50B1F12001BFF4F7AF090728BF1E
:100BE000A0E80C5048BF0CC05DF804EB890028BF9A
:100BF00040F8042B08BF704748BF20F8022B11F0C3
:100C0000804F18BF00F8012B704700000048704764
:100C1000A8000020034640688C46002818BF884280
:100C20003CBF03464068F8D318681844884207D090
:100C30000CF1030020F00700001D411A521A014672
:100C4000081D0A60FFF76BBB30B5B0F10A024FEA2E
:100C5000900E71F100034EEA817EB0EB0E0061EB65
:100C600091014FEA101E4EEA017E10EB0E0041EB9F
:100C700011114FEA102E4EEA016E10EB0E0041EBFF
:100C800011214FEA104E4EEA014E10EB0E0041EBDF
:100C90001141401841F100014FEAD00040EA417093
:100CA0004FEAD10110EB80054FEA810444EA9074C9
:100CB00044EB01046D1944EB0404521BA3414FF0B3
:100CC000000348BF0A3200D530BD401C41F100018D
:100CD00030BD70472DE9FF4F0C461E464FF0FF37E1
:100CE0008BB0D2E90001DDF860800A908A46C1F33A
:100CF0000A5505B93D46002108464FF00000BAF1FB
:100D0000000F00F4400005DA00EB80004FF44001D2
:100D100001EA50004FEA9059B9F1010F00DDB946E0
:100D20000A9850EA4A000ED044F61050A5F2FF355A
:100D300045432F14B8F1000F1ED07542291E1EDD49
:100D4000C9F100021CE0B8F1010F4FF0000001D022
:100D5000302103E0F24305E02154401CB042FBDBAC
:100D600030460022002121540B99C1F80880C1E9C6
:100D700000200FB0BDE8F08FBD1B6D1CDEE74A46BA
:100D800000DA694206A800F061FA06AB93E80700B2
:100D900003AB83E8070050460A9900F062FB8DE838
:100DA0000700A0F500501F3800900398002D09DDC2
:100DB00042F21F014A46084403A90390684600F026
:100DC000C1FD08E0A0F500504A461F3803A9039072
:100DD000684600F0CBFD8DE807000004000C03D04E
:100DE0004FF0FF30410800E01046B8F1000F03D08B
:100DF0000022009215461EE0751E05D4FFF724FF61
:100E0000303262556D1EF9D5B3460122084302D037
:100E100000227F1C04E02078302801D100227F1EB0
:100E2000002A099786D01DE0112D07DAFFF70CFF85
:100E3000303262556D1C50EA0102F5D1084302D0F0
:100E40000098C8B10EE00021681E05E0235C625CDA
:100E500063542254401E491C8142F7DBAB46A81B59
:100E6000401E0990002004F80B000B98099AC0F866
:100E70000880C0E9002B7CE711264FF0000859E7F5
:100E80002DE9F04F88460446D21D22F0070191B0AB
:100E9000D1E90001CDE90A0102F057FA02460B98A8
:100EA000C00F01D02D2007E02068810701D52B203D
:100EB00002E0202101EAC000032A099001D0072A9C
:100EC00005DB03464146204600F080F90BE120781F
:100ED000800601D5E06900E00620B8F1650F814683
:100EE00006D0B8F1660F18D0B8F1670F70D131E0B5
:100EF0000020B9F1110F009001DB112301E009F18D
:100F000001030AAA01A90CA8FFF7E4FEDDE90C70B1
:100F1000002609F10105834647E001204B46009079
:100F20004FF000470AAA01A90CA8FFF7D3FEDDE99C
:100F30000DB00C995D46002610B909F101000D189D
:100F4000B9EB050003D4C0F1FF3609F10105A5EBAB
:100F500009002BE0B9F1010F01DA4FF0010900207F
:100F6000B9F1110F0090484601DD112300E003465E
:100F70000AAA01A90CA8FFF7ADFEDDE90C704D46E9
:100F800000268346207800070AD4AB4500DA5D4688
:100F900001A8012D04DD411911F8011C302907D0E9
:100FA0004F4502DA17F1040F04DA012082460FE000
:100FB0006D1EEEE7002F02DCED1B3E4403E0781CC3
:100FC000A84200DD7D1CB81B00F1010A4FF000476C
:100FD0002078000703D4AA4501DB4FF0FF3A002137
:100FE000B7F1004F0DF143088DF8431024D00220D3
:100FF0002B23002F01DA7F422D230A21021EA0F1AC
:10100000010000DC5FB197FBF1FC97FBF1F201FB03
:101010001C7C17460CF1300C08F801CDEEE7A8F166
:10102000010003702188090501D5452100E06521F3
:10103000A0F1010800F8011C09980FA9A1EB08070D
:10104000FF1D00B10120411901EBEA70A16938448C
:10105000081A401EA0612078C00602D42046FFF77F
:10106000ADFB099828B1D4E901219047206A401CC2
:1010700020622078C00622D52046FFF79FFB1EE0A5
:10108000002E04DBB34502DD01A8805D00E03020C6
:10109000D4E901219047206A401C2062761CAAF105
:1010A00001005FEA000A0AD100F08CF8C06801680C
:1010B000405CD4E901219047206A401C2062281E30
:1010C000A5F10105DCDC07E0D4E9012118F8010BEA
:1010D0009047206A401C2062381EA7F10107F3DC0C
:1010E0002046FFF781FB032011B043E610B54369AA
:1010F00013B1AFF3008001E0FFF742FC012010BD07
:10110000128800F1240182840022C2840122EDE7CA
:1011100011684FF0FF32E9E770B516460C460546F8
:1011200000F048F8036893F80101012806D0FF2C6D
:101130000FD8185D68B101202C7070BDD3F807017D
:101140003246214603F2071303442846BDE87040A7
:1011500018474FF0FF3070BD10B500F0F3F8BDE850
:10116000104000F0EAB870477546FFF74FFDAE46F5
:1011700005006946534620F00700854618B020B5A3
:10118000FFF78CF8BDE820404FF000064FF0000755
:101190004FF000084FF0000B21F00701AC46ACE81F
:1011A000C009ACE8C009ACE8C009ACE8C0098D468C
:1011B0007047000010B500F005F8001D10BD00BF1D
:1011C0007122000000487047C80000202DE9F0415E
:1011D0001F46044603260168072A01F4006004DB69
:1011E00008B116A505E016A503E008B115A500E0B5
:1011F00015A521F010002060A069C01EA0610FB1EC
:10120000401EA0612046FFF7D9FA4FB1D4E9012171
:1012100038469047206A401C2062C01C206206E0CD
:10122000206AFAE7D4E9012115F8010B9047761EF0
:10123000F8D22046FFF7D8FABDE8F0814E414E00C3
:101240006E616E00494E4600696E66002DE9F047FA
:10125000814616468AB0334878440DC88DE80D00A3
:1012600030487844801C03AC0DC884E80D0041F67A
:101270009B300844372190FBF1F290FBF1F5A5F18A
:10128000800501FB12041B3C02D56442012000E0F2
:101290000020DFF890A080460027FA44AAF1BE0A99
:1012A0000DE0E00709D03246684607EB47010AEB3C
:1012B000810100F05BFB8DE8070064107F1C002CAF
:1012C000EFD1184F7F44AC3F18E0E80714D007EB8C
:1012D00004100DF1180A90E80E008AE80E00C068AC
:1012E000F04201D198190890324606A903A800F0EF
:1012F0003DFB03AB83E807006D10641C002DE4D1B7
:1013000032466946B8F1000F03A802D000F01AFB7C
:1013100001E000F02BFBC9E90001C9F808200AB080
:10132000BDE8F087A02A000010B50446AFF30080A6
:101330002046BDE81040FEF79CBF002801D000F019
:1013400029B8704710B5012805D0002103A000F08E
:1013500027F8012010BD09A1F8E7000053494752C2
:10136000544D454D3A204F7574206F662068656175
:1013700070206D656D6F7279000000003A2048653D
:101380006170206D656D6F727920636F7272757018
:101390007465640001491820ABBEFEE72600020018
:1013A00070B505460C460A2000E06D1C00F052F8AE
:1013B00035B128780028F8D102E0641C00F04AF822
:1013C00014B120780028F8D1BDE870400A2000F060
:1013D00041B800004FF0013C50F8042B51F8043B99
:1013E0009A4221D1A2EB0C03934313EACC1317D1F9
:1013F00050F8042B51F8043B9A4215D1A2EB0C0390
:10140000934313EACC130BD150F8042B51F8043B4F
:101410009A4209D1A2EB0C03934313EACC13DBD01D
:101420004FF00000704700BFD01A01BAB1FA81F145
:1014300001F0180122FA01F0CB40C1F12001DBB22A
:10144000C0B2C01A2CFA01F3D11A914311EAC311A8
:10145000E6D1704708B569468DF800000320ABBEA1
:1014600008BD5FEA400C08BF91F0000F4FEA8C23E3
:101470004FEAC12243EA51514FEA1C5018BF00F510
:10148000F0404FEA300018BF41F000415FEA6C5C69
:1014900000F02980BCF1FF3F08BF40F0804070475A
:1014A000130C06BF12044FF0100C4FF0000C130E7B
:1014B00004BF12020CF1080C130F04BF12010CF14F
:1014C000040C930F04BF92000CF1020CD30F04BF65
:1014D00052000CF1010C11464FF00002A0F11F0068
:1014E000A0EB0C00704711F0004F08BF704731F0BF
:1014F00000413FF4D5AF0B0C06BF09044FF0100CB0
:101500004FF0000C0B0E04BF09020CF1080C0B0F7E
:1015100004BF09010CF1040C8B0F04BF89000CF10E
:10152000020CCB0F04BF49000CF1010CCCF12003DD
:10153000A0EB0C0022FA03F302FA0CF241EA0301D9
:1015400000F10100704720F07F4C80EA030023F097
:101550007F47ACEB070303F57C5300F0004003F139
:10156000FF032DE980494FEA154B09B44FEA1443B4
:1015700025EA0B4E24EA03480FF2042606EB132754
:1015800049083E785FEA320203FB0667C7F50007A9
:1015900007FB06F64FEA54374FEAD64606F1020635
:1015A00007FB066CCCF1005C4FEA1C472CEA074CA9
:1015B00007FB06F40CFB06F504EB15464FEA9616FE
:1015C00034BF00204FF000404FEAD13706FB07FC44
:1015D0004FEA1C4C0CFB0BF7D21B03FB0CF761EB27
:1015E00007010CFB0EF7B0EB074072EB17420CFB48
:1015F00008F734BFA2EB0742B2EB074261EB174199
:101600004FEA0C444FEA910706FB07FC4FEA1C4CDB
:101610000CFB0BF7B0EBC74072EB573203FB0CF738
:1016200034BFA2EBC742B2EBC74261EB57310CFBB0
:101630000EF7B0EBC70072EB57720CFB08F734BF24
:10164000A2EBC702B2EBC70261EB5771039F4FEAEF
:10165000816141EA921104EBCC044FEAD1374FEAA1
:10166000826206FB07FC42EA90124FEA80604FEA72
:101670001C4C0CFB0BF7D21B03FB0CF761EB0701B7
:101680000CFB0EF7B0EB074072EB17420CFB08F7B0
:1016900034BFA2EB0742B2EB074261EB17414FEABE
:1016A0008C554FEA910704EB9C2406FB07FC4FEA9C
:1016B0001C4C0CFB0BF7B0EBC74072EB573203FB33
:1016C0000CF734BFA2EBC742B2EBC74261EB573114
:1016D0000CFB0EF7B0EBC70072EB57720CFB08F770
:1016E00034BFA2EBC702B2EBC70261EB577115EB37
:1016F0004C254FEA816141EA92114FEA82624FEA3A
:10170000D13742EA901206FB07FC44F100044FEA8D
:1017100080604FEA1C4C0CFB0BF7D21B03FB0CF751
:1017200061EB07010CFB0EF7B0EB074072EB1742C1
:101730000CFB08F734BFA2EB0742B2EB074261EBA8
:10174000174115EB1C154FEA813141EA92414FEAEE
:10175000823242EA90424FEA80304FEA0C7644F1FE
:10176000000448EA03434EEA0B484FF0000EB2EB88
:10177000080C71EB030724BF624639464EEB0E0E90
:101780004FF0000B0018524149414BEB0B0BB2EBF1
:10179000080C71EB03077BF1000B24BF624639464E
:1017A0004EEB0E0E4FF0000B0018524149414BEB2F
:1017B0000B0BB2EB080C71EB03077BF1000B24BFA2
:1017C000624639464EEB0E0E51EA020718BF46F04C
:1017D000010616EB0E7655F1000254F1000103D517
:1017E000BDE88901BDE80088BDE88901BDE8004881
:1017F000B619524141EB0101A3F10103704780800A
:101800007F7E7D7C7B7A797877767675747372715A
:1018100071706F6E6E6D6C6C6B6A6A696868676612
:1018200066656464636362616160605F5F5E5E5DA4
:101830005D5C5C5B5B5A5A59595858575756565518
:1018400055555454535352525251515050504F4F7A
:101850004F4E4E4D4D4D4C4C4C4B4B4B4A4A4A49CA
:10186000494948484847474747464646454545440D
:101870004444444343434342424242414141002B9A
:1018800026D4770021D01CB54FEA370703B44FF0B8
:1018900010004FF010014FF000000FBCBDE81040E9
:1018A0000BF1010BBBF1010F08BF5FEA170722BF65
:1018B00012F1010211F101014FF0004143F1000367
:1018C00000F0004043EA00007047F9D35708DAE718
:1018D00046EA064613F1400F4FEA16461FDD13F1A4
:1018E000200FDFBF16430A46002120335B42C8D0D9
:1018F000C3F1200746EA064602FA07F74FEA164602
:1019000046EA0706C3F1200722FA03F201FA07F7B5
:1019100021FA03F14FF0000342EA0702B1E746EA79
:10192000020646EA06464FEA164646EA0106BCBFEC
:1019300046EA0646360C4FF000034FF000024FF027
:1019400000019EE72DE9C048934630B491E8380085
:1019500007C831EA400C48BF34EA430C03D5FFF70F
:10196000F2FDFFF78CFFF0BCBDE800882DE9C04810
:10197000934630B491E8380007C810F0804F08BF94
:1019800013F0804F03D100F005F8FFF778FFF0BCAB
:10199000BDE8008820F07F4780EA030023F07F4CF9
:1019A00007EB0C03A3F57C5300F00040A3F1FE030A
:1019B00092F0000F00F0B38095F0000F00F07780F8
:1019C0002DE901494FEA11404FEA144621EA004847
:1019D00000FB06FC24EA064708FB06F607FB08F8AE
:1019E00000FB07F718EB06484CEB164C4FEA124B7E
:1019F00018EB07484FEA15464CEB174022EA0B4E0E
:101A00000BFB06FC25EA06470EFB06F607FB0EFE5F
:101A10000BFB07F71EEB064E4CEB164C4FF0000687
:101A20001EEB074E4CEB174B18EB0B0840F1000078
:101A300018EB0E0B58EB000840F100008F1A4FF026
:101A400000013CBFC943661B14BFB5EB040C002169
:101A50003CBFC943F61B4FEA17444EEA8E0E27EAF5
:101A600004454FEA1C4704FB07622CEA074C05FBC0
:101A700007F70CFB05F604FB0CFC16EB074642EBE4
:101A8000174216EB0C4642EB1C421BEB060658EBCA
:101A90000202414146EA9E0601D5BDE80189B61918
:101AA000524141EB0101A3F10103BDE801894FEA75
:101AB00014454FEA114724EA054621EA074C05FB85
:101AC00007F406FB07F70CFB06F105FB0CFC11EB1A
:101AD000074144EB17444FEA124711EB0C4144EB2A
:101AE0001C4422EA074C05FB07F206FB07F70CFB38
:101AF00006F605FB0CFC16EB074642EB174216EB0D
:101B00000C4642EB1C456A1854F1000148BF70476F
:101B1000B619524141EB0101A3F10103704795F061
:101B2000000F37D04FEA11424FEA144721EA02462C
:101B300024EA074C02FB07F106FB07F70CFB06F44F
:101B400002FB0CFC14EB074441EB17414FEA15472D
:101B500014EB0C4441EB1C4125EA074C02FB07F552
:101B600006FB07F70CFB06F602FB0CFC16EB074620
:101B700045EB174516EB0C4645EB1C42121951F18B
:101B8000000148BF7047B619524141EB0101A3F172
:101B9000010370474FEA14454FEA114724EA05460E
:101BA00021EA074C05FB07F106FB07F70CFB06F2E1
:101BB0004FF0000605FB0CFC12EB074241EB17410E
:101BC00012EB0C4251EB1C4148BF7047921841EB9D
:101BD0000101A3F10103704708B50121082000F0BD
:101BE000AFFE0121084600F0ABFE0121094800F0DC
:101BF000C5FA10208DF803000820ADF8000003207E
:101C00008DF802006946044800F02DFA002000F02B
:101C100005F808BD00023000000C014010B5044674
:101C200022460821024800F0FEFA0248047010BD66
:101C3000000C01401800002002A1114801F048FBEF
:101C400000BFFEE70D0A2A2A2A2A2A2A2A2A2A2A35
:101C50002A2A2A2A2A2A2A2A2A4275734661756C58
:101C6000745F48616E646C65722A2A2A2A2A2A2ABD
:101C70002A2A2A2A2A2A2A2A2A2A2A2A0D0A000055
:101C80000038014070470000002120F07F400D4ADD
:101C9000127842434FF0E0235A6100229A610122F8
:101CA0001A6100BF4FF0E022116901F001021AB180
:101CB00001F48032002AF5D000224FF0E0231A61AF
:101CC0009A61704714000020002100B9704720F08D
:101CD0007F400E4A128842434FF0E0235A610022AF
:101CE0009A6101221A6100BF4FF0E022116901F0F0
:101CF00001021AB101F48032002AF5D000224FF01F
:101D0000E0231A619A6100BFE0E70000160000209E
:101D10004FF0E020006920F004004FF0E02108615E
:101D20000920074908700846007800EB4001C1EB24
:101D3000C0104FF6FF7101EAC000024908807047E9
:101D4000140000201600002010B580210348FEF783
:101D5000BEFC00200249088010BD000028000020C1
:101D60002400002070B50546002400BF00F060F993
:101D700080B90DA10E48FEF779FC044654B13A2112
:101D80002046FEF769FC044614B1641C204670BD71
:101D90000020FCE70520FFF797FF281EA5F10101B1
:101DA0008DB2E3D100BFF2E74950442C000000009F
:101DB0002800002008B50121102000F0C1FD1020EE
:101DC0008DF803008002ADF8000003208DF80200BA
:101DD0006946334800F047F900224FF4804130480B
:101DE00000F021FAFA20FFF76FFF012291032C483F
:101DF00000F019FA4FF4FA70FFF766FFFFF7A4FF3F
:101E000028A12A4801F064FA03E04FF4FA70FFF7C2
:101E10005BFF27A127A000F0BDF80028F5D127A17E
:101E2000224801F055FA03E04FF4FA70FFF74CFF37
:101E30001FA125A000F0AEF80028F5D126A11B486F
:101E400001F046FA03E04FF4FA70FFF73DFF18A1E6
:101E500025A000F09FF80028F5D127A1134801F034
:101E600037FA03E04FF4FA70FFF72EFF25A127A001
:101E700000F090F80028F5D12FA10C4801F028FAC5
:101E800003E04FF4FA70FFF71FFF2FA130A000F01E
:101E900081F80028F5D139A1044801F019FA08BDEC
:101EA00000100140312E2041540D0A00003801403D
:101EB0004F4B000041540D0A00000000322E204319
:101EC000574D4F44450D0A0041542B43574D4F4445
:101ED000453D310D0A000000332E2041542B43575D
:101EE000444843500D0A000041542B435744484393
:101EF000503D312C310D0A00342E2043574A4150B9
:101F00000D0A0000474F54204950000041542B4314
:101F1000574A41503D224F4E454E4554222C2249AE
:101F20004F54404368696E616D6F62696C65313210
:101F300033220D0A00000000352E2043495053542F
:101F40004152540D0A000000434F4E4E4543540089
:101F500041542B43495053544152543D2254435011
:101F6000222C223138332E3233302E34302E34307E
:101F7000222C313831310D0A00000000362E204568
:101F800053503832363620496E6974204F4B0D0A53
:101F9000000000002DE9F04104460D46C826204609
:101FA000FEF776FB87B23A4621460D4801F0B4F9B8
:101FB0000FE000F03DF848B929460A48FEF756FB05
:101FC00020B1FFF7C1FE0020BDE8F0810A20FFF735
:101FD0007BFE301EA6F10101CEB2EAD10120F3E76B
:101FE000004400402800002030B589B004460D466A
:101FF000FFF7AAFE2A4608A101A8FEF7D1F90AA117
:1020000001A8FFF7C7FF20B92A462146074801F07B
:1020100083F909B030BD000041542B43495053456A
:102020004E443D25640D0A003E000000004400407F
:102030000A48008808B90120704708480088084904
:102040000988884203D1002004490880F4E7034846
:102050000088034908800120EEE7000024000020EA
:102060002600002070472DE9F04102460025002699
:10207000002000230024002791F803C00CF00F0576
:1020800091F803C00CF0100CBCF1000F03D091F8D4
:1020900002C04CEA050591F800C0BCF1000F31D038
:1020A000146800202BE04FF0010C0CFA00F3B1F89B
:1020B00000C00CEA03069E4220D183004FF00F0CB3
:1020C0000CFA03F7BC4305FA03FC4CEA040491F84C
:1020D00003C0BCF1280F06D14FF0010C0CFA00FC34
:1020E000C2F814C00AE091F803C0BCF1480F05D152
:1020F0004FF0010C0CFA00FCC2F810C0401C08287C
:10210000D1D31460B1F800C0BCF1FF0F34DD5468C6
:1021100000202EE000F1080C4FF0010808FA0CF343
:10212000B1F800C00CEA03069E4221D183004FF0B3
:102130000F0C0CFA03F7BC4305FA03FC4CEA040449
:1021400091F803C0BCF1280F05D100F1080C08FA82
:102150000CF8C2F8148091F803C0BCF1480F07D105
:1021600000F1080C4FF0010808FA0CF8C2F81080D2
:10217000401C0828CED35460BDE8F081F0B50A4673
:10218000002300240021002500F00046B6F1004F96
:1021900002D11D4EF16901E01B4E7168C0F3034589
:1021A00083B200F44016B6F5401F08D121F07061EB
:1021B000154E766826F07066134F7E6012E000F4CC
:1021C0008016B6F5801F06D1032606FA05F4A14352
:1021D00041F0706106E0460D360103FA06F6B143A0
:1021E00041F0706122B1460D360103FA06F6314323
:1021F00000F00046B6F1004F02D1034EF16101E05C
:10220000014E7160F0BD0000000001400246002058
:1022100093680B400BB1012000E000207047416142
:102220007047016170470AB1016100E04161704788
:1022300002A1114801F04CF800BFFEE70D0A2A2A5E
:102240002A2A2A2A2A2A2A2A2A2A2A2A2A2A2A2AEE
:102250002A486172644661756C745F48616E646C93
:1022600065722A2A2A2A2A2A2A2A2A2A2A2A2A2A4B
:102270002A2A2A2A2A0D0A000038014010B54FF4F4
:10228000A06000F03BFAFFF743FD4FF4E13000F0AF
:1022900071FF4FF4E13000F0C5FF00F099F8FFF74F
:1022A0009BFC02A1064801F013F810BD20486172A2
:1022B000647761726520696E6974204F4B0D0A0066
:1022C000003801402DE9F04104460D46164600272E
:1022D0006006070E00F02CF9384600F0EFF841F2E6
:1022E000883000F069F910B10120BDE8F08128467E
:1022F00000F0E4F841F2883000F05EF908B1012006
:10230000F3E700F015F9791CC8B200F0D7F841F2F4
:10231000883000F051F908B10120E6E700F09EF89E
:10232000307000F079F800F025F90020DDE72DE9A4
:10233000F04105460E46144600276806070E00F0D9
:10234000F7F8384600F0BAF841F2883000F034F976
:1023500010B10120BDE8F081304600F0AFF841F245
:10236000883000F029F908B10120F3E74CB120785A
:1023700000F0A4F841F2883000F01EF908B1012005
:10238000E8E700F0F7F80020E4E7000010B54FF4AC
:1023900080610D48FFF743FF4FF400610A48FFF7E3
:1023A0003EFF0A490888FFF76FFC4FF4806106483A
:1023B000FFF737FF05490888FFF766FC4FF4806197
:1023C0000148FFF72CFF10BD000C01401A0000204F
:1023D00008B50121082000F0B3FA14208DF803009D
:1023E0004FF44060ADF8000003208DF8020069460C
:1023F0000848FFF738FE052000F094F84FF400611C
:102400000448FFF70EFF4FF480610248FFF709FF11
:1024100008BD0000000C014010B54FF480610D486C
:10242000FFF7FDFE4FF400610A48FFF7FAFE0A4984
:102430000888FFF729FC4FF480610648FFF7F1FE9A
:1024400005490888FFF720FC4FF480610148FFF739
:10245000E6FE10BD000C01401A00002070B50025FA
:1024600000244FF400611348FFF7DBFE1DE04FF43A
:1024700080611048FFF7D3FE0F490888FFF704FC7E
:102480004FF480610B48FFF7CCFE6006040E4FF45A
:1024900000610848FFF7BAFE08B1601CC4B20649E3
:1024A0000888FFF7F1FB681CC5B2082DDFDB20466A
:1024B00070BD0000000C01401A00002070B50446F9
:1024C00000254FF480611548FFF7A9FE23E004F0D2
:1024D000800028B14FF400611048FFF7A2FE04E02D
:1024E0004FF400610D48FFF79AFE6006040E0C4998
:1024F0000888FFF7C9FB4FF480610848FFF791FE99
:1025000007490888FFF7C0FB4FF480610348FFF7D5
:1025100086FE681CC5B2082DD9DB70BD000C0140D9
:102520001A00002001490880704700001A000020AE
:1025300010B54FF400610D48FFF773FE4FF4806152
:102540000A48FFF76EFE0A490888FFF79DFB4FF423
:1025500000610648FFF763FE05490888FFF794FB12
:102560004FF480610148FFF75AFE10BD000C014096
:102570001A00002010B54FF400610D48FFF74FFE20
:102580004FF480610A48FFF74AFE0A490888FFF7BE
:102590007BFB4FF480610648FFF743FE4FF4006178
:1025A0000348FFF73EFE03490888FFF76DFB10BDA7
:1025B000000C01401A00002010B504464FF40061E1
:1025C0001648FFF72EFE16490888FFF75DFB4FF40B
:1025D00080611248FFF725FE11490888FFF754FB78
:1025E0000EE0601E041E07D10EA1134800F070FE1D
:1025F000FFF7C0FF012010BD09490888FFF744FB21
:102600004FF400610548FFF701FE0028E9D14FF4BF
:1026100080610248FFF703FE0020ECE7000C014058
:102620001A0000205761697441636B2054696D651D
:102630004F75740D0A0000000038014002A11148D6
:1026400000F046FE00BFFEE70D0A2A2A2A2A2A2A9F
:102650002A2A2A2A2A2A2A2A2A2A2A2A2A4D656D39
:102660004D616E6167655F48616E646C65722A2AB0
:102670002A2A2A2A2A2A2A2A2A2A2A2A2A2A2A2ABA
:102680002A0D0A00003801407047000070B5002193
:1026900000230F22C47804B3154C246804F4E064CA
:1026A000C4F5E064210AC1F10403CA40447804FA85
:1026B00003F184781440214309010E4C0678A1559A
:1026C000047804F01F050124AC4005786D11AD00BD
:1026D00005F1E025C5F8004109E0047804F01F0584
:1026E0000124AC40044D0678761145F8264070BDB3
:1026F0000CED00E000E400E080E100E0024901436D
:10270000024A1160704700000000FA050CED00E07D
:1027100030B585B00020019002900390049001250F
:1027200018A01BA31CA21EA10090294800F0D0FDF8
:1027300001AB14A216A118A000F084FBB8B9029A4C
:1027400091B20198FFF750FCFA20FFF70BFB04460B
:102750004CB1204600F0CCFB102804D11DA11C4830
:1027600000F0B6FD002501A800F032FB03E01EA139
:10277000174800F0ADFD15B1012005B030BD0020B7
:10278000FBE700007463707368743230000000006F
:102790007465737400000000313837343231000042
:1027A0004F6E654E45545F4465764C696E6B0D0AFD
:1027B00050524F49443A2025732C09415549463A15
:1027C0002025732C094C55413A25730D0A00000051
:1027D00000380140546970733A09C1ACBDD3B3C924
:1027E000B9A60D0A000000005741524E3A09544361
:1027F000505F5061636B6574436F6E6E65637420E8
:102800004661696C65640D0A000000002DE9F04125
:1028100006460F460025F41914490868144901F0CA
:102820003FF9804601F008F90546280E04F8010B2F
:10283000280C04F8010B280A04F8010B04F8015BCA
:102840000A4948680A4901F02BF9804601F0F4F87A
:102850000546280E04F8010B280C04F8010B280A81
:1028600004F8010B04F8015BBDE8F0811C000020B6
:102870000000C84210B50446FFF766FA10BD00001C
:102880001FB50020009001900290039010A11748FE
:1028900000F01EFD6946082000F00AFB98B90321EC
:1028A0000098FFF7B3FF0D200190019A91B20098B4
:1028B000FFF79AFB0EA10D48019A00F009FD68464A
:1028C00000F086FA03E00EA1084800F001FD1FBDEC
:1028D000546970733A094F6E654E65745F53656E47
:1028E00064446174612D5443500D0A000038014066
:1028F00053656E642025642042797465730D0A0067
:102900005741524E3A094544505F4E6577427566CD
:10291000666572204661696C65640D0A00000000FE
:1029200029B1064AD2690243044BDA6104E0034A42
:10293000D2698243014BDA61704700000010024007
:1029400029B1064A92690243044B9A6104E0034AA2
:1029500092698243014B9A61704700000010024067
:1029600030B500210022002400232D4D6D6805F0B4
:102970000C0121B1042905D0082923D105E0294DF6
:10298000056022E0284D05601FE0254D6D6805F4C7
:102990007012234D6D6805F48034022505EB9242D8
:1029A0001CB9224D554305600BE01D4D6D6805F4C3
:1029B00000351DB11E4D5543056002E01A4D5543CB
:1029C000056002E0174D056000BF00BF144D6D6843
:1029D00005F0F0010909174D6B5C0568DD404560A5
:1029E0000F4D6D6805F4E061090A124D6B5C456896
:1029F000DD4085600A4D6D6805F46051C90A0D4DD2
:102A00006B5C4568DD40C560054D6D6805F440416F
:102A1000890B094D6B5CC568B5FBF3F5056130BDED
:102A20000010024000127A00001BB70000093D00B0
:102A3000808D5B0000000020100000207047000027
:102A400008B5002000900520FFF76CFD00F030F87D
:102A50006420FFF719F90021E32000F0AAF81349D8
:102A600008604B20FFF730F90021E52000F0A1F8C5
:102A70000E4948601E20FFF727F900F019F81E20C4
:102A8000FFF722F96A46E6214020FFF750FC642058
:102A9000FFF7FAF800F00CF86420FFF7F5F800F003
:102AA00012F86420FFF7F0F808BD00001C000020B9
:102AB00008B5002000906A46E7214020FFF702FC9D
:102AC0009DF8000008BD10B50022FE214020FFF750
:102AD0002EFC10BD2DE9F84F82464FF0000B2AF076
:102AE000030A504600F0C8FF009000F079FF8046CE
:102AF000074A084B00F08CFD06460022064B00F00A
:102B000085FE044600F0AAFC83465846BDE8F88FCF
:102B10007644CF7701405F3F000018402DE9F84F21
:102B200082464FF0000B2AF0030A504600F0A4FF43
:102B3000009000F055FF8046074A084B00F068FD02
:102B40000646074A074B00F0BBFC044600F086FC33
:102B500083465846BDE8F88FD7A3703D0AF7653F16
:102B6000CDCCCCCCCC6C47C070B503460C461546DA
:102B700000210026002200BF13E0985C4140082697
:102B80000BE001F0800020B1312080EA4100C1B2A9
:102B900001E04806010E701EC6B2002EF1DC501C8A
:102BA000C2B2A242E9DBA94201D0012070BD0020DF
:102BB000FCE72DE9F84306460C4600270025A84609
:102BC000A9468025FFF7B4FC2846FFF777FC4CF2B6
:102BD0005030FFF7F1FC10B10020BDE8F88330461B
:102BE000FFF76CFC4CF25030FFF7E6FC08B1002018
:102BF000F3E7FFF79DFC691CC8B2FFF75FFC05E037
:102C0000FFF796FC691CC8B2FFF758FC4CF2503035
:102C1000FFF7D2FC0028F3D14B20FFF755F8FFF760
:102C20001DFC8DF80000FFF7B1FBFFF717FC8DF8D6
:102C30000100FFF7ABFBFFF711FC0746FFF7ECFBCA
:102C4000FFF798FC3A4602216846FFF78DFF9DF892
:102C500001009DF8001000EB01201FFA80F8E32E20
:102C600004D14046FFF75AFF814603E04046FFF794
:102C700031FF81461CB1484600F0DEFE2080484608
:102C8000ABE7704710B500F001F810BD0CB500209F
:102C9000019000903348006840F48030314908606A
:102CA00000BF3048006800F4003000900198401CDC
:102CB0000190009818B90198B0F5A06FF1D129489A
:102CC000006800F4003010B10120009001E0002005
:102CD00000900098012843D12348006840F010007C
:102CE000214908600846006820F003000860084693
:102CF000006840F0020008601A48406819494860BE
:102D00000846406848600846406840F48060486073
:102D10000846406820F47C1048600846406840F44B
:102D2000881048600846006840F08070086000BF66
:102D30000C48006800F000700028F9D0094840688D
:102D400020F00300074948600846406840F0020050
:102D5000486000BF0348406800F00C000828F9D123
:102D60000CBD00000010024000200240704700002F
:102D700010B51348006840F001001149086008468A
:102D80004068104908400E494860084600680E49EE
:102D900008400B4908600846006820F4802008605D
:102DA0000846406820F4FE0048604FF41F00886029
:102DB000FFF768FF4FF000600449086010BD000095
:102DC000001002400000FFF8FFFFF6FE08ED00E0F3
:102DD00010B50446207B012802D12068FDF79FFA38
:102DE000002020606060A060207310BD70B50446B4
:102DF0000E460025206898B9012020733046FDF763
:102E00005FFA20602068E0B100206060A66003E007
:102E10000020216848556D1CA068A842F8D810E031
:102E20000220207303E00020216848556D1CA06833
:102E3000A842F8D800206060A068B04201D200200B
:102E4000206070BD2DE9FC4707460D4616461C461E
:102E50000FB105B116B90120BDE8FC873846FDF772
:102E600017FC81462846FDF713FC81443046FDF7E8
:102E70000FFC484400F1050841462046FFF7B6FF25
:102E8000206808B90120E7E7CDE900563B4605A2D6
:102E9000A1682068FDF79AFA2068FDF7F9FB6060E9
:102EA0000020D9E72A25732325732325732A0000E0
:102EB00070B505460C460DB9012070BD691D204650
:102EC000FFF794FF206808B90220F6E7AA202168DE
:102ED000087055202168487021688D705521E81CC4
:102EE00022681154AA21281D226811540020E4E709
:102EF000014608787047000010B540F2255104489B
:102F000000F050F818B12021014800F029F810BD58
:102F10000038014010B540F225510E4800F042F84B
:102F2000B0B10D480088802802D300200A490880EB
:102F30000848001D0088C1B2074802880088401C6C
:102F4000054B1880054881542021024800F008F8FC
:102F500010BD000000440040240000202800002094
:102F600001F40072B2F5007F00D100BFCA430280B5
:102F7000704721B1828942F40052828104E0828943
:102F80004DF6FF731A408281704702460020B1F56A
:102F9000007F00D100BF13880B400BB1012000E07F
:102FA0000020704770B50246002400230025002051
:102FB00040F66A16B14200D100BFC1F3421501F0DC
:102FC0001F03012606FA03F3012D02D1968933402F
:102FD00006E0022D02D1168A334001E0968A334082
:102FE0000C12012606FA04F41688344013B10CB111
:102FF000012000E0002070BDF0B50346002400264B
:103000000025002040F66A17B94200D100BF1846DB
:10301000C1F3421401F01F06012707FA06F5012C3F
:1030200001D10C3004E0022C01D1103000E014304A
:103030001AB107682F43076002E00768AF430760D3
:10304000F0BD00002DE9F04786B005460E4600248D
:10305000A24600BFA1460027B08900B100BF2F469D
:103060002C8A4CF6FF700440F08804432C82AC8913
:103070004EF6F3100440B088318908437189084343
:103080000443AC81AC8A4FF6FF400440B08904434E
:10309000AC8201A8FFF764FC1F48874202D1DDF82B
:1030A00010A001E0DDF80CA0A88900F4004040B1B8
:1030B0000AEBCA0000EB0A1031684900B0FBF1F8D6
:1030C00007E00AEBCA0000EB0A1031688900B0FB88
:1030D000F1F86420B8FBF0F004012009642101FB41
:1030E0001089A88900F4004040B1322000EBC900EB
:1030F000B0FBF1F000F00700044308E0322000EBE1
:1031000009106421B0FBF1F000F00F0004432C81A2
:1031100006B0BDE8F087000000380140C1F30802A6
:103120008280704702A1124800F0D2F800BFFEE78B
:103130000D0A2A2A2A2A2A2A2A2A2A2A2A2A2A2A2C
:103140002A2A2A2A2A55736167654661756C745F5D
:1031500048616E646C65722A2A2A2A2A2A2A2A2A37
:103160002A2A2A2A2A2A2A2A2A2A0D0A00000000A4
:103170000038014010B586B0044601210420FFF755
:10318000DFFB01218803FFF7DBFB18208DF8170018
:103190004FF40070ADF8140003208DF8160005A957
:1031A0001E48FEF760FF04208DF817000002ADF8FE
:1031B000140003208DF8160005A91848FEF753FFE8
:1031C00001940020ADF810000C20ADF80E00002096
:1031D000ADF80C00ADF80A00ADF8080001A91048E0
:1031E000FFF730FF01210E48FFF7C3FE012240F236
:1031F00025510B48FFF700FF25208DF80000012026
:103200008DF8030000208DF8010002208DF80200E7
:103210006846FFF73BFA06B010BD00000008014009
:103220000038014010B586B0044601210420FFF7A4
:1032300087FB01214804FFF773FB18208DF8170066
:103240000420ADF8140003208DF8160005A91E48CF
:10325000FEF709FF04208DF817000820ADF81400D0
:1032600003208DF8160005A91748FEF7FCFE01940F
:103270000020ADF810000C20ADF80E000020ADF8D5
:103280000C00ADF80A00ADF8080001A90F48FFF7DF
:10329000D9FE01210D48FFF76CFE012240F22551B5
:1032A0000A48FFF7A9FE26208DF8000001208DF8BE
:1032B000030000208DF801008DF802006846FFF73A
:1032C000E5F906B010BD00000008014000440040D0
:1032D0000FB430B5CBB0054601AC50A800904FF408
:1032E000947101A8009B4F9AFDF740F800200090D0
:1032F0000BE014F8011B2846FFF710FF00BF402128
:103300002846FFF742FE0028F9D020780028F0D1A7
:103310004BB030BC5DF814FB2DE9F04107460C467C
:10332000154600260DE014F8011B3846FFF7F6FE9F
:1033300000BF40213846FFF728FE0028F9D0701C56
:1033400086B2AE42EFDBBDE8F081490050EAC12011
:1033500018BF04204A0D18BF40F0010040F2FF7270
:10336000B2EB515F08BF40F00200012808BF052002
:10337000704730380A2801D201207047002070477A
:1033800000250024FEF77AFFFEF714FD03E04FF45A
:10339000FA70FEF799FCFFF7BBF90028F7D101207E
:1033A000FEF73CFCFA20FEF78FFC0020FEF736FC0F
:1033B0001BE0681C80B20546B0F5FA7F0ADBFFF718
:1033C0003FFB0AA10E48FFF783FFFFF759FA0025DC
:1033D000FEF7BAFC0020FEF7C5FC044614B12046F7
:1033E000FFF748FA0A20FEF76FFCE2E74F6E654EE2
:1033F00065745F53656E64446174610D0A0000007A
:103400000038014010B500290AD00878002807D0FC
:1034100005487844FDF7DEFF002801D0002010BDEC
:103420000248784410BD0000220900001A0900007B
:1034300010B500290AD00878002807D0054878443C
:10344000FDF7C8FF002801D0002010BD02487844D5
:1034500010BD0000120900000A09000021F000421E
:10346000A2F16052B2F5801F01F0004328BFD2F1F3
:103470007F6C0BD95FEA001C43EAC20242EB50703A
:1034800018BF704728BF20F001007047B2F5801FB9
:10349000BCBF184670474FEA410C1CF5001F02D212
:1034A000084600F0C4BB70B500F05CF9000000896C
:1034B000FFF7F6BF4FF00040A0F580007047000016
:1034C00010B591EA030F48BF83F0004300F1A681D5
:1034D000841A71EB030C05D2121943EB0C03001B89
:1034E00061EB0C01DFF824E14FEA1154A4EB135C0B
:1034F0001EEA430F18BF9EEA445F73D023EA0E030F
:10350000DCF1200E21EA045143F4801332D322FA75
:103510000CFE10EB0E0023FA0CFE41EB0E01CCF179
:10352000200E03FA0EFE10EB0E0051F10001B1F572
:10353000801FCCF1200E32D201EB045112FA0EF2B0
:10354000BDE8104058BF7047401C38BF5FEA4202D8
:1035500018BF7047002814BF20F0010041F100019E
:103560004FEA410313F5001F38BF7047A1F1C04176
:1035700000F046B9012A43EB0302ACF1200CDCF168
:103580001F0E32BF4FF0000E23FA0CF310EB0300B6
:1035900041EB0451B4EB115FD0D0A1EB045101F524
:1035A000801149085FEA300001EB04510ED350F15D
:1035B000000038BF12FA0EFE08D1BDE81040C9E77E
:1035C000401C38BF5FEA4202CAD1C3E7BDE81040E1
:1035D0004FEA410313F5001F38BF7047A1F1C04106
:1035E00000F00EB99EEA445F08D011EA5E0FBDE814
:1035F000104004BF01F0004100207047BDE81040BA
:1036000070B500F0AFF800BF64FBBE3E0000E0FF05
:10361000DFF848C170B51CEA111E1EBF1CEA131565
:103620009EEA0C0F95EA0C0F00F06F8081EA03040C
:1036300023EA4C134EEAD47E21EA4C1141F4801166
:1036400043F48013AE44A1FB024CA0FB0365AEF132
:103650007F7E361955EB0C05A1FB034C4CF10003A2
:10366000A0FB021C16EB0C06654153F10003094256
:1036700018BF46F0010613F4007F0BD14FEA033167
:103680004FEA0530340341EA155140EA16506FF015
:1036900003020AE04FEAC3214FEAC520F40241EADF
:1036A000555140EA56506FF0020202EB2E4201EBF8
:1036B000025585EACE710AD05FEA440C18BF24F0A7
:1036C000004450F1000041F1000120EAD47040F2C2
:1036D000FE7C624500D270BDA84214BF4FF080440A
:1036E0004FF04044002E08BF0024BEF1806FA8BFF9
:1036F000A1F1C041BDE8704080F282804FF000002F
:1037000001F1C04101F0004170479EEA0C0F0CEA44
:10371000131518BF95EA0C0F06D04FF0000081EA90
:10372000030E0EF0004170BD00F01CF88900013E50
:1037300000F007B800F009B84FEA430C5FEA5C5CA0
:1037400008D081EA030100F05BB84FEA410C5FEA60
:103750005C5CF6D14FF00000014970470000FF07A4
:103760000000F87F0EF1020E2EF0030E5EF8046BDF
:10377000364205D4012A43EB030515F5001F12D884
:10378000012841EB010C1CF5001F0CD80ED14FEAAB
:10379000D17C15F5001F0CEB4C0C0CF1020C08BF92
:1037A0004CEBD37C04E04FF0080C01E04FEAD37CF3
:1037B0000CEB4C0526FA05F606F00706B6F1040CEC
:1037C00006D20EEB860CBDE870404CF0010C604751
:1037D000DFE80CF0090B02024FF000414FF000004F
:1037E000A1F5002170BD19461046012851EB0104D6
:1037F00018BFD4F5001484BF002001F0004170BD53
:103800000808A0F500114FEA3101704710B591EAA0
:10381000030F48BF83F000433FF55AAE841A71EBA3
:10382000030C07D212198CF0004C43EB0C03001B65
:1038300061EB0C01DFF8A4E14FEA1154A4EB135C37
:103840001EEA430F18BF9EEA445F00F0B08023EAEF
:103850006E03524221EA0451C3EB6E0338BF5B1E74
:10386000DCF1200E25D322FA0CFE10EB0E0043FAF9
:103870000CFE41EB0E01CCF1200E03FA0EFE10EB14
:103880000E0051F10001CCF1200E29D412FA0EF2F3
:1038900001EB0451BDE8104058BF7047401C1CBFED
:1038A000B2F1004F704700280CBF491C20F0010006
:1038B000704712EB020E43EB030218BF4FF0010EEC
:1038C0004EEA4202ACF1200CDCF11E0E54D943FA50
:1038D0000CFE10EB0E0051F1FF31CCF11E0ED5D5D0
:1038E0000EF1010E12FA0EFE404141EB010101EB17
:1038F000445C5FEA5C5C10D910EBDE7001EB0451B4
:1039000038BFBEF1004FBDE8104018BF7047002817
:103910000CBF491C20F00100704730D24FEAD42C74
:1039200011F5001124F400641BD0B1FA81F20B3AB6
:10393000A41AA41ED2F12003914030FA03F31943D4
:10394000904001EBCC71002C01EB0451BDE810401C
:10395000A8BF704701F1C0414FF0000001F00041E5
:103960007047B0FA80F310FA03F100D110BDE41AE9
:10397000173C4805C90AE4E701EB045110BD4910A2
:1039800001EB0451BDE810404FEA300002E04FF077
:10399000000170474A0008BF0042F8D0B2F5001F8E
:1039A00028BF704701F000414FF0000070479EEAC9
:1039B000445F07D011EA5E0FBDE8104004BF00214C
:1039C00000207047BDE8104070B5FFF7CBFE00BF88
:1039D00040DFF63E83F00041104670470000E0FFF4
:1039E00043004FEAD30C4FEA3C0C43401FBF400753
:1039F0000CF1605113F0FE4F70471CF0006F03D1C3
:103A000000200CF0004170470CF0004343EA507076
:103A100010B540EACC0000F0C4F800BF00000092EE
:103A20004FEA0001FFF7ECBE4FF000414FF00000FD
:103A3000A1F5002170470000C10DD1F19E0206DB07
:103A40004FEA002343F0004323FA02F0704700429C
:103A500007D54FEA4001B1F1FE4F02D24FF000000E
:103A6000704710B500F09DF84992248000207047FF
:103A70006FEA200070470000B0FA80F310FA03F2FA
:103A8000C3F19D030AD0D90501EB1220530638BFBC
:103A9000704700F1010008BF20F0010070470000EE
:103AA0004FF47F0C1CEAD0121EBF1CEAD11392EA1D
:103AB0000C0F93EA0C0F00F0478090EA010F48BF0B
:103AC00042F480724FF0004C4CEA00204CEA012195
:103AD00002EB0302A0FB0113A2F50002002918BFAC
:103AE00043F001035B0028BF4FEA330342EB22425D
:103AF0005FEA132C4CEBC2502EBFBCEB436FB2F508
:103B00007C0F70474FEA036CBCF1004F08BF20F0F8
:103B10000100B2F57C0F38BF70470BD582F0FF0271
:103B200012F5803FC8BF704700F1C040D8BF00F019
:103B30000040704700F5000C5FEA4C0C48BF70472E
:103B4000B0F1C04000F073B890EA010F0CEAD11355
:103B500048BF42F48072624538BF634504D280EAB0
:103B6000010000F00040704710B500F01AF800BFE7
:103B70008900013E00F007B800F009B85FEA410C87
:103B80005FEA1C6C08D080EA010000F050B85FEAE0
:103B9000400C5FEA1C6CF6D14FF00040A0F58000AD
:103BA00070470EF1020E2EF0030E5EF8044B244215
:103BB00004D44FEA4102B2F17F4F11D84FEA4003DB
:103BC000B3F17F4F0CD80ED14FEAD07CB2F17F4FCA
:103BD0000CEB4C0C0CF1020C08BF4CEBD17C04E05C
:103BE0004FF0080C01E04FEAD17C0CEB4C0324FAB7
:103BF00003F404F00704B4F1040C06D20EEB840CB9
:103C0000BDE810404CF0010C6047DFE80CF00708FD
:103C100002024FF00040A0F5800010BD08464200AF
:103C200018BFD2F1807288BF00F0004010BDFF21A4
:103C300041EAD050C0057047FDF722B904000008E2
:103C40000000000000000002000100001000000061
:103C500000000000000000003031323334353637C8
:103C600038394142434445464030580030313233C0
:103C700034353637383961626364656640307800C0
:103C800002400000000000A000000000054000000D
:103C9000000000C8000000000C4000000000409C34
:103CA00000000000194000000020BCBE0000000021
:103CB00034400000BFC91B8E00000004B540000066
:103CC000504BCFD06607E2CF010000006C410000EE
:103CD0003E8251AADFEEA73401000000D942000065
:103CE000DCB5A0E23A301F97FFFFFFFFB4450000AC
:103CF000FD25A0C8E9A3C14FFFFFFFFFFF3F000064
:103D00000000008000000000FF3F00000000008075
:103D100000000000603E00080000002028000000B5
:103D20006C010008883E000828000020E008000020
:103D3000880100081C00000043000000F8FFFFFF9E
:103D40000C0000000E0000000F0000002E0000001C
:103D50001001000043000000F8FFFFFF004040405A
:103D6000404040404040414141414140404040404E
:103D700040404040404040404040404040050202FA
:103D800002020202020202020202020202202020B9
:103D90002020202020202002020202020202909015
:103DA0009090909010101010101010101010101013
:103DB0001010101010101010020202020202888867
:103DC0008888888808080808080808080808080873
:103DD000080808080808080802020202400000005B
:103DE00000000000000000000000000000000000D3
:103DF00000000000000000000000000000000000C3
:103E000000000000000000000000000000000000B2
:103E100000000000000000000000000000000000A2
:103E20000000000000000000000000000000000092
:103E30000000000000000000000000000000000082
:103E40000000000000000000000000000000000072
:103E50000000000000000000000000000000000062
:103E60000000000001020304010203040607080920
:103E7000020406080000000000000000000000002E
:083E800000000000000000003A
:0400000508000131BD
:00000001FF
