:020000040800F2
:100000000809002081020008FD27000805260008D5
:10001000B1270008711D0008F93100080000000038
:100020000000000000000000000000007F2E00081B
:10003000BD1D00080000000097020008692F00089D
:100040009B0200089B0200089B0200087D2E00080E
:100050009B0200089B020008512400089B02000834
:100060009B0200089B0200089B0200089B020008FC
:100070009B0200089B0200089B0200089B020008EC
:100080009B0200089B0200089B0200089B020008DC
:100090009B0200089B0200089B0200089B020008CC
:1000A0009B0200089B0200089B0200089B020008BC
:1000B0009B0200089B0200089B0200089B020008AC
:1000C0009B0200089B0200089B0200089B0200089C
:1000D0009B020008CD2F0008E92F00089B020008B2
:1000E0009B0200089B0200089B0200089B0200087C
:1000F0009B0200089B0200089B0200089B0200086C
:100100009B0200089B0200089B0200089B0200085B
:100110009B0200089B0200089B0200089B0200084B
:100120009B0200089B0200089B0200089B0200083B
:1001300000F002F800F094F80AA090E8000C824465
:100140008344AAF10107DA4501D100F089F8AFF242
:10015000090EBAE80F0013F0010F18BFFB1A43F0A5
:1001600001031847E83E0000083F0000103A24BF92
:1001700078C878C1FAD8520724BF30C830C144BF0C
:1001800004680C607047000000230024002500264E
:10019000103A28BF78C1FBD8520728BF30C148BFEA
:1001A0000B6070476E2900F0A283702900F0ED8487
:1001B000662903F0D381652903F0D081672903F014
:1001C000CD816129AFF3008003681B0A28BF41F08D
:1001D0008001692900F0FA80642900F0F780752910
:1001E00000F0F4806F2900F07B84782900F0B98456
:1001F000E92900F01584E42900F01284F52900F0C3
:100200000F84EF2900F07884F82900F0B88403689F
:10021000DB0928BF41F08001632900F0A38773291F
:1002200000F0A887E32900F0B387F32900F0B8872E
:10023000002070471FB59DE8030000F067FA01F049
:100240004FF804000020002103F05CF9401C6060BE
:100250000020002103F06CF9E0601FBD10B510BD57
:1002600001F019F81146FFF7E5FF03F00BF901F073
:10027000F7F803B4FFF7F2FF03BC01F027F9000021
:100280000948804709480047FEE7FEE7FEE7FEE72A
:10029000FEE7FEE7FEE7FEE7FEE7FEE70448054966
:1002A000054A064B704700006D2F00083101000819
:1002B000080100200809002008050020080500208A
:1002C00070B5064600F002FA056806F10B0020F052
:1002D0000704B4429CBF002070BD2B466A68BAB1C7
:1002E0001068A04210D304F1080188423CBF506856
:1002F000586007D35168101941601168091B0160EB
:1003000058601460101D70BD13465268002AE7D172
:100310002146284600F0E6F90028DED170BD70B510
:100320000446051F00F0D2F90068002C14BF446891
:1003300070BD002C18BFAC423CBF20466468F8D3A7
:1003400001680A18AA4218BF456003D12A68054609
:100350001144016028684119A1421CBF6C6070BD46
:100360006168696021680844286070BD7CB51D46DD
:1003700016460C00009001D02044401E074B7B44E1
:100380002A4669460190304600F0CBFA05461CB17A
:100390000020694600F0D8FA28467CBDD10500004F
:1003A0000FB41CB5084B06AA7B446946009005981B
:1003B00000F0B7FA04460020694600F0C5FA20466E
:1003C0001CBC5DF814FB00009D0500002DE9F04108
:1003D0000646002410687529314616A510D000F095
:1003E000F2F9002802DA404213A507E031688A07D3
:1003F00001D512A502E0490704D511A5012401E0A9
:1004000000F0EAF900210A2206F1240709E0B0FB16
:10041000F2FCB0FBF2F302FB1C00303078541846BB
:10042000491C0028F3D123462A463046BDE8F04156
:1004300000F004BA000000002D0000002B000000B6
:10044000200000002DE9F05F894604464FF0000AC5
:10045000DFF874B1FB44C0F820A02046E16888476B
:10046000002874D0252806D0D4E901219047206ABD
:10047000401C2062F1E700265F462046E16888477D
:100480002028054607DB312D05D2781910F8200CFD
:1004900008B10643F1E7B00701D526F00406C4F819
:1004A0001CA00027C4F818A02A2D09D0284602F065
:1004B000E1FF38B304EB8708303DC8F8185019E065
:1004C00059F8041B204604EB87029161E1688847D4
:1004D000012F054618D1E069002820DA26F0200611
:1004E0001DE0D8F8180000EB800005EB4000303824
:1004F000C8F818002046E1688847054602F0BAFFB0
:100500000028EED1012F0AD02E2D08D12046E16817
:1005100088477F1C0546022F46F02006C4DBA069F1
:10052000002803DA404246F00106A061F00701D03E
:1005300026F010066C2D0BD0682D09D04C2D39D02B
:100540006A2D35D0742D35D07A2D33D016E038E0B1
:10055000E1682F4620468847B842054609D16C2FEE
:1005600026D04FF48060E168064320468847054660
:1005700004E06C2F1AD04FF4807006430DB3A5F140
:100580004100192802D8203546F400664A4629461B
:10059000204626604E46FFF705FE80B101280BD0AD
:1005A000F61D26F0070000F1080956E74020E4E7B1
:1005B0008020D8E70020D6E706F104094DE7284659
:1005C00052E7206ABDE8F09F1F3B000070B5064669
:1005D00000F080F80468054630460A22002100F049
:1005E000DFFA2C6070BD401ECAB210F8011F8A42AB
:1005F00002D00029F9D10020704710B5431E13F82E
:10060000014F002CFBD105E011F8014B002C03F841
:10061000014B03D0521EF7D20021197010BD30B526
:1006200005460B462A4613F8014B12F8010B08B198
:10063000A042F8D01CB1002802D06D1CF1E728467A
:1006400030BD10B5431C02E010F8011B71B18107E9
:10065000FAD14FF0013202C88C1A8C4314EAC2114D
:10066000F9D0C01A0A0603D0C01E10BDC01A10BDB2
:100670000A0401D0801E10BD0902FCD0401E10BD2E
:100680004FF000020429C0F0128010F0030C00F0BB
:10069000C182CCF1040CBCF1020F18BF00F8012B91
:1006A000A8BF20F8022BA1EB0C0100F0B3BA5FEA5F
:1006B000C17C24BF00F8012B00F8012B48BF00F8D3
:1006C000012B704770477047704700000048704723
:1006D000AC00002000487047A4000020704770471D
:1006E0007047704738B504460A4600206946AFF3A4
:1006F0000080002808BF38BD02460099204600F05F
:10070000BBFA012038BD012000F0BDBDF8B5AFF344
:100710000080054600200C46102000BF0646A819A0
:10072000A0420DD9324669460020AFF30080070091
:1007300008BF00F0A8FD0098A04218BF0546C419E4
:10074000FFF7C4FF05600746F01D20F007004619BB
:10075000284600F00AF8B44208BFF8BDA21B314693
:100760003868BDE8F84000F087BA00210160C0E9B0
:10077000011070471020704770B504468569006805
:10078000C10601D5302600E02026C00707D070BD85
:10079000D4E9012130469047206A401C20626D1E3A
:1007A000F6D570BD70B5044685690078C00707D1DD
:1007B00070BDD4E9012120209047206A401C2062AE
:1007C0006D1EF6D570BD09684A0501D540B2704767
:1007D000C905FCD500B2704709684A0501D5C0B209
:1007E0007047C905FCD580B2704770B50C46054608
:1007F000012A05D02878800600D5EA69002302E0A6
:10080000012305E05B1C934202D2E05C0028F9D191
:10081000A869E618C01AA861286A18442862284600
:10082000FFF7AAFF04E0D5E9012114F8010B904776
:10083000B442F8D32846FFF7B5FF70BD2DE9F04765
:100840000D4699469246044600F124080168880640
:1008500004D5E06921F01001216000E00120A842E8
:1008600001DD471B00E00027A1697A1902EB0900AE
:10087000081AA0612078C00602D42046FFF77CFF4A
:10088000002608E0D4E901211AF806009047206A02
:10089000401C761C20624E45F4DB2078C0060AD549
:1008A0002046FFF769FF06E0D4E901213020904798
:1008B000206A401C2062381EA7F10107F4DC07E023
:1008C000D4E9012118F805009047206A401C2062F5
:1008D000281EA5F10105F3DC2046FFF763FF207811
:1008E000000602D50220BDE8F0870120FBE7116871
:1008F0000268006A530501D508700AE0D30501D5E6
:10090000088006E0130603D5C217C1E9000200E023
:10091000086001207047000001694A1C02610878E4
:10092000704700B58FB0CDE901310021059105492F
:100930007944CDE9031011466846FFF783FD0FB0F7
:1009400000BD0000E5FFFFFF0A6802F8010B0A6026
:100950007047D1E900239A4202D2531C0B601070F9
:10096000704700002DE9FF5F15468A460446DFF810
:10097000AC80F8440027D8E900103E46CDE90010CD
:1009800010E03AF816106A4602A800F05CFC411C20
:1009900007D02178890603D5E269391891420DD82C
:1009A0000744761C2078800602D5E069B84205DD50
:1009B000AE42E6DB3AF816000028E2D1A069C01B7F
:1009C000A0612046FFF7D8FED8E90010CDE900105D
:1009D000002017E03AF818106A4602A800F033FC2D
:1009E000B0F1FF3F81460BD000250DF1080B05E06B
:1009F000D4E901211BF8050090476D1C4D45F7D344
:100A000008F10100B0428046E4DB206A38442062ED
:100A10002046FFF7C7FEBDE8FF9F0000123600002A
:100A20002DE9F0418046D21D22F007020025D2E9CF
:100A30000002F52915A614D0011E72F1000106DA94
:100A40000023D0EB030063EB020211A608E0D8F804
:100A500000108B0701D50FA602E0490701D50EA6AD
:100A600001251146002408F1240704E000F01EF9D6
:100A700030323A55641C50EA0102F7D12B46324617
:100A800021464046BDE8F041FFF7D8BE0000000017
:100A90002D0000002B0000002000000030B40021D9
:100AA00000F1240408E002F00705D208303542EADC
:100AB0004372DB086554491C52EA0305F3D104680C
:100AC000002310A2250708D504F020040C4304D00D
:100AD000C46901230CA2641EC46130BCFFF7AEBE22
:100AE00010B5044621461068FFF776FE0246204600
:100AF000BDE810400023D1E7D21D22F00701D1E963
:100B00000023CBE70000000030000000F0B40D46E9
:100B10000188090502D5214C7C4402E01F4C7C442D
:100B20000E34002100F1240608E002F00F0712093C
:100B3000E75D42EA03721B097754491C52EA030736
:100B4000F3D102780023120704D5702D06D009B125
:100B5000022311342246F0BCFFF770BE012310348B
:100B6000F8E770B504460D4621461068FFF734FEDD
:100B7000024629462046BDE870400023C6E7D21D44
:100B800022F00703D3E90023C0E70368126843F0AB
:100B9000200303600823C3610023B7E77434000017
:100BA0002DE9F04791460F4680460446002614F88A
:100BB000015B2DB100F058F80068405DC007F6D128
:100BC0002B2D02D02D2D18D0641E4A4639462046C2
:100BD00000F0EAFA27B13968A14201D1C7F80080D4
:100BE0004FF0020471050BD54042002803DDFFF7EA
:100BF00071FD0460A007BDE8F08746F48066E4E775
:100C00000028F8DAFFF766FD04606FF00040F2E7B5
:100C10004FF0000200B5134694469646203922BF95
:100C2000A0E80C50A0E80C50B1F12001BFF4F7AFE0
:100C3000090728BFA0E80C5048BF0CC05DF804EBC2
:100C4000890028BF40F8042B08BF704748BF20F830
:100C5000022B11F0804F18BF00F8012B70470000E5
:100C600000487047A400002010B500F039FB001DBB
:100C700010BD00BF91280000034640688C46002844
:100C800018BF88423CBF03464068F8D31868184430
:100C9000884207D00CF1030020F00700001D411A24
:100CA000521A0146081D0A60FFF739BB30B5B0F192
:100CB0000A024FEA900E71F100034EEA817EB0EB1A
:100CC0000E0061EB91014FEA101E4EEA017E10EB1F
:100CD0000E0041EB11114FEA102E4EEA016E10EB9F
:100CE0000E0041EB11214FEA104E4EEA014E10EB7F
:100CF0000E0041EB1141401841F100014FEAD000D4
:100D000040EA41704FEAD10110EB80054FEA8104BF
:100D100044EA907444EB01046D1944EB0404521B43
:100D2000A3414FF0000348BF0A3200D530BD401C3C
:100D300041F1000130BD70472DE9FF4F0C461E46C2
:100D40004FF0FF378BB0D2E90001DDF860800A90E8
:100D50008A46C1F30A5505B93D46002108464FF0C1
:100D60000000BAF1000F00F4400005DA00EB80004B
:100D70004FF4400101EA50004FEA9059B9F1010FD8
:100D800000DDB9460A9850EA4A000ED044F61050E9
:100D9000A5F2FF3545432F14B8F1000F1ED0754260
:100DA000291E1EDDC9F100021CE0B8F1010F4FF051
:100DB000000001D0302103E0F24305E02154401C43
:100DC000B042FBDB30460022002121540B99C1F8D0
:100DD0000880C1E900200FB0BDE8F08FBD1B6D1C7D
:100DE000DEE74A4600DA694206A800F0CBFA06AB15
:100DF00093E8070003AB83E8070050460A9900F028
:100E0000CCFB8DE80700A0F500501F380090039838
:100E1000002D09DD42F21F014A46084403A9039050
:100E2000684600F02BFE08E0A0F500504A461F3847
:100E300003A90390684600F035FE8DE80700000422
:100E4000000C03D04FF0FF30410800E01046B8F12D
:100E5000000F03D00022009215461EE0751E05D437
:100E6000FFF724FF303262556D1EF9D5B3460122DB
:100E7000084302D000227F1C04E02078302801D1F2
:100E800000227F1E002A099786D01DE0112D07DA67
:100E9000FFF70CFF303262556D1C50EA0102F5D1AC
:100EA000084302D00098C8B10EE00021681E05E09A
:100EB000235C625C63542254401E491C8142F7DB70
:100EC000AB46A81B401E0990002004F80B000B98AD
:100ED000099AC0F80880C0E9002B7CE711264FF082
:100EE000000859E72DE9F04F88460446D21D22F04C
:100EF000070191B0D1E90001CDE90A0102F0A6FA9B
:100F000002460B98C00F01D02D2007E02068810712
:100F100001D52B2002E0202101EAC000032A09901C
:100F200001D0072A05DB03464146204600F0DCF9E4
:100F30000BE12078800601D5E06900E00620B8F1D9
:100F4000650F814606D0B8F1660F18D0B8F1670F6B
:100F500070D131E00020B9F1110F009001DB1123B5
:100F600001E009F101030AAA01A90CA8FFF7E4FEB8
:100F7000DDE90C70002609F10105834647E00120F8
:100F80004B4600904FF000470AAA01A90CA8FFF7B2
:100F9000D3FEDDE90DB00C995D46002610B909F1CC
:100FA00001000D18B9EB050003D4C0F1FF3609F1BB
:100FB0000105A5EB09002BE0B9F1010F01DA4FF0B3
:100FC00001090020B9F1110F0090484601DD1123FD
:100FD00000E003460AAA01A90CA8FFF7ADFEDDE96F
:100FE0000C704D4600268346207800070AD4AB4596
:100FF00000DA5D4601A8012D04DD411911F8011C3C
:10100000302907D04F4502DA17F1040F04DA012026
:1010100082460FE06D1EEEE7002F02DCED1B3E4422
:1010200003E0781CA84200DD7D1CB81B00F1010A1A
:101030004FF000472078000703D4AA4501DB4FF0AA
:10104000FF3A0021B7F1004F0DF143088DF843102E
:1010500024D002202B23002F01DA7F422D230A21E6
:10106000021EA0F1010000DC5FB197FBF1FC97FBD1
:10107000F1F201FB1C7C17460CF1300C08F801CD95
:10108000EEE7A8F1010003702188090501D545218B
:1010900000E06521A0F1010800F8011C09980FA9E2
:1010A000A1EB0807FF1D00B10120411901EBEA7017
:1010B000A1693844081A401EA0612078C00602D4F5
:1010C0002046FFF759FB099828B1D4E90121904740
:1010D000206A401C20622078C00622D52046FFF7F7
:1010E0004BFB1EE0002E04DBB34502DD01A8805D52
:1010F00000E03020D4E901219047206A401C2062A2
:10110000761CAAF101005FEA000A0AD100F0E8F8B3
:10111000C0680168405CD4E901219047206A401C06
:101120002062281EA5F10105DCDC07E0D4E90121DD
:1011300018F8010B9047206A401C2062381EA7F166
:101140000107F3DC2046FFF72DFB032011B043E637
:1011500010B5436913B1AFF3008001E0FFF745FB21
:10116000012010BD127800F124010A7000224A709B
:101170000122EDE711684FF0FF32E9E710B543694E
:1011800013B1AFF3008001E0FFF7ECFB012010BDCD
:10119000128800F1240182840022C2840122EDE73A
:1011A00011684FF0FF32E9E72DE9F05F82461546FE
:1011B0008B4600270AF10104B9460078302801D097
:1011C0009DB113E014F8010B0127782803D05828AB
:1011D00001D045B10AE00DB1102D07D1002714F858
:1011E000010B102502E0082500E00A250026B04684
:1011F0000EE005FB080005FB06F101271FFA80F849
:1012000001EB1046B6F5803F00D3B94614F8010B48
:10121000294600F0A9F80028EBDABBF1000F05D051
:101220000FB1641E00E05446CBF80040B9F1000F46
:1012300006D0FFF74FFA02210160C81EBDE8F09FFB
:1012400048EA0640FAE770B516460C460546FFF731
:101250000BFD036893F80101012806D0FF2C0FD87D
:10126000185D68B101202C7070BDD3F807013246BB
:10127000214603F2071303442846BDE8704018478F
:101280004FF0FF3070BD10B500F0F8F8BDE8104029
:1012900000F0EFB870477546FFF7E2FCAE46050078
:1012A0006946534620F00700854618B020B5FEF782
:1012B000F5FFBDE820404FF000064FF000074FF06B
:1012C00000084FF0000B21F00701AC46ACE8C00964
:1012D000ACE8C009ACE8C009ACE8C0098D4670476D
:1012E00000487047C40000202DE9F0411F46044625
:1012F00003260168072A01F4006004DB08B116A583
:1013000005E016A503E008B115A500E015A521F03C
:1013100010002060A069C01EA0610FB1401EA06136
:101320002046FFF729FA4FB1D4E90121384690470A
:10133000206A401C2062C01C206206E0206AFAE796
:10134000D4E9012115F8010B9047761EF8D220460A
:10135000FFF728FABDE8F0814E414E006E616E0045
:10136000494E4600696E66003A2800D2303820F0B7
:101370002002412A01D3A2F13700884201D34FF065
:10138000FF3070472DE9F047814616468AB0334852
:1013900078440DC88DE80D0030487844801C03ACBB
:1013A0000DC884E80D0041F69B300844372190FBBE
:1013B000F1F290FBF1F5A5F1800501FB12041B3C55
:1013C00002D56442012000E00020DFF890A08046B2
:1013D0000027FA44AAF1BE0A0DE0E00709D0324620
:1013E000684607EB47010AEB810100F05BFB8DE8E3
:1013F000070064107F1C002CEFD1184F7F44AC3FD6
:1014000018E0E80714D007EB04100DF1180A90E873
:101410000E008AE80E00C068F04201D198190890C9
:10142000324606A903A800F03DFB03AB83E80700A2
:101430006D10641C002DE4D132466946B8F1000FEE
:1014400003A802D000F01AFB01E000F02BFBC9E971
:101450000001C9F808200AB0BDE8F087A02C000000
:1014600010B50446AFF300802046BDE81040FEF7FB
:1014700000BF002801D000F029B8704710B501283E
:1014800005D0002103A000F027F8012010BD09A11C
:10149000F8E7000053494752544D454D3A204F75E7
:1014A00074206F662068656170206D656D6F72795C
:1014B000000000003A2048656170206D656D6F7214
:1014C0007920636F72727570746564000149182029
:1014D000ABBEFEE72600020070B505460C460A20AA
:1014E00000E06D1C00F052F835B128780028F8D1E2
:1014F00002E0641C00F04AF814B120780028F8D10A
:10150000BDE870400A2000F041B800004FF0013CF7
:1015100050F8042B51F8043B9A4221D1A2EB0C0362
:10152000934313EACC1317D150F8042B51F8043B22
:101530009A4215D1A2EB0C03934313EACC130BD1BF
:1015400050F8042B51F8043B9A4209D1A2EB0C034A
:10155000934313EACC13DBD04FF00000704700BF79
:10156000D01A01BAB1FA81F101F0180122FA01F0A2
:10157000CB40C1F12001DBB2C0B2C01A2CFA01F39A
:10158000D11A914311EAC311E6D1704708B56946F3
:101590008DF800000320ABBE08BD5FEA400C08BF19
:1015A00091F0000F4FEA8C234FEAC12243EA5151D8
:1015B0004FEA1C5018BF00F5F0404FEA300018BF4A
:1015C00041F000415FEA6C5C00F02980BCF1FF3F14
:1015D00008BF40F080407047130C06BF12044FF064
:1015E000100C4FF0000C130E04BF12020CF1080C8B
:1015F000130F04BF12010CF1040C930F04BF9200EF
:101600000CF1020CD30F04BF52000CF1010C114677
:101610004FF00002A0F11F00A0EB0C00704711F08A
:10162000004F08BF704731F000413FF4D5AF0B0CBD
:1016300006BF09044FF0100C4FF0000C0B0E04BF56
:1016400009020CF1080C0B0F04BF09010CF1040C8A
:101650008B0F04BF89000CF1020CCB0F04BF4900B3
:101660000CF1010CCCF12003A0EB0C0022FA03F3E7
:1016700002FA0CF241EA030100F10100704720F088
:101680007F4C80EA030023F07F47ACEB070303F5B0
:101690007C5300F0004003F1FF032DE980494FEA3D
:1016A000154B09B44FEA144325EA0B4E24EA0348CC
:1016B0000FF2042606EB132749083E785FEA320250
:1016C00003FB0667C7F5000707FB06F64FEA54372A
:1016D0004FEAD64606F1020607FB066CCCF1005C29
:1016E0004FEA1C472CEA074C07FB06F40CFB06F5F7
:1016F00004EB15464FEA961634BF00204FF0004029
:101700004FEAD13706FB07FC4FEA1C4C0CFB0BF7EA
:10171000D21B03FB0CF761EB07010CFB0EF7B0EBE0
:10172000074072EB17420CFB08F734BFA2EB0742ED
:10173000B2EB074261EB17414FEA0C444FEA9107C5
:1017400006FB07FC4FEA1C4C0CFB0BF7B0EBC74049
:1017500072EB573203FB0CF734BFA2EBC742B2EB7C
:10176000C74261EB57310CFB0EF7B0EBC70072EBD1
:1017700057720CFB08F734BFA2EBC702B2EBC702EB
:1017800061EB5771039F4FEA816141EA921104EBCB
:10179000CC044FEAD1374FEA826206FB07FC42EAEB
:1017A00090124FEA80604FEA1C4C0CFB0BF7D21BE7
:1017B00003FB0CF761EB07010CFB0EF7B0EB0740E6
:1017C00072EB17420CFB08F734BFA2EB0742B2EBF7
:1017D000074261EB17414FEA8C554FEA910704EB42
:1017E0009C2406FB07FC4FEA1C4C0CFB0BF7B0EBF0
:1017F000C74072EB573203FB0CF734BFA2EBC74272
:10180000B2EBC74261EB57310CFB0EF7B0EBC700F0
:1018100072EB57720CFB08F734BFA2EBC702B2EBB6
:10182000C70261EB577115EB4C254FEA816141EA24
:1018300092114FEA82624FEAD13742EA901206FBD8
:1018400007FC44F100044FEA80604FEA1C4C0CFB9B
:101850000BF7D21B03FB0CF761EB07010CFB0EF738
:10186000B0EB074072EB17420CFB08F734BFA2EB5A
:101870000742B2EB074261EB174115EB1C154FEA2B
:10188000813141EA92414FEA823242EA90424FEA84
:1018900080304FEA0C7644F1000448EA03434EEAF4
:1018A0000B484FF0000EB2EB080C71EB030724BF9E
:1018B000624639464EEB0E0E4FF0000B00185241B7
:1018C00049414BEB0B0BB2EB080C71EB03077BF1BF
:1018D000000B24BF624639464EEB0E0E4FF0000B54
:1018E0000018524149414BEB0B0BB2EB080C71EB6A
:1018F00003077BF1000B24BF624639464EEB0E0E08
:1019000051EA020718BF46F0010616EB0E7655F1B4
:10191000000254F1000103D5BDE88901BDE800884B
:10192000BDE88901BDE80048B619524141EB01010B
:10193000A3F10103704780807F7E7D7C7B7A79787C
:10194000777676757473727171706F6E6E6D6C6C84
:101950006B6A6A6968686766666564646363626126
:101960006160605F5F5E5E5D5D5C5C5B5B5A5A59A7
:101970005958585757565655555554545353525213
:101980005251515050504F4F4F4E4E4D4D4D4C4C6B
:101990004C4B4B4B4A4A4A494949484848474747B4
:1019A00047464646454545444444444343434342F1
:1019B000424242414141002B26D4770021D01CB540
:1019C0004FEA370703B44FF010004FF010014FF00B
:1019D00000000FBCBDE810400BF1010BBBF1010F83
:1019E00008BF5FEA170722BF12F1010211F10101DE
:1019F0004FF0004143F1000300F0004043EA0000D3
:101A00007047F9D35708DAE746EA064613F1400F64
:101A10004FEA16461FDD13F1200FDFBF16430A46BB
:101A2000002120335B42C8D0C3F1200746EA0646B6
:101A300002FA07F74FEA164646EA0706C3F12007FF
:101A400022FA03F201FA07F721FA03F14FF000033B
:101A500042EA0702B1E746EA020646EA06464FEACC
:101A6000164646EA0106BCBF46EA0646360C4FF06B
:101A700000034FF000024FF000019EE72DE9C0483F
:101A8000934630B491E8380007C831EA400C48BFAB
:101A900034EA430C03D5FFF7F2FDFFF78CFFF0BCEF
:101AA000BDE800882DE9C048934630B491E838007D
:101AB00007C810F0804F08BF13F0804F03D100F02B
:101AC00005F8FFF778FFF0BCBDE8008820F07F47FD
:101AD00080EA030023F07F4C07EB0C03A3F57C5353
:101AE00000F00040A3F1FE0392F0000F00F0B3807D
:101AF00095F0000F00F077802DE901494FEA114081
:101B00004FEA144621EA004800FB06FC24EA064797
:101B100008FB06F607FB08F800FB07F718EB06487A
:101B20004CEB164C4FEA124B18EB07484FEA1546A0
:101B30004CEB174022EA0B4E0BFB06FC25EA06474E
:101B40000EFB06F607FB0EFE0BFB07F71EEB064E21
:101B50004CEB164C4FF000061EEB074E4CEB174BB0
:101B600018EB0B0840F1000018EB0E0B58EB0008C7
:101B700040F100008F1A4FF000013CBFC943661BC3
:101B800014BFB5EB040C00213CBFC943F61B4FEA60
:101B900017444EEA8E0E27EA04454FEA1C4704FB21
:101BA00007622CEA074C05FB07F70CFB05F604FB64
:101BB0000CFC16EB074642EB174216EB0C4642EBC9
:101BC0001C421BEB060658EB0202414146EA9E0608
:101BD00001D5BDE80189B619524141EB0101A3F1DC
:101BE0000103BDE801894FEA14454FEA114724EA91
:101BF000054621EA074C05FB07F406FB07F70CFB3B
:101C000006F105FB0CFC11EB074144EB17444FEACE
:101C1000124711EB0C4144EB1C4422EA074C05FB34
:101C200007F206FB07F70CFB06F605FB0CFC16EBB0
:101C3000074642EB174216EB0C4642EB1C456A186E
:101C400054F1000148BF7047B619524141EB010100
:101C5000A3F10103704795F0000F37D04FEA11420E
:101C60004FEA144721EA024624EA074C02FB07F137
:101C700006FB07F70CFB06F402FB0CFC14EB074415
:101C800041EB17414FEA154714EB0C4441EB1C4163
:101C900025EA074C02FB07F506FB07F70CFB06F6E7
:101CA00002FB0CFC16EB074645EB174516EB0C4602
:101CB00045EB1C42121951F1000148BF7047B6199B
:101CC000524141EB0101A3F1010370474FEA144572
:101CD0004FEA114724EA054621EA074C05FB07F1C4
:101CE00006FB07F70CFB06F24FF0000605FB0CFCA9
:101CF00012EB074241EB174112EB0C4251EB1C4136
:101D000048BF7047921841EB0101A3F101037047EE
:101D100008B50121082001F033F80121084601F03F
:101D20002FF80121094800F01FFC10208DF8030056
:101D30000820ADF8000003208DF802006946044831
:101D400000F087FB002000F005F808BD000230001D
:101D5000000C014010B5044622460821024800F05C
:101D60004BFC0248047010BD000C0140180000201C
:101D700002A1114801F016FB00BFFEE70D0A2A2A56
:101D80002A2A2A2A2A2A2A2A2A2A2A2A2A2A2A2AB3
:101D90002A4275734661756C745F48616E646C6548
:101DA000722A2A2A2A2A2A2A2A2A2A2A2A2A2A2A4B
:101DB0002A2A2A2A0D0A0000003801407047000034
:101DC000002100B9704720F07F400E4A128842433C
:101DD0004FF0E0235A6100229A6101221A6100BF8C
:101DE0004FF0E022116901F001021AB101F48032D2
:101DF000002AF5D000224FF0E0231A619A6100BF5B
:101E0000E0E70000160000204FF0E020006920F01D
:101E100004004FF0E02108610920074908700846D6
:101E2000007800EB4001C1EBC0104FF6FF7101EAF2
:101E3000C0000249088070471400002016000020EE
:101E400010B50446207B012802D12068FEF767FA0E
:101E5000002020606060A060207310BD70B5044653
:101E60000E460025206898B9012020733046FEF701
:101E700027FA20602068E0B100206060A66003E0DF
:101E80000020216848556D1CA068A842F8D810E0D1
:101E90000220207303E00020216848556D1CA068D3
:101EA000A842F8D800206060A068B04201D20020AB
:101EB000206070BD2DE9F0478046894617461C46D4
:101EC0004046FEF7BEFBC5B24846FEF7BAFBC6B2B7
:101ED00038212046FFF7C2FF206810B90120BDE875
:101EE000F0871020216808706068401C606005F170
:101EF0000D003044216848706068401C606000201C
:101F00002168887003202168C8706068801C606048
:101F10002168081D032221A1FEF76FFB6068C01C29
:101F2000606001202168C8716068401C60604020CA
:101F3000216808726068401C6060380A2168487235
:101F400021688F726068801C606000202168C87200
:101F500021680D736068801C6060216801F10D00CC
:101F60002A464146FEF749FB60682844606000212C
:101F700005F10D0022681154401C22681654606857
:101F8000801C606021680F31481932464946FEF7CF
:101F900034FB6068304460600020A0E74544500096
:101FA0002DE9F84F81460D4617461E460A9C002033
:101FB00000904846FEF745FB00F0FF08022E03D1D3
:101FC00017B90120BDE8F88F022E08D13846FEF778
:101FD00038FB824651462046FFF740FF04E005F1FA
:101FE00018012046FFF73AFF206808B90220E9E708
:101FF00080216268501C606020688154B9F1000F34
:102000003ED0022E06D13846FEF71BFB0C3028448A
:10201000009003E005F1080040440090A1888AB2D6
:102020002068009901F0FBF9616808446060C021F4
:102030006268501C60602068815400216268501CF6
:102040006060206881546168481C6060206800F806
:102050000180D4E90012881842464946FEF7CDFABD
:1020600060684044606055216268501C6060206870
:102070008154AA216268501C60602068815425E068
:10208000022E06D13846FEF7DCFA0A3028440090CA
:1020900001E0A81D0090A1888AB22068009901F093
:1020A000BEF961680844606040216268501C60604D
:1020B0002068815455216268501C606020688154FA
:1020C000AA216268501C6060206881546168481CC5
:1020D000606020684654022E3AD13846FEF7B1FAC5
:1020E00000F0FF0A4FF0000B00216268501C606096
:1020F000206881546168481C6060206800F801A075
:102100000AE017F80B106268501C60602068815468
:102110000BF1010000F0FF0BD345F2DB290E6268E2
:10212000501C606020688154C5F307416268501CF0
:10213000606020688154C5F307216268501C6060AC
:10214000206881546268501C6060206885540BE0F0
:10215000C5F307216268501C606020688154626882
:10216000501C60602068855400202BE70146C87829
:10217000704701460878704710B580210348FEF784
:102180007FFA00200249088010BD000024000020D2
:102190001E00002070B50546002400BF00F03EF987
:1021A00080B90DA10E48FEF73AFA044654B13A211F
:1021B0002046FEF718FA044614B1641C204670BD90
:1021C0000020FCE70520FFF7FBFD281EA5F101011B
:1021D0008DB2E3D100BFF2E74950442C000000006B
:1021E0002400002008B50121042000F0C9FD1020C2
:1021F0008DF803000120ADF8000003208DF80200E7
:1022000069462B4800F025F900220121284800F0FA
:10221000F3F9FA20FFF7D4FD01221146244800F01B
:10222000EBF94FF4FA70FFF7CBFDFFF7A5FF21A103
:10223000224801F0B7F803E04FF4FA70FFF7C0FD51
:102240001FA120A000F09CF80028F5D11FA11B4879
:1022500001F0A8F803E04FF4FA70FFF7B1FD18A100
:102260001DA000F08DF80028F5D11FA1134801F042
:1022700099F803E04FF4FA70FFF7A2FD1DA11FA02B
:1022800000F07EF80028F5D127A10C4801F08AF86B
:1022900003E04FF4FA70FFF793FD27A128A000F0A8
:1022A0006FF80028F5D130A1044801F07BF808BD93
:1022B00000080140312E2041540D0A000038014031
:1022C0004F4B000041540D0A00000000322E204305
:1022D000574D4F44450D0A0041542B43574D4F4431
:1022E000453D310D0A000000332E2043574A41502E
:1022F0000D0A0000474F54204950000041542B4321
:10230000574A41503D224F4E454E4554222C2249BA
:102310004F54404368696E616D6F62696C6531321C
:1023200033220D0A00000000342E2043495053543C
:102330004152540D0A000000434F4E4E4543540095
:1023400041542B43495053544152543D225443501D
:10235000222C223138332E3233302E34302E333982
:10236000222C3837360D0A00352E2045535038328E
:10237000363620496E6974204F4B0D0A000000006C
:102380002DE9F04104460D46C8262046FEF759F9CE
:1023900087B23A4621460D4801F028F80FE000F0D8
:1023A0003DF848B929460A48FEF739F920B1FFF748
:1023B000E3FE0020BDE8F0810A20FFF701FD301E9A
:1023C000A6F10101CEB2EAD10120F3E700440040BA
:1023D0002400002030B589B004460D46FFF7CCFE3E
:1023E0002A4608A101A8FDF7DBFF0AA101A8FFF713
:1023F000C7FF20B92A462146074800F0F7FF09B079
:1024000030BD000041542B43495053454E443D25B7
:10241000640D0A003E000000004400400A480088A5
:1024200008B901207047084800880849098888428F
:1024300003D1002004490880F4E7034800880349D9
:1024400008800120EEE700001E0000202000002090
:1024500070472DE9F04102460025002600200023A8
:102460000024002791F803C00CF00F0591F803C079
:102470000CF0100CBCF1000F03D091F802C04CEA34
:10248000050591F800C0BCF1000F31D014680020A0
:102490002BE04FF0010C0CFA00F3B1F800C00CEA8D
:1024A00003069E4220D183004FF00F0C0CFA03F775
:1024B000BC4305FA03FC4CEA040491F803C0BCF1E8
:1024C000280F06D14FF0010C0CFA00FCC2F814C022
:1024D0000AE091F803C0BCF1480F05D14FF0010CA0
:1024E0000CFA00FCC2F810C0401C0828D1D31460BC
:1024F000B1F800C0BCF1FF0F34DD546800202EE0BD
:1025000000F1080C4FF0010808FA0CF3B1F800C014
:102510000CEA03069E4221D183004FF00F0C0CFA07
:1025200003F7BC4305FA03FC4CEA040491F803C02A
:10253000BCF1280F05D100F1080C08FA0CF8C2F81C
:10254000148091F803C0BCF1480F07D100F1080CCA
:102550004FF0010808FA0CF8C2F81080401C082857
:10256000CED35460BDE8F081F0B50A4600230024C4
:102570000021002500F00046B6F1004F02D11D4EAB
:10258000F16901E01B4E7168C0F3034583B200F4AA
:102590004016B6F5401F08D121F07061154E7668DF
:1025A00026F07066134F7E6012E000F48016B6F5D8
:1025B000801F06D1032606FA05F4A14341F070619D
:1025C00006E0460D360103FA06F6B14341F07061AC
:1025D00022B1460D360103FA06F6314300F00046FB
:1025E000B6F1004F02D1034EF16101E0014E71607E
:1025F000F0BD0000000001400AB1016100E041614E
:102600007047000002A1114800F0CCFE00BFFEE7B9
:102610000D0A2A2A2A2A2A2A2A2A2A2A2A2A2A2A57
:102620002A2A2A2A2A486172644661756C745F48B6
:10263000616E646C65722A2A2A2A2A2A2A2A2A2A80
:102640002A2A2A2A2A2A2A2A2A0D0A000038014080
:1026500010B54FF4A06000F00BF9FFF7D5FB4FF475
:10266000E13000F0F1FD4FF4E13000F045FE00F004
:1026700073F8FFF74DFB02A1064800F093FE10BD72
:1026800020486172647761726520696E6974204FB9
:102690004B0D0A000038014010B50446012C01D052
:1026A000012000E00020024680210548FFF7A4FF3A
:1026B0000CB1012000E000200249087010BD0000AC
:1026C000001001401900002010B50446012C01D073
:1026D000012000E0002002464FF480710448FFF71B
:1026E0008BFF0CB1012000E000200249487010BDB2
:1026F000001001401900002010B50446012C01D043
:10270000012000E0002002464FF480510448FFF70A
:1027100073FF0CB1012000E000200249887010BD59
:10272000000801401900002010B50446012C01D01A
:10273000012000E0002002464FF480610448FFF7CA
:102740005BFF0CB1012000E000200249C87010BD01
:10275000001001401900002008B50121142000F0EC
:102760000FFB10208DF803004FF4B060ADF80000AF
:1027700003208DF8020069460B48FFF76AFE4FF40C
:102780008050ADF8000069460848FFF762FE00205F
:10279000FFF782FF0020FFF797FF0020FFF7ACFF55
:1027A0000020FFF7C1FF08BD0010014000080140F4
:1027B00002A1114800F0F6FD00BFFEE70D0A2A2A2B
:1027C0002A2A2A2A2A2A2A2A2A2A2A2A2A2A2A2A69
:1027D0002A4D656D4D616E6167655F48616E646C21
:1027E00065722A2A2A2A2A2A2A2A2A2A2A2A2A2AC6
:1027F0002A2A2A2A2A0D0A000038014070470000C0
:1028000070B5002100230F22C47804B3154C24684E
:1028100004F4E064C4F5E064210AC1F10403CA4091
:10282000447804FA03F184781440214309010E4CE2
:102830000678A155047804F01F050124AC40057802
:102840006D11AD0005F1E025C5F8004109E00478FF
:1028500004F01F050124AC40044D0678761145F8BC
:10286000264070BD0CED00E000E400E080E100E0F7
:1028700002490143024A1160704700000000FA0556
:102880000CED00E07FB500200090019002900390D5
:10289000012538A33FA241A14B4800F083FD6B46C0
:1028A0002A0234A13BA0FFF705FB002858D1019A6A
:1028B00091B20098FFF78EFDFA20FFF76BFC0446FB
:1028C000002C49D02046FFF754FC202844D1204654
:1028D000FFF74CFC0A2839D2DFE800F0050B101591
:1028E0001A1F24292E3339A1374800F05BFD00253B
:1028F00031E03BA1344800F055FD2CE03FA13248C7
:1029000000F050FD27E046A12F4800F04BFD22E0EB
:102910004BA12D4800F046FD1DE052A12A4800F0D1
:1029200041FD18E056A1284800F03CFD13E05CA1F1
:10293000254800F037FD0EE061A1234800F032FD8C
:1029400009E068A1204800F02DFD04E06FA11E48B9
:1029500000F028FD00BF00BF6846FFF771FA03E0F2
:1029600071A1194800F01EFD15B1012004B070BD21
:102970000020FBE769555A714B573678496A704712
:102980006E67676742483D36365643477A71673D02
:102990000000000036353830323436004F6E654E58
:1029A00065745F4465764C696E6B0D0A4445564903
:1029B000443A2025732C20202020204150494B45AB
:1029C000593A2025730D0A0000380140546970738C
:1029D0003A09C1ACBDD3B3C9B9A60D0A00000000C5
:1029E0005741524E3A09C1ACBDD3CAA7B0DCA3BA15
:1029F000D0ADD2E9B4EDCEF30D0A00005741524EEE
:102A00003A09C1ACBDD3CAA7B0DCA3BAC9E8B1B812
:102A10004944BCF8C8A8CAA7B0DC0D0A00000000F1
:102A20005741524E3A09C1ACBDD3CAA7B0DCA3BAD4
:102A3000B7FECEF1C6F7CAA7B0DC0D0A0000000051
:102A40005741524E3A09C1ACBDD3CAA7B0DCA3BAB4
:102A5000D3C3BBA74944BCF8C8A8CAA7B0DC0D0AB9
:102A6000000000005741524E3A09C1ACBDD3CAA77D
:102A7000B0DCA3BACEB4CADAC8A80D0A00000000C0
:102A80005741524E3A09C1ACBDD3CAA7B0DCA3BA74
:102A9000CADAC8A8C2EBCEDED0A70D0A000000003B
:102AA0005741524E3A09C1ACBDD3CAA7B0DCA3BA54
:102AB000BCA4BBEEC2EBCEB4B7D6C5E40D0A000091
:102AC0005741524E3A09C1ACBDD3CAA7B0DCA3BA34
:102AD000B8C3C9E8B1B8D2D1B1BBBCA4BBEE0D0A32
:102AE000000000005741524E3A09C1ACBDD3CAA7FD
:102AF000B0DCA3BAD6D8B8B4B7A2CBCDC1ACBDD3E5
:102B0000C7EBC7F3B0FC0D0A000000004552523A73
:102B100009C1ACBDD3CAA7B0DCA3BACEB4D6AAB49F
:102B2000EDCEF30D0A0000005741524E3A094544DC
:102B3000505F5061636B6574436F6E6E65637420A4
:102B40004661696C65640D0A000000002DE9F047DC
:102B500088B00546002004900590069007908046B6
:102B6000814600260027002482462846FFF701FB05
:102B70000646902E15D1E87855280DD12879AA2837
:102B80000AD1687908B122A000E022A0024622A161
:102B9000254800F007FC03E024A1234800F002FCD4
:102BA00002E04FF0FF3700BF00BFFFF7E5FA781CE7
:102BB00010B908B0BDE8F0877D214846FDF713FD48
:102BC000044694B1641C06E014F8012B50460AF147
:102BD000010A01A90A542078302802DB207839281C
:102BE000F2DD01A8FDF7F2FC8246A02E0ED16FB9EE
:102BF0004046FDF794FB4846FDF791FB059A91B2DC
:102C00000498FFF7E7FB04A8FFF71AF900BFD0E725
:102C1000457272004F6B0000546970733A09536536
:102C20006E642025730D0A000038014054697073EA
:102C30003A094D6573736167652049442045727296
:102C40000D0A000010B540F617220249002000F0DE
:102C500003F810BD60350008F0B589B007460D4691
:102C600014460020059006900790089023A30FCBF0
:102C700001AE0FC62E4605A8022301AA21460090E8
:102C80003846FFF78DF9002831D1FFF775FA1FA1FB
:102C90002248069A00F086FB069A91B20598FFF743
:102CA00099FB05A8FFF7CCF822461DA11B4800F0B0
:102CB00079FB15E04FF49670FFF782F8B4F5806F5A
:102CC00009D34FF480613046FFF784FB06F5806638
:102CD000A4F5806404E0A1B23046FFF77BFB00243A
:102CE000002CE7D113A10D4800F05CFB03E015A117
:102CF0000A4800F057FB09B0F0BD00007B22647366
:102D00005F6964223A22706963227D0053656E64B4
:102D10002025642042797465730D0A000038014053
:102D2000696D616765206C656E203D2025640D0A24
:102D300000000000696D6167652073656E64206F37
:102D40006B0D0A004544505F5061636B65745361BD
:102D5000766544617461204661696C65640D0A00A2
:102D600029B1064AD2690243044BDA6104E0034AFE
:102D7000D2698243014BDA617047000000100240C3
:102D800029B1064A92690243044B9A6104E0034A5E
:102D900092698243014B9A61704700000010024023
:102DA00030B500210022002400232D4D6D6805F070
:102DB0000C0121B1042905D0082923D105E0294DB2
:102DC000056022E0284D05601FE0254D6D6805F483
:102DD0007012234D6D6805F48034022505EB924294
:102DE0001CB9224D554305600BE01D4D6D6805F47F
:102DF00000351DB11E4D5543056002E01A4D554387
:102E0000056002E0174D056000BF00BF144D6D68FE
:102E100005F0F0010909174D6B5C0568DD40456060
:102E20000F4D6D6805F4E061090A124D6B5C456851
:102E3000DD4085600A4D6D6805F46051C90A0D4D8D
:102E40006B5C4568DD40C560054D6D6805F440412B
:102E5000890B094D6B5CC568B5FBF3F5056130BDA9
:102E60000010024000127A00001BB70000093D006C
:102E7000808D5B000000002010000020704770472C
:102E800010B500F001F810BD0CB5002001900090C5
:102E90003348006840F480303149086000BF304852
:102EA000006800F4003000900198401C01900098E8
:102EB00018B90198B0F5A06FF1D12948006800F465
:102EC000003010B10120009001E000200090009837
:102ED000012843D12348006840F0100021490860D0
:102EE0000846006820F0030008600846006840F0CB
:102EF000020008601A48406819494860084640685E
:102F000048600846406840F4806048600846406871
:102F100020F47C1048600846406840F488104860FF
:102F20000846006840F08070086000BF0C480068E8
:102F300000F000700028F9D00948406820F0030034
:102F4000074948600846406840F00200486000BFFA
:102F50000348406800F00C000828F9D10CBD0000BF
:102F600000100240002002407047000010B51348D6
:102F7000006840F0010011490860084640681049A7
:102F800008400E494860084600680E4908400B4951
:102F900008600846006820F4802008600846406801
:102FA00020F4FE0048604FF41F008860FFF768FFC0
:102FB0004FF000600449086010BD0000001002409E
:102FC0000000FFF8FFFFF6FE08ED00E010B540F24C
:102FD0002551044800F050F818B12021014800F0B4
:102FE00029F810BD0038014010B540F225510E48B7
:102FF00000F042F8B0B10D480088802802D30020CC
:103000000A4908800848001D0088C1B207480288A4
:103010000088401C054B1880054881542021024837
:1030200000F008F810BD0000004400401E00002021
:103030002400002001F40072B2F5007F00D100BF2F
:10304000CA430280704721B1828942F400528281D2
:1030500004E082894DF6FF731A4082817047024670
:103060000020B1F5007F00D100BF13880B400BB1E9
:10307000012000E00020704770B5024600240023C4
:103080000025002040F66A16B14200D100BFC1F30E
:10309000421501F01F03012606FA03F3012D02D1A8
:1030A0009689334006E0022D02D1168A334001E0B2
:1030B000968A33400C12012606FA04F4168834402E
:1030C00013B10CB1012000E0002070BDF0B5034643
:1030D000002400260025002040F66A17B94200D1DE
:1030E00000BF1846C1F3421401F01F06012707FA7A
:1030F00006F5012C01D10C3004E0022C01D1103076
:1031000000E014301AB107682F43076002E0076837
:10311000AF430760F0BD00002DE9F04786B00546DB
:103120000E460024A24600BFA1460027B08900B188
:1031300000BF2F462C8A4CF6FF700440F0880443F1
:103140002C82AC894EF6F3100440B08831890843D4
:10315000718908430443AC81AC8A4FF6FF400440B8
:10316000B0890443AC8201A8FFF71AFE1F488742CA
:1031700002D1DDF810A001E0DDF80CA0A88900F470
:10318000004040B10AEBCA0000EB0A103168490068
:10319000B0FBF1F807E00AEBCA0000EB0A10316857
:1031A0008900B0FBF1F86420B8FBF0F004012009BD
:1031B000642101FB1089A88900F4004040B132204D
:1031C00000EBC900B0FBF1F000F00700044308E099
:1031D000322000EB09106421B0FBF1F000F00F0089
:1031E00004432C8106B0BDE8F087000000380140A0
:1031F000C1F308028280704702A1124800F0D2F8A1
:1032000000BFFEE70D0A2A2A2A2A2A2A2A2A2A2A5F
:103210002A2A2A2A2A2A2A2A2A5573616765466198
:10322000756C745F48616E646C65722A2A2A2A2A5A
:103230002A2A2A2A2A2A2A2A2A2A2A2A2A2A0D0A2B
:10324000000000000038014010B586B0044601219E
:103250000420FFF795FD01218803FFF791FD182059
:103260008DF817004FF40070ADF8140003208DF8AE
:10327000160005A91E48FFF7ECF804208DF817008A
:103280000002ADF8140003208DF8160005A91848B7
:10329000FFF7DFF801940020ADF810000C20ADF826
:1032A0000E000020ADF80C00ADF80A00ADF80800E3
:1032B00001A91048FFF730FF01210E48FFF7C3FEB8
:1032C000012240F225510B48FFF700FF25208DF821
:1032D000000001208DF8030000208DF8010002207D
:1032E0008DF802006846FFF78BFA06B010BD0000AB
:1032F000000801400038014010B586B004460121A5
:103300000420FFF73DFD01214804FFF729FD1820A7
:103310008DF817000420ADF8140003208DF8160076
:1033200005A91E48FFF795F804208DF8170008201E
:10333000ADF8140003208DF8160005A91748FFF713
:1033400088F801940020ADF810000C20ADF80E00B4
:103350000020ADF80C00ADF80A00ADF8080001A996
:103360000F48FFF7D9FE01210D48FFF76CFE01223F
:1033700040F225510A48FFF7A9FE26208DF80000EB
:1033800001208DF8030000208DF801008DF8020067
:103390006846FFF735FA06B010BD0000000801408E
:1033A000004400400FB430B5CBB0054601AC50A886
:1033B00000904FF4947101A8009B4F9AFCF7D6FF40
:1033C000002000900BE014F8011B2846FFF710FFC7
:1033D00000BF40212846FFF742FE0028F9D02078A0
:1033E0000028F0D14BB030BC5DF814FB2DE9F04162
:1033F00007460C46154600260DE014F8011B38461A
:10340000FFF7F6FE00BF40213846FFF728FE0028F0
:10341000F9D0701C86B2AE42EFDBBDE8F08170B52A
:1034200003460024002500BF01F07F05C90909B14A
:1034300045F080051046561CB2B21D54641C09B1FB
:10344000052CF1DB501E80B2024670BD490050EAE7
:10345000C12018BF04204A0D18BF40F0010040F2FF
:10346000FF72B2EB515F08BF40F00200012808BFB5
:103470000520704730380A2801D20120704700200B
:103480007047000000250024FFF7E2F8FEF7AAFECF
:1034900003E04FF4FA70FEF793FCFFF7F3F900280E
:1034A000F7D10120FEF756FCFA20FEF789FC002038
:1034B000FEF750FC19E0681C80B20546B0F57A7F33
:1034C00008DB0AA10E48FFF76DFFFFF7BBFB0025E5
:1034D000FEF752FE0020FEF75DFE044614B12046C2
:1034E000FFF734FB0A20FEF76BFCE4E74F6E654EF6
:1034F00065745F53656E64446174610D0A00000079
:103500000038014010B500290AD00878002807D0FB
:1035100005487844FDF7FAFF002801D0002010BDCF
:103520000248784410BD00005A0B0000520B000006
:1035300010B500290AD00878002807D0054878443B
:10354000FDF7E4FF002801D0002010BD02487844B8
:1035500010BD00003E0C0000360C0000FDF7C2BCA0
:10356000FFD8FFE000104A46494600010101006013
:1035700000600000FFDB00430008060607060508A0
:103580000707070909080A0C140D0C0B0B0C19127C
:10359000130F141D1A1F1E1D1A1C1C20242E272059
:1035A000222C231C1C2837292C30313434341F277B
:1035B000393D38323C2E333432FFDB0043010909F8
:1035C000090C0B0C180D0D1832211C21323232322D
:1035D00032323232323232323232323232323232CB
:1035E00032323232323232323232323232323232BB
:1035F0003232323232323232323232323232FFC24E
:10360000001108003000880301220002110103119B
:1036100001FFC4001A0000030101010100000000C5
:1036200000000000000000040503020601FFC400C2
:10363000180100030101000000000000000000006C
:1036400000000001020304FFDA000C030100021075
:103650000310000001F7E10EA2E1E3DED72F44736F
:10366000CE1BE84872E1B25E42B24CC82C13721D08
:10367000725F4148409AEE05859E0AEDDAB88F33B5
:103680009D4DAFCFEAFB7A4F97D2B695123AAEA8CE
:10369000E6E57327382161C9B8E3C468E40F45C281
:1036A0007E678A7477E7C19D8E6EA87A582E23FDB7
:1036B000AE27019AC35E7F4B802285D13407C9AF04
:1036C000FFC40022100002020203000203010000F6
:1036D000000000000002030104001211131405236E
:1036E00022303340FFDA0008010100010502FF002B
:1036F000159B9306C529528B1A444C14198AC597F9
:1037000097063616CC8B25836D993687D0378392F2
:10371000B39ECC1B5CD6EE762DE44FB1FCCA46803E
:1037200026B42627ECCAC7A1DC892ACE36767E537A
:10373000615C86248978EE21C31CB263EB222F0BD7
:1037400037F296BB55FEF6B989831C8196CFA58FBB
:10375000B01024EC68419E74162D00A935ECCF27DB
:1037600011E7490A6A88679A3AF51C5275690C187C
:10377000989258C5DBB19BE55AA3581BB751754ABF
:1037800048D833D8611B133E3CA0A47B0FB00CBAC1
:1037900064CC70F9901D744808BF0860C67E35334C
:1037A0008A42D03FB7FFC4001E110003000203008D
:1037B00003000000000000000000000102031112DD
:1037C0001321315161FFDA0008010301013F01BB00
:1037D00050B6C59FDD3362C92DEB676C9DB1F6769F
:1037E000C9D924D2AF82D72AF3E46A31AE24CEE518
:1037F000C8B1BDBF49C5498F13D9D343C4E8C49AE2
:103800005E971C85869BF45292D2381C1FD9D7FA3A
:1038100075FE8E3625A3FFC4001F110002010500AE
:10382000030100000000000000000000010203117D
:1038300012132104106131FFDA0008010201013F77
:10384000018C1C9D90E8F2EBD384976C6B91AE4693
:10385000B91AD8D58D9A9652EC4A73F23C99EC4E2F
:10386000D1467DCADD3356FC1D442A8AC2A91154B3
:1038700048A8EEC84F11D58A5C1C9B7766665F0C22
:10388000CCFE0A761BB9FFC400321000010303020C
:103890000403040B000000000000000100021103FB
:1038A00012213151132232410410612342719114CB
:1038B000243040435272A1B1D1E1FFDA0008010186
:1038C00000063F02FB9706873543FB2FAD567BAAC8
:1038D0006CDECA5B50D5A5DE7A9AA4642B9C602A64
:1038E000763DA413CC88A6E0E74689C5ECB5ADC605
:1038F000B394DBA9759C4390A720648329D703AEBA
:10390000202658CB83C48CC2639D01AE13AE4235D2
:103910006013B043929E74E75C3735A3138328B4D9
:103920003AD27BECB86CE6F10EEFB2E3789E679D7D
:103930001AAE0DE1B868F0AC381B6C7FA4E0D1255D
:10394000509F0F1CDBEA8BEAD22C670F29EF8B39D3
:10395000B0753F041C1AD7179C67990F6589749737
:10396000774DC47BF1B01A2F0C21A790F526458521
:10397000B81EA9C5D64188B554398FC2F8A67E6E47
:1039800019BBE329AE1F357F0EE2DDF56A356A9873
:1039900060429F861ECDBACA963A6DC7F9E54DD7EB
:1039A0000163A7C9D6D4B6E74E8AED5DDDC531F314
:1039B000D328C557027A8EE87283020140975F6E62
:1039C00007A27530F369381B2B60611A8EA97988BC
:1039D000D1169D0AEBB5DEED4EC7D0A8AA5ADA7B08
:1039E000CE17D17C18FD4F5032E3A94FB7AA3080D3
:1039F000A5874B671EAB598BB31E88DCE71C34CA06
:103A00007976B90B8466291F9ECBA8CDD0591D9518
:103A1000A1D70B332344434DA0B9D954675B8689A2
:103A2000823DBDD9DD56868191FC795AE1217554DC
:103A3000036950C6C7DB7FFFC400251000020202E5
:103A40000104020203000000000000000111002137
:103A500031615110417181A1B14091C1E1F0FFDAB2
:103A60000008010100013F21FC25AF09886423B84B
:103A7000A8D1C03DBB1064E08182214841C930100B
:103A80009297021F0A192040792C9878087030907C
:103A900085B1E20C92BB6AA2C6EE963B42B5889015
:103AA000F62010A9C90F421060539B0CD383FB84EE
:103AB00086C78EDDB1017CC324D814B18036D7E12E
:103AC00039E4897FB895B816BC1D42944C37F5B6D9
:103AD00087A2E143CC3C843150BD90106410B37791
:103AE000A88AAE80A31843897ED572EA00B7B9AC24
:103AF000B50D9C7E9C823F8DC343107312981B476B
:103B0000DCC321DCC3DEDC6D6BDC5D4B59ADC14336
:103B100002286DC1D1860E36B278F133C384980382
:103B200048ED1446E050606C45ADBA7CA88350A3C4
:103B3000455F68439C6CDD5430B1F64CC0DF918921
:103B4000E8395C96B0DAAEA1AA014AB97B84430198
:103B5000892FC44A47240710FAC5829EA081604479
:103B600041E6580F83FCDC5E2FB2010585A07D93F2
:103B7000EC80E792B4E600F3281614CC40733105CC
:103B80006A61169A540089CFA86E2279AE22090B79
:103B9000F2FE10196C9E00738A0A0090C962A59803
:103BA00009CABEDDA1184373B20185838F2B7A50F9
:103BB000C34004152742C00B9061EF41AFD4A8E782
:103BC00073DCF55145145D145D174FFFDA000C03EB
:103BD000010002000300000010CF4FF1FF00BCB055
:103BE000CEF11345F27BAB1B097A1491081F7FFFBE
:103BF000C4002311010002010206030100000000BD
:103C00000000000001001121316141517191A1F0CA
:103C100081C1F1D1FFDA0008010301013F10F58BEA
:103C20000DA35F229D4FD880B5C45805CE1DF86204
:103C30004D3B222D2FB8FECBAAB8E74805C5E0A81A
:103C400068EDC6B7F7A05A5DF77796A38703B4531C
:103C50003C472CE3A41158AE9EF8F98168597B7259
:103C60003DEF1B68E25780FA896718EB9CFEF6E58A
:103C700029715ACC2459A2F56EDAE460A9A6F26D36
:103C80006B4D26A1A2920871020A8B5770CD13FFCB
:103C9000C40023110100020103040203000000001C
:103CA00000000000010011312141615171A1F0813A
:103CB00091B1C1D1FFDA0008010201013F10922A3F
:103CC000B37F147C3015ADE096538BC9072C20C50B
:103CD00087BE932DC774C152599AD93AF53F0F1137
:103CE000A6DA5E1EFC42E55064E7DDFF0071201B92
:103CF0001EBD63C6F5BEFEF98902D69CF3295BB3EF
:103D00007E5FEC074D75EDD3DFB83792C538823250
:103D1000AC15477756E64333997DE573958C4A6A2F
:103D200044DC50AA972D9FFFC4002310010100011D
:103D30000500020203010000000000000111002143
:103D400031415161718191A11040B1E1FFDA000868
:103D5000010100013F10FE8D0C394CAD617476FFFE
:103D6000009828374D5F92FF00CCF8B93D76303B84
:103D7000224289DE4B7AF08BA65D0000EDEE7DE2FB
:103D800063D144B3D7D98EBE3B7A0801ADB961196E
:103D900058D3CEA69CE2A424352814755663084A4D
:103DA0000F18ABCD8ED894DA22EDD44C3B52C1FB28
:103DB0001E8C4EEE094C9C5402EE3AE2197A4ED912
:103DC000B869AE14E3B52505A68E17494217D26F20
:103DD0002E8BC5C8E203AE878C37D474743DD6EF02
:103DE000F989C4E4D04FED5B6687FBAD1CBF42A7E9
:103DF000BA6278AA1D581CA3013BDD69A6DF79567B
:103E00008BC48877E5E611C261DBC407BA9CF0DC9D
:103E10007CEDB5B9A06826EED8A6D91A4BA91AB080
:103E2000DB37F535DB55D2D599B5117AAB5B37C9A0
:103E30000AA8A8DA9F52FC65D49050246ADCBBA281
:103E40002D813F86EDF2E340D867E43FBFD4C395B0
:103E5000D5BB0B6FC778C70A10948FBD77D1C9A0A7
:103E600014E10E0E8CFDC9B0E7C746F8FBB3B19C58
:103E7000F95D47898189621218D243768E12D66C19
:103E8000AE737A40408410BB3A6F837E4D5FBB8F28
:103E9000AC0923293A5BE2F516B256E15340369855
:103EA000E672DADC3CC350B4D86914375CAEB9367C
:103EB000483886BE0BC669E01830D7C21C65C8A852
:103EC000804415ECD0D7061B8AE4CD3294DBC3F7CF
:103ED00038C2CBAC711DE8D727BB61EFDDBC1EFE3D
:103EE0003361A8A72F3A30A0AF906864F70CD48450
:103EF000398D46F7BCA18359A03837AF1BE226A6FF
:103F000084350590D070CC6F1D786E040EC5D3CC6F
:103F1000DC709DDC7EF137E303DD0E221952F036B2
:103F2000F330C6786C123674BA376B8D5C58021257
:103F30002ABD7D98DDA1DD531A9E669B3B3B877DA4
:103F40007C9E6D9166A030910F2FF07AD60E8E2F49
:103F500088B609FCAC90C9E9F23CFF0031D191D69A
:103F60004759124C8EB216F3905D0D721221321920
:103F700016CD7BC933FFD904000008000000000003
:103F8000000002000100001000000000000000001E
:103F9000303132333435363738394142434445467F
:103FA0004030580030313233343536373839616279
:103FB000636465664030780002400000000000A0A5
:103FC0000000000005400000000000C800000000E4
:103FD0000C4000000000409C000000001940000060
:103FE0000020BCBE0000000034400000BFC91B8E92
:103FF00000000004B5400000504BCFD06607E2CF70
:10400000010000006C4100003E8251AADFEEA7349F
:1040100001000000D9420000DCB5A0E23A301F9751
:10402000FFFFFFFFB4450000FD25A0C8E9A3C14F75
:10403000FFFFFFFFFF3F00000000008000000000C6
:10404000FF3F0000000000800000000098410008D1
:1040500000000020240000006C010008BC410008A2
:1040600024000020E408000088010008100100007E
:1040700043000000F8FFFFFF004040404040404048
:10408000404041414141414040404040404040402B
:1040900040404040404040404005020202020202CF
:1040A000020202020202020202202020202020201E
:1040B0002020200202020202020290909090909032
:1040C00010101010101010101010101010101010F0
:1040D0001010101002020202020288888888888864
:1040E0000808080808080808080808080808080850
:1040F0000808080802020202400000000000000058
:1041000000000000000000000000000000000000AF
:10411000000000000000000000000000000000009F
:10412000000000000000000000000000000000008F
:10413000000000000000000000000000000000007F
:10414000000000000000000000000000000000006F
:10415000000000000000000000000000000000005F
:10416000000000000000000000000000000000004F
:104170000000000000000000000000001C00000023
:1041800043000000F8FFFFFF0C0000000E000000DD
:104190000F0000002E0000000000000001020304D8
:1041A00001020304060708090204060800000000D3
:0C41B00000000000000000000000000003
:0400000508000131BD
:00000001FF
